{
	"contracts/PVCContest.sol": {
		"PVCContest3": {
			"abi": [
				{
					"inputs": [
						{
							"internalType": "address",
							"name": "_token",
							"type": "address"
						},
						{
							"internalType": "uint256",
							"name": "_fundAmount",
							"type": "uint256"
						},
						{
							"internalType": "uint32",
							"name": "_epsBps",
							"type": "uint32"
						}
					],
					"stateMutability": "nonpayable",
					"type": "constructor"
				},
				{
					"anonymous": false,
					"inputs": [
						{
							"indexed": false,
							"internalType": "bytes32",
							"name": "proofHash",
							"type": "bytes32"
						},
						{
							"indexed": false,
							"internalType": "uint256",
							"name": "sumWeights",
							"type": "uint256"
						}
					],
					"name": "Aggregated",
					"type": "event"
				},
				{
					"anonymous": false,
					"inputs": [
						{
							"indexed": true,
							"internalType": "address",
							"name": "user",
							"type": "address"
						},
						{
							"indexed": false,
							"internalType": "uint256",
							"name": "amount",
							"type": "uint256"
						}
					],
					"name": "Paid",
					"type": "event"
				},
				{
					"anonymous": false,
					"inputs": [
						{
							"indexed": true,
							"internalType": "uint256",
							"name": "id",
							"type": "uint256"
						},
						{
							"indexed": true,
							"internalType": "address",
							"name": "user",
							"type": "address"
						},
						{
							"indexed": false,
							"internalType": "uint32",
							"name": "errorBps",
							"type": "uint32"
						},
						{
							"indexed": false,
							"internalType": "uint256",
							"name": "Cx",
							"type": "uint256"
						},
						{
							"indexed": false,
							"internalType": "uint256",
							"name": "Cy",
							"type": "uint256"
						}
					],
					"name": "Submitted",
					"type": "event"
				},
				{
					"inputs": [],
					"name": "WEIGHT_BASE",
					"outputs": [
						{
							"internalType": "uint256",
							"name": "",
							"type": "uint256"
						}
					],
					"stateMutability": "view",
					"type": "function"
				},
				{
					"inputs": [],
					"name": "epsBps",
					"outputs": [
						{
							"internalType": "uint32",
							"name": "",
							"type": "uint32"
						}
					],
					"stateMutability": "view",
					"type": "function"
				},
				{
					"inputs": [],
					"name": "finalized",
					"outputs": [
						{
							"internalType": "bool",
							"name": "",
							"type": "bool"
						}
					],
					"stateMutability": "view",
					"type": "function"
				},
				{
					"inputs": [
						{
							"internalType": "uint256",
							"name": "id",
							"type": "uint256"
						}
					],
					"name": "getSubmission",
					"outputs": [
						{
							"internalType": "address",
							"name": "submitter",
							"type": "address"
						},
						{
							"internalType": "int256[3]",
							"name": "w",
							"type": "int256[3]"
						},
						{
							"internalType": "uint256",
							"name": "r",
							"type": "uint256"
						},
						{
							"internalType": "uint32",
							"name": "errorBps",
							"type": "uint32"
						},
						{
							"internalType": "uint256",
							"name": "Cx",
							"type": "uint256"
						},
						{
							"internalType": "uint256",
							"name": "Cy",
							"type": "uint256"
						},
						{
							"internalType": "string",
							"name": "uri",
							"type": "string"
						}
					],
					"stateMutability": "view",
					"type": "function"
				},
				{
					"inputs": [
						{
							"internalType": "uint256",
							"name": "k",
							"type": "uint256"
						}
					],
					"name": "getTop",
					"outputs": [
						{
							"internalType": "uint256[]",
							"name": "ids",
							"type": "uint256[]"
						}
					],
					"stateMutability": "view",
					"type": "function"
				},
				{
					"inputs": [],
					"name": "organizer",
					"outputs": [
						{
							"internalType": "address",
							"name": "",
							"type": "address"
						}
					],
					"stateMutability": "view",
					"type": "function"
				},
				{
					"inputs": [],
					"name": "poolAmount",
					"outputs": [
						{
							"internalType": "uint256",
							"name": "",
							"type": "uint256"
						}
					],
					"stateMutability": "view",
					"type": "function"
				},
				{
					"inputs": [],
					"name": "submissionCount",
					"outputs": [
						{
							"internalType": "uint256",
							"name": "",
							"type": "uint256"
						}
					],
					"stateMutability": "view",
					"type": "function"
				},
				{
					"inputs": [
						{
							"internalType": "uint256",
							"name": "",
							"type": "uint256"
						}
					],
					"name": "submissions",
					"outputs": [
						{
							"internalType": "address",
							"name": "submitter",
							"type": "address"
						},
						{
							"internalType": "uint256",
							"name": "r",
							"type": "uint256"
						},
						{
							"internalType": "uint32",
							"name": "errorBps",
							"type": "uint32"
						},
						{
							"components": [
								{
									"internalType": "uint256",
									"name": "x",
									"type": "uint256"
								},
								{
									"internalType": "uint256",
									"name": "y",
									"type": "uint256"
								}
							],
							"internalType": "struct BN254.G1Point",
							"name": "C",
							"type": "tuple"
						},
						{
							"internalType": "string",
							"name": "uri",
							"type": "string"
						},
						{
							"internalType": "bool",
							"name": "exists",
							"type": "bool"
						}
					],
					"stateMutability": "view",
					"type": "function"
				},
				{
					"inputs": [
						{
							"internalType": "int256[3]",
							"name": "w",
							"type": "int256[3]"
						},
						{
							"internalType": "uint256",
							"name": "r",
							"type": "uint256"
						},
						{
							"internalType": "uint32",
							"name": "errorBps",
							"type": "uint32"
						},
						{
							"internalType": "string",
							"name": "uri",
							"type": "string"
						}
					],
					"name": "submit",
					"outputs": [
						{
							"internalType": "uint256",
							"name": "id",
							"type": "uint256"
						}
					],
					"stateMutability": "nonpayable",
					"type": "function"
				},
				{
					"inputs": [],
					"name": "token",
					"outputs": [
						{
							"internalType": "contract IERC20",
							"name": "",
							"type": "address"
						}
					],
					"stateMutability": "view",
					"type": "function"
				},
				{
					"inputs": [],
					"name": "totalSubmissions",
					"outputs": [
						{
							"internalType": "uint256",
							"name": "",
							"type": "uint256"
						}
					],
					"stateMutability": "view",
					"type": "function"
				},
				{
					"inputs": [
						{
							"internalType": "int256[3]",
							"name": "Wsum",
							"type": "int256[3]"
						},
						{
							"internalType": "uint256",
							"name": "Rsum",
							"type": "uint256"
						},
						{
							"internalType": "string",
							"name": "aggregatedModelUri",
							"type": "string"
						}
					],
					"name": "verifyAggregationAndPayout",
					"outputs": [],
					"stateMutability": "nonpayable",
					"type": "function"
				},
				{
					"inputs": [
						{
							"internalType": "uint32",
							"name": "errorBps",
							"type": "uint32"
						}
					],
					"name": "weightNumerator",
					"outputs": [
						{
							"internalType": "uint256",
							"name": "",
							"type": "uint256"
						}
					],
					"stateMutability": "pure",
					"type": "function"
				},
				{
					"inputs": [
						{
							"internalType": "uint32",
							"name": "errorBps_",
							"type": "uint32"
						}
					],
					"name": "weightNumeratorFor",
					"outputs": [
						{
							"internalType": "uint256",
							"name": "",
							"type": "uint256"
						}
					],
					"stateMutability": "view",
					"type": "function"
				}
			],
			"devdoc": {
				"kind": "dev",
				"methods": {},
				"version": 1
			},
			"evm": {
				"assembly": "    /* \"contracts/PVCContest.sol\":453:7720  contract PVCContest3 {... */\n  mstore(0x40, 0x0100)\n    /* \"contracts/PVCContest.sol\":1518:2052  constructor(... */\n  callvalue\n  dup1\n  iszero\n  tag_1\n  jumpi\n  revert(0x00, 0x00)\ntag_1:\n  pop\n  mload(0x40)\n  sub(codesize, bytecodeSize)\n  dup1\n  bytecodeSize\n  dup4\n  codecopy\n  dup2\n  dup2\n  add\n  0x40\n  mstore\n  dup2\n  add\n  swap1\n  tag_2\n  swap2\n  swap1\n  tag_3\n  jump\t// in\ntag_2:\n    /* \"contracts/PVCContest.sol\":1649:1650  0 */\n  0x00\n    /* \"contracts/PVCContest.sol\":1631:1651  _token != address(0) */\n  0xffffffffffffffffffffffffffffffffffffffff\n  and\n    /* \"contracts/PVCContest.sol\":1631:1637  _token */\n  dup4\n    /* \"contracts/PVCContest.sol\":1631:1651  _token != address(0) */\n  0xffffffffffffffffffffffffffffffffffffffff\n  and\n  sub\n    /* \"contracts/PVCContest.sol\":1623:1665  require(_token != address(0), \"bad token\") */\n  tag_6\n  jumpi\n  mload(0x40)\n  0x08c379a000000000000000000000000000000000000000000000000000000000\n  dup2\n  mstore\n  0x04\n  add\n  tag_7\n  swap1\n  tag_8\n  jump\t// in\ntag_7:\n  mload(0x40)\n  dup1\n  swap2\n  sub\n  swap1\n  revert\ntag_6:\n    /* \"contracts/PVCContest.sol\":1690:1696  _token */\n  dup3\n    /* \"contracts/PVCContest.sol\":1675:1697  token = IERC20(_token) */\n  0xffffffffffffffffffffffffffffffffffffffff\n  and\n  0x80\n  dup2\n  0xffffffffffffffffffffffffffffffffffffffff\n  and\n  dup2\n  mstore\n  pop\n  pop\n    /* \"contracts/PVCContest.sol\":1719:1729  msg.sender */\n  caller\n    /* \"contracts/PVCContest.sol\":1707:1729  organizer = msg.sender */\n  0xffffffffffffffffffffffffffffffffffffffff\n  and\n  0xa0\n  dup2\n  0xffffffffffffffffffffffffffffffffffffffff\n  and\n  dup2\n  mstore\n  pop\n  pop\n    /* \"contracts/PVCContest.sol\":1748:1755  _epsBps */\n  dup1\n    /* \"contracts/PVCContest.sol\":1739:1755  epsBps = _epsBps */\n  0xffffffff\n  and\n  0xe0\n  dup2\n  0xffffffff\n  and\n  dup2\n  mstore\n  pop\n  pop\n    /* \"contracts/PVCContest.sol\":1861:1872  _fundAmount */\n  dup2\n    /* \"contracts/PVCContest.sol\":1816:1821  token */\n  mload(0x80)\n    /* \"contracts/PVCContest.sol\":1816:1831  token.allowance */\n  0xffffffffffffffffffffffffffffffffffffffff\n  and\n  0xdd62ed3e\n    /* \"contracts/PVCContest.sol\":1832:1841  organizer */\n  mload(0xa0)\n    /* \"contracts/PVCContest.sol\":1851:1855  this */\n  address\n    /* \"contracts/PVCContest.sol\":1816:1857  token.allowance(organizer, address(this)) */\n  mload(0x40)\n  dup4\n  0xffffffff\n  and\n  0xe0\n  shl\n  dup2\n  mstore\n  0x04\n  add\n  tag_9\n  swap3\n  swap2\n  swap1\n  tag_10\n  jump\t// in\ntag_9:\n  0x20\n  mload(0x40)\n  dup1\n  dup4\n  sub\n  dup2\n  dup7\n  gas\n  staticcall\n  iszero\n  dup1\n  iszero\n  tag_12\n  jumpi\n  returndatacopy(0x00, 0x00, returndatasize)\n  revert(0x00, returndatasize)\ntag_12:\n  pop\n  pop\n  pop\n  pop\n  mload(0x40)\n  returndatasize\n  not(0x1f)\n  0x1f\n  dup3\n  add\n  and\n  dup3\n  add\n  dup1\n  0x40\n  mstore\n  pop\n  dup2\n  add\n  swap1\n  tag_13\n  swap2\n  swap1\n  tag_14\n  jump\t// in\ntag_13:\n    /* \"contracts/PVCContest.sol\":1816:1872  token.allowance(organizer, address(this)) >= _fundAmount */\n  lt\n  iszero\n    /* \"contracts/PVCContest.sol\":1808:1890  require(token.allowance(organizer, address(this)) >= _fundAmount, \"approve first\") */\n  tag_15\n  jumpi\n  mload(0x40)\n  0x08c379a000000000000000000000000000000000000000000000000000000000\n  dup2\n  mstore\n  0x04\n  add\n  tag_16\n  swap1\n  tag_17\n  jump\t// in\ntag_16:\n  mload(0x40)\n  dup1\n  swap2\n  sub\n  swap1\n  revert\ntag_15:\n    /* \"contracts/PVCContest.sol\":1900:1907  bool ok */\n  0x00\n    /* \"contracts/PVCContest.sol\":1910:1915  token */\n  mload(0x80)\n    /* \"contracts/PVCContest.sol\":1910:1928  token.transferFrom */\n  0xffffffffffffffffffffffffffffffffffffffff\n  and\n  0x23b872dd\n    /* \"contracts/PVCContest.sol\":1929:1938  organizer */\n  mload(0xa0)\n    /* \"contracts/PVCContest.sol\":1948:1952  this */\n  address\n    /* \"contracts/PVCContest.sol\":1955:1966  _fundAmount */\n  dup7\n    /* \"contracts/PVCContest.sol\":1910:1967  token.transferFrom(organizer, address(this), _fundAmount) */\n  mload(0x40)\n  dup5\n  0xffffffff\n  and\n  0xe0\n  shl\n  dup2\n  mstore\n  0x04\n  add\n  tag_18\n  swap4\n  swap3\n  swap2\n  swap1\n  tag_19\n  jump\t// in\ntag_18:\n  0x20\n  mload(0x40)\n  dup1\n  dup4\n  sub\n  dup2\n  0x00\n  dup8\n  gas\n  call\n  iszero\n  dup1\n  iszero\n  tag_21\n  jumpi\n  returndatacopy(0x00, 0x00, returndatasize)\n  revert(0x00, returndatasize)\ntag_21:\n  pop\n  pop\n  pop\n  pop\n  mload(0x40)\n  returndatasize\n  not(0x1f)\n  0x1f\n  dup3\n  add\n  and\n  dup3\n  add\n  dup1\n  0x40\n  mstore\n  pop\n  dup2\n  add\n  swap1\n  tag_22\n  swap2\n  swap1\n  tag_23\n  jump\t// in\ntag_22:\n    /* \"contracts/PVCContest.sol\":1900:1967  bool ok = token.transferFrom(organizer, address(this), _fundAmount) */\n  swap1\n  pop\n    /* \"contracts/PVCContest.sol\":1985:1987  ok */\n  dup1\n    /* \"contracts/PVCContest.sol\":1977:2011  require(ok, \"transferFrom failed\") */\n  tag_24\n  jumpi\n  mload(0x40)\n  0x08c379a000000000000000000000000000000000000000000000000000000000\n  dup2\n  mstore\n  0x04\n  add\n  tag_25\n  swap1\n  tag_26\n  jump\t// in\ntag_25:\n  mload(0x40)\n  dup1\n  swap2\n  sub\n  swap1\n  revert\ntag_24:\n    /* \"contracts/PVCContest.sol\":2034:2045  _fundAmount */\n  dup3\n    /* \"contracts/PVCContest.sol\":2021:2045  poolAmount = _fundAmount */\n  0xc0\n  dup2\n  dup2\n  mstore\n  pop\n  pop\n    /* \"contracts/PVCContest.sol\":1613:2052  {... */\n  pop\n    /* \"contracts/PVCContest.sol\":1518:2052  constructor(... */\n  pop\n  pop\n  pop\n    /* \"contracts/PVCContest.sol\":453:7720  contract PVCContest3 {... */\n  jump(tag_27)\n    /* \"#utility.yul\":88:205   */\ntag_29:\n    /* \"#utility.yul\":197:198   */\n  0x00\n    /* \"#utility.yul\":194:195   */\n  0x00\n    /* \"#utility.yul\":187:199   */\n  revert\n    /* \"#utility.yul\":334:460   */\ntag_31:\n    /* \"#utility.yul\":371:378   */\n  0x00\n    /* \"#utility.yul\":411:453   */\n  0xffffffffffffffffffffffffffffffffffffffff\n    /* \"#utility.yul\":404:409   */\n  dup3\n    /* \"#utility.yul\":400:454   */\n  and\n    /* \"#utility.yul\":389:454   */\n  swap1\n  pop\n    /* \"#utility.yul\":334:460   */\n  swap2\n  swap1\n  pop\n  jump\t// out\n    /* \"#utility.yul\":466:562   */\ntag_32:\n    /* \"#utility.yul\":503:510   */\n  0x00\n    /* \"#utility.yul\":532:556   */\n  tag_59\n    /* \"#utility.yul\":550:555   */\n  dup3\n    /* \"#utility.yul\":532:556   */\n  tag_31\n  jump\t// in\ntag_59:\n    /* \"#utility.yul\":521:556   */\n  swap1\n  pop\n    /* \"#utility.yul\":466:562   */\n  swap2\n  swap1\n  pop\n  jump\t// out\n    /* \"#utility.yul\":568:690   */\ntag_33:\n    /* \"#utility.yul\":641:665   */\n  tag_61\n    /* \"#utility.yul\":659:664   */\n  dup2\n    /* \"#utility.yul\":641:665   */\n  tag_32\n  jump\t// in\ntag_61:\n    /* \"#utility.yul\":634:639   */\n  dup2\n    /* \"#utility.yul\":631:666   */\n  eq\n    /* \"#utility.yul\":621:684   */\n  tag_62\n  jumpi\n    /* \"#utility.yul\":680:681   */\n  0x00\n    /* \"#utility.yul\":677:678   */\n  0x00\n    /* \"#utility.yul\":670:682   */\n  revert\n    /* \"#utility.yul\":621:684   */\ntag_62:\n    /* \"#utility.yul\":568:690   */\n  pop\n  jump\t// out\n    /* \"#utility.yul\":696:839   */\ntag_34:\n    /* \"#utility.yul\":753:758   */\n  0x00\n    /* \"#utility.yul\":784:790   */\n  dup2\n    /* \"#utility.yul\":778:791   */\n  mload\n    /* \"#utility.yul\":769:791   */\n  swap1\n  pop\n    /* \"#utility.yul\":800:833   */\n  tag_64\n    /* \"#utility.yul\":827:832   */\n  dup2\n    /* \"#utility.yul\":800:833   */\n  tag_33\n  jump\t// in\ntag_64:\n    /* \"#utility.yul\":696:839   */\n  swap3\n  swap2\n  pop\n  pop\n  jump\t// out\n    /* \"#utility.yul\":845:922   */\ntag_35:\n    /* \"#utility.yul\":882:889   */\n  0x00\n    /* \"#utility.yul\":911:916   */\n  dup2\n    /* \"#utility.yul\":900:916   */\n  swap1\n  pop\n    /* \"#utility.yul\":845:922   */\n  swap2\n  swap1\n  pop\n  jump\t// out\n    /* \"#utility.yul\":928:1050   */\ntag_36:\n    /* \"#utility.yul\":1001:1025   */\n  tag_67\n    /* \"#utility.yul\":1019:1024   */\n  dup2\n    /* \"#utility.yul\":1001:1025   */\n  tag_35\n  jump\t// in\ntag_67:\n    /* \"#utility.yul\":994:999   */\n  dup2\n    /* \"#utility.yul\":991:1026   */\n  eq\n    /* \"#utility.yul\":981:1044   */\n  tag_68\n  jumpi\n    /* \"#utility.yul\":1040:1041   */\n  0x00\n    /* \"#utility.yul\":1037:1038   */\n  0x00\n    /* \"#utility.yul\":1030:1042   */\n  revert\n    /* \"#utility.yul\":981:1044   */\ntag_68:\n    /* \"#utility.yul\":928:1050   */\n  pop\n  jump\t// out\n    /* \"#utility.yul\":1056:1199   */\ntag_37:\n    /* \"#utility.yul\":1113:1118   */\n  0x00\n    /* \"#utility.yul\":1144:1150   */\n  dup2\n    /* \"#utility.yul\":1138:1151   */\n  mload\n    /* \"#utility.yul\":1129:1151   */\n  swap1\n  pop\n    /* \"#utility.yul\":1160:1193   */\n  tag_70\n    /* \"#utility.yul\":1187:1192   */\n  dup2\n    /* \"#utility.yul\":1160:1193   */\n  tag_36\n  jump\t// in\ntag_70:\n    /* \"#utility.yul\":1056:1199   */\n  swap3\n  swap2\n  pop\n  pop\n  jump\t// out\n    /* \"#utility.yul\":1205:1298   */\ntag_38:\n    /* \"#utility.yul\":1241:1248   */\n  0x00\n    /* \"#utility.yul\":1281:1291   */\n  0xffffffff\n    /* \"#utility.yul\":1274:1279   */\n  dup3\n    /* \"#utility.yul\":1270:1292   */\n  and\n    /* \"#utility.yul\":1259:1292   */\n  swap1\n  pop\n    /* \"#utility.yul\":1205:1298   */\n  swap2\n  swap1\n  pop\n  jump\t// out\n    /* \"#utility.yul\":1304:1424   */\ntag_39:\n    /* \"#utility.yul\":1376:1399   */\n  tag_73\n    /* \"#utility.yul\":1393:1398   */\n  dup2\n    /* \"#utility.yul\":1376:1399   */\n  tag_38\n  jump\t// in\ntag_73:\n    /* \"#utility.yul\":1369:1374   */\n  dup2\n    /* \"#utility.yul\":1366:1400   */\n  eq\n    /* \"#utility.yul\":1356:1418   */\n  tag_74\n  jumpi\n    /* \"#utility.yul\":1414:1415   */\n  0x00\n    /* \"#utility.yul\":1411:1412   */\n  0x00\n    /* \"#utility.yul\":1404:1416   */\n  revert\n    /* \"#utility.yul\":1356:1418   */\ntag_74:\n    /* \"#utility.yul\":1304:1424   */\n  pop\n  jump\t// out\n    /* \"#utility.yul\":1430:1571   */\ntag_40:\n    /* \"#utility.yul\":1486:1491   */\n  0x00\n    /* \"#utility.yul\":1517:1523   */\n  dup2\n    /* \"#utility.yul\":1511:1524   */\n  mload\n    /* \"#utility.yul\":1502:1524   */\n  swap1\n  pop\n    /* \"#utility.yul\":1533:1565   */\n  tag_76\n    /* \"#utility.yul\":1559:1564   */\n  dup2\n    /* \"#utility.yul\":1533:1565   */\n  tag_39\n  jump\t// in\ntag_76:\n    /* \"#utility.yul\":1430:1571   */\n  swap3\n  swap2\n  pop\n  pop\n  jump\t// out\n    /* \"#utility.yul\":1577:2238   */\ntag_3:\n    /* \"#utility.yul\":1664:1670   */\n  0x00\n    /* \"#utility.yul\":1672:1678   */\n  0x00\n    /* \"#utility.yul\":1680:1686   */\n  0x00\n    /* \"#utility.yul\":1729:1731   */\n  0x60\n    /* \"#utility.yul\":1717:1726   */\n  dup5\n    /* \"#utility.yul\":1708:1715   */\n  dup7\n    /* \"#utility.yul\":1704:1727   */\n  sub\n    /* \"#utility.yul\":1700:1732   */\n  slt\n    /* \"#utility.yul\":1697:1816   */\n  iszero\n  tag_78\n  jumpi\n    /* \"#utility.yul\":1735:1814   */\n  tag_79\n  tag_29\n  jump\t// in\ntag_79:\n    /* \"#utility.yul\":1697:1816   */\ntag_78:\n    /* \"#utility.yul\":1855:1856   */\n  0x00\n    /* \"#utility.yul\":1880:1944   */\n  tag_80\n    /* \"#utility.yul\":1936:1943   */\n  dup7\n    /* \"#utility.yul\":1927:1933   */\n  dup3\n    /* \"#utility.yul\":1916:1925   */\n  dup8\n    /* \"#utility.yul\":1912:1934   */\n  add\n    /* \"#utility.yul\":1880:1944   */\n  tag_34\n  jump\t// in\ntag_80:\n    /* \"#utility.yul\":1870:1944   */\n  swap4\n  pop\n    /* \"#utility.yul\":1826:1954   */\n  pop\n    /* \"#utility.yul\":1993:1995   */\n  0x20\n    /* \"#utility.yul\":2019:2083   */\n  tag_81\n    /* \"#utility.yul\":2075:2082   */\n  dup7\n    /* \"#utility.yul\":2066:2072   */\n  dup3\n    /* \"#utility.yul\":2055:2064   */\n  dup8\n    /* \"#utility.yul\":2051:2073   */\n  add\n    /* \"#utility.yul\":2019:2083   */\n  tag_37\n  jump\t// in\ntag_81:\n    /* \"#utility.yul\":2009:2083   */\n  swap3\n  pop\n    /* \"#utility.yul\":1964:2093   */\n  pop\n    /* \"#utility.yul\":2132:2134   */\n  0x40\n    /* \"#utility.yul\":2158:2221   */\n  tag_82\n    /* \"#utility.yul\":2213:2220   */\n  dup7\n    /* \"#utility.yul\":2204:2210   */\n  dup3\n    /* \"#utility.yul\":2193:2202   */\n  dup8\n    /* \"#utility.yul\":2189:2211   */\n  add\n    /* \"#utility.yul\":2158:2221   */\n  tag_40\n  jump\t// in\ntag_82:\n    /* \"#utility.yul\":2148:2221   */\n  swap2\n  pop\n    /* \"#utility.yul\":2103:2231   */\n  pop\n    /* \"#utility.yul\":1577:2238   */\n  swap3\n  pop\n  swap3\n  pop\n  swap3\n  jump\t// out\n    /* \"#utility.yul\":2244:2413   */\ntag_41:\n    /* \"#utility.yul\":2328:2339   */\n  0x00\n    /* \"#utility.yul\":2362:2368   */\n  dup3\n    /* \"#utility.yul\":2357:2360   */\n  dup3\n    /* \"#utility.yul\":2350:2369   */\n  mstore\n    /* \"#utility.yul\":2402:2406   */\n  0x20\n    /* \"#utility.yul\":2397:2400   */\n  dup3\n    /* \"#utility.yul\":2393:2407   */\n  add\n    /* \"#utility.yul\":2378:2407   */\n  swap1\n  pop\n    /* \"#utility.yul\":2244:2413   */\n  swap3\n  swap2\n  pop\n  pop\n  jump\t// out\n    /* \"#utility.yul\":2419:2578   */\ntag_42:\n    /* \"#utility.yul\":2559:2570   */\n  0x62616420746f6b656e0000000000000000000000000000000000000000000000\n    /* \"#utility.yul\":2555:2556   */\n  0x00\n    /* \"#utility.yul\":2547:2553   */\n  dup3\n    /* \"#utility.yul\":2543:2557   */\n  add\n    /* \"#utility.yul\":2536:2571   */\n  mstore\n    /* \"#utility.yul\":2419:2578   */\n  pop\n  jump\t// out\n    /* \"#utility.yul\":2584:2949   */\ntag_43:\n    /* \"#utility.yul\":2726:2729   */\n  0x00\n    /* \"#utility.yul\":2747:2813   */\n  tag_86\n    /* \"#utility.yul\":2811:2812   */\n  0x09\n    /* \"#utility.yul\":2806:2809   */\n  dup4\n    /* \"#utility.yul\":2747:2813   */\n  tag_41\n  jump\t// in\ntag_86:\n    /* \"#utility.yul\":2740:2813   */\n  swap2\n  pop\n    /* \"#utility.yul\":2822:2915   */\n  tag_87\n    /* \"#utility.yul\":2911:2914   */\n  dup3\n    /* \"#utility.yul\":2822:2915   */\n  tag_42\n  jump\t// in\ntag_87:\n    /* \"#utility.yul\":2940:2942   */\n  0x20\n    /* \"#utility.yul\":2935:2938   */\n  dup3\n    /* \"#utility.yul\":2931:2943   */\n  add\n    /* \"#utility.yul\":2924:2943   */\n  swap1\n  pop\n    /* \"#utility.yul\":2584:2949   */\n  swap2\n  swap1\n  pop\n  jump\t// out\n    /* \"#utility.yul\":2955:3374   */\ntag_8:\n    /* \"#utility.yul\":3121:3125   */\n  0x00\n    /* \"#utility.yul\":3159:3161   */\n  0x20\n    /* \"#utility.yul\":3148:3157   */\n  dup3\n    /* \"#utility.yul\":3144:3162   */\n  add\n    /* \"#utility.yul\":3136:3162   */\n  swap1\n  pop\n    /* \"#utility.yul\":3208:3217   */\n  dup2\n    /* \"#utility.yul\":3202:3206   */\n  dup2\n    /* \"#utility.yul\":3198:3218   */\n  sub\n    /* \"#utility.yul\":3194:3195   */\n  0x00\n    /* \"#utility.yul\":3183:3192   */\n  dup4\n    /* \"#utility.yul\":3179:3196   */\n  add\n    /* \"#utility.yul\":3172:3219   */\n  mstore\n    /* \"#utility.yul\":3236:3367   */\n  tag_89\n    /* \"#utility.yul\":3362:3366   */\n  dup2\n    /* \"#utility.yul\":3236:3367   */\n  tag_43\n  jump\t// in\ntag_89:\n    /* \"#utility.yul\":3228:3367   */\n  swap1\n  pop\n    /* \"#utility.yul\":2955:3374   */\n  swap2\n  swap1\n  pop\n  jump\t// out\n    /* \"#utility.yul\":3380:3498   */\ntag_44:\n    /* \"#utility.yul\":3467:3491   */\n  tag_91\n    /* \"#utility.yul\":3485:3490   */\n  dup2\n    /* \"#utility.yul\":3467:3491   */\n  tag_32\n  jump\t// in\ntag_91:\n    /* \"#utility.yul\":3462:3465   */\n  dup3\n    /* \"#utility.yul\":3455:3492   */\n  mstore\n    /* \"#utility.yul\":3380:3498   */\n  pop\n  pop\n  jump\t// out\n    /* \"#utility.yul\":3504:3836   */\ntag_10:\n    /* \"#utility.yul\":3625:3629   */\n  0x00\n    /* \"#utility.yul\":3663:3665   */\n  0x40\n    /* \"#utility.yul\":3652:3661   */\n  dup3\n    /* \"#utility.yul\":3648:3666   */\n  add\n    /* \"#utility.yul\":3640:3666   */\n  swap1\n  pop\n    /* \"#utility.yul\":3676:3747   */\n  tag_93\n    /* \"#utility.yul\":3744:3745   */\n  0x00\n    /* \"#utility.yul\":3733:3742   */\n  dup4\n    /* \"#utility.yul\":3729:3746   */\n  add\n    /* \"#utility.yul\":3720:3726   */\n  dup6\n    /* \"#utility.yul\":3676:3747   */\n  tag_44\n  jump\t// in\ntag_93:\n    /* \"#utility.yul\":3757:3829   */\n  tag_94\n    /* \"#utility.yul\":3825:3827   */\n  0x20\n    /* \"#utility.yul\":3814:3823   */\n  dup4\n    /* \"#utility.yul\":3810:3828   */\n  add\n    /* \"#utility.yul\":3801:3807   */\n  dup5\n    /* \"#utility.yul\":3757:3829   */\n  tag_44\n  jump\t// in\ntag_94:\n    /* \"#utility.yul\":3504:3836   */\n  swap4\n  swap3\n  pop\n  pop\n  pop\n  jump\t// out\n    /* \"#utility.yul\":3842:4193   */\ntag_14:\n    /* \"#utility.yul\":3912:3918   */\n  0x00\n    /* \"#utility.yul\":3961:3963   */\n  0x20\n    /* \"#utility.yul\":3949:3958   */\n  dup3\n    /* \"#utility.yul\":3940:3947   */\n  dup5\n    /* \"#utility.yul\":3936:3959   */\n  sub\n    /* \"#utility.yul\":3932:3964   */\n  slt\n    /* \"#utility.yul\":3929:4048   */\n  iszero\n  tag_96\n  jumpi\n    /* \"#utility.yul\":3967:4046   */\n  tag_97\n  tag_29\n  jump\t// in\ntag_97:\n    /* \"#utility.yul\":3929:4048   */\ntag_96:\n    /* \"#utility.yul\":4087:4088   */\n  0x00\n    /* \"#utility.yul\":4112:4176   */\n  tag_98\n    /* \"#utility.yul\":4168:4175   */\n  dup5\n    /* \"#utility.yul\":4159:4165   */\n  dup3\n    /* \"#utility.yul\":4148:4157   */\n  dup6\n    /* \"#utility.yul\":4144:4166   */\n  add\n    /* \"#utility.yul\":4112:4176   */\n  tag_37\n  jump\t// in\ntag_98:\n    /* \"#utility.yul\":4102:4176   */\n  swap2\n  pop\n    /* \"#utility.yul\":4058:4186   */\n  pop\n    /* \"#utility.yul\":3842:4193   */\n  swap3\n  swap2\n  pop\n  pop\n  jump\t// out\n    /* \"#utility.yul\":4199:4362   */\ntag_45:\n    /* \"#utility.yul\":4339:4354   */\n  0x617070726f766520666972737400000000000000000000000000000000000000\n    /* \"#utility.yul\":4335:4336   */\n  0x00\n    /* \"#utility.yul\":4327:4333   */\n  dup3\n    /* \"#utility.yul\":4323:4337   */\n  add\n    /* \"#utility.yul\":4316:4355   */\n  mstore\n    /* \"#utility.yul\":4199:4362   */\n  pop\n  jump\t// out\n    /* \"#utility.yul\":4368:4734   */\ntag_46:\n    /* \"#utility.yul\":4510:4513   */\n  0x00\n    /* \"#utility.yul\":4531:4598   */\n  tag_101\n    /* \"#utility.yul\":4595:4597   */\n  0x0d\n    /* \"#utility.yul\":4590:4593   */\n  dup4\n    /* \"#utility.yul\":4531:4598   */\n  tag_41\n  jump\t// in\ntag_101:\n    /* \"#utility.yul\":4524:4598   */\n  swap2\n  pop\n    /* \"#utility.yul\":4607:4700   */\n  tag_102\n    /* \"#utility.yul\":4696:4699   */\n  dup3\n    /* \"#utility.yul\":4607:4700   */\n  tag_45\n  jump\t// in\ntag_102:\n    /* \"#utility.yul\":4725:4727   */\n  0x20\n    /* \"#utility.yul\":4720:4723   */\n  dup3\n    /* \"#utility.yul\":4716:4728   */\n  add\n    /* \"#utility.yul\":4709:4728   */\n  swap1\n  pop\n    /* \"#utility.yul\":4368:4734   */\n  swap2\n  swap1\n  pop\n  jump\t// out\n    /* \"#utility.yul\":4740:5159   */\ntag_17:\n    /* \"#utility.yul\":4906:4910   */\n  0x00\n    /* \"#utility.yul\":4944:4946   */\n  0x20\n    /* \"#utility.yul\":4933:4942   */\n  dup3\n    /* \"#utility.yul\":4929:4947   */\n  add\n    /* \"#utility.yul\":4921:4947   */\n  swap1\n  pop\n    /* \"#utility.yul\":4993:5002   */\n  dup2\n    /* \"#utility.yul\":4987:4991   */\n  dup2\n    /* \"#utility.yul\":4983:5003   */\n  sub\n    /* \"#utility.yul\":4979:4980   */\n  0x00\n    /* \"#utility.yul\":4968:4977   */\n  dup4\n    /* \"#utility.yul\":4964:4981   */\n  add\n    /* \"#utility.yul\":4957:5004   */\n  mstore\n    /* \"#utility.yul\":5021:5152   */\n  tag_104\n    /* \"#utility.yul\":5147:5151   */\n  dup2\n    /* \"#utility.yul\":5021:5152   */\n  tag_46\n  jump\t// in\ntag_104:\n    /* \"#utility.yul\":5013:5152   */\n  swap1\n  pop\n    /* \"#utility.yul\":4740:5159   */\n  swap2\n  swap1\n  pop\n  jump\t// out\n    /* \"#utility.yul\":5165:5283   */\ntag_47:\n    /* \"#utility.yul\":5252:5276   */\n  tag_106\n    /* \"#utility.yul\":5270:5275   */\n  dup2\n    /* \"#utility.yul\":5252:5276   */\n  tag_35\n  jump\t// in\ntag_106:\n    /* \"#utility.yul\":5247:5250   */\n  dup3\n    /* \"#utility.yul\":5240:5277   */\n  mstore\n    /* \"#utility.yul\":5165:5283   */\n  pop\n  pop\n  jump\t// out\n    /* \"#utility.yul\":5289:5731   */\ntag_19:\n    /* \"#utility.yul\":5438:5442   */\n  0x00\n    /* \"#utility.yul\":5476:5478   */\n  0x60\n    /* \"#utility.yul\":5465:5474   */\n  dup3\n    /* \"#utility.yul\":5461:5479   */\n  add\n    /* \"#utility.yul\":5453:5479   */\n  swap1\n  pop\n    /* \"#utility.yul\":5489:5560   */\n  tag_108\n    /* \"#utility.yul\":5557:5558   */\n  0x00\n    /* \"#utility.yul\":5546:5555   */\n  dup4\n    /* \"#utility.yul\":5542:5559   */\n  add\n    /* \"#utility.yul\":5533:5539   */\n  dup7\n    /* \"#utility.yul\":5489:5560   */\n  tag_44\n  jump\t// in\ntag_108:\n    /* \"#utility.yul\":5570:5642   */\n  tag_109\n    /* \"#utility.yul\":5638:5640   */\n  0x20\n    /* \"#utility.yul\":5627:5636   */\n  dup4\n    /* \"#utility.yul\":5623:5641   */\n  add\n    /* \"#utility.yul\":5614:5620   */\n  dup6\n    /* \"#utility.yul\":5570:5642   */\n  tag_44\n  jump\t// in\ntag_109:\n    /* \"#utility.yul\":5652:5724   */\n  tag_110\n    /* \"#utility.yul\":5720:5722   */\n  0x40\n    /* \"#utility.yul\":5709:5718   */\n  dup4\n    /* \"#utility.yul\":5705:5723   */\n  add\n    /* \"#utility.yul\":5696:5702   */\n  dup5\n    /* \"#utility.yul\":5652:5724   */\n  tag_47\n  jump\t// in\ntag_110:\n    /* \"#utility.yul\":5289:5731   */\n  swap5\n  swap4\n  pop\n  pop\n  pop\n  pop\n  jump\t// out\n    /* \"#utility.yul\":5737:5827   */\ntag_48:\n    /* \"#utility.yul\":5771:5778   */\n  0x00\n    /* \"#utility.yul\":5814:5819   */\n  dup2\n    /* \"#utility.yul\":5807:5820   */\n  iszero\n    /* \"#utility.yul\":5800:5821   */\n  iszero\n    /* \"#utility.yul\":5789:5821   */\n  swap1\n  pop\n    /* \"#utility.yul\":5737:5827   */\n  swap2\n  swap1\n  pop\n  jump\t// out\n    /* \"#utility.yul\":5833:5949   */\ntag_49:\n    /* \"#utility.yul\":5903:5924   */\n  tag_113\n    /* \"#utility.yul\":5918:5923   */\n  dup2\n    /* \"#utility.yul\":5903:5924   */\n  tag_48\n  jump\t// in\ntag_113:\n    /* \"#utility.yul\":5896:5901   */\n  dup2\n    /* \"#utility.yul\":5893:5925   */\n  eq\n    /* \"#utility.yul\":5883:5943   */\n  tag_114\n  jumpi\n    /* \"#utility.yul\":5939:5940   */\n  0x00\n    /* \"#utility.yul\":5936:5937   */\n  0x00\n    /* \"#utility.yul\":5929:5941   */\n  revert\n    /* \"#utility.yul\":5883:5943   */\ntag_114:\n    /* \"#utility.yul\":5833:5949   */\n  pop\n  jump\t// out\n    /* \"#utility.yul\":5955:6092   */\ntag_50:\n    /* \"#utility.yul\":6009:6014   */\n  0x00\n    /* \"#utility.yul\":6040:6046   */\n  dup2\n    /* \"#utility.yul\":6034:6047   */\n  mload\n    /* \"#utility.yul\":6025:6047   */\n  swap1\n  pop\n    /* \"#utility.yul\":6056:6086   */\n  tag_116\n    /* \"#utility.yul\":6080:6085   */\n  dup2\n    /* \"#utility.yul\":6056:6086   */\n  tag_49\n  jump\t// in\ntag_116:\n    /* \"#utility.yul\":5955:6092   */\n  swap3\n  swap2\n  pop\n  pop\n  jump\t// out\n    /* \"#utility.yul\":6098:6443   */\ntag_23:\n    /* \"#utility.yul\":6165:6171   */\n  0x00\n    /* \"#utility.yul\":6214:6216   */\n  0x20\n    /* \"#utility.yul\":6202:6211   */\n  dup3\n    /* \"#utility.yul\":6193:6200   */\n  dup5\n    /* \"#utility.yul\":6189:6212   */\n  sub\n    /* \"#utility.yul\":6185:6217   */\n  slt\n    /* \"#utility.yul\":6182:6301   */\n  iszero\n  tag_118\n  jumpi\n    /* \"#utility.yul\":6220:6299   */\n  tag_119\n  tag_29\n  jump\t// in\ntag_119:\n    /* \"#utility.yul\":6182:6301   */\ntag_118:\n    /* \"#utility.yul\":6340:6341   */\n  0x00\n    /* \"#utility.yul\":6365:6426   */\n  tag_120\n    /* \"#utility.yul\":6418:6425   */\n  dup5\n    /* \"#utility.yul\":6409:6415   */\n  dup3\n    /* \"#utility.yul\":6398:6407   */\n  dup6\n    /* \"#utility.yul\":6394:6416   */\n  add\n    /* \"#utility.yul\":6365:6426   */\n  tag_50\n  jump\t// in\ntag_120:\n    /* \"#utility.yul\":6355:6426   */\n  swap2\n  pop\n    /* \"#utility.yul\":6311:6436   */\n  pop\n    /* \"#utility.yul\":6098:6443   */\n  swap3\n  swap2\n  pop\n  pop\n  jump\t// out\n    /* \"#utility.yul\":6449:6618   */\ntag_51:\n    /* \"#utility.yul\":6589:6610   */\n  0x7472616e7366657246726f6d206661696c656400000000000000000000000000\n    /* \"#utility.yul\":6585:6586   */\n  0x00\n    /* \"#utility.yul\":6577:6583   */\n  dup3\n    /* \"#utility.yul\":6573:6587   */\n  add\n    /* \"#utility.yul\":6566:6611   */\n  mstore\n    /* \"#utility.yul\":6449:6618   */\n  pop\n  jump\t// out\n    /* \"#utility.yul\":6624:6990   */\ntag_52:\n    /* \"#utility.yul\":6766:6769   */\n  0x00\n    /* \"#utility.yul\":6787:6854   */\n  tag_123\n    /* \"#utility.yul\":6851:6853   */\n  0x13\n    /* \"#utility.yul\":6846:6849   */\n  dup4\n    /* \"#utility.yul\":6787:6854   */\n  tag_41\n  jump\t// in\ntag_123:\n    /* \"#utility.yul\":6780:6854   */\n  swap2\n  pop\n    /* \"#utility.yul\":6863:6956   */\n  tag_124\n    /* \"#utility.yul\":6952:6955   */\n  dup3\n    /* \"#utility.yul\":6863:6956   */\n  tag_51\n  jump\t// in\ntag_124:\n    /* \"#utility.yul\":6981:6983   */\n  0x20\n    /* \"#utility.yul\":6976:6979   */\n  dup3\n    /* \"#utility.yul\":6972:6984   */\n  add\n    /* \"#utility.yul\":6965:6984   */\n  swap1\n  pop\n    /* \"#utility.yul\":6624:6990   */\n  swap2\n  swap1\n  pop\n  jump\t// out\n    /* \"#utility.yul\":6996:7415   */\ntag_26:\n    /* \"#utility.yul\":7162:7166   */\n  0x00\n    /* \"#utility.yul\":7200:7202   */\n  0x20\n    /* \"#utility.yul\":7189:7198   */\n  dup3\n    /* \"#utility.yul\":7185:7203   */\n  add\n    /* \"#utility.yul\":7177:7203   */\n  swap1\n  pop\n    /* \"#utility.yul\":7249:7258   */\n  dup2\n    /* \"#utility.yul\":7243:7247   */\n  dup2\n    /* \"#utility.yul\":7239:7259   */\n  sub\n    /* \"#utility.yul\":7235:7236   */\n  0x00\n    /* \"#utility.yul\":7224:7233   */\n  dup4\n    /* \"#utility.yul\":7220:7237   */\n  add\n    /* \"#utility.yul\":7213:7260   */\n  mstore\n    /* \"#utility.yul\":7277:7408   */\n  tag_126\n    /* \"#utility.yul\":7403:7407   */\n  dup2\n    /* \"#utility.yul\":7277:7408   */\n  tag_52\n  jump\t// in\ntag_126:\n    /* \"#utility.yul\":7269:7408   */\n  swap1\n  pop\n    /* \"#utility.yul\":6996:7415   */\n  swap2\n  swap1\n  pop\n  jump\t// out\n    /* \"contracts/PVCContest.sol\":453:7720  contract PVCContest3 {... */\ntag_27:\n  mload(0x80)\n  mload(0xa0)\n  mload(0xc0)\n  mload(0xe0)\n  codecopy(0x00, dataOffset(sub_0), dataSize(sub_0))\n  0x00\n  assignImmutable(\"0xd3a2f60d4175fcfd37f3d088e70d6e3a2a5f35b74e763315c03c1fa1b0a93a6e\")\n  0x00\n  assignImmutable(\"0x7544cb630261d9d070979689fb82f5401ae3cac6ec1ed588bfd9c696b9df0c3a\")\n  0x00\n  assignImmutable(\"0x11fceae683f5d7bbd440ca1142231a93c5f15fad10d9b3ae91afba342a11a582\")\n  0x00\n  assignImmutable(\"0x12119428a65b5c15d841e5b0333aa9eb7f832c3b45419daa50c4845dee01bc56\")\n  return(0x00, dataSize(sub_0))\nstop\n\nsub_0: assembly {\n        /* \"contracts/PVCContest.sol\":453:7720  contract PVCContest3 {... */\n      mstore(0x40, 0x80)\n      callvalue\n      dup1\n      iszero\n      tag_1\n      jumpi\n      revert(0x00, 0x00)\n    tag_1:\n      pop\n      jumpi(tag_2, lt(calldatasize, 0x04))\n      shr(0xe0, calldataload(0x00))\n      dup1\n      0xa3954016\n      gt\n      tag_18\n      jumpi\n      dup1\n      0xbe7a078d\n      gt\n      tag_19\n      jumpi\n      dup1\n      0xbe7a078d\n      eq\n      tag_14\n      jumpi\n      dup1\n      0xccdab78c\n      eq\n      tag_15\n      jumpi\n      dup1\n      0xdefe80ef\n      eq\n      tag_16\n      jumpi\n      dup1\n      0xfc0c546a\n      eq\n      tag_17\n      jumpi\n      jump(tag_2)\n    tag_19:\n      dup1\n      0xa3954016\n      eq\n      tag_10\n      jumpi\n      dup1\n      0xa693600b\n      eq\n      tag_11\n      jumpi\n      dup1\n      0xad73349e\n      eq\n      tag_12\n      jumpi\n      dup1\n      0xb3f05b97\n      eq\n      tag_13\n      jumpi\n      jump(tag_2)\n    tag_18:\n      dup1\n      0x61203265\n      gt\n      tag_20\n      jumpi\n      dup1\n      0x61203265\n      eq\n      tag_6\n      jumpi\n      dup1\n      0x6ec02be9\n      eq\n      tag_7\n      jumpi\n      dup1\n      0x93956b7b\n      eq\n      tag_8\n      jumpi\n      dup1\n      0x9a409c32\n      eq\n      tag_9\n      jumpi\n      jump(tag_2)\n    tag_20:\n      dup1\n      0x37caa8b6\n      eq\n      tag_3\n      jumpi\n      dup1\n      0x3988146f\n      eq\n      tag_4\n      jumpi\n      dup1\n      0x3e8686cc\n      eq\n      tag_5\n      jumpi\n    tag_2:\n      revert(0x00, 0x00)\n        /* \"contracts/PVCContest.sol\":4080:4881  function getTop(uint256 k) external view returns (uint256[] memory ids) {... */\n    tag_3:\n      tag_21\n      0x04\n      dup1\n      calldatasize\n      sub\n      dup2\n      add\n      swap1\n      tag_22\n      swap2\n      swap1\n      tag_23\n      jump\t// in\n    tag_22:\n      tag_24\n      jump\t// in\n    tag_21:\n      mload(0x40)\n      tag_25\n      swap2\n      swap1\n      tag_26\n      jump\t// in\n    tag_25:\n      mload(0x40)\n      dup1\n      swap2\n      sub\n      swap1\n      return\n        /* \"contracts/PVCContest.sol\":3471:4024  function submit(int256[3] calldata w, uint256 r, uint32 errorBps, string calldata uri) external returns (uint256 id) {... */\n    tag_4:\n      tag_27\n      0x04\n      dup1\n      calldatasize\n      sub\n      dup2\n      add\n      swap1\n      tag_28\n      swap2\n      swap1\n      tag_29\n      jump\t// in\n    tag_28:\n      tag_30\n      jump\t// in\n    tag_27:\n      mload(0x40)\n      tag_31\n      swap2\n      swap1\n      tag_32\n      jump\t// in\n    tag_31:\n      mload(0x40)\n      dup1\n      swap2\n      sub\n      swap1\n      return\n        /* \"contracts/PVCContest.sol\":7132:7613  function getSubmission(uint256 id) external view returns (... */\n    tag_5:\n      tag_33\n      0x04\n      dup1\n      calldatasize\n      sub\n      dup2\n      add\n      swap1\n      tag_34\n      swap2\n      swap1\n      tag_23\n      jump\t// in\n    tag_34:\n      tag_35\n      jump\t// in\n    tag_33:\n      mload(0x40)\n      tag_36\n      swap8\n      swap7\n      swap6\n      swap5\n      swap4\n      swap3\n      swap2\n      swap1\n      tag_37\n      jump\t// in\n    tag_36:\n      mload(0x40)\n      dup1\n      swap2\n      sub\n      swap1\n      return\n        /* \"contracts/PVCContest.sol\":578:612  address public immutable organizer */\n    tag_6:\n      tag_38\n      tag_39\n      jump\t// in\n    tag_38:\n      mload(0x40)\n      tag_40\n      swap2\n      swap1\n      tag_41\n      jump\t// in\n    tag_40:\n      mload(0x40)\n      dup1\n      swap2\n      sub\n      swap1\n      return\n        /* \"contracts/PVCContest.sol\":1178:1208  uint256 public submissionCount */\n    tag_7:\n      tag_42\n      tag_43\n      jump\t// in\n    tag_42:\n      mload(0x40)\n      tag_44\n      swap2\n      swap1\n      tag_32\n      jump\t// in\n    tag_44:\n      mload(0x40)\n      dup1\n      swap2\n      sub\n      swap1\n      return\n        /* \"contracts/PVCContest.sol\":3169:3465  function weightNumeratorFor(uint32 errorBps_) public view returns (uint256) {... */\n    tag_8:\n      tag_45\n      0x04\n      dup1\n      calldatasize\n      sub\n      dup2\n      add\n      swap1\n      tag_46\n      swap2\n      swap1\n      tag_47\n      jump\t// in\n    tag_46:\n      tag_48\n      jump\t// in\n    tag_45:\n      mload(0x40)\n      tag_49\n      swap2\n      swap1\n      tag_32\n      jump\t// in\n    tag_49:\n      mload(0x40)\n      dup1\n      swap2\n      sub\n      swap1\n      return\n        /* \"contracts/PVCContest.sol\":2819:3163  function weightNumerator(uint32 errorBps) public pure returns (uint256) {... */\n    tag_9:\n      tag_50\n      0x04\n      dup1\n      calldatasize\n      sub\n      dup2\n      add\n      swap1\n      tag_51\n      swap2\n      swap1\n      tag_47\n      jump\t// in\n    tag_51:\n      tag_52\n      jump\t// in\n    tag_50:\n      mload(0x40)\n      tag_53\n      swap2\n      swap1\n      tag_32\n      jump\t// in\n    tag_53:\n      mload(0x40)\n      dup1\n      swap2\n      sub\n      swap1\n      return\n        /* \"contracts/PVCContest.sol\":7619:7718  function totalSubmissions() external view returns (uint256) {... */\n    tag_10:\n      tag_54\n      tag_55\n      jump\t// in\n    tag_54:\n      mload(0x40)\n      tag_56\n      swap2\n      swap1\n      tag_32\n      jump\t// in\n    tag_56:\n      mload(0x40)\n      dup1\n      swap2\n      sub\n      swap1\n      return\n        /* \"contracts/PVCContest.sol\":618:653  uint256 public immutable poolAmount */\n    tag_11:\n      tag_57\n      tag_58\n      jump\t// in\n    tag_57:\n      mload(0x40)\n      tag_59\n      swap2\n      swap1\n      tag_32\n      jump\t// in\n    tag_59:\n      mload(0x40)\n      dup1\n      swap2\n      sub\n      swap1\n      return\n        /* \"contracts/PVCContest.sol\":1214:1263  mapping(uint256 => Submission) public submissions */\n    tag_12:\n      tag_60\n      0x04\n      dup1\n      calldatasize\n      sub\n      dup2\n      add\n      swap1\n      tag_61\n      swap2\n      swap1\n      tag_23\n      jump\t// in\n    tag_61:\n      tag_62\n      jump\t// in\n    tag_60:\n      mload(0x40)\n      tag_63\n      swap7\n      swap6\n      swap5\n      swap4\n      swap3\n      swap2\n      swap1\n      tag_64\n      jump\t// in\n    tag_63:\n      mload(0x40)\n      dup1\n      swap2\n      sub\n      swap1\n      return\n        /* \"contracts/PVCContest.sol\":1270:1291  bool public finalized */\n    tag_13:\n      tag_65\n      tag_66\n      jump\t// in\n    tag_65:\n      mload(0x40)\n      tag_67\n      swap2\n      swap1\n      tag_68\n      jump\t// in\n    tag_67:\n      mload(0x40)\n      dup1\n      swap2\n      sub\n      swap1\n      return\n        /* \"contracts/PVCContest.sol\":659:690  uint32  public immutable epsBps */\n    tag_14:\n      tag_69\n      tag_70\n      jump\t// in\n    tag_69:\n      mload(0x40)\n      tag_71\n      swap2\n      swap1\n      tag_72\n      jump\t// in\n    tag_71:\n      mload(0x40)\n      dup1\n      swap2\n      sub\n      swap1\n      return\n        /* \"contracts/PVCContest.sol\":5121:7061  function verifyAggregationAndPayout(int256[3] calldata Wsum, uint256 Rsum, string calldata aggregatedModelUri) external {... */\n    tag_15:\n      tag_73\n      0x04\n      dup1\n      calldatasize\n      sub\n      dup2\n      add\n      swap1\n      tag_74\n      swap2\n      swap1\n      tag_75\n      jump\t// in\n    tag_74:\n      tag_76\n      jump\t// in\n    tag_73:\n      stop\n        /* \"contracts/PVCContest.sol\":756:798  uint256 public constant WEIGHT_BASE = 1e12 */\n    tag_16:\n      tag_77\n      tag_78\n      jump\t// in\n    tag_77:\n      mload(0x40)\n      tag_79\n      swap2\n      swap1\n      tag_32\n      jump\t// in\n    tag_79:\n      mload(0x40)\n      dup1\n      swap2\n      sub\n      swap1\n      return\n        /* \"contracts/PVCContest.sol\":543:572  IERC20 public immutable token */\n    tag_17:\n      tag_80\n      tag_81\n      jump\t// in\n    tag_80:\n      mload(0x40)\n      tag_82\n      swap2\n      swap1\n      tag_83\n      jump\t// in\n    tag_82:\n      mload(0x40)\n      dup1\n      swap2\n      sub\n      swap1\n      return\n        /* \"contracts/PVCContest.sol\":4080:4881  function getTop(uint256 k) external view returns (uint256[] memory ids) {... */\n    tag_24:\n        /* \"contracts/PVCContest.sol\":4130:4150  uint256[] memory ids */\n      0x60\n        /* \"contracts/PVCContest.sol\":4170:4185  submissionCount */\n      sload(0x00)\n        /* \"contracts/PVCContest.sol\":4166:4167  k */\n      dup3\n        /* \"contracts/PVCContest.sol\":4166:4185  k > submissionCount */\n      gt\n        /* \"contracts/PVCContest.sol\":4162:4206  if (k > submissionCount) k = submissionCount */\n      iszero\n      tag_85\n      jumpi\n        /* \"contracts/PVCContest.sol\":4191:4206  submissionCount */\n      sload(0x00)\n        /* \"contracts/PVCContest.sol\":4187:4206  k = submissionCount */\n      swap2\n      pop\n        /* \"contracts/PVCContest.sol\":4162:4206  if (k > submissionCount) k = submissionCount */\n    tag_85:\n        /* \"contracts/PVCContest.sol\":4236:4237  k */\n      dup2\n        /* \"contracts/PVCContest.sol\":4222:4238  new uint256[](k) */\n      0xffffffffffffffff\n      dup2\n      gt\n      iszero\n      tag_86\n      jumpi\n      tag_87\n      tag_88\n      jump\t// in\n    tag_87:\n    tag_86:\n      mload(0x40)\n      swap1\n      dup1\n      dup3\n      mstore\n      dup1\n      0x20\n      mul\n      0x20\n      add\n      dup3\n      add\n      0x40\n      mstore\n      dup1\n      iszero\n      tag_89\n      jumpi\n      dup2\n      0x20\n      add\n      0x20\n      dup3\n      mul\n      dup1\n      calldatasize\n      dup4\n      calldatacopy\n      dup1\n      dup3\n      add\n      swap2\n      pop\n      pop\n      swap1\n      pop\n    tag_89:\n      pop\n        /* \"contracts/PVCContest.sol\":4216:4238  ids = new uint256[](k) */\n      swap1\n      pop\n        /* \"contracts/PVCContest.sol\":4277:4297  bool[] memory picked */\n      0x00\n        /* \"contracts/PVCContest.sol\":4329:4330  1 */\n      0x01\n        /* \"contracts/PVCContest.sol\":4311:4326  submissionCount */\n      sload(0x00)\n        /* \"contracts/PVCContest.sol\":4311:4330  submissionCount + 1 */\n      tag_90\n      swap2\n      swap1\n      tag_91\n      jump\t// in\n    tag_90:\n        /* \"contracts/PVCContest.sol\":4300:4331  new bool[](submissionCount + 1) */\n      0xffffffffffffffff\n      dup2\n      gt\n      iszero\n      tag_92\n      jumpi\n      tag_93\n      tag_88\n      jump\t// in\n    tag_93:\n    tag_92:\n      mload(0x40)\n      swap1\n      dup1\n      dup3\n      mstore\n      dup1\n      0x20\n      mul\n      0x20\n      add\n      dup3\n      add\n      0x40\n      mstore\n      dup1\n      iszero\n      tag_94\n      jumpi\n      dup2\n      0x20\n      add\n      0x20\n      dup3\n      mul\n      dup1\n      calldatasize\n      dup4\n      calldatacopy\n      dup1\n      dup3\n      add\n      swap2\n      pop\n      pop\n      swap1\n      pop\n    tag_94:\n      pop\n        /* \"contracts/PVCContest.sol\":4277:4331  bool[] memory picked = new bool[](submissionCount + 1) */\n      swap1\n      pop\n        /* \"contracts/PVCContest.sol\":4346:4355  uint256 t */\n      0x00\n        /* \"contracts/PVCContest.sol\":4358:4359  0 */\n      0x00\n        /* \"contracts/PVCContest.sol\":4346:4359  uint256 t = 0 */\n      swap1\n      pop\n        /* \"contracts/PVCContest.sol\":4341:4875  for (uint256 t = 0; t < k; t++) {... */\n    tag_95:\n        /* \"contracts/PVCContest.sol\":4365:4366  k */\n      dup4\n        /* \"contracts/PVCContest.sol\":4361:4362  t */\n      dup2\n        /* \"contracts/PVCContest.sol\":4361:4366  t < k */\n      lt\n        /* \"contracts/PVCContest.sol\":4341:4875  for (uint256 t = 0; t < k; t++) {... */\n      iszero\n      tag_96\n      jumpi\n        /* \"contracts/PVCContest.sol\":4387:4401  uint32 bestErr */\n      0x00\n        /* \"contracts/PVCContest.sol\":4404:4420  type(uint32).max */\n      0xffffffff\n        /* \"contracts/PVCContest.sol\":4387:4420  uint32 bestErr = type(uint32).max */\n      swap1\n      pop\n        /* \"contracts/PVCContest.sol\":4434:4448  uint256 bestId */\n      0x00\n        /* \"contracts/PVCContest.sol\":4451:4452  0 */\n      0x00\n        /* \"contracts/PVCContest.sol\":4434:4452  uint256 bestId = 0 */\n      swap1\n      pop\n        /* \"contracts/PVCContest.sol\":4471:4480  uint256 i */\n      0x00\n        /* \"contracts/PVCContest.sol\":4483:4484  1 */\n      0x01\n        /* \"contracts/PVCContest.sol\":4471:4484  uint256 i = 1 */\n      swap1\n      pop\n        /* \"contracts/PVCContest.sol\":4466:4801  for (uint256 i = 1; i <= submissionCount; i++) {... */\n    tag_98:\n        /* \"contracts/PVCContest.sol\":4491:4506  submissionCount */\n      sload(0x00)\n        /* \"contracts/PVCContest.sol\":4486:4487  i */\n      dup2\n        /* \"contracts/PVCContest.sol\":4486:4506  i <= submissionCount */\n      gt\n        /* \"contracts/PVCContest.sol\":4466:4801  for (uint256 i = 1; i <= submissionCount; i++) {... */\n      tag_99\n      jumpi\n        /* \"contracts/PVCContest.sol\":4535:4541  picked */\n      dup5\n        /* \"contracts/PVCContest.sol\":4542:4543  i */\n      dup2\n        /* \"contracts/PVCContest.sol\":4535:4544  picked[i] */\n      dup2\n      mload\n      dup2\n      lt\n      tag_101\n      jumpi\n      tag_102\n      tag_103\n      jump\t// in\n    tag_102:\n    tag_101:\n      0x20\n      mul\n      0x20\n      add\n      add\n      mload\n        /* \"contracts/PVCContest.sol\":4546:4554  continue */\n      tag_100\n        /* \"contracts/PVCContest.sol\":4531:4554  if (picked[i]) continue */\n      jumpi\n        /* \"contracts/PVCContest.sol\":4572:4592  Submission storage S */\n      0x00\n        /* \"contracts/PVCContest.sol\":4595:4606  submissions */\n      0x01\n        /* \"contracts/PVCContest.sol\":4595:4609  submissions[i] */\n      0x00\n        /* \"contracts/PVCContest.sol\":4607:4608  i */\n      dup4\n        /* \"contracts/PVCContest.sol\":4595:4609  submissions[i] */\n      dup2\n      mstore\n      0x20\n      add\n      swap1\n      dup2\n      mstore\n      0x20\n      add\n      0x00\n      keccak256\n        /* \"contracts/PVCContest.sol\":4572:4609  Submission storage S = submissions[i] */\n      swap1\n      pop\n        /* \"contracts/PVCContest.sol\":4632:4633  S */\n      dup1\n        /* \"contracts/PVCContest.sol\":4632:4640  S.exists */\n      0x09\n      add\n      0x00\n      swap1\n      sload\n      swap1\n      0x0100\n      exp\n      swap1\n      div\n      0xff\n      and\n        /* \"contracts/PVCContest.sol\":4627:4650  if (!S.exists) continue */\n      tag_105\n      jumpi\n        /* \"contracts/PVCContest.sol\":4642:4650  continue */\n      pop\n      jump(tag_100)\n        /* \"contracts/PVCContest.sol\":4627:4650  if (!S.exists) continue */\n    tag_105:\n        /* \"contracts/PVCContest.sol\":4685:4692  bestErr */\n      dup4\n        /* \"contracts/PVCContest.sol\":4672:4692  S.errorBps < bestErr */\n      0xffffffff\n      and\n        /* \"contracts/PVCContest.sol\":4672:4673  S */\n      dup2\n        /* \"contracts/PVCContest.sol\":4672:4682  S.errorBps */\n      0x05\n      add\n      0x00\n      swap1\n      sload\n      swap1\n      0x0100\n      exp\n      swap1\n      div\n      0xffffffff\n      and\n        /* \"contracts/PVCContest.sol\":4672:4692  S.errorBps < bestErr */\n      0xffffffff\n      and\n      lt\n        /* \"contracts/PVCContest.sol\":4668:4787  if (S.errorBps < bestErr) {... */\n      iszero\n      tag_106\n      jumpi\n        /* \"contracts/PVCContest.sol\":4726:4727  S */\n      dup1\n        /* \"contracts/PVCContest.sol\":4726:4736  S.errorBps */\n      0x05\n      add\n      0x00\n      swap1\n      sload\n      swap1\n      0x0100\n      exp\n      swap1\n      div\n      0xffffffff\n      and\n        /* \"contracts/PVCContest.sol\":4716:4736  bestErr = S.errorBps */\n      swap4\n      pop\n        /* \"contracts/PVCContest.sol\":4767:4768  i */\n      dup2\n        /* \"contracts/PVCContest.sol\":4758:4768  bestId = i */\n      swap3\n      pop\n        /* \"contracts/PVCContest.sol\":4668:4787  if (S.errorBps < bestErr) {... */\n    tag_106:\n        /* \"contracts/PVCContest.sol\":4513:4801  {... */\n      pop\n        /* \"contracts/PVCContest.sol\":4466:4801  for (uint256 i = 1; i <= submissionCount; i++) {... */\n    tag_100:\n        /* \"contracts/PVCContest.sol\":4508:4511  i++ */\n      dup1\n      dup1\n      tag_107\n      swap1\n      tag_108\n      jump\t// in\n    tag_107:\n      swap2\n      pop\n      pop\n        /* \"contracts/PVCContest.sol\":4466:4801  for (uint256 i = 1; i <= submissionCount; i++) {... */\n      jump(tag_98)\n    tag_99:\n      pop\n        /* \"contracts/PVCContest.sol\":4831:4835  true */\n      0x01\n        /* \"contracts/PVCContest.sol\":4814:4820  picked */\n      dup5\n        /* \"contracts/PVCContest.sol\":4821:4827  bestId */\n      dup3\n        /* \"contracts/PVCContest.sol\":4814:4828  picked[bestId] */\n      dup2\n      mload\n      dup2\n      lt\n      tag_109\n      jumpi\n      tag_110\n      tag_103\n      jump\t// in\n    tag_110:\n    tag_109:\n      0x20\n      mul\n      0x20\n      add\n      add\n        /* \"contracts/PVCContest.sol\":4814:4835  picked[bestId] = true */\n      swap1\n      iszero\n      iszero\n      swap1\n      dup2\n      iszero\n      iszero\n      dup2\n      mstore\n      pop\n      pop\n        /* \"contracts/PVCContest.sol\":4858:4864  bestId */\n      dup1\n        /* \"contracts/PVCContest.sol\":4849:4852  ids */\n      dup6\n        /* \"contracts/PVCContest.sol\":4853:4854  t */\n      dup5\n        /* \"contracts/PVCContest.sol\":4849:4855  ids[t] */\n      dup2\n      mload\n      dup2\n      lt\n      tag_111\n      jumpi\n      tag_112\n      tag_103\n      jump\t// in\n    tag_112:\n    tag_111:\n      0x20\n      mul\n      0x20\n      add\n      add\n        /* \"contracts/PVCContest.sol\":4849:4864  ids[t] = bestId */\n      dup2\n      dup2\n      mstore\n      pop\n      pop\n        /* \"contracts/PVCContest.sol\":4373:4875  {... */\n      pop\n      pop\n        /* \"contracts/PVCContest.sol\":4368:4371  t++ */\n      dup1\n      dup1\n      0x01\n      add\n      swap2\n      pop\n      pop\n        /* \"contracts/PVCContest.sol\":4341:4875  for (uint256 t = 0; t < k; t++) {... */\n      jump(tag_95)\n    tag_96:\n      pop\n        /* \"contracts/PVCContest.sol\":4152:4881  {... */\n      pop\n        /* \"contracts/PVCContest.sol\":4080:4881  function getTop(uint256 k) external view returns (uint256[] memory ids) {... */\n      swap2\n      swap1\n      pop\n      jump\t// out\n        /* \"contracts/PVCContest.sol\":3471:4024  function submit(int256[3] calldata w, uint256 r, uint32 errorBps, string calldata uri) external returns (uint256 id) {... */\n    tag_30:\n        /* \"contracts/PVCContest.sol\":3576:3586  uint256 id */\n      0x00\n        /* \"contracts/PVCContest.sol\":3667:3689  BN254.G1Point memory C */\n      0x00\n        /* \"contracts/PVCContest.sol\":3692:3705  commit3(w, r) */\n      tag_114\n        /* \"contracts/PVCContest.sol\":3700:3701  w */\n      dup8\n        /* \"contracts/PVCContest.sol\":3692:3705  commit3(w, r) */\n      0x03\n      dup1\n      0x20\n      mul\n      mload(0x40)\n      swap1\n      dup2\n      add\n      0x40\n      mstore\n      dup1\n      swap3\n      swap2\n      swap1\n      dup3\n      mul(0x20, 0x03)\n      dup1\n      dup3\n      dup5\n      calldatacopy\n      0x00\n      dup2\n      dup5\n      add\n      mstore\n      not(0x1f)\n      0x1f\n      dup3\n      add\n      and\n      swap1\n      pop\n      dup1\n      dup4\n      add\n      swap3\n      pop\n      pop\n      pop\n      pop\n      pop\n      pop\n        /* \"contracts/PVCContest.sol\":3703:3704  r */\n      dup8\n        /* \"contracts/PVCContest.sol\":3692:3699  commit3 */\n      tag_115\n        /* \"contracts/PVCContest.sol\":3692:3705  commit3(w, r) */\n      jump\t// in\n    tag_114:\n        /* \"contracts/PVCContest.sol\":3667:3705  BN254.G1Point memory C = commit3(w, r) */\n      swap1\n      pop\n        /* \"contracts/PVCContest.sol\":3723:3738  submissionCount */\n      0x00\n      0x00\n        /* \"contracts/PVCContest.sol\":3721:3738  ++submissionCount */\n      dup2\n      sload\n      tag_116\n      swap1\n      tag_108\n      jump\t// in\n    tag_116:\n      swap2\n      swap1\n      pop\n      dup2\n      swap1\n      sstore\n        /* \"contracts/PVCContest.sol\":3716:3738  id = ++submissionCount */\n      swap2\n      pop\n        /* \"contracts/PVCContest.sol\":3766:3957  Submission({... */\n      mload(0x40)\n      dup1\n      0xe0\n      add\n      0x40\n      mstore\n      dup1\n        /* \"contracts/PVCContest.sol\":3802:3812  msg.sender */\n      caller\n        /* \"contracts/PVCContest.sol\":3766:3957  Submission({... */\n      0xffffffffffffffffffffffffffffffffffffffff\n      and\n      dup2\n      mstore\n      0x20\n      add\n        /* \"contracts/PVCContest.sol\":3829:3830  w */\n      dup9\n        /* \"contracts/PVCContest.sol\":3766:3957  Submission({... */\n      0x03\n      dup1\n      0x20\n      mul\n      mload(0x40)\n      swap1\n      dup2\n      add\n      0x40\n      mstore\n      dup1\n      swap3\n      swap2\n      swap1\n      dup3\n      mul(0x20, 0x03)\n      dup1\n      dup3\n      dup5\n      calldatacopy\n      0x00\n      dup2\n      dup5\n      add\n      mstore\n      not(0x1f)\n      0x1f\n      dup3\n      add\n      and\n      swap1\n      pop\n      dup1\n      dup4\n      add\n      swap3\n      pop\n      pop\n      pop\n      pop\n      pop\n      pop\n      dup2\n      mstore\n      0x20\n      add\n        /* \"contracts/PVCContest.sol\":3847:3848  r */\n      dup8\n        /* \"contracts/PVCContest.sol\":3766:3957  Submission({... */\n      dup2\n      mstore\n      0x20\n      add\n        /* \"contracts/PVCContest.sol\":3872:3880  errorBps */\n      dup7\n        /* \"contracts/PVCContest.sol\":3766:3957  Submission({... */\n      0xffffffff\n      and\n      dup2\n      mstore\n      0x20\n      add\n        /* \"contracts/PVCContest.sol\":3897:3898  C */\n      dup3\n        /* \"contracts/PVCContest.sol\":3766:3957  Submission({... */\n      dup2\n      mstore\n      0x20\n      add\n        /* \"contracts/PVCContest.sol\":3917:3920  uri */\n      dup6\n      dup6\n        /* \"contracts/PVCContest.sol\":3766:3957  Submission({... */\n      dup1\n      dup1\n      0x1f\n      add\n      0x20\n      dup1\n      swap2\n      div\n      mul\n      0x20\n      add\n      mload(0x40)\n      swap1\n      dup2\n      add\n      0x40\n      mstore\n      dup1\n      swap4\n      swap3\n      swap2\n      swap1\n      dup2\n      dup2\n      mstore\n      0x20\n      add\n      dup4\n      dup4\n      dup1\n      dup3\n      dup5\n      calldatacopy\n      0x00\n      dup2\n      dup5\n      add\n      mstore\n      not(0x1f)\n      0x1f\n      dup3\n      add\n      and\n      swap1\n      pop\n      dup1\n      dup4\n      add\n      swap3\n      pop\n      pop\n      pop\n      pop\n      pop\n      pop\n      pop\n      dup2\n      mstore\n      0x20\n      add\n        /* \"contracts/PVCContest.sol\":3942:3946  true */\n      0x01\n        /* \"contracts/PVCContest.sol\":3766:3957  Submission({... */\n      iszero\n      iszero\n      dup2\n      mstore\n      pop\n        /* \"contracts/PVCContest.sol\":3748:3759  submissions */\n      0x01\n        /* \"contracts/PVCContest.sol\":3748:3763  submissions[id] */\n      0x00\n        /* \"contracts/PVCContest.sol\":3760:3762  id */\n      dup5\n        /* \"contracts/PVCContest.sol\":3748:3763  submissions[id] */\n      dup2\n      mstore\n      0x20\n      add\n      swap1\n      dup2\n      mstore\n      0x20\n      add\n      0x00\n      keccak256\n        /* \"contracts/PVCContest.sol\":3748:3957  submissions[id] = Submission({... */\n      0x00\n      dup3\n      add\n      mload\n      dup2\n      0x00\n      add\n      exp(0x0100, 0x00)\n      dup2\n      sload\n      dup2\n      0xffffffffffffffffffffffffffffffffffffffff\n      mul\n      not\n      and\n      swap1\n      dup4\n      0xffffffffffffffffffffffffffffffffffffffff\n      and\n      mul\n      or\n      swap1\n      sstore\n      pop\n      0x20\n      dup3\n      add\n      mload\n      dup2\n      0x01\n      add\n      swap1\n      0x03\n      tag_117\n      swap3\n      swap2\n      swap1\n      tag_118\n      jump\t// in\n    tag_117:\n      pop\n      0x40\n      dup3\n      add\n      mload\n      dup2\n      0x04\n      add\n      sstore\n      0x60\n      dup3\n      add\n      mload\n      dup2\n      0x05\n      add\n      exp(0x0100, 0x00)\n      dup2\n      sload\n      dup2\n      0xffffffff\n      mul\n      not\n      and\n      swap1\n      dup4\n      0xffffffff\n      and\n      mul\n      or\n      swap1\n      sstore\n      pop\n      0x80\n      dup3\n      add\n      mload\n      dup2\n      0x06\n      add\n      0x00\n      dup3\n      add\n      mload\n      dup2\n      0x00\n      add\n      sstore\n      0x20\n      dup3\n      add\n      mload\n      dup2\n      0x01\n      add\n      sstore\n      pop\n      pop\n      0xa0\n      dup3\n      add\n      mload\n      dup2\n      0x08\n      add\n      swap1\n      dup2\n      tag_119\n      swap2\n      swap1\n      tag_120\n      jump\t// in\n    tag_119:\n      pop\n      0xc0\n      dup3\n      add\n      mload\n      dup2\n      0x09\n      add\n      exp(0x0100, 0x00)\n      dup2\n      sload\n      dup2\n      0xff\n      mul\n      not\n      and\n      swap1\n      dup4\n      iszero\n      iszero\n      mul\n      or\n      swap1\n      sstore\n      pop\n      swap1\n      pop\n      pop\n        /* \"contracts/PVCContest.sol\":3986:3996  msg.sender */\n      caller\n        /* \"contracts/PVCContest.sol\":3972:4017  Submitted(id, msg.sender, errorBps, C.x, C.y) */\n      0xffffffffffffffffffffffffffffffffffffffff\n      and\n        /* \"contracts/PVCContest.sol\":3982:3984  id */\n      dup3\n        /* \"contracts/PVCContest.sol\":3972:4017  Submitted(id, msg.sender, errorBps, C.x, C.y) */\n      0xc9a7acc6a55c72b2a45bf3fc2c99685d9a14729abc4a6b9ffa1c73a7a0810b8a\n        /* \"contracts/PVCContest.sol\":3998:4006  errorBps */\n      dup8\n        /* \"contracts/PVCContest.sol\":4008:4009  C */\n      dup5\n        /* \"contracts/PVCContest.sol\":4008:4011  C.x */\n      0x00\n      add\n      mload\n        /* \"contracts/PVCContest.sol\":4013:4014  C */\n      dup6\n        /* \"contracts/PVCContest.sol\":4013:4016  C.y */\n      0x20\n      add\n      mload\n        /* \"contracts/PVCContest.sol\":3972:4017  Submitted(id, msg.sender, errorBps, C.x, C.y) */\n      mload(0x40)\n      tag_121\n      swap4\n      swap3\n      swap2\n      swap1\n      tag_122\n      jump\t// in\n    tag_121:\n      mload(0x40)\n      dup1\n      swap2\n      sub\n      swap1\n      log3\n        /* \"contracts/PVCContest.sol\":3588:4024  {... */\n      pop\n        /* \"contracts/PVCContest.sol\":3471:4024  function submit(int256[3] calldata w, uint256 r, uint32 errorBps, string calldata uri) external returns (uint256 id) {... */\n      swap6\n      swap5\n      pop\n      pop\n      pop\n      pop\n      pop\n      jump\t// out\n        /* \"contracts/PVCContest.sol\":7132:7613  function getSubmission(uint256 id) external view returns (... */\n    tag_35:\n        /* \"contracts/PVCContest.sol\":7199:7216  address submitter */\n      0x00\n        /* \"contracts/PVCContest.sol\":7226:7244  int256[3] memory w */\n      tag_123\n      tag_124\n      jump\t// in\n    tag_123:\n        /* \"contracts/PVCContest.sol\":7254:7263  uint256 r */\n      0x00\n        /* \"contracts/PVCContest.sol\":7273:7288  uint32 errorBps */\n      0x00\n        /* \"contracts/PVCContest.sol\":7298:7308  uint256 Cx */\n      0x00\n        /* \"contracts/PVCContest.sol\":7318:7328  uint256 Cy */\n      0x00\n        /* \"contracts/PVCContest.sol\":7338:7355  string memory uri */\n      0x60\n        /* \"contracts/PVCContest.sol\":7372:7392  Submission storage S */\n      0x00\n        /* \"contracts/PVCContest.sol\":7395:7406  submissions */\n      0x01\n        /* \"contracts/PVCContest.sol\":7395:7410  submissions[id] */\n      0x00\n        /* \"contracts/PVCContest.sol\":7407:7409  id */\n      dup11\n        /* \"contracts/PVCContest.sol\":7395:7410  submissions[id] */\n      dup2\n      mstore\n      0x20\n      add\n      swap1\n      dup2\n      mstore\n      0x20\n      add\n      0x00\n      keccak256\n        /* \"contracts/PVCContest.sol\":7372:7410  Submission storage S = submissions[id] */\n      swap1\n      pop\n        /* \"contracts/PVCContest.sol\":7428:7429  S */\n      dup1\n        /* \"contracts/PVCContest.sol\":7428:7436  S.exists */\n      0x09\n      add\n      0x00\n      swap1\n      sload\n      swap1\n      0x0100\n      exp\n      swap1\n      div\n      0xff\n      and\n        /* \"contracts/PVCContest.sol\":7420:7447  require(S.exists, \"bad id\") */\n      tag_126\n      jumpi\n      mload(0x40)\n      0x08c379a000000000000000000000000000000000000000000000000000000000\n      dup2\n      mstore\n      0x04\n      add\n      tag_127\n      swap1\n      tag_128\n      jump\t// in\n    tag_127:\n      mload(0x40)\n      dup1\n      swap2\n      sub\n      swap1\n      revert\n    tag_126:\n        /* \"contracts/PVCContest.sol\":7469:7470  S */\n      dup1\n        /* \"contracts/PVCContest.sol\":7469:7480  S.submitter */\n      0x00\n      add\n      0x00\n      swap1\n      sload\n      swap1\n      0x0100\n      exp\n      swap1\n      div\n      0xffffffffffffffffffffffffffffffffffffffff\n      and\n        /* \"contracts/PVCContest.sol\":7457:7480  submitter = S.submitter */\n      swap8\n      pop\n        /* \"contracts/PVCContest.sol\":7494:7495  S */\n      dup1\n        /* \"contracts/PVCContest.sol\":7494:7497  S.w */\n      0x01\n      add\n        /* \"contracts/PVCContest.sol\":7490:7497  w = S.w */\n      0x03\n      dup1\n      0x20\n      mul\n      mload(0x40)\n      swap1\n      dup2\n      add\n      0x40\n      mstore\n      dup1\n      swap3\n      swap2\n      swap1\n      dup3\n      0x03\n      dup1\n      iszero\n      tag_129\n      jumpi\n      0x20\n      mul\n      dup3\n      add\n      swap2\n    tag_130:\n      dup2\n      sload\n      dup2\n      mstore\n      0x20\n      add\n      swap1\n      0x01\n      add\n      swap1\n      dup1\n      dup4\n      gt\n      tag_130\n      jumpi\n    tag_129:\n      pop\n      pop\n      pop\n      pop\n      pop\n      swap7\n      pop\n        /* \"contracts/PVCContest.sol\":7511:7512  S */\n      dup1\n        /* \"contracts/PVCContest.sol\":7511:7514  S.r */\n      0x04\n      add\n      sload\n        /* \"contracts/PVCContest.sol\":7507:7514  r = S.r */\n      swap6\n      pop\n        /* \"contracts/PVCContest.sol\":7535:7536  S */\n      dup1\n        /* \"contracts/PVCContest.sol\":7535:7545  S.errorBps */\n      0x05\n      add\n      0x00\n      swap1\n      sload\n      swap1\n      0x0100\n      exp\n      swap1\n      div\n      0xffffffff\n      and\n        /* \"contracts/PVCContest.sol\":7524:7545  errorBps = S.errorBps */\n      swap5\n      pop\n        /* \"contracts/PVCContest.sol\":7560:7561  S */\n      dup1\n        /* \"contracts/PVCContest.sol\":7560:7563  S.C */\n      0x06\n      add\n        /* \"contracts/PVCContest.sol\":7560:7565  S.C.x */\n      0x00\n      add\n      sload\n        /* \"contracts/PVCContest.sol\":7555:7565  Cx = S.C.x */\n      swap4\n      pop\n        /* \"contracts/PVCContest.sol\":7580:7581  S */\n      dup1\n        /* \"contracts/PVCContest.sol\":7580:7583  S.C */\n      0x06\n      add\n        /* \"contracts/PVCContest.sol\":7580:7585  S.C.y */\n      0x01\n      add\n      sload\n        /* \"contracts/PVCContest.sol\":7575:7585  Cy = S.C.y */\n      swap3\n      pop\n        /* \"contracts/PVCContest.sol\":7601:7602  S */\n      dup1\n        /* \"contracts/PVCContest.sol\":7601:7606  S.uri */\n      0x08\n      add\n        /* \"contracts/PVCContest.sol\":7595:7606  uri = S.uri */\n      dup1\n      sload\n      tag_131\n      swap1\n      tag_132\n      jump\t// in\n    tag_131:\n      dup1\n      0x1f\n      add\n      0x20\n      dup1\n      swap2\n      div\n      mul\n      0x20\n      add\n      mload(0x40)\n      swap1\n      dup2\n      add\n      0x40\n      mstore\n      dup1\n      swap3\n      swap2\n      swap1\n      dup2\n      dup2\n      mstore\n      0x20\n      add\n      dup3\n      dup1\n      sload\n      tag_133\n      swap1\n      tag_132\n      jump\t// in\n    tag_133:\n      dup1\n      iszero\n      tag_134\n      jumpi\n      dup1\n      0x1f\n      lt\n      tag_135\n      jumpi\n      0x0100\n      dup1\n      dup4\n      sload\n      div\n      mul\n      dup4\n      mstore\n      swap2\n      0x20\n      add\n      swap2\n      jump(tag_134)\n    tag_135:\n      dup3\n      add\n      swap2\n      swap1\n      0x00\n      mstore\n      keccak256(0x00, 0x20)\n      swap1\n    tag_136:\n      dup2\n      sload\n      dup2\n      mstore\n      swap1\n      0x01\n      add\n      swap1\n      0x20\n      add\n      dup1\n      dup4\n      gt\n      tag_136\n      jumpi\n      dup3\n      swap1\n      sub\n      0x1f\n      and\n      dup3\n      add\n      swap2\n    tag_134:\n      pop\n      pop\n      pop\n      pop\n      pop\n      swap2\n      pop\n        /* \"contracts/PVCContest.sol\":7362:7613  {... */\n      pop\n        /* \"contracts/PVCContest.sol\":7132:7613  function getSubmission(uint256 id) external view returns (... */\n      swap2\n      swap4\n      swap6\n      swap8\n      swap1\n      swap3\n      swap5\n      swap7\n      pop\n      jump\t// out\n        /* \"contracts/PVCContest.sol\":578:612  address public immutable organizer */\n    tag_39:\n      immutable(\"0x11fceae683f5d7bbd440ca1142231a93c5f15fad10d9b3ae91afba342a11a582\")\n      dup2\n      jump\t// out\n        /* \"contracts/PVCContest.sol\":1178:1208  uint256 public submissionCount */\n    tag_43:\n      sload(0x00)\n      dup2\n      jump\t// out\n        /* \"contracts/PVCContest.sol\":3169:3465  function weightNumeratorFor(uint32 errorBps_) public view returns (uint256) {... */\n    tag_48:\n        /* \"contracts/PVCContest.sol\":3236:3243  uint256 */\n      0x00\n        /* \"contracts/PVCContest.sol\":3255:3268  uint256 denom */\n      0x00\n        /* \"contracts/PVCContest.sol\":3300:3306  epsBps */\n      immutable(\"0xd3a2f60d4175fcfd37f3d088e70d6e3a2a5f35b74e763315c03c1fa1b0a93a6e\")\n        /* \"contracts/PVCContest.sol\":3292:3307  uint256(epsBps) */\n      0xffffffff\n      and\n        /* \"contracts/PVCContest.sol\":3279:3288  errorBps_ */\n      dup4\n        /* \"contracts/PVCContest.sol\":3271:3289  uint256(errorBps_) */\n      0xffffffff\n      and\n        /* \"contracts/PVCContest.sol\":3271:3307  uint256(errorBps_) + uint256(epsBps) */\n      tag_138\n      swap2\n      swap1\n      tag_91\n      jump\t// in\n    tag_138:\n        /* \"contracts/PVCContest.sol\":3255:3307  uint256 denom = uint256(errorBps_) + uint256(epsBps) */\n      swap1\n      pop\n        /* \"contracts/PVCContest.sol\":3390:3391  0 */\n      0x00\n        /* \"contracts/PVCContest.sol\":3381:3386  denom */\n      dup2\n        /* \"contracts/PVCContest.sol\":3381:3391  denom == 0 */\n      sub\n        /* \"contracts/PVCContest.sol\":3377:3402  if (denom == 0) denom = 1 */\n      tag_139\n      jumpi\n        /* \"contracts/PVCContest.sol\":3401:3402  1 */\n      0x01\n        /* \"contracts/PVCContest.sol\":3393:3402  denom = 1 */\n      swap1\n      pop\n        /* \"contracts/PVCContest.sol\":3377:3402  if (denom == 0) denom = 1 */\n    tag_139:\n        /* \"contracts/PVCContest.sol\":3433:3438  denom */\n      dup1\n        /* \"contracts/PVCContest.sol\":794:798  1e12 */\n      0xe8d4a51000\n        /* \"contracts/PVCContest.sol\":3419:3438  WEIGHT_BASE / denom */\n      tag_140\n      swap2\n      swap1\n      tag_141\n      jump\t// in\n    tag_140:\n        /* \"contracts/PVCContest.sol\":3412:3438  return WEIGHT_BASE / denom */\n      swap2\n      pop\n      pop\n        /* \"contracts/PVCContest.sol\":3169:3465  function weightNumeratorFor(uint32 errorBps_) public view returns (uint256) {... */\n      swap2\n      swap1\n      pop\n      jump\t// out\n        /* \"contracts/PVCContest.sol\":2819:3163  function weightNumerator(uint32 errorBps) public pure returns (uint256) {... */\n    tag_52:\n        /* \"contracts/PVCContest.sol\":2882:2889  uint256 */\n      0x00\n        /* \"contracts/PVCContest.sol\":3155:3156  0 */\n      0x00\n        /* \"contracts/PVCContest.sol\":3148:3156  return 0 */\n      swap1\n      pop\n        /* \"contracts/PVCContest.sol\":2819:3163  function weightNumerator(uint32 errorBps) public pure returns (uint256) {... */\n      swap2\n      swap1\n      pop\n      jump\t// out\n        /* \"contracts/PVCContest.sol\":7619:7718  function totalSubmissions() external view returns (uint256) {... */\n    tag_55:\n        /* \"contracts/PVCContest.sol\":7670:7677  uint256 */\n      0x00\n        /* \"contracts/PVCContest.sol\":7696:7711  submissionCount */\n      sload(0x00)\n        /* \"contracts/PVCContest.sol\":7689:7711  return submissionCount */\n      swap1\n      pop\n        /* \"contracts/PVCContest.sol\":7619:7718  function totalSubmissions() external view returns (uint256) {... */\n      swap1\n      jump\t// out\n        /* \"contracts/PVCContest.sol\":618:653  uint256 public immutable poolAmount */\n    tag_58:\n      immutable(\"0x7544cb630261d9d070979689fb82f5401ae3cac6ec1ed588bfd9c696b9df0c3a\")\n      dup2\n      jump\t// out\n        /* \"contracts/PVCContest.sol\":1214:1263  mapping(uint256 => Submission) public submissions */\n    tag_62:\n      mstore(0x20, 0x01)\n      dup1\n      0x00\n      mstore\n      keccak256(0x00, 0x40)\n      0x00\n      swap2\n      pop\n      swap1\n      pop\n      dup1\n      0x00\n      add\n      0x00\n      swap1\n      sload\n      swap1\n      0x0100\n      exp\n      swap1\n      div\n      0xffffffffffffffffffffffffffffffffffffffff\n      and\n      swap1\n      dup1\n      0x04\n      add\n      sload\n      swap1\n      dup1\n      0x05\n      add\n      0x00\n      swap1\n      sload\n      swap1\n      0x0100\n      exp\n      swap1\n      div\n      0xffffffff\n      and\n      swap1\n      dup1\n      0x06\n      add\n      mload(0x40)\n      dup1\n      0x40\n      add\n      0x40\n      mstore\n      swap1\n      dup2\n      0x00\n      dup3\n      add\n      sload\n      dup2\n      mstore\n      0x20\n      add\n      0x01\n      dup3\n      add\n      sload\n      dup2\n      mstore\n      pop\n      pop\n      swap1\n      dup1\n      0x08\n      add\n      dup1\n      sload\n      tag_144\n      swap1\n      tag_132\n      jump\t// in\n    tag_144:\n      dup1\n      0x1f\n      add\n      0x20\n      dup1\n      swap2\n      div\n      mul\n      0x20\n      add\n      mload(0x40)\n      swap1\n      dup2\n      add\n      0x40\n      mstore\n      dup1\n      swap3\n      swap2\n      swap1\n      dup2\n      dup2\n      mstore\n      0x20\n      add\n      dup3\n      dup1\n      sload\n      tag_145\n      swap1\n      tag_132\n      jump\t// in\n    tag_145:\n      dup1\n      iszero\n      tag_146\n      jumpi\n      dup1\n      0x1f\n      lt\n      tag_147\n      jumpi\n      0x0100\n      dup1\n      dup4\n      sload\n      div\n      mul\n      dup4\n      mstore\n      swap2\n      0x20\n      add\n      swap2\n      jump(tag_146)\n    tag_147:\n      dup3\n      add\n      swap2\n      swap1\n      0x00\n      mstore\n      keccak256(0x00, 0x20)\n      swap1\n    tag_148:\n      dup2\n      sload\n      dup2\n      mstore\n      swap1\n      0x01\n      add\n      swap1\n      0x20\n      add\n      dup1\n      dup4\n      gt\n      tag_148\n      jumpi\n      dup3\n      swap1\n      sub\n      0x1f\n      and\n      dup3\n      add\n      swap2\n    tag_146:\n      pop\n      pop\n      pop\n      pop\n      pop\n      swap1\n      dup1\n      0x09\n      add\n      0x00\n      swap1\n      sload\n      swap1\n      0x0100\n      exp\n      swap1\n      div\n      0xff\n      and\n      swap1\n      pop\n      dup7\n      jump\t// out\n        /* \"contracts/PVCContest.sol\":1270:1291  bool public finalized */\n    tag_66:\n      0x02\n      0x00\n      swap1\n      sload\n      swap1\n      0x0100\n      exp\n      swap1\n      div\n      0xff\n      and\n      dup2\n      jump\t// out\n        /* \"contracts/PVCContest.sol\":659:690  uint32  public immutable epsBps */\n    tag_70:\n      immutable(\"0xd3a2f60d4175fcfd37f3d088e70d6e3a2a5f35b74e763315c03c1fa1b0a93a6e\")\n      dup2\n      jump\t// out\n        /* \"contracts/PVCContest.sol\":5121:7061  function verifyAggregationAndPayout(int256[3] calldata Wsum, uint256 Rsum, string calldata aggregatedModelUri) external {... */\n    tag_76:\n        /* \"contracts/PVCContest.sol\":5260:5269  finalized */\n      0x02\n      0x00\n      swap1\n      sload\n      swap1\n      0x0100\n      exp\n      swap1\n      div\n      0xff\n      and\n        /* \"contracts/PVCContest.sol\":5259:5269  !finalized */\n      iszero\n        /* \"contracts/PVCContest.sol\":5251:5291  require(!finalized, \"already finalized\") */\n      tag_150\n      jumpi\n      mload(0x40)\n      0x08c379a000000000000000000000000000000000000000000000000000000000\n      dup2\n      mstore\n      0x04\n      add\n      tag_151\n      swap1\n      tag_152\n      jump\t// in\n    tag_151:\n      mload(0x40)\n      dup1\n      swap2\n      sub\n      swap1\n      revert\n    tag_150:\n        /* \"contracts/PVCContest.sol\":5327:5328  0 */\n      0x00\n        /* \"contracts/PVCContest.sol\":5309:5324  submissionCount */\n      sload(0x00)\n        /* \"contracts/PVCContest.sol\":5309:5328  submissionCount > 0 */\n      gt\n        /* \"contracts/PVCContest.sol\":5301:5347  require(submissionCount > 0, \"no submissions\") */\n      tag_153\n      jumpi\n      mload(0x40)\n      0x08c379a000000000000000000000000000000000000000000000000000000000\n      dup2\n      mstore\n      0x04\n      add\n      tag_154\n      swap1\n      tag_155\n      jump\t// in\n    tag_154:\n      mload(0x40)\n      dup1\n      swap2\n      sub\n      swap1\n      revert\n    tag_153:\n        /* \"contracts/PVCContest.sol\":5411:5435  BN254.G1Point memory rhs */\n      0x00\n        /* \"contracts/PVCContest.sol\":5438:5448  BN254.P0() */\n      tag_156\n        /* \"contracts/PVCContest.sol\":5438:5446  BN254.P0 */\n      tag_157\n        /* \"contracts/PVCContest.sol\":5438:5448  BN254.P0() */\n      jump\t// in\n    tag_156:\n        /* \"contracts/PVCContest.sol\":5411:5448  BN254.G1Point memory rhs = BN254.P0() */\n      swap1\n      pop\n        /* \"contracts/PVCContest.sol\":5458:5472  uint256 sumNum */\n      0x00\n        /* \"contracts/PVCContest.sol\":5475:5476  0 */\n      0x00\n        /* \"contracts/PVCContest.sol\":5458:5476  uint256 sumNum = 0 */\n      swap1\n      pop\n        /* \"contracts/PVCContest.sol\":5492:5501  uint256 i */\n      0x00\n        /* \"contracts/PVCContest.sol\":5504:5505  1 */\n      0x01\n        /* \"contracts/PVCContest.sol\":5492:5505  uint256 i = 1 */\n      swap1\n      pop\n        /* \"contracts/PVCContest.sol\":5487:5830  for (uint256 i = 1; i <= submissionCount; i++) {... */\n    tag_158:\n        /* \"contracts/PVCContest.sol\":5512:5527  submissionCount */\n      sload(0x00)\n        /* \"contracts/PVCContest.sol\":5507:5508  i */\n      dup2\n        /* \"contracts/PVCContest.sol\":5507:5527  i <= submissionCount */\n      gt\n        /* \"contracts/PVCContest.sol\":5487:5830  for (uint256 i = 1; i <= submissionCount; i++) {... */\n      tag_159\n      jumpi\n        /* \"contracts/PVCContest.sol\":5548:5568  Submission storage S */\n      0x00\n        /* \"contracts/PVCContest.sol\":5571:5582  submissions */\n      0x01\n        /* \"contracts/PVCContest.sol\":5571:5585  submissions[i] */\n      0x00\n        /* \"contracts/PVCContest.sol\":5583:5584  i */\n      dup4\n        /* \"contracts/PVCContest.sol\":5571:5585  submissions[i] */\n      dup2\n      mstore\n      0x20\n      add\n      swap1\n      dup2\n      mstore\n      0x20\n      add\n      0x00\n      keccak256\n        /* \"contracts/PVCContest.sol\":5548:5585  Submission storage S = submissions[i] */\n      swap1\n      pop\n        /* \"contracts/PVCContest.sol\":5604:5605  S */\n      dup1\n        /* \"contracts/PVCContest.sol\":5604:5612  S.exists */\n      0x09\n      add\n      0x00\n      swap1\n      sload\n      swap1\n      0x0100\n      exp\n      swap1\n      div\n      0xff\n      and\n        /* \"contracts/PVCContest.sol\":5599:5622  if (!S.exists) continue */\n      tag_161\n      jumpi\n        /* \"contracts/PVCContest.sol\":5614:5622  continue */\n      pop\n      jump(tag_160)\n        /* \"contracts/PVCContest.sol\":5599:5622  if (!S.exists) continue */\n    tag_161:\n        /* \"contracts/PVCContest.sol\":5636:5649  uint256 num_i */\n      0x00\n        /* \"contracts/PVCContest.sol\":5652:5682  weightNumeratorFor(S.errorBps) */\n      tag_162\n        /* \"contracts/PVCContest.sol\":5671:5672  S */\n      dup3\n        /* \"contracts/PVCContest.sol\":5671:5681  S.errorBps */\n      0x05\n      add\n      0x00\n      swap1\n      sload\n      swap1\n      0x0100\n      exp\n      swap1\n      div\n      0xffffffff\n      and\n        /* \"contracts/PVCContest.sol\":5652:5670  weightNumeratorFor */\n      tag_48\n        /* \"contracts/PVCContest.sol\":5652:5682  weightNumeratorFor(S.errorBps) */\n      jump\t// in\n    tag_162:\n        /* \"contracts/PVCContest.sol\":5636:5682  uint256 num_i = weightNumeratorFor(S.errorBps) */\n      swap1\n      pop\n        /* \"contracts/PVCContest.sol\":5706:5711  num_i */\n      dup1\n        /* \"contracts/PVCContest.sol\":5696:5711  sumNum += num_i */\n      dup5\n      tag_163\n      swap2\n      swap1\n      tag_91\n      jump\t// in\n    tag_163:\n      swap4\n      pop\n        /* \"contracts/PVCContest.sol\":5725:5750  BN254.G1Point memory term */\n      0x00\n        /* \"contracts/PVCContest.sol\":5753:5774  BN254.mul(S.C, num_i) */\n      tag_164\n        /* \"contracts/PVCContest.sol\":5763:5764  S */\n      dup4\n        /* \"contracts/PVCContest.sol\":5763:5766  S.C */\n      0x06\n      add\n        /* \"contracts/PVCContest.sol\":5753:5774  BN254.mul(S.C, num_i) */\n      mload(0x40)\n      dup1\n      0x40\n      add\n      0x40\n      mstore\n      swap1\n      dup2\n      0x00\n      dup3\n      add\n      sload\n      dup2\n      mstore\n      0x20\n      add\n      0x01\n      dup3\n      add\n      sload\n      dup2\n      mstore\n      pop\n      pop\n        /* \"contracts/PVCContest.sol\":5768:5773  num_i */\n      dup4\n        /* \"contracts/PVCContest.sol\":5753:5762  BN254.mul */\n      tag_165\n        /* \"contracts/PVCContest.sol\":5753:5774  BN254.mul(S.C, num_i) */\n      jump\t// in\n    tag_164:\n        /* \"contracts/PVCContest.sol\":5725:5774  BN254.G1Point memory term = BN254.mul(S.C, num_i) */\n      swap1\n      pop\n        /* \"contracts/PVCContest.sol\":5794:5819  BN254.addAccum(rhs, term) */\n      tag_166\n        /* \"contracts/PVCContest.sol\":5809:5812  rhs */\n      dup7\n        /* \"contracts/PVCContest.sol\":5814:5818  term */\n      dup3\n        /* \"contracts/PVCContest.sol\":5794:5808  BN254.addAccum */\n      tag_167\n        /* \"contracts/PVCContest.sol\":5794:5819  BN254.addAccum(rhs, term) */\n      jump\t// in\n    tag_166:\n        /* \"contracts/PVCContest.sol\":5788:5819  rhs = BN254.addAccum(rhs, term) */\n      swap6\n      pop\n        /* \"contracts/PVCContest.sol\":5534:5830  {... */\n      pop\n      pop\n      pop\n        /* \"contracts/PVCContest.sol\":5487:5830  for (uint256 i = 1; i <= submissionCount; i++) {... */\n    tag_160:\n        /* \"contracts/PVCContest.sol\":5529:5532  i++ */\n      dup1\n      dup1\n      tag_168\n      swap1\n      tag_108\n      jump\t// in\n    tag_168:\n      swap2\n      pop\n      pop\n        /* \"contracts/PVCContest.sol\":5487:5830  for (uint256 i = 1; i <= submissionCount; i++) {... */\n      jump(tag_158)\n    tag_159:\n      pop\n        /* \"contracts/PVCContest.sol\":5856:5857  0 */\n      0x00\n        /* \"contracts/PVCContest.sol\":5847:5853  sumNum */\n      dup2\n        /* \"contracts/PVCContest.sol\":5847:5857  sumNum > 0 */\n      gt\n        /* \"contracts/PVCContest.sol\":5839:5870  require(sumNum > 0, \"sumNum=0\") */\n      tag_169\n      jumpi\n      mload(0x40)\n      0x08c379a000000000000000000000000000000000000000000000000000000000\n      dup2\n      mstore\n      0x04\n      add\n      tag_170\n      swap1\n      tag_171\n      jump\t// in\n    tag_170:\n      mload(0x40)\n      dup1\n      swap2\n      sub\n      swap1\n      revert\n    tag_169:\n        /* \"contracts/PVCContest.sol\":5935:5959  BN254.G1Point memory lhs */\n      0x00\n        /* \"contracts/PVCContest.sol\":5962:5981  commit3(Wsum, Rsum) */\n      tag_172\n        /* \"contracts/PVCContest.sol\":5970:5974  Wsum */\n      dup8\n        /* \"contracts/PVCContest.sol\":5962:5981  commit3(Wsum, Rsum) */\n      0x03\n      dup1\n      0x20\n      mul\n      mload(0x40)\n      swap1\n      dup2\n      add\n      0x40\n      mstore\n      dup1\n      swap3\n      swap2\n      swap1\n      dup3\n      mul(0x20, 0x03)\n      dup1\n      dup3\n      dup5\n      calldatacopy\n      0x00\n      dup2\n      dup5\n      add\n      mstore\n      not(0x1f)\n      0x1f\n      dup3\n      add\n      and\n      swap1\n      pop\n      dup1\n      dup4\n      add\n      swap3\n      pop\n      pop\n      pop\n      pop\n      pop\n      pop\n        /* \"contracts/PVCContest.sol\":5976:5980  Rsum */\n      dup8\n        /* \"contracts/PVCContest.sol\":5962:5969  commit3 */\n      tag_115\n        /* \"contracts/PVCContest.sol\":5962:5981  commit3(Wsum, Rsum) */\n      jump\t// in\n    tag_172:\n        /* \"contracts/PVCContest.sol\":5935:5981  BN254.G1Point memory lhs = commit3(Wsum, Rsum) */\n      swap1\n      pop\n        /* \"contracts/PVCContest.sol\":6026:6044  BN254.eq(lhs, rhs) */\n      tag_173\n        /* \"contracts/PVCContest.sol\":6035:6038  lhs */\n      dup2\n        /* \"contracts/PVCContest.sol\":6040:6043  rhs */\n      dup5\n        /* \"contracts/PVCContest.sol\":6026:6034  BN254.eq */\n      tag_174\n        /* \"contracts/PVCContest.sol\":6026:6044  BN254.eq(lhs, rhs) */\n      jump\t// in\n    tag_173:\n        /* \"contracts/PVCContest.sol\":6018:6073  require(BN254.eq(lhs, rhs), \"aggregation PVC mismatch\") */\n      tag_175\n      jumpi\n      mload(0x40)\n      0x08c379a000000000000000000000000000000000000000000000000000000000\n      dup2\n      mstore\n      0x04\n      add\n      tag_176\n      swap1\n      tag_177\n      jump\t// in\n    tag_176:\n      mload(0x40)\n      dup1\n      swap2\n      sub\n      swap1\n      revert\n    tag_175:\n        /* \"contracts/PVCContest.sol\":6117:6134  uint256 remaining */\n      0x00\n        /* \"contracts/PVCContest.sol\":6137:6147  poolAmount */\n      immutable(\"0x7544cb630261d9d070979689fb82f5401ae3cac6ec1ed588bfd9c696b9df0c3a\")\n        /* \"contracts/PVCContest.sol\":6117:6147  uint256 remaining = poolAmount */\n      swap1\n      pop\n        /* \"contracts/PVCContest.sol\":6162:6171  uint256 i */\n      0x00\n        /* \"contracts/PVCContest.sol\":6174:6175  1 */\n      0x01\n        /* \"contracts/PVCContest.sol\":6162:6175  uint256 i = 1 */\n      swap1\n      pop\n        /* \"contracts/PVCContest.sol\":6157:6709  for (uint256 i = 1; i <= submissionCount; i++) {... */\n    tag_178:\n        /* \"contracts/PVCContest.sol\":6182:6197  submissionCount */\n      sload(0x00)\n        /* \"contracts/PVCContest.sol\":6177:6178  i */\n      dup2\n        /* \"contracts/PVCContest.sol\":6177:6197  i <= submissionCount */\n      gt\n        /* \"contracts/PVCContest.sol\":6157:6709  for (uint256 i = 1; i <= submissionCount; i++) {... */\n      tag_179\n      jumpi\n        /* \"contracts/PVCContest.sol\":6218:6238  Submission storage S */\n      0x00\n        /* \"contracts/PVCContest.sol\":6241:6252  submissions */\n      0x01\n        /* \"contracts/PVCContest.sol\":6241:6255  submissions[i] */\n      0x00\n        /* \"contracts/PVCContest.sol\":6253:6254  i */\n      dup4\n        /* \"contracts/PVCContest.sol\":6241:6255  submissions[i] */\n      dup2\n      mstore\n      0x20\n      add\n      swap1\n      dup2\n      mstore\n      0x20\n      add\n      0x00\n      keccak256\n        /* \"contracts/PVCContest.sol\":6218:6255  Submission storage S = submissions[i] */\n      swap1\n      pop\n        /* \"contracts/PVCContest.sol\":6274:6275  S */\n      dup1\n        /* \"contracts/PVCContest.sol\":6274:6282  S.exists */\n      0x09\n      add\n      0x00\n      swap1\n      sload\n      swap1\n      0x0100\n      exp\n      swap1\n      div\n      0xff\n      and\n        /* \"contracts/PVCContest.sol\":6269:6292  if (!S.exists) continue */\n      tag_181\n      jumpi\n        /* \"contracts/PVCContest.sol\":6284:6292  continue */\n      pop\n      jump(tag_180)\n        /* \"contracts/PVCContest.sol\":6269:6292  if (!S.exists) continue */\n    tag_181:\n        /* \"contracts/PVCContest.sol\":6306:6319  uint256 num_i */\n      0x00\n        /* \"contracts/PVCContest.sol\":6322:6352  weightNumeratorFor(S.errorBps) */\n      tag_182\n        /* \"contracts/PVCContest.sol\":6341:6342  S */\n      dup3\n        /* \"contracts/PVCContest.sol\":6341:6351  S.errorBps */\n      0x05\n      add\n      0x00\n      swap1\n      sload\n      swap1\n      0x0100\n      exp\n      swap1\n      div\n      0xffffffff\n      and\n        /* \"contracts/PVCContest.sol\":6322:6340  weightNumeratorFor */\n      tag_48\n        /* \"contracts/PVCContest.sol\":6322:6352  weightNumeratorFor(S.errorBps) */\n      jump\t// in\n    tag_182:\n        /* \"contracts/PVCContest.sol\":6306:6352  uint256 num_i = weightNumeratorFor(S.errorBps) */\n      swap1\n      pop\n        /* \"contracts/PVCContest.sol\":6379:6380  0 */\n      0x00\n        /* \"contracts/PVCContest.sol\":6370:6375  num_i */\n      dup2\n        /* \"contracts/PVCContest.sol\":6370:6380  num_i == 0 */\n      sub\n        /* \"contracts/PVCContest.sol\":6366:6390  if (num_i == 0) continue */\n      tag_183\n      jumpi\n        /* \"contracts/PVCContest.sol\":6382:6390  continue */\n      pop\n      pop\n      jump(tag_180)\n        /* \"contracts/PVCContest.sol\":6366:6390  if (num_i == 0) continue */\n    tag_183:\n        /* \"contracts/PVCContest.sol\":6457:6468  uint256 amt */\n      0x00\n        /* \"contracts/PVCContest.sol\":6494:6500  sumNum */\n      dup7\n        /* \"contracts/PVCContest.sol\":6485:6490  num_i */\n      dup3\n        /* \"contracts/PVCContest.sol\":6472:6482  poolAmount */\n      immutable(\"0x7544cb630261d9d070979689fb82f5401ae3cac6ec1ed588bfd9c696b9df0c3a\")\n        /* \"contracts/PVCContest.sol\":6472:6490  poolAmount * num_i */\n      tag_184\n      swap2\n      swap1\n      tag_185\n      jump\t// in\n    tag_184:\n        /* \"contracts/PVCContest.sol\":6471:6500  (poolAmount * num_i) / sumNum */\n      tag_186\n      swap2\n      swap1\n      tag_141\n      jump\t// in\n    tag_186:\n        /* \"contracts/PVCContest.sol\":6457:6500  uint256 amt = (poolAmount * num_i) / sumNum */\n      swap1\n      pop\n        /* \"contracts/PVCContest.sol\":6524:6525  0 */\n      0x00\n        /* \"contracts/PVCContest.sol\":6518:6521  amt */\n      dup2\n        /* \"contracts/PVCContest.sol\":6518:6525  amt > 0 */\n      gt\n        /* \"contracts/PVCContest.sol\":6514:6699  if (amt > 0) {... */\n      iszero\n      tag_187\n      jumpi\n        /* \"contracts/PVCContest.sol\":6558:6561  amt */\n      dup1\n        /* \"contracts/PVCContest.sol\":6545:6561  remaining -= amt */\n      dup6\n      tag_188\n      swap2\n      swap1\n      tag_189\n      jump\t// in\n    tag_188:\n      swap5\n      pop\n        /* \"contracts/PVCContest.sol\":6587:6592  token */\n      immutable(\"0x12119428a65b5c15d841e5b0333aa9eb7f832c3b45419daa50c4845dee01bc56\")\n        /* \"contracts/PVCContest.sol\":6587:6601  token.transfer */\n      0xffffffffffffffffffffffffffffffffffffffff\n      and\n      0xa9059cbb\n        /* \"contracts/PVCContest.sol\":6602:6603  S */\n      dup5\n        /* \"contracts/PVCContest.sol\":6602:6613  S.submitter */\n      0x00\n      add\n      0x00\n      swap1\n      sload\n      swap1\n      0x0100\n      exp\n      swap1\n      div\n      0xffffffffffffffffffffffffffffffffffffffff\n      and\n        /* \"contracts/PVCContest.sol\":6615:6618  amt */\n      dup4\n        /* \"contracts/PVCContest.sol\":6587:6619  token.transfer(S.submitter, amt) */\n      mload(0x40)\n      dup4\n      0xffffffff\n      and\n      0xe0\n      shl\n      dup2\n      mstore\n      0x04\n      add\n      tag_190\n      swap3\n      swap2\n      swap1\n      tag_191\n      jump\t// in\n    tag_190:\n      0x20\n      mload(0x40)\n      dup1\n      dup4\n      sub\n      dup2\n      0x00\n      dup8\n      gas\n      call\n      iszero\n      dup1\n      iszero\n      tag_193\n      jumpi\n      returndatacopy(0x00, 0x00, returndatasize)\n      revert(0x00, returndatasize)\n    tag_193:\n      pop\n      pop\n      pop\n      pop\n      mload(0x40)\n      returndatasize\n      not(0x1f)\n      0x1f\n      dup3\n      add\n      and\n      dup3\n      add\n      dup1\n      0x40\n      mstore\n      pop\n      dup2\n      add\n      swap1\n      tag_194\n      swap2\n      swap1\n      tag_195\n      jump\t// in\n    tag_194:\n        /* \"contracts/PVCContest.sol\":6579:6639  require(token.transfer(S.submitter, amt), \"transfer failed\") */\n      tag_196\n      jumpi\n      mload(0x40)\n      0x08c379a000000000000000000000000000000000000000000000000000000000\n      dup2\n      mstore\n      0x04\n      add\n      tag_197\n      swap1\n      tag_198\n      jump\t// in\n    tag_197:\n      mload(0x40)\n      dup1\n      swap2\n      sub\n      swap1\n      revert\n    tag_196:\n        /* \"contracts/PVCContest.sol\":6667:6668  S */\n      dup3\n        /* \"contracts/PVCContest.sol\":6667:6678  S.submitter */\n      0x00\n      add\n      0x00\n      swap1\n      sload\n      swap1\n      0x0100\n      exp\n      swap1\n      div\n      0xffffffffffffffffffffffffffffffffffffffff\n      and\n        /* \"contracts/PVCContest.sol\":6662:6684  Paid(S.submitter, amt) */\n      0xffffffffffffffffffffffffffffffffffffffff\n      and\n      0x737c69225d647e5994eab1a6c301bf6d9232beb2759ae1e27a8966b4732bc489\n        /* \"contracts/PVCContest.sol\":6680:6683  amt */\n      dup3\n        /* \"contracts/PVCContest.sol\":6662:6684  Paid(S.submitter, amt) */\n      mload(0x40)\n      tag_199\n      swap2\n      swap1\n      tag_32\n      jump\t// in\n    tag_199:\n      mload(0x40)\n      dup1\n      swap2\n      sub\n      swap1\n      log2\n        /* \"contracts/PVCContest.sol\":6514:6699  if (amt > 0) {... */\n    tag_187:\n        /* \"contracts/PVCContest.sol\":6204:6709  {... */\n      pop\n      pop\n      pop\n        /* \"contracts/PVCContest.sol\":6157:6709  for (uint256 i = 1; i <= submissionCount; i++) {... */\n    tag_180:\n        /* \"contracts/PVCContest.sol\":6199:6202  i++ */\n      dup1\n      dup1\n      tag_200\n      swap1\n      tag_108\n      jump\t// in\n    tag_200:\n      swap2\n      pop\n      pop\n        /* \"contracts/PVCContest.sol\":6157:6709  for (uint256 i = 1; i <= submissionCount; i++) {... */\n      jump(tag_178)\n    tag_179:\n      pop\n        /* \"contracts/PVCContest.sol\":6806:6810  true */\n      0x01\n        /* \"contracts/PVCContest.sol\":6794:6803  finalized */\n      0x02\n      0x00\n        /* \"contracts/PVCContest.sol\":6794:6810  finalized = true */\n      0x0100\n      exp\n      dup2\n      sload\n      dup2\n      0xff\n      mul\n      not\n      and\n      swap1\n      dup4\n      iszero\n      iszero\n      mul\n      or\n      swap1\n      sstore\n      pop\n        /* \"contracts/PVCContest.sol\":6923:6940  bytes32 proofHash */\n      0x00\n        /* \"contracts/PVCContest.sol\":6970:6988  aggregatedModelUri */\n      dup7\n      dup7\n        /* \"contracts/PVCContest.sol\":6990:6994  Wsum */\n      dup11\n        /* \"contracts/PVCContest.sol\":6996:7000  Rsum */\n      dup11\n        /* \"contracts/PVCContest.sol\":7002:7008  sumNum */\n      dup8\n        /* \"contracts/PVCContest.sol\":6953:7009  abi.encodePacked(aggregatedModelUri, Wsum, Rsum, sumNum) */\n      add(0x20, mload(0x40))\n      tag_201\n      swap6\n      swap5\n      swap4\n      swap3\n      swap2\n      swap1\n      tag_202\n      jump\t// in\n    tag_201:\n      mload(0x40)\n      0x20\n      dup2\n      dup4\n      sub\n      sub\n      dup2\n      mstore\n      swap1\n      0x40\n      mstore\n        /* \"contracts/PVCContest.sol\":6943:7010  keccak256(abi.encodePacked(aggregatedModelUri, Wsum, Rsum, sumNum)) */\n      dup1\n      mload\n      swap1\n      0x20\n      add\n      keccak256\n        /* \"contracts/PVCContest.sol\":6923:7010  bytes32 proofHash = keccak256(abi.encodePacked(aggregatedModelUri, Wsum, Rsum, sumNum)) */\n      swap1\n      pop\n        /* \"contracts/PVCContest.sol\":7025:7054  Aggregated(proofHash, sumNum) */\n      0xd827b005bf57a7bc26451fa8c853ab1baca77e3409a05e7232a55e635385e756\n        /* \"contracts/PVCContest.sol\":7036:7045  proofHash */\n      dup2\n        /* \"contracts/PVCContest.sol\":7047:7053  sumNum */\n      dup6\n        /* \"contracts/PVCContest.sol\":7025:7054  Aggregated(proofHash, sumNum) */\n      mload(0x40)\n      tag_203\n      swap3\n      swap2\n      swap1\n      tag_204\n      jump\t// in\n    tag_203:\n      mload(0x40)\n      dup1\n      swap2\n      sub\n      swap1\n      log1\n        /* \"contracts/PVCContest.sol\":5241:7061  {... */\n      pop\n      pop\n      pop\n      pop\n      pop\n        /* \"contracts/PVCContest.sol\":5121:7061  function verifyAggregationAndPayout(int256[3] calldata Wsum, uint256 Rsum, string calldata aggregatedModelUri) external {... */\n      pop\n      pop\n      pop\n      pop\n      jump\t// out\n        /* \"contracts/PVCContest.sol\":756:798  uint256 public constant WEIGHT_BASE = 1e12 */\n    tag_78:\n        /* \"contracts/PVCContest.sol\":794:798  1e12 */\n      0xe8d4a51000\n        /* \"contracts/PVCContest.sol\":756:798  uint256 public constant WEIGHT_BASE = 1e12 */\n      dup2\n      jump\t// out\n        /* \"contracts/PVCContest.sol\":543:572  IERC20 public immutable token */\n    tag_81:\n      immutable(\"0x12119428a65b5c15d841e5b0333aa9eb7f832c3b45419daa50c4845dee01bc56\")\n      dup2\n      jump\t// out\n        /* \"contracts/PVCContest.sol\":2091:2756  function commit3(int256[3] memory w, uint256 r) internal view returns (BN254.G1Point memory acc) {... */\n    tag_115:\n        /* \"contracts/PVCContest.sol\":2162:2186  BN254.G1Point memory acc */\n      tag_205\n      tag_206\n      jump\t// in\n    tag_205:\n        /* \"contracts/PVCContest.sol\":2204:2214  BN254.P0() */\n      tag_208\n        /* \"contracts/PVCContest.sol\":2204:2212  BN254.P0 */\n      tag_157\n        /* \"contracts/PVCContest.sol\":2204:2214  BN254.P0() */\n      jump\t// in\n    tag_208:\n        /* \"contracts/PVCContest.sol\":2198:2214  acc = BN254.P0() */\n      swap1\n      pop\n        /* \"contracts/PVCContest.sol\":2224:2249  BN254.G1Point memory term */\n      tag_209\n      tag_206\n      jump\t// in\n    tag_209:\n        /* \"contracts/PVCContest.sol\":2260:2270  uint256 w0 */\n      0x00\n        /* \"contracts/PVCContest.sol\":2273:2292  BN254.toField(w[0]) */\n      tag_210\n        /* \"contracts/PVCContest.sol\":2287:2288  w */\n      dup6\n        /* \"contracts/PVCContest.sol\":2289:2290  0 */\n      0x00\n        /* \"contracts/PVCContest.sol\":2287:2291  w[0] */\n      0x03\n      dup2\n      lt\n      tag_211\n      jumpi\n      tag_212\n      tag_103\n      jump\t// in\n    tag_212:\n    tag_211:\n      0x20\n      mul\n      add\n      mload\n        /* \"contracts/PVCContest.sol\":2273:2286  BN254.toField */\n      tag_213\n        /* \"contracts/PVCContest.sol\":2273:2292  BN254.toField(w[0]) */\n      jump\t// in\n    tag_210:\n        /* \"contracts/PVCContest.sol\":2260:2292  uint256 w0 = BN254.toField(w[0]) */\n      swap1\n      pop\n        /* \"contracts/PVCContest.sol\":2309:2340  BN254.mul(PVC3Params.Gi(0), w0) */\n      tag_214\n        /* \"contracts/PVCContest.sol\":2319:2335  PVC3Params.Gi(0) */\n      tag_215\n        /* \"contracts/PVCContest.sol\":2333:2334  0 */\n      0x00\n        /* \"contracts/PVCContest.sol\":2319:2332  PVC3Params.Gi */\n      tag_216\n        /* \"contracts/PVCContest.sol\":2319:2335  PVC3Params.Gi(0) */\n      jump\t// in\n    tag_215:\n        /* \"contracts/PVCContest.sol\":2337:2339  w0 */\n      dup3\n        /* \"contracts/PVCContest.sol\":2309:2318  BN254.mul */\n      tag_165\n        /* \"contracts/PVCContest.sol\":2309:2340  BN254.mul(PVC3Params.Gi(0), w0) */\n      jump\t// in\n    tag_214:\n        /* \"contracts/PVCContest.sol\":2302:2340  term = BN254.mul(PVC3Params.Gi(0), w0) */\n      swap2\n      pop\n        /* \"contracts/PVCContest.sol\":2356:2381  BN254.addAccum(acc, term) */\n      tag_217\n        /* \"contracts/PVCContest.sol\":2371:2374  acc */\n      dup4\n        /* \"contracts/PVCContest.sol\":2376:2380  term */\n      dup4\n        /* \"contracts/PVCContest.sol\":2356:2370  BN254.addAccum */\n      tag_167\n        /* \"contracts/PVCContest.sol\":2356:2381  BN254.addAccum(acc, term) */\n      jump\t// in\n    tag_217:\n        /* \"contracts/PVCContest.sol\":2350:2381  acc = BN254.addAccum(acc, term) */\n      swap3\n      pop\n        /* \"contracts/PVCContest.sol\":2392:2402  uint256 w1 */\n      0x00\n        /* \"contracts/PVCContest.sol\":2405:2424  BN254.toField(w[1]) */\n      tag_218\n        /* \"contracts/PVCContest.sol\":2419:2420  w */\n      dup7\n        /* \"contracts/PVCContest.sol\":2421:2422  1 */\n      0x01\n        /* \"contracts/PVCContest.sol\":2419:2423  w[1] */\n      0x03\n      dup2\n      lt\n      tag_219\n      jumpi\n      tag_220\n      tag_103\n      jump\t// in\n    tag_220:\n    tag_219:\n      0x20\n      mul\n      add\n      mload\n        /* \"contracts/PVCContest.sol\":2405:2418  BN254.toField */\n      tag_213\n        /* \"contracts/PVCContest.sol\":2405:2424  BN254.toField(w[1]) */\n      jump\t// in\n    tag_218:\n        /* \"contracts/PVCContest.sol\":2392:2424  uint256 w1 = BN254.toField(w[1]) */\n      swap1\n      pop\n        /* \"contracts/PVCContest.sol\":2441:2472  BN254.mul(PVC3Params.Gi(1), w1) */\n      tag_221\n        /* \"contracts/PVCContest.sol\":2451:2467  PVC3Params.Gi(1) */\n      tag_222\n        /* \"contracts/PVCContest.sol\":2465:2466  1 */\n      0x01\n        /* \"contracts/PVCContest.sol\":2451:2464  PVC3Params.Gi */\n      tag_216\n        /* \"contracts/PVCContest.sol\":2451:2467  PVC3Params.Gi(1) */\n      jump\t// in\n    tag_222:\n        /* \"contracts/PVCContest.sol\":2469:2471  w1 */\n      dup3\n        /* \"contracts/PVCContest.sol\":2441:2450  BN254.mul */\n      tag_165\n        /* \"contracts/PVCContest.sol\":2441:2472  BN254.mul(PVC3Params.Gi(1), w1) */\n      jump\t// in\n    tag_221:\n        /* \"contracts/PVCContest.sol\":2434:2472  term = BN254.mul(PVC3Params.Gi(1), w1) */\n      swap3\n      pop\n        /* \"contracts/PVCContest.sol\":2488:2513  BN254.addAccum(acc, term) */\n      tag_223\n        /* \"contracts/PVCContest.sol\":2503:2506  acc */\n      dup5\n        /* \"contracts/PVCContest.sol\":2508:2512  term */\n      dup5\n        /* \"contracts/PVCContest.sol\":2488:2502  BN254.addAccum */\n      tag_167\n        /* \"contracts/PVCContest.sol\":2488:2513  BN254.addAccum(acc, term) */\n      jump\t// in\n    tag_223:\n        /* \"contracts/PVCContest.sol\":2482:2513  acc = BN254.addAccum(acc, term) */\n      swap4\n      pop\n        /* \"contracts/PVCContest.sol\":2524:2534  uint256 w2 */\n      0x00\n        /* \"contracts/PVCContest.sol\":2537:2556  BN254.toField(w[2]) */\n      tag_224\n        /* \"contracts/PVCContest.sol\":2551:2552  w */\n      dup8\n        /* \"contracts/PVCContest.sol\":2553:2554  2 */\n      0x02\n        /* \"contracts/PVCContest.sol\":2551:2555  w[2] */\n      0x03\n      dup2\n      lt\n      tag_225\n      jumpi\n      tag_226\n      tag_103\n      jump\t// in\n    tag_226:\n    tag_225:\n      0x20\n      mul\n      add\n      mload\n        /* \"contracts/PVCContest.sol\":2537:2550  BN254.toField */\n      tag_213\n        /* \"contracts/PVCContest.sol\":2537:2556  BN254.toField(w[2]) */\n      jump\t// in\n    tag_224:\n        /* \"contracts/PVCContest.sol\":2524:2556  uint256 w2 = BN254.toField(w[2]) */\n      swap1\n      pop\n        /* \"contracts/PVCContest.sol\":2573:2604  BN254.mul(PVC3Params.Gi(2), w2) */\n      tag_227\n        /* \"contracts/PVCContest.sol\":2583:2599  PVC3Params.Gi(2) */\n      tag_228\n        /* \"contracts/PVCContest.sol\":2597:2598  2 */\n      0x02\n        /* \"contracts/PVCContest.sol\":2583:2596  PVC3Params.Gi */\n      tag_216\n        /* \"contracts/PVCContest.sol\":2583:2599  PVC3Params.Gi(2) */\n      jump\t// in\n    tag_228:\n        /* \"contracts/PVCContest.sol\":2601:2603  w2 */\n      dup3\n        /* \"contracts/PVCContest.sol\":2573:2582  BN254.mul */\n      tag_165\n        /* \"contracts/PVCContest.sol\":2573:2604  BN254.mul(PVC3Params.Gi(2), w2) */\n      jump\t// in\n    tag_227:\n        /* \"contracts/PVCContest.sol\":2566:2604  term = BN254.mul(PVC3Params.Gi(2), w2) */\n      swap4\n      pop\n        /* \"contracts/PVCContest.sol\":2620:2645  BN254.addAccum(acc, term) */\n      tag_229\n        /* \"contracts/PVCContest.sol\":2635:2638  acc */\n      dup6\n        /* \"contracts/PVCContest.sol\":2640:2644  term */\n      dup6\n        /* \"contracts/PVCContest.sol\":2620:2634  BN254.addAccum */\n      tag_167\n        /* \"contracts/PVCContest.sol\":2620:2645  BN254.addAccum(acc, term) */\n      jump\t// in\n    tag_229:\n        /* \"contracts/PVCContest.sol\":2614:2645  acc = BN254.addAccum(acc, term) */\n      swap5\n      pop\n        /* \"contracts/PVCContest.sol\":2656:2679  BN254.G1Point memory rH */\n      0x00\n        /* \"contracts/PVCContest.sol\":2682:2710  BN254.mul(PVC3Params.H(), r) */\n      tag_230\n        /* \"contracts/PVCContest.sol\":2692:2706  PVC3Params.H() */\n      tag_231\n        /* \"contracts/PVCContest.sol\":2692:2704  PVC3Params.H */\n      tag_232\n        /* \"contracts/PVCContest.sol\":2692:2706  PVC3Params.H() */\n      jump\t// in\n    tag_231:\n        /* \"contracts/PVCContest.sol\":2708:2709  r */\n      dup9\n        /* \"contracts/PVCContest.sol\":2682:2691  BN254.mul */\n      tag_165\n        /* \"contracts/PVCContest.sol\":2682:2710  BN254.mul(PVC3Params.H(), r) */\n      jump\t// in\n    tag_230:\n        /* \"contracts/PVCContest.sol\":2656:2710  BN254.G1Point memory rH = BN254.mul(PVC3Params.H(), r) */\n      swap1\n      pop\n        /* \"contracts/PVCContest.sol\":2726:2749  BN254.addAccum(acc, rH) */\n      tag_233\n        /* \"contracts/PVCContest.sol\":2741:2744  acc */\n      dup7\n        /* \"contracts/PVCContest.sol\":2746:2748  rH */\n      dup3\n        /* \"contracts/PVCContest.sol\":2726:2740  BN254.addAccum */\n      tag_167\n        /* \"contracts/PVCContest.sol\":2726:2749  BN254.addAccum(acc, rH) */\n      jump\t// in\n    tag_233:\n        /* \"contracts/PVCContest.sol\":2720:2749  acc = BN254.addAccum(acc, rH) */\n      swap6\n      pop\n        /* \"contracts/PVCContest.sol\":2188:2756  {... */\n      pop\n      pop\n      pop\n      pop\n      pop\n        /* \"contracts/PVCContest.sol\":2091:2756  function commit3(int256[3] memory w, uint256 r) internal view returns (BN254.G1Point memory acc) {... */\n      swap3\n      swap2\n      pop\n      pop\n      jump\t// out\n        /* \"contracts/BN254.sol\":278:368  function P0() internal pure returns (G1Point memory) {... */\n    tag_157:\n        /* \"contracts/BN254.sol\":315:329  G1Point memory */\n      tag_234\n      tag_206\n      jump\t// in\n    tag_234:\n        /* \"contracts/BN254.sol\":348:361  G1Point(0, 0) */\n      mload(0x40)\n      dup1\n      0x40\n      add\n      0x40\n      mstore\n      dup1\n        /* \"contracts/BN254.sol\":356:357  0 */\n      0x00\n        /* \"contracts/BN254.sol\":348:361  G1Point(0, 0) */\n      dup2\n      mstore\n      0x20\n      add\n        /* \"contracts/BN254.sol\":359:360  0 */\n      0x00\n        /* \"contracts/BN254.sol\":348:361  G1Point(0, 0) */\n      dup2\n      mstore\n      pop\n        /* \"contracts/BN254.sol\":341:361  return G1Point(0, 0) */\n      swap1\n      pop\n        /* \"contracts/BN254.sol\":278:368  function P0() internal pure returns (G1Point memory) {... */\n      swap1\n      jump\t// out\n        /* \"contracts/BN254.sol\":1019:1390  function mul(G1Point memory p, uint256 s) internal view returns (G1Point memory r) {... */\n    tag_165:\n        /* \"contracts/BN254.sol\":1084:1100  G1Point memory r */\n      tag_236\n      tag_206\n      jump\t// in\n    tag_236:\n        /* \"contracts/BN254.sol\":1112:1135  uint256[3] memory input */\n      0x00\n        /* \"contracts/BN254.sol\":1112:1151  uint256[3] memory input = [p.x, p.y, s] */\n      mload(0x40)\n      dup1\n      0x60\n      add\n      0x40\n      mstore\n      dup1\n        /* \"contracts/BN254.sol\":1139:1140  p */\n      dup6\n        /* \"contracts/BN254.sol\":1139:1142  p.x */\n      0x00\n      add\n      mload\n        /* \"contracts/BN254.sol\":1112:1151  uint256[3] memory input = [p.x, p.y, s] */\n      dup2\n      mstore\n      0x20\n      add\n        /* \"contracts/BN254.sol\":1144:1145  p */\n      dup6\n        /* \"contracts/BN254.sol\":1144:1147  p.y */\n      0x20\n      add\n      mload\n        /* \"contracts/BN254.sol\":1112:1151  uint256[3] memory input = [p.x, p.y, s] */\n      dup2\n      mstore\n      0x20\n      add\n        /* \"contracts/BN254.sol\":1149:1150  s */\n      dup5\n        /* \"contracts/BN254.sol\":1112:1151  uint256[3] memory input = [p.x, p.y, s] */\n      dup2\n      mstore\n      pop\n      swap1\n      pop\n        /* \"contracts/BN254.sol\":1161:1185  uint256[2] memory output */\n      tag_238\n      tag_239\n      jump\t// in\n    tag_238:\n        /* \"contracts/BN254.sol\":1273:1277  0x40 */\n      0x40\n        /* \"contracts/BN254.sol\":1265:1271  output */\n      dup2\n        /* \"contracts/BN254.sol\":1259:1263  0x60 */\n      0x60\n        /* \"contracts/BN254.sol\":1252:1257  input */\n      dup5\n        /* \"contracts/BN254.sol\":1246:1250  0x07 */\n      0x07\n        /* \"contracts/BN254.sol\":1239:1244  gas() */\n      gas\n        /* \"contracts/BN254.sol\":1228:1278  staticcall(gas(), 0x07, input, 0x60, output, 0x40) */\n      staticcall\n        /* \"contracts/BN254.sol\":1218:1324  if iszero(staticcall(gas(), 0x07, input, 0x60, output, 0x40)) {... */\n      tag_240\n      jumpi\n        /* \"contracts/BN254.sol\":1308:1309  0 */\n      0x00\n        /* \"contracts/BN254.sol\":1305:1306  0 */\n      0x00\n        /* \"contracts/BN254.sol\":1298:1310  revert(0, 0) */\n      revert\n        /* \"contracts/BN254.sol\":1218:1324  if iszero(staticcall(gas(), 0x07, input, 0x60, output, 0x40)) {... */\n    tag_240:\n        /* \"contracts/BN254.sol\":1349:1355  output */\n      dup1\n        /* \"contracts/BN254.sol\":1356:1357  0 */\n      0x00\n        /* \"contracts/BN254.sol\":1349:1358  output[0] */\n      0x02\n      dup2\n      lt\n      tag_241\n      jumpi\n      tag_242\n      tag_103\n      jump\t// in\n    tag_242:\n    tag_241:\n      0x20\n      mul\n      add\n      mload\n        /* \"contracts/BN254.sol\":1343:1344  r */\n      dup4\n        /* \"contracts/BN254.sol\":1343:1346  r.x */\n      0x00\n      add\n        /* \"contracts/BN254.sol\":1343:1358  r.x = output[0] */\n      dup2\n      dup2\n      mstore\n      pop\n      pop\n        /* \"contracts/BN254.sol\":1374:1380  output */\n      dup1\n        /* \"contracts/BN254.sol\":1381:1382  1 */\n      0x01\n        /* \"contracts/BN254.sol\":1374:1383  output[1] */\n      0x02\n      dup2\n      lt\n      tag_243\n      jumpi\n      tag_244\n      tag_103\n      jump\t// in\n    tag_244:\n    tag_243:\n      0x20\n      mul\n      add\n      mload\n        /* \"contracts/BN254.sol\":1368:1369  r */\n      dup4\n        /* \"contracts/BN254.sol\":1368:1371  r.y */\n      0x20\n      add\n        /* \"contracts/BN254.sol\":1368:1383  r.y = output[1] */\n      dup2\n      dup2\n      mstore\n      pop\n      pop\n        /* \"contracts/BN254.sol\":1102:1390  {... */\n      pop\n      pop\n        /* \"contracts/BN254.sol\":1019:1390  function mul(G1Point memory p, uint256 s) internal view returns (G1Point memory r) {... */\n      swap3\n      swap2\n      pop\n      pop\n      jump\t// out\n        /* \"contracts/BN254.sol\":1396:1604  function addAccum(G1Point memory acc, G1Point memory p) internal view returns (G1Point memory) {... */\n    tag_167:\n        /* \"contracts/BN254.sol\":1475:1489  G1Point memory */\n      tag_245\n      tag_206\n      jump\t// in\n    tag_245:\n        /* \"contracts/BN254.sol\":1505:1520  isInfinity(acc) */\n      tag_247\n        /* \"contracts/BN254.sol\":1516:1519  acc */\n      dup4\n        /* \"contracts/BN254.sol\":1505:1515  isInfinity */\n      tag_248\n        /* \"contracts/BN254.sol\":1505:1520  isInfinity(acc) */\n      jump\t// in\n    tag_247:\n        /* \"contracts/BN254.sol\":1501:1530  if (isInfinity(acc)) return p */\n      iszero\n      tag_249\n      jumpi\n        /* \"contracts/BN254.sol\":1529:1530  p */\n      dup2\n        /* \"contracts/BN254.sol\":1522:1530  return p */\n      swap1\n      pop\n      jump(tag_246)\n        /* \"contracts/BN254.sol\":1501:1530  if (isInfinity(acc)) return p */\n    tag_249:\n        /* \"contracts/BN254.sol\":1544:1557  isInfinity(p) */\n      tag_250\n        /* \"contracts/BN254.sol\":1555:1556  p */\n      dup3\n        /* \"contracts/BN254.sol\":1544:1554  isInfinity */\n      tag_248\n        /* \"contracts/BN254.sol\":1544:1557  isInfinity(p) */\n      jump\t// in\n    tag_250:\n        /* \"contracts/BN254.sol\":1540:1569  if (isInfinity(p)) return acc */\n      iszero\n      tag_251\n      jumpi\n        /* \"contracts/BN254.sol\":1566:1569  acc */\n      dup3\n        /* \"contracts/BN254.sol\":1559:1569  return acc */\n      swap1\n      pop\n      jump(tag_246)\n        /* \"contracts/BN254.sol\":1540:1569  if (isInfinity(p)) return acc */\n    tag_251:\n        /* \"contracts/BN254.sol\":1586:1597  add(acc, p) */\n      tag_252\n        /* \"contracts/BN254.sol\":1590:1593  acc */\n      dup4\n        /* \"contracts/BN254.sol\":1595:1596  p */\n      dup4\n        /* \"contracts/BN254.sol\":1586:1589  add */\n      tag_253\n        /* \"contracts/BN254.sol\":1586:1597  add(acc, p) */\n      jump\t// in\n    tag_252:\n        /* \"contracts/BN254.sol\":1579:1597  return add(acc, p) */\n      swap1\n      pop\n        /* \"contracts/BN254.sol\":1396:1604  function addAccum(G1Point memory acc, G1Point memory p) internal view returns (G1Point memory) {... */\n    tag_246:\n      swap3\n      swap2\n      pop\n      pop\n      jump\t// out\n        /* \"contracts/BN254.sol\":491:616  function eq(G1Point memory a, G1Point memory b) internal pure returns (bool) {... */\n    tag_174:\n        /* \"contracts/BN254.sol\":562:566  bool */\n      0x00\n        /* \"contracts/BN254.sol\":592:593  b */\n      dup2\n        /* \"contracts/BN254.sol\":592:595  b.x */\n      0x00\n      add\n      mload\n        /* \"contracts/BN254.sol\":585:586  a */\n      dup4\n        /* \"contracts/BN254.sol\":585:588  a.x */\n      0x00\n      add\n      mload\n        /* \"contracts/BN254.sol\":585:595  a.x == b.x */\n      eq\n        /* \"contracts/BN254.sol\":585:609  a.x == b.x && a.y == b.y */\n      dup1\n      iszero\n      tag_255\n      jumpi\n      pop\n        /* \"contracts/BN254.sol\":606:607  b */\n      dup2\n        /* \"contracts/BN254.sol\":606:609  b.y */\n      0x20\n      add\n      mload\n        /* \"contracts/BN254.sol\":599:600  a */\n      dup4\n        /* \"contracts/BN254.sol\":599:602  a.y */\n      0x20\n      add\n      mload\n        /* \"contracts/BN254.sol\":599:609  a.y == b.y */\n      eq\n        /* \"contracts/BN254.sol\":585:609  a.x == b.x && a.y == b.y */\n    tag_255:\n        /* \"contracts/BN254.sol\":578:609  return a.x == b.x && a.y == b.y */\n      swap1\n      pop\n        /* \"contracts/BN254.sol\":491:616  function eq(G1Point memory a, G1Point memory b) internal pure returns (bool) {... */\n      swap3\n      swap2\n      pop\n      pop\n      jump\t// out\n        /* \"contracts/BN254.sol\":1650:1887  function toField(int256 x) internal pure returns (uint256) {... */\n    tag_213:\n        /* \"contracts/BN254.sol\":1700:1707  uint256 */\n      0x00\n        /* \"contracts/BN254.sol\":1728:1729  0 */\n      0x00\n        /* \"contracts/BN254.sol\":1723:1724  x */\n      dup3\n        /* \"contracts/BN254.sol\":1723:1729  x >= 0 */\n      slt\n        /* \"contracts/BN254.sol\":1719:1764  if (x >= 0) return uint256(x) % FIELD_MODULUS */\n      tag_257\n      jumpi\n        /* \"contracts/BN254.sol\":128:205  21888242871839275222246405745257275088548364400416034343698204186575808495617 */\n      0x30644e72e131a029b85045b68181585d2833e84879b9709143e1f593f0000001\n        /* \"contracts/BN254.sol\":1746:1747  x */\n      dup3\n        /* \"contracts/BN254.sol\":1738:1764  uint256(x) % FIELD_MODULUS */\n      tag_258\n      swap2\n      swap1\n      tag_259\n      jump\t// in\n    tag_258:\n        /* \"contracts/BN254.sol\":1731:1764  return uint256(x) % FIELD_MODULUS */\n      swap1\n      pop\n      jump(tag_256)\n        /* \"contracts/BN254.sol\":1719:1764  if (x >= 0) return uint256(x) % FIELD_MODULUS */\n    tag_257:\n        /* \"contracts/BN254.sol\":1774:1784  uint256 ux */\n      0x00\n        /* \"contracts/BN254.sol\":128:205  21888242871839275222246405745257275088548364400416034343698204186575808495617 */\n      0x30644e72e131a029b85045b68181585d2833e84879b9709143e1f593f0000001\n        /* \"contracts/BN254.sol\":1796:1797  x */\n      dup4\n        /* \"contracts/BN254.sol\":1795:1797  -x */\n      tag_260\n      swap1\n      tag_261\n      jump\t// in\n    tag_260:\n        /* \"contracts/BN254.sol\":1787:1814  uint256(-x) % FIELD_MODULUS */\n      tag_262\n      swap2\n      swap1\n      tag_259\n      jump\t// in\n    tag_262:\n        /* \"contracts/BN254.sol\":1774:1814  uint256 ux = uint256(-x) % FIELD_MODULUS */\n      swap1\n      pop\n        /* \"contracts/BN254.sol\":1834:1835  0 */\n      0x00\n        /* \"contracts/BN254.sol\":1828:1830  ux */\n      dup2\n        /* \"contracts/BN254.sol\":1828:1835  ux == 0 */\n      sub\n        /* \"contracts/BN254.sol\":1824:1845  if (ux == 0) return 0 */\n      tag_263\n      jumpi\n        /* \"contracts/BN254.sol\":1844:1845  0 */\n      0x00\n        /* \"contracts/BN254.sol\":1837:1845  return 0 */\n      swap2\n      pop\n      pop\n      jump(tag_256)\n        /* \"contracts/BN254.sol\":1824:1845  if (ux == 0) return 0 */\n    tag_263:\n        /* \"contracts/BN254.sol\":1878:1880  ux */\n      dup1\n        /* \"contracts/BN254.sol\":128:205  21888242871839275222246405745257275088548364400416034343698204186575808495617 */\n      0x30644e72e131a029b85045b68181585d2833e84879b9709143e1f593f0000001\n        /* \"contracts/BN254.sol\":1862:1880  FIELD_MODULUS - ux */\n      tag_264\n      swap2\n      swap1\n      tag_189\n      jump\t// in\n    tag_264:\n        /* \"contracts/BN254.sol\":1855:1880  return FIELD_MODULUS - ux */\n      swap2\n      pop\n      pop\n        /* \"contracts/BN254.sol\":1650:1887  function toField(int256 x) internal pure returns (uint256) {... */\n    tag_256:\n      swap2\n      swap1\n      pop\n      jump\t// out\n        /* \"contracts/PVC3Params.sol\":972:1179  function Gi(uint256 i) internal pure returns (BN254.G1Point memory) {... */\n    tag_216:\n        /* \"contracts/PVC3Params.sol\":1018:1038  BN254.G1Point memory */\n      tag_265\n      tag_206\n      jump\t// in\n    tag_265:\n        /* \"contracts/PVC3Params.sol\":1059:1060  0 */\n      0x00\n        /* \"contracts/PVC3Params.sol\":1054:1055  i */\n      dup3\n        /* \"contracts/PVC3Params.sol\":1054:1060  i == 0 */\n      sub\n        /* \"contracts/PVC3Params.sol\":1050:1073  if (i == 0) return G0() */\n      tag_267\n      jumpi\n        /* \"contracts/PVC3Params.sol\":1069:1073  G0() */\n      tag_268\n        /* \"contracts/PVC3Params.sol\":1069:1071  G0 */\n      tag_269\n        /* \"contracts/PVC3Params.sol\":1069:1073  G0() */\n      jump\t// in\n    tag_268:\n        /* \"contracts/PVC3Params.sol\":1062:1073  return G0() */\n      swap1\n      pop\n      jump(tag_266)\n        /* \"contracts/PVC3Params.sol\":1050:1073  if (i == 0) return G0() */\n    tag_267:\n        /* \"contracts/PVC3Params.sol\":1092:1093  1 */\n      0x01\n        /* \"contracts/PVC3Params.sol\":1087:1088  i */\n      dup3\n        /* \"contracts/PVC3Params.sol\":1087:1093  i == 1 */\n      sub\n        /* \"contracts/PVC3Params.sol\":1083:1107  if (i == 1) return G1p() */\n      tag_270\n      jumpi\n        /* \"contracts/PVC3Params.sol\":1102:1107  G1p() */\n      tag_271\n        /* \"contracts/PVC3Params.sol\":1102:1105  G1p */\n      tag_272\n        /* \"contracts/PVC3Params.sol\":1102:1107  G1p() */\n      jump\t// in\n    tag_271:\n        /* \"contracts/PVC3Params.sol\":1095:1107  return G1p() */\n      swap1\n      pop\n      jump(tag_266)\n        /* \"contracts/PVC3Params.sol\":1083:1107  if (i == 1) return G1p() */\n    tag_270:\n        /* \"contracts/PVC3Params.sol\":1126:1127  2 */\n      0x02\n        /* \"contracts/PVC3Params.sol\":1121:1122  i */\n      dup3\n        /* \"contracts/PVC3Params.sol\":1121:1127  i == 2 */\n      sub\n        /* \"contracts/PVC3Params.sol\":1117:1140  if (i == 2) return G2() */\n      tag_273\n      jumpi\n        /* \"contracts/PVC3Params.sol\":1136:1140  G2() */\n      tag_274\n        /* \"contracts/PVC3Params.sol\":1136:1138  G2 */\n      tag_275\n        /* \"contracts/PVC3Params.sol\":1136:1140  G2() */\n      jump\t// in\n    tag_274:\n        /* \"contracts/PVC3Params.sol\":1129:1140  return G2() */\n      swap1\n      pop\n      jump(tag_266)\n        /* \"contracts/PVC3Params.sol\":1117:1140  if (i == 2) return G2() */\n    tag_273:\n        /* \"contracts/PVC3Params.sol\":1150:1172  revert(\"out of range\") */\n      mload(0x40)\n      0x08c379a000000000000000000000000000000000000000000000000000000000\n      dup2\n      mstore\n      0x04\n      add\n      tag_276\n      swap1\n      tag_277\n      jump\t// in\n    tag_276:\n      mload(0x40)\n      dup1\n      swap2\n      sub\n      swap1\n      revert\n        /* \"contracts/PVC3Params.sol\":972:1179  function Gi(uint256 i) internal pure returns (BN254.G1Point memory) {... */\n    tag_266:\n      swap2\n      swap1\n      pop\n      jump\t// out\n        /* \"contracts/PVC3Params.sol\":204:482  function H() internal pure returns (BN254.G1Point memory) {... */\n    tag_232:\n        /* \"contracts/PVC3Params.sol\":240:260  BN254.G1Point memory */\n      tag_278\n      tag_206\n      jump\t// in\n    tag_278:\n        /* \"contracts/PVC3Params.sol\":279:475  BN254.G1Point(... */\n      mload(0x40)\n      dup1\n      0x40\n      add\n      0x40\n      mstore\n      dup1\n        /* \"contracts/PVC3Params.sol\":306:372  0x0000000000000000000000000000000000000000000000000000000000000000 */\n      0x00\n        /* \"contracts/PVC3Params.sol\":279:475  BN254.G1Point(... */\n      dup2\n      mstore\n      0x20\n      add\n        /* \"contracts/PVC3Params.sol\":392:458  0x0000000000000000000000000000000000000000000000000000000000000000 */\n      0x00\n        /* \"contracts/PVC3Params.sol\":279:475  BN254.G1Point(... */\n      dup2\n      mstore\n      pop\n        /* \"contracts/PVC3Params.sol\":272:475  return BN254.G1Point(... */\n      swap1\n      pop\n        /* \"contracts/PVC3Params.sol\":204:482  function H() internal pure returns (BN254.G1Point memory) {... */\n      swap1\n      jump\t// out\n        /* \"contracts/BN254.sol\":374:485  function isInfinity(G1Point memory p) internal pure returns (bool) {... */\n    tag_248:\n        /* \"contracts/BN254.sol\":435:439  bool */\n      0x00\n        /* \"contracts/BN254.sol\":465:466  0 */\n      0x00\n        /* \"contracts/BN254.sol\":458:459  p */\n      dup3\n        /* \"contracts/BN254.sol\":458:461  p.x */\n      0x00\n      add\n      mload\n        /* \"contracts/BN254.sol\":458:466  p.x == 0 */\n      eq\n        /* \"contracts/BN254.sol\":458:478  p.x == 0 && p.y == 0 */\n      dup1\n      iszero\n      tag_281\n      jumpi\n      pop\n        /* \"contracts/BN254.sol\":477:478  0 */\n      0x00\n        /* \"contracts/BN254.sol\":470:471  p */\n      dup3\n        /* \"contracts/BN254.sol\":470:473  p.y */\n      0x20\n      add\n      mload\n        /* \"contracts/BN254.sol\":470:478  p.y == 0 */\n      eq\n        /* \"contracts/BN254.sol\":458:478  p.x == 0 && p.y == 0 */\n    tag_281:\n        /* \"contracts/BN254.sol\":451:478  return p.x == 0 && p.y == 0 */\n      swap1\n      pop\n        /* \"contracts/BN254.sol\":374:485  function isInfinity(G1Point memory p) internal pure returns (bool) {... */\n      swap2\n      swap1\n      pop\n      jump\t// out\n        /* \"contracts/BN254.sol\":622:1013  function add(G1Point memory p1, G1Point memory p2) internal view returns (G1Point memory r) {... */\n    tag_253:\n        /* \"contracts/BN254.sol\":696:712  G1Point memory r */\n      tag_282\n      tag_206\n      jump\t// in\n    tag_282:\n        /* \"contracts/BN254.sol\":724:747  uint256[4] memory input */\n      0x00\n        /* \"contracts/BN254.sol\":724:774  uint256[4] memory input = [p1.x, p1.y, p2.x, p2.y] */\n      mload(0x40)\n      dup1\n      0x80\n      add\n      0x40\n      mstore\n      dup1\n        /* \"contracts/BN254.sol\":751:753  p1 */\n      dup6\n        /* \"contracts/BN254.sol\":751:755  p1.x */\n      0x00\n      add\n      mload\n        /* \"contracts/BN254.sol\":724:774  uint256[4] memory input = [p1.x, p1.y, p2.x, p2.y] */\n      dup2\n      mstore\n      0x20\n      add\n        /* \"contracts/BN254.sol\":757:759  p1 */\n      dup6\n        /* \"contracts/BN254.sol\":757:761  p1.y */\n      0x20\n      add\n      mload\n        /* \"contracts/BN254.sol\":724:774  uint256[4] memory input = [p1.x, p1.y, p2.x, p2.y] */\n      dup2\n      mstore\n      0x20\n      add\n        /* \"contracts/BN254.sol\":763:765  p2 */\n      dup5\n        /* \"contracts/BN254.sol\":763:767  p2.x */\n      0x00\n      add\n      mload\n        /* \"contracts/BN254.sol\":724:774  uint256[4] memory input = [p1.x, p1.y, p2.x, p2.y] */\n      dup2\n      mstore\n      0x20\n      add\n        /* \"contracts/BN254.sol\":769:771  p2 */\n      dup5\n        /* \"contracts/BN254.sol\":769:773  p2.y */\n      0x20\n      add\n      mload\n        /* \"contracts/BN254.sol\":724:774  uint256[4] memory input = [p1.x, p1.y, p2.x, p2.y] */\n      dup2\n      mstore\n      pop\n      swap1\n      pop\n        /* \"contracts/BN254.sol\":784:808  uint256[2] memory output */\n      tag_284\n      tag_239\n      jump\t// in\n    tag_284:\n        /* \"contracts/BN254.sol\":896:900  0x40 */\n      0x40\n        /* \"contracts/BN254.sol\":888:894  output */\n      dup2\n        /* \"contracts/BN254.sol\":882:886  0x80 */\n      0x80\n        /* \"contracts/BN254.sol\":875:880  input */\n      dup5\n        /* \"contracts/BN254.sol\":869:873  0x06 */\n      0x06\n        /* \"contracts/BN254.sol\":862:867  gas() */\n      gas\n        /* \"contracts/BN254.sol\":851:901  staticcall(gas(), 0x06, input, 0x80, output, 0x40) */\n      staticcall\n        /* \"contracts/BN254.sol\":841:947  if iszero(staticcall(gas(), 0x06, input, 0x80, output, 0x40)) {... */\n      tag_285\n      jumpi\n        /* \"contracts/BN254.sol\":931:932  0 */\n      0x00\n        /* \"contracts/BN254.sol\":928:929  0 */\n      0x00\n        /* \"contracts/BN254.sol\":921:933  revert(0, 0) */\n      revert\n        /* \"contracts/BN254.sol\":841:947  if iszero(staticcall(gas(), 0x06, input, 0x80, output, 0x40)) {... */\n    tag_285:\n        /* \"contracts/BN254.sol\":972:978  output */\n      dup1\n        /* \"contracts/BN254.sol\":979:980  0 */\n      0x00\n        /* \"contracts/BN254.sol\":972:981  output[0] */\n      0x02\n      dup2\n      lt\n      tag_286\n      jumpi\n      tag_287\n      tag_103\n      jump\t// in\n    tag_287:\n    tag_286:\n      0x20\n      mul\n      add\n      mload\n        /* \"contracts/BN254.sol\":966:967  r */\n      dup4\n        /* \"contracts/BN254.sol\":966:969  r.x */\n      0x00\n      add\n        /* \"contracts/BN254.sol\":966:981  r.x = output[0] */\n      dup2\n      dup2\n      mstore\n      pop\n      pop\n        /* \"contracts/BN254.sol\":997:1003  output */\n      dup1\n        /* \"contracts/BN254.sol\":1004:1005  1 */\n      0x01\n        /* \"contracts/BN254.sol\":997:1006  output[1] */\n      0x02\n      dup2\n      lt\n      tag_288\n      jumpi\n      tag_289\n      tag_103\n      jump\t// in\n    tag_289:\n    tag_288:\n      0x20\n      mul\n      add\n      mload\n        /* \"contracts/BN254.sol\":991:992  r */\n      dup4\n        /* \"contracts/BN254.sol\":991:994  r.y */\n      0x20\n      add\n        /* \"contracts/BN254.sol\":991:1006  r.y = output[1] */\n      dup2\n      dup2\n      mstore\n      pop\n      pop\n        /* \"contracts/BN254.sol\":714:1013  {... */\n      pop\n      pop\n        /* \"contracts/BN254.sol\":622:1013  function add(G1Point memory p1, G1Point memory p2) internal view returns (G1Point memory r) {... */\n      swap3\n      swap2\n      pop\n      pop\n      jump\t// out\n        /* \"contracts/PVC3Params.sol\":488:643  function G0() internal pure returns (BN254.G1Point memory) {... */\n    tag_269:\n        /* \"contracts/PVC3Params.sol\":525:545  BN254.G1Point memory */\n      tag_290\n      tag_206\n      jump\t// in\n    tag_290:\n        /* \"contracts/PVC3Params.sol\":564:636  BN254.G1Point(... */\n      mload(0x40)\n      dup1\n      0x40\n      add\n      0x40\n      mstore\n      dup1\n        /* \"contracts/PVC3Params.sol\":591:594  0x0 */\n      0x00\n        /* \"contracts/PVC3Params.sol\":564:636  BN254.G1Point(... */\n      dup2\n      mstore\n      0x20\n      add\n        /* \"contracts/PVC3Params.sol\":615:618  0x0 */\n      0x00\n        /* \"contracts/PVC3Params.sol\":564:636  BN254.G1Point(... */\n      dup2\n      mstore\n      pop\n        /* \"contracts/PVC3Params.sol\":557:636  return BN254.G1Point(... */\n      swap1\n      pop\n        /* \"contracts/PVC3Params.sol\":488:643  function G0() internal pure returns (BN254.G1Point memory) {... */\n      swap1\n      jump\t// out\n        /* \"contracts/PVC3Params.sol\":649:805  function G1p() internal pure returns (BN254.G1Point memory) {... */\n    tag_272:\n        /* \"contracts/PVC3Params.sol\":687:707  BN254.G1Point memory */\n      tag_292\n      tag_206\n      jump\t// in\n    tag_292:\n        /* \"contracts/PVC3Params.sol\":726:798  BN254.G1Point(... */\n      mload(0x40)\n      dup1\n      0x40\n      add\n      0x40\n      mstore\n      dup1\n        /* \"contracts/PVC3Params.sol\":753:756  0x0 */\n      0x00\n        /* \"contracts/PVC3Params.sol\":726:798  BN254.G1Point(... */\n      dup2\n      mstore\n      0x20\n      add\n        /* \"contracts/PVC3Params.sol\":777:780  0x0 */\n      0x00\n        /* \"contracts/PVC3Params.sol\":726:798  BN254.G1Point(... */\n      dup2\n      mstore\n      pop\n        /* \"contracts/PVC3Params.sol\":719:798  return BN254.G1Point(... */\n      swap1\n      pop\n        /* \"contracts/PVC3Params.sol\":649:805  function G1p() internal pure returns (BN254.G1Point memory) {... */\n      swap1\n      jump\t// out\n        /* \"contracts/PVC3Params.sol\":811:966  function G2() internal pure returns (BN254.G1Point memory) {... */\n    tag_275:\n        /* \"contracts/PVC3Params.sol\":848:868  BN254.G1Point memory */\n      tag_294\n      tag_206\n      jump\t// in\n    tag_294:\n        /* \"contracts/PVC3Params.sol\":887:959  BN254.G1Point(... */\n      mload(0x40)\n      dup1\n      0x40\n      add\n      0x40\n      mstore\n      dup1\n        /* \"contracts/PVC3Params.sol\":914:917  0x0 */\n      0x00\n        /* \"contracts/PVC3Params.sol\":887:959  BN254.G1Point(... */\n      dup2\n      mstore\n      0x20\n      add\n        /* \"contracts/PVC3Params.sol\":938:941  0x0 */\n      0x00\n        /* \"contracts/PVC3Params.sol\":887:959  BN254.G1Point(... */\n      dup2\n      mstore\n      pop\n        /* \"contracts/PVC3Params.sol\":880:959  return BN254.G1Point(... */\n      swap1\n      pop\n        /* \"contracts/PVC3Params.sol\":811:966  function G2() internal pure returns (BN254.G1Point memory) {... */\n      swap1\n      jump\t// out\n    tag_118:\n      dup3\n      0x03\n      dup2\n      add\n      swap3\n      dup3\n      iszero\n      tag_296\n      jumpi\n      swap2\n      0x20\n      mul\n      dup3\n      add\n    tag_297:\n      dup3\n      dup2\n      gt\n      iszero\n      tag_298\n      jumpi\n      dup3\n      mload\n      dup3\n      sstore\n      swap2\n      0x20\n      add\n      swap2\n      swap1\n      0x01\n      add\n      swap1\n      jump(tag_297)\n    tag_298:\n    tag_296:\n      pop\n      swap1\n      pop\n      tag_299\n      swap2\n      swap1\n      tag_300\n      jump\t// in\n    tag_299:\n      pop\n      swap1\n      jump\t// out\n    tag_124:\n      mload(0x40)\n      dup1\n      0x60\n      add\n      0x40\n      mstore\n      dup1\n      0x03\n      swap1\n      0x20\n      dup3\n      mul\n      dup1\n      calldatasize\n      dup4\n      calldatacopy\n      dup1\n      dup3\n      add\n      swap2\n      pop\n      pop\n      swap1\n      pop\n      pop\n      swap1\n      jump\t// out\n    tag_206:\n      mload(0x40)\n      dup1\n      0x40\n      add\n      0x40\n      mstore\n      dup1\n      0x00\n      dup2\n      mstore\n      0x20\n      add\n      0x00\n      dup2\n      mstore\n      pop\n      swap1\n      jump\t// out\n    tag_239:\n      mload(0x40)\n      dup1\n      0x40\n      add\n      0x40\n      mstore\n      dup1\n      0x02\n      swap1\n      0x20\n      dup3\n      mul\n      dup1\n      calldatasize\n      dup4\n      calldatacopy\n      dup1\n      dup3\n      add\n      swap2\n      pop\n      pop\n      swap1\n      pop\n      pop\n      swap1\n      jump\t// out\n    tag_300:\n    tag_301:\n      dup1\n      dup3\n      gt\n      iszero\n      tag_302\n      jumpi\n      0x00\n      dup2\n      0x00\n      swap1\n      sstore\n      pop\n      0x01\n      add\n      jump(tag_301)\n    tag_302:\n      pop\n      swap1\n      jump\t// out\n        /* \"#utility.yul\":88:205   */\n    tag_304:\n        /* \"#utility.yul\":197:198   */\n      0x00\n        /* \"#utility.yul\":194:195   */\n      0x00\n        /* \"#utility.yul\":187:199   */\n      revert\n        /* \"#utility.yul\":211:328   */\n    tag_305:\n        /* \"#utility.yul\":320:321   */\n      0x00\n        /* \"#utility.yul\":317:318   */\n      0x00\n        /* \"#utility.yul\":310:322   */\n      revert\n        /* \"#utility.yul\":334:411   */\n    tag_306:\n        /* \"#utility.yul\":371:378   */\n      0x00\n        /* \"#utility.yul\":400:405   */\n      dup2\n        /* \"#utility.yul\":389:405   */\n      swap1\n      pop\n        /* \"#utility.yul\":334:411   */\n      swap2\n      swap1\n      pop\n      jump\t// out\n        /* \"#utility.yul\":417:539   */\n    tag_307:\n        /* \"#utility.yul\":490:514   */\n      tag_406\n        /* \"#utility.yul\":508:513   */\n      dup2\n        /* \"#utility.yul\":490:514   */\n      tag_306\n      jump\t// in\n    tag_406:\n        /* \"#utility.yul\":483:488   */\n      dup2\n        /* \"#utility.yul\":480:515   */\n      eq\n        /* \"#utility.yul\":470:533   */\n      tag_407\n      jumpi\n        /* \"#utility.yul\":529:530   */\n      0x00\n        /* \"#utility.yul\":526:527   */\n      0x00\n        /* \"#utility.yul\":519:531   */\n      revert\n        /* \"#utility.yul\":470:533   */\n    tag_407:\n        /* \"#utility.yul\":417:539   */\n      pop\n      jump\t// out\n        /* \"#utility.yul\":545:684   */\n    tag_308:\n        /* \"#utility.yul\":591:596   */\n      0x00\n        /* \"#utility.yul\":629:635   */\n      dup2\n        /* \"#utility.yul\":616:636   */\n      calldataload\n        /* \"#utility.yul\":607:636   */\n      swap1\n      pop\n        /* \"#utility.yul\":645:678   */\n      tag_409\n        /* \"#utility.yul\":672:677   */\n      dup2\n        /* \"#utility.yul\":645:678   */\n      tag_307\n      jump\t// in\n    tag_409:\n        /* \"#utility.yul\":545:684   */\n      swap3\n      swap2\n      pop\n      pop\n      jump\t// out\n        /* \"#utility.yul\":690:1019   */\n    tag_23:\n        /* \"#utility.yul\":749:755   */\n      0x00\n        /* \"#utility.yul\":798:800   */\n      0x20\n        /* \"#utility.yul\":786:795   */\n      dup3\n        /* \"#utility.yul\":777:784   */\n      dup5\n        /* \"#utility.yul\":773:796   */\n      sub\n        /* \"#utility.yul\":769:801   */\n      slt\n        /* \"#utility.yul\":766:885   */\n      iszero\n      tag_411\n      jumpi\n        /* \"#utility.yul\":804:883   */\n      tag_412\n      tag_304\n      jump\t// in\n    tag_412:\n        /* \"#utility.yul\":766:885   */\n    tag_411:\n        /* \"#utility.yul\":924:925   */\n      0x00\n        /* \"#utility.yul\":949:1002   */\n      tag_413\n        /* \"#utility.yul\":994:1001   */\n      dup5\n        /* \"#utility.yul\":985:991   */\n      dup3\n        /* \"#utility.yul\":974:983   */\n      dup6\n        /* \"#utility.yul\":970:992   */\n      add\n        /* \"#utility.yul\":949:1002   */\n      tag_308\n      jump\t// in\n    tag_413:\n        /* \"#utility.yul\":939:1002   */\n      swap2\n      pop\n        /* \"#utility.yul\":895:1012   */\n      pop\n        /* \"#utility.yul\":690:1019   */\n      swap3\n      swap2\n      pop\n      pop\n      jump\t// out\n        /* \"#utility.yul\":1025:1139   */\n    tag_309:\n        /* \"#utility.yul\":1092:1098   */\n      0x00\n        /* \"#utility.yul\":1126:1131   */\n      dup2\n        /* \"#utility.yul\":1120:1132   */\n      mload\n        /* \"#utility.yul\":1110:1132   */\n      swap1\n      pop\n        /* \"#utility.yul\":1025:1139   */\n      swap2\n      swap1\n      pop\n      jump\t// out\n        /* \"#utility.yul\":1145:1329   */\n    tag_310:\n        /* \"#utility.yul\":1244:1255   */\n      0x00\n        /* \"#utility.yul\":1278:1284   */\n      dup3\n        /* \"#utility.yul\":1273:1276   */\n      dup3\n        /* \"#utility.yul\":1266:1285   */\n      mstore\n        /* \"#utility.yul\":1318:1322   */\n      0x20\n        /* \"#utility.yul\":1313:1316   */\n      dup3\n        /* \"#utility.yul\":1309:1323   */\n      add\n        /* \"#utility.yul\":1294:1323   */\n      swap1\n      pop\n        /* \"#utility.yul\":1145:1329   */\n      swap3\n      swap2\n      pop\n      pop\n      jump\t// out\n        /* \"#utility.yul\":1335:1467   */\n    tag_311:\n        /* \"#utility.yul\":1402:1406   */\n      0x00\n        /* \"#utility.yul\":1425:1428   */\n      dup2\n        /* \"#utility.yul\":1417:1428   */\n      swap1\n      pop\n        /* \"#utility.yul\":1455:1459   */\n      0x20\n        /* \"#utility.yul\":1450:1453   */\n      dup3\n        /* \"#utility.yul\":1446:1460   */\n      add\n        /* \"#utility.yul\":1438:1460   */\n      swap1\n      pop\n        /* \"#utility.yul\":1335:1467   */\n      swap2\n      swap1\n      pop\n      jump\t// out\n        /* \"#utility.yul\":1473:1581   */\n    tag_312:\n        /* \"#utility.yul\":1550:1574   */\n      tag_418\n        /* \"#utility.yul\":1568:1573   */\n      dup2\n        /* \"#utility.yul\":1550:1574   */\n      tag_306\n      jump\t// in\n    tag_418:\n        /* \"#utility.yul\":1545:1548   */\n      dup3\n        /* \"#utility.yul\":1538:1575   */\n      mstore\n        /* \"#utility.yul\":1473:1581   */\n      pop\n      pop\n      jump\t// out\n        /* \"#utility.yul\":1587:1766   */\n    tag_313:\n        /* \"#utility.yul\":1656:1666   */\n      0x00\n        /* \"#utility.yul\":1677:1723   */\n      tag_420\n        /* \"#utility.yul\":1719:1722   */\n      dup4\n        /* \"#utility.yul\":1711:1717   */\n      dup4\n        /* \"#utility.yul\":1677:1723   */\n      tag_312\n      jump\t// in\n    tag_420:\n        /* \"#utility.yul\":1755:1759   */\n      0x20\n        /* \"#utility.yul\":1750:1753   */\n      dup4\n        /* \"#utility.yul\":1746:1760   */\n      add\n        /* \"#utility.yul\":1732:1760   */\n      swap1\n      pop\n        /* \"#utility.yul\":1587:1766   */\n      swap3\n      swap2\n      pop\n      pop\n      jump\t// out\n        /* \"#utility.yul\":1772:1885   */\n    tag_314:\n        /* \"#utility.yul\":1842:1846   */\n      0x00\n        /* \"#utility.yul\":1874:1878   */\n      0x20\n        /* \"#utility.yul\":1869:1872   */\n      dup3\n        /* \"#utility.yul\":1865:1879   */\n      add\n        /* \"#utility.yul\":1857:1879   */\n      swap1\n      pop\n        /* \"#utility.yul\":1772:1885   */\n      swap2\n      swap1\n      pop\n      jump\t// out\n        /* \"#utility.yul\":1921:2653   */\n    tag_315:\n        /* \"#utility.yul\":2040:2043   */\n      0x00\n        /* \"#utility.yul\":2069:2123   */\n      tag_423\n        /* \"#utility.yul\":2117:2122   */\n      dup3\n        /* \"#utility.yul\":2069:2123   */\n      tag_309\n      jump\t// in\n    tag_423:\n        /* \"#utility.yul\":2139:2225   */\n      tag_424\n        /* \"#utility.yul\":2218:2224   */\n      dup2\n        /* \"#utility.yul\":2213:2216   */\n      dup6\n        /* \"#utility.yul\":2139:2225   */\n      tag_310\n      jump\t// in\n    tag_424:\n        /* \"#utility.yul\":2132:2225   */\n      swap4\n      pop\n        /* \"#utility.yul\":2249:2305   */\n      tag_425\n        /* \"#utility.yul\":2299:2304   */\n      dup4\n        /* \"#utility.yul\":2249:2305   */\n      tag_311\n      jump\t// in\n    tag_425:\n        /* \"#utility.yul\":2328:2335   */\n      dup1\n        /* \"#utility.yul\":2359:2360   */\n      0x00\n        /* \"#utility.yul\":2344:2628   */\n    tag_426:\n        /* \"#utility.yul\":2369:2375   */\n      dup4\n        /* \"#utility.yul\":2366:2367   */\n      dup2\n        /* \"#utility.yul\":2363:2376   */\n      lt\n        /* \"#utility.yul\":2344:2628   */\n      iszero\n      tag_428\n      jumpi\n        /* \"#utility.yul\":2445:2451   */\n      dup2\n        /* \"#utility.yul\":2439:2452   */\n      mload\n        /* \"#utility.yul\":2472:2535   */\n      tag_429\n        /* \"#utility.yul\":2531:2534   */\n      dup9\n        /* \"#utility.yul\":2516:2529   */\n      dup3\n        /* \"#utility.yul\":2472:2535   */\n      tag_313\n      jump\t// in\n    tag_429:\n        /* \"#utility.yul\":2465:2535   */\n      swap8\n      pop\n        /* \"#utility.yul\":2558:2618   */\n      tag_430\n        /* \"#utility.yul\":2611:2617   */\n      dup4\n        /* \"#utility.yul\":2558:2618   */\n      tag_314\n      jump\t// in\n    tag_430:\n        /* \"#utility.yul\":2548:2618   */\n      swap3\n      pop\n        /* \"#utility.yul\":2404:2628   */\n      pop\n        /* \"#utility.yul\":2391:2392   */\n      0x01\n        /* \"#utility.yul\":2388:2389   */\n      dup2\n        /* \"#utility.yul\":2384:2393   */\n      add\n        /* \"#utility.yul\":2379:2393   */\n      swap1\n      pop\n        /* \"#utility.yul\":2344:2628   */\n      jump(tag_426)\n    tag_428:\n        /* \"#utility.yul\":2348:2362   */\n      pop\n        /* \"#utility.yul\":2644:2647   */\n      dup6\n        /* \"#utility.yul\":2637:2647   */\n      swap4\n      pop\n        /* \"#utility.yul\":2045:2653   */\n      pop\n      pop\n      pop\n        /* \"#utility.yul\":1921:2653   */\n      swap3\n      swap2\n      pop\n      pop\n      jump\t// out\n        /* \"#utility.yul\":2659:3032   */\n    tag_26:\n        /* \"#utility.yul\":2802:2806   */\n      0x00\n        /* \"#utility.yul\":2840:2842   */\n      0x20\n        /* \"#utility.yul\":2829:2838   */\n      dup3\n        /* \"#utility.yul\":2825:2843   */\n      add\n        /* \"#utility.yul\":2817:2843   */\n      swap1\n      pop\n        /* \"#utility.yul\":2889:2898   */\n      dup2\n        /* \"#utility.yul\":2883:2887   */\n      dup2\n        /* \"#utility.yul\":2879:2899   */\n      sub\n        /* \"#utility.yul\":2875:2876   */\n      0x00\n        /* \"#utility.yul\":2864:2873   */\n      dup4\n        /* \"#utility.yul\":2860:2877   */\n      add\n        /* \"#utility.yul\":2853:2900   */\n      mstore\n        /* \"#utility.yul\":2917:3025   */\n      tag_432\n        /* \"#utility.yul\":3020:3024   */\n      dup2\n        /* \"#utility.yul\":3011:3017   */\n      dup5\n        /* \"#utility.yul\":2917:3025   */\n      tag_315\n      jump\t// in\n    tag_432:\n        /* \"#utility.yul\":2909:3025   */\n      swap1\n      pop\n        /* \"#utility.yul\":2659:3032   */\n      swap3\n      swap2\n      pop\n      pop\n      jump\t// out\n        /* \"#utility.yul\":3038:3155   */\n    tag_316:\n        /* \"#utility.yul\":3147:3148   */\n      0x00\n        /* \"#utility.yul\":3144:3145   */\n      0x00\n        /* \"#utility.yul\":3137:3149   */\n      revert\n        /* \"#utility.yul\":3178:3426   */\n    tag_317:\n        /* \"#utility.yul\":3248:3256   */\n      0x00\n        /* \"#utility.yul\":3279:3285   */\n      dup2\n        /* \"#utility.yul\":3267:3285   */\n      swap1\n      pop\n        /* \"#utility.yul\":3332:3335   */\n      dup3\n        /* \"#utility.yul\":3324:3328   */\n      0x20\n        /* \"#utility.yul\":3318:3322   */\n      0x03\n        /* \"#utility.yul\":3314:3329   */\n      mul\n        /* \"#utility.yul\":3304:3312   */\n      dup3\n        /* \"#utility.yul\":3300:3330   */\n      add\n        /* \"#utility.yul\":3297:3336   */\n      gt\n        /* \"#utility.yul\":3294:3420   */\n      iszero\n      tag_435\n      jumpi\n        /* \"#utility.yul\":3339:3418   */\n      tag_436\n      tag_316\n      jump\t// in\n    tag_436:\n        /* \"#utility.yul\":3294:3420   */\n    tag_435:\n        /* \"#utility.yul\":3178:3426   */\n      swap3\n      swap2\n      pop\n      pop\n      jump\t// out\n        /* \"#utility.yul\":3432:3525   */\n    tag_318:\n        /* \"#utility.yul\":3468:3475   */\n      0x00\n        /* \"#utility.yul\":3508:3518   */\n      0xffffffff\n        /* \"#utility.yul\":3501:3506   */\n      dup3\n        /* \"#utility.yul\":3497:3519   */\n      and\n        /* \"#utility.yul\":3486:3519   */\n      swap1\n      pop\n        /* \"#utility.yul\":3432:3525   */\n      swap2\n      swap1\n      pop\n      jump\t// out\n        /* \"#utility.yul\":3531:3651   */\n    tag_319:\n        /* \"#utility.yul\":3603:3626   */\n      tag_439\n        /* \"#utility.yul\":3620:3625   */\n      dup2\n        /* \"#utility.yul\":3603:3626   */\n      tag_318\n      jump\t// in\n    tag_439:\n        /* \"#utility.yul\":3596:3601   */\n      dup2\n        /* \"#utility.yul\":3593:3627   */\n      eq\n        /* \"#utility.yul\":3583:3645   */\n      tag_440\n      jumpi\n        /* \"#utility.yul\":3641:3642   */\n      0x00\n        /* \"#utility.yul\":3638:3639   */\n      0x00\n        /* \"#utility.yul\":3631:3643   */\n      revert\n        /* \"#utility.yul\":3583:3645   */\n    tag_440:\n        /* \"#utility.yul\":3531:3651   */\n      pop\n      jump\t// out\n        /* \"#utility.yul\":3657:3794   */\n    tag_320:\n        /* \"#utility.yul\":3702:3707   */\n      0x00\n        /* \"#utility.yul\":3740:3746   */\n      dup2\n        /* \"#utility.yul\":3727:3747   */\n      calldataload\n        /* \"#utility.yul\":3718:3747   */\n      swap1\n      pop\n        /* \"#utility.yul\":3756:3788   */\n      tag_442\n        /* \"#utility.yul\":3782:3787   */\n      dup2\n        /* \"#utility.yul\":3756:3788   */\n      tag_319\n      jump\t// in\n    tag_442:\n        /* \"#utility.yul\":3657:3794   */\n      swap3\n      swap2\n      pop\n      pop\n      jump\t// out\n        /* \"#utility.yul\":3800:3917   */\n    tag_321:\n        /* \"#utility.yul\":3909:3910   */\n      0x00\n        /* \"#utility.yul\":3906:3907   */\n      0x00\n        /* \"#utility.yul\":3899:3911   */\n      revert\n        /* \"#utility.yul\":3923:4040   */\n    tag_322:\n        /* \"#utility.yul\":4032:4033   */\n      0x00\n        /* \"#utility.yul\":4029:4030   */\n      0x00\n        /* \"#utility.yul\":4022:4034   */\n      revert\n        /* \"#utility.yul\":4060:4613   */\n    tag_323:\n        /* \"#utility.yul\":4118:4126   */\n      0x00\n        /* \"#utility.yul\":4128:4134   */\n      0x00\n        /* \"#utility.yul\":4178:4181   */\n      dup4\n        /* \"#utility.yul\":4171:4175   */\n      0x1f\n        /* \"#utility.yul\":4163:4169   */\n      dup5\n        /* \"#utility.yul\":4159:4176   */\n      add\n        /* \"#utility.yul\":4155:4182   */\n      slt\n        /* \"#utility.yul\":4145:4267   */\n      tag_446\n      jumpi\n        /* \"#utility.yul\":4186:4265   */\n      tag_447\n      tag_321\n      jump\t// in\n    tag_447:\n        /* \"#utility.yul\":4145:4267   */\n    tag_446:\n        /* \"#utility.yul\":4299:4305   */\n      dup3\n        /* \"#utility.yul\":4286:4306   */\n      calldataload\n        /* \"#utility.yul\":4276:4306   */\n      swap1\n      pop\n        /* \"#utility.yul\":4329:4347   */\n      0xffffffffffffffff\n        /* \"#utility.yul\":4321:4327   */\n      dup2\n        /* \"#utility.yul\":4318:4348   */\n      gt\n        /* \"#utility.yul\":4315:4432   */\n      iszero\n      tag_448\n      jumpi\n        /* \"#utility.yul\":4351:4430   */\n      tag_449\n      tag_322\n      jump\t// in\n    tag_449:\n        /* \"#utility.yul\":4315:4432   */\n    tag_448:\n        /* \"#utility.yul\":4465:4469   */\n      0x20\n        /* \"#utility.yul\":4457:4463   */\n      dup4\n        /* \"#utility.yul\":4453:4470   */\n      add\n        /* \"#utility.yul\":4441:4470   */\n      swap2\n      pop\n        /* \"#utility.yul\":4519:4522   */\n      dup4\n        /* \"#utility.yul\":4511:4515   */\n      0x01\n        /* \"#utility.yul\":4503:4509   */\n      dup3\n        /* \"#utility.yul\":4499:4516   */\n      mul\n        /* \"#utility.yul\":4489:4497   */\n      dup4\n        /* \"#utility.yul\":4485:4517   */\n      add\n        /* \"#utility.yul\":4482:4523   */\n      gt\n        /* \"#utility.yul\":4479:4607   */\n      iszero\n      tag_450\n      jumpi\n        /* \"#utility.yul\":4526:4605   */\n      tag_451\n      tag_316\n      jump\t// in\n    tag_451:\n        /* \"#utility.yul\":4479:4607   */\n    tag_450:\n        /* \"#utility.yul\":4060:4613   */\n      swap3\n      pop\n      swap3\n      swap1\n      pop\n      jump\t// out\n        /* \"#utility.yul\":4619:5632   */\n    tag_29:\n        /* \"#utility.yul\":4740:4746   */\n      0x00\n        /* \"#utility.yul\":4748:4754   */\n      0x00\n        /* \"#utility.yul\":4756:4762   */\n      0x00\n        /* \"#utility.yul\":4764:4770   */\n      0x00\n        /* \"#utility.yul\":4772:4778   */\n      0x00\n        /* \"#utility.yul\":4821:4824   */\n      0xc0\n        /* \"#utility.yul\":4809:4818   */\n      dup7\n        /* \"#utility.yul\":4800:4807   */\n      dup9\n        /* \"#utility.yul\":4796:4819   */\n      sub\n        /* \"#utility.yul\":4792:4825   */\n      slt\n        /* \"#utility.yul\":4789:4909   */\n      iszero\n      tag_453\n      jumpi\n        /* \"#utility.yul\":4828:4907   */\n      tag_454\n      tag_304\n      jump\t// in\n    tag_454:\n        /* \"#utility.yul\":4789:4909   */\n    tag_453:\n        /* \"#utility.yul\":4948:4949   */\n      0x00\n        /* \"#utility.yul\":4973:5050   */\n      tag_455\n        /* \"#utility.yul\":5042:5049   */\n      dup9\n        /* \"#utility.yul\":5033:5039   */\n      dup3\n        /* \"#utility.yul\":5022:5031   */\n      dup10\n        /* \"#utility.yul\":5018:5040   */\n      add\n        /* \"#utility.yul\":4973:5050   */\n      tag_317\n      jump\t// in\n    tag_455:\n        /* \"#utility.yul\":4963:5050   */\n      swap6\n      pop\n        /* \"#utility.yul\":4919:5060   */\n      pop\n        /* \"#utility.yul\":5099:5101   */\n      0x60\n        /* \"#utility.yul\":5125:5178   */\n      tag_456\n        /* \"#utility.yul\":5170:5177   */\n      dup9\n        /* \"#utility.yul\":5161:5167   */\n      dup3\n        /* \"#utility.yul\":5150:5159   */\n      dup10\n        /* \"#utility.yul\":5146:5168   */\n      add\n        /* \"#utility.yul\":5125:5178   */\n      tag_308\n      jump\t// in\n    tag_456:\n        /* \"#utility.yul\":5115:5178   */\n      swap5\n      pop\n        /* \"#utility.yul\":5070:5188   */\n      pop\n        /* \"#utility.yul\":5227:5230   */\n      0x80\n        /* \"#utility.yul\":5254:5306   */\n      tag_457\n        /* \"#utility.yul\":5298:5305   */\n      dup9\n        /* \"#utility.yul\":5289:5295   */\n      dup3\n        /* \"#utility.yul\":5278:5287   */\n      dup10\n        /* \"#utility.yul\":5274:5296   */\n      add\n        /* \"#utility.yul\":5254:5306   */\n      tag_320\n      jump\t// in\n    tag_457:\n        /* \"#utility.yul\":5244:5306   */\n      swap4\n      pop\n        /* \"#utility.yul\":5198:5316   */\n      pop\n        /* \"#utility.yul\":5383:5386   */\n      0xa0\n        /* \"#utility.yul\":5372:5381   */\n      dup7\n        /* \"#utility.yul\":5368:5387   */\n      add\n        /* \"#utility.yul\":5355:5388   */\n      calldataload\n        /* \"#utility.yul\":5415:5433   */\n      0xffffffffffffffff\n        /* \"#utility.yul\":5407:5413   */\n      dup2\n        /* \"#utility.yul\":5404:5434   */\n      gt\n        /* \"#utility.yul\":5401:5518   */\n      iszero\n      tag_458\n      jumpi\n        /* \"#utility.yul\":5437:5516   */\n      tag_459\n      tag_305\n      jump\t// in\n    tag_459:\n        /* \"#utility.yul\":5401:5518   */\n    tag_458:\n        /* \"#utility.yul\":5550:5615   */\n      tag_460\n        /* \"#utility.yul\":5607:5614   */\n      dup9\n        /* \"#utility.yul\":5598:5604   */\n      dup3\n        /* \"#utility.yul\":5587:5596   */\n      dup10\n        /* \"#utility.yul\":5583:5605   */\n      add\n        /* \"#utility.yul\":5550:5615   */\n      tag_323\n      jump\t// in\n    tag_460:\n        /* \"#utility.yul\":5532:5615   */\n      swap3\n      pop\n      swap3\n      pop\n        /* \"#utility.yul\":5326:5625   */\n      pop\n        /* \"#utility.yul\":4619:5632   */\n      swap3\n      swap6\n      pop\n      swap3\n      swap6\n      swap1\n      swap4\n      pop\n      jump\t// out\n        /* \"#utility.yul\":5638:5756   */\n    tag_324:\n        /* \"#utility.yul\":5725:5749   */\n      tag_462\n        /* \"#utility.yul\":5743:5748   */\n      dup2\n        /* \"#utility.yul\":5725:5749   */\n      tag_306\n      jump\t// in\n    tag_462:\n        /* \"#utility.yul\":5720:5723   */\n      dup3\n        /* \"#utility.yul\":5713:5750   */\n      mstore\n        /* \"#utility.yul\":5638:5756   */\n      pop\n      pop\n      jump\t// out\n        /* \"#utility.yul\":5762:5984   */\n    tag_32:\n        /* \"#utility.yul\":5855:5859   */\n      0x00\n        /* \"#utility.yul\":5893:5895   */\n      0x20\n        /* \"#utility.yul\":5882:5891   */\n      dup3\n        /* \"#utility.yul\":5878:5896   */\n      add\n        /* \"#utility.yul\":5870:5896   */\n      swap1\n      pop\n        /* \"#utility.yul\":5906:5977   */\n      tag_464\n        /* \"#utility.yul\":5974:5975   */\n      0x00\n        /* \"#utility.yul\":5963:5972   */\n      dup4\n        /* \"#utility.yul\":5959:5976   */\n      add\n        /* \"#utility.yul\":5950:5956   */\n      dup5\n        /* \"#utility.yul\":5906:5977   */\n      tag_324\n      jump\t// in\n    tag_464:\n        /* \"#utility.yul\":5762:5984   */\n      swap3\n      swap2\n      pop\n      pop\n      jump\t// out\n        /* \"#utility.yul\":5990:6116   */\n    tag_325:\n        /* \"#utility.yul\":6027:6034   */\n      0x00\n        /* \"#utility.yul\":6067:6109   */\n      0xffffffffffffffffffffffffffffffffffffffff\n        /* \"#utility.yul\":6060:6065   */\n      dup3\n        /* \"#utility.yul\":6056:6110   */\n      and\n        /* \"#utility.yul\":6045:6110   */\n      swap1\n      pop\n        /* \"#utility.yul\":5990:6116   */\n      swap2\n      swap1\n      pop\n      jump\t// out\n        /* \"#utility.yul\":6122:6218   */\n    tag_326:\n        /* \"#utility.yul\":6159:6166   */\n      0x00\n        /* \"#utility.yul\":6188:6212   */\n      tag_467\n        /* \"#utility.yul\":6206:6211   */\n      dup3\n        /* \"#utility.yul\":6188:6212   */\n      tag_325\n      jump\t// in\n    tag_467:\n        /* \"#utility.yul\":6177:6212   */\n      swap1\n      pop\n        /* \"#utility.yul\":6122:6218   */\n      swap2\n      swap1\n      pop\n      jump\t// out\n        /* \"#utility.yul\":6224:6342   */\n    tag_327:\n        /* \"#utility.yul\":6311:6335   */\n      tag_469\n        /* \"#utility.yul\":6329:6334   */\n      dup2\n        /* \"#utility.yul\":6311:6335   */\n      tag_326\n      jump\t// in\n    tag_469:\n        /* \"#utility.yul\":6306:6309   */\n      dup3\n        /* \"#utility.yul\":6299:6336   */\n      mstore\n        /* \"#utility.yul\":6224:6342   */\n      pop\n      pop\n      jump\t// out\n        /* \"#utility.yul\":6348:6451   */\n    tag_328:\n        /* \"#utility.yul\":6412:6418   */\n      0x00\n        /* \"#utility.yul\":6440:6444   */\n      0x03\n        /* \"#utility.yul\":6430:6444   */\n      swap1\n      pop\n        /* \"#utility.yul\":6348:6451   */\n      swap2\n      swap1\n      pop\n      jump\t// out\n        /* \"#utility.yul\":6457:6599   */\n    tag_329:\n        /* \"#utility.yul\":6553:6564   */\n      0x00\n        /* \"#utility.yul\":6590:6593   */\n      dup2\n        /* \"#utility.yul\":6575:6593   */\n      swap1\n      pop\n        /* \"#utility.yul\":6457:6599   */\n      swap3\n      swap2\n      pop\n      pop\n      jump\t// out\n        /* \"#utility.yul\":6605:6702   */\n    tag_330:\n        /* \"#utility.yul\":6669:6673   */\n      0x00\n        /* \"#utility.yul\":6692:6695   */\n      dup2\n        /* \"#utility.yul\":6684:6695   */\n      swap1\n      pop\n        /* \"#utility.yul\":6605:6702   */\n      swap2\n      swap1\n      pop\n      jump\t// out\n        /* \"#utility.yul\":6708:6784   */\n    tag_331:\n        /* \"#utility.yul\":6744:6751   */\n      0x00\n        /* \"#utility.yul\":6773:6778   */\n      dup2\n        /* \"#utility.yul\":6762:6778   */\n      swap1\n      pop\n        /* \"#utility.yul\":6708:6784   */\n      swap2\n      swap1\n      pop\n      jump\t// out\n        /* \"#utility.yul\":6790:6895   */\n    tag_332:\n        /* \"#utility.yul\":6865:6888   */\n      tag_475\n        /* \"#utility.yul\":6882:6887   */\n      dup2\n        /* \"#utility.yul\":6865:6888   */\n      tag_331\n      jump\t// in\n    tag_475:\n        /* \"#utility.yul\":6860:6863   */\n      dup3\n        /* \"#utility.yul\":6853:6889   */\n      mstore\n        /* \"#utility.yul\":6790:6895   */\n      pop\n      pop\n      jump\t// out\n        /* \"#utility.yul\":6901:7076   */\n    tag_333:\n        /* \"#utility.yul\":6968:6978   */\n      0x00\n        /* \"#utility.yul\":6989:7033   */\n      tag_477\n        /* \"#utility.yul\":7029:7032   */\n      dup4\n        /* \"#utility.yul\":7021:7027   */\n      dup4\n        /* \"#utility.yul\":6989:7033   */\n      tag_332\n      jump\t// in\n    tag_477:\n        /* \"#utility.yul\":7065:7069   */\n      0x20\n        /* \"#utility.yul\":7060:7063   */\n      dup4\n        /* \"#utility.yul\":7056:7070   */\n      add\n        /* \"#utility.yul\":7042:7070   */\n      swap1\n      pop\n        /* \"#utility.yul\":6901:7076   */\n      swap3\n      swap2\n      pop\n      pop\n      jump\t// out\n        /* \"#utility.yul\":7082:7192   */\n    tag_334:\n        /* \"#utility.yul\":7149:7153   */\n      0x00\n        /* \"#utility.yul\":7181:7185   */\n      0x20\n        /* \"#utility.yul\":7176:7179   */\n      dup3\n        /* \"#utility.yul\":7172:7186   */\n      add\n        /* \"#utility.yul\":7164:7186   */\n      swap1\n      pop\n        /* \"#utility.yul\":7082:7192   */\n      swap2\n      swap1\n      pop\n      jump\t// out\n        /* \"#utility.yul\":7228:7914   */\n    tag_335:\n        /* \"#utility.yul\":7362:7413   */\n      tag_480\n        /* \"#utility.yul\":7407:7412   */\n      dup2\n        /* \"#utility.yul\":7362:7413   */\n      tag_328\n      jump\t// in\n    tag_480:\n        /* \"#utility.yul\":7429:7512   */\n      tag_481\n        /* \"#utility.yul\":7505:7511   */\n      dup2\n        /* \"#utility.yul\":7500:7503   */\n      dup5\n        /* \"#utility.yul\":7429:7512   */\n      tag_329\n      jump\t// in\n    tag_481:\n        /* \"#utility.yul\":7422:7512   */\n      swap3\n      pop\n        /* \"#utility.yul\":7536:7589   */\n      tag_482\n        /* \"#utility.yul\":7583:7588   */\n      dup3\n        /* \"#utility.yul\":7536:7589   */\n      tag_330\n      jump\t// in\n    tag_482:\n        /* \"#utility.yul\":7612:7619   */\n      dup1\n        /* \"#utility.yul\":7643:7644   */\n      0x00\n        /* \"#utility.yul\":7628:7907   */\n    tag_483:\n        /* \"#utility.yul\":7653:7659   */\n      dup4\n        /* \"#utility.yul\":7650:7651   */\n      dup2\n        /* \"#utility.yul\":7647:7660   */\n      lt\n        /* \"#utility.yul\":7628:7907   */\n      iszero\n      tag_485\n      jumpi\n        /* \"#utility.yul\":7729:7735   */\n      dup2\n        /* \"#utility.yul\":7723:7736   */\n      mload\n        /* \"#utility.yul\":7756:7817   */\n      tag_486\n        /* \"#utility.yul\":7813:7816   */\n      dup8\n        /* \"#utility.yul\":7798:7811   */\n      dup3\n        /* \"#utility.yul\":7756:7817   */\n      tag_333\n      jump\t// in\n    tag_486:\n        /* \"#utility.yul\":7749:7817   */\n      swap7\n      pop\n        /* \"#utility.yul\":7840:7897   */\n      tag_487\n        /* \"#utility.yul\":7890:7896   */\n      dup4\n        /* \"#utility.yul\":7840:7897   */\n      tag_334\n      jump\t// in\n    tag_487:\n        /* \"#utility.yul\":7830:7897   */\n      swap3\n      pop\n        /* \"#utility.yul\":7688:7907   */\n      pop\n        /* \"#utility.yul\":7675:7676   */\n      0x01\n        /* \"#utility.yul\":7672:7673   */\n      dup2\n        /* \"#utility.yul\":7668:7677   */\n      add\n        /* \"#utility.yul\":7663:7677   */\n      swap1\n      pop\n        /* \"#utility.yul\":7628:7907   */\n      jump(tag_483)\n    tag_485:\n        /* \"#utility.yul\":7632:7646   */\n      pop\n        /* \"#utility.yul\":7338:7914   */\n      pop\n      pop\n      pop\n        /* \"#utility.yul\":7228:7914   */\n      pop\n      pop\n      jump\t// out\n        /* \"#utility.yul\":7920:8035   */\n    tag_336:\n        /* \"#utility.yul\":8005:8028   */\n      tag_489\n        /* \"#utility.yul\":8022:8027   */\n      dup2\n        /* \"#utility.yul\":8005:8028   */\n      tag_318\n      jump\t// in\n    tag_489:\n        /* \"#utility.yul\":8000:8003   */\n      dup3\n        /* \"#utility.yul\":7993:8029   */\n      mstore\n        /* \"#utility.yul\":7920:8035   */\n      pop\n      pop\n      jump\t// out\n        /* \"#utility.yul\":8041:8140   */\n    tag_337:\n        /* \"#utility.yul\":8093:8099   */\n      0x00\n        /* \"#utility.yul\":8127:8132   */\n      dup2\n        /* \"#utility.yul\":8121:8133   */\n      mload\n        /* \"#utility.yul\":8111:8133   */\n      swap1\n      pop\n        /* \"#utility.yul\":8041:8140   */\n      swap2\n      swap1\n      pop\n      jump\t// out\n        /* \"#utility.yul\":8146:8315   */\n    tag_338:\n        /* \"#utility.yul\":8230:8241   */\n      0x00\n        /* \"#utility.yul\":8264:8270   */\n      dup3\n        /* \"#utility.yul\":8259:8262   */\n      dup3\n        /* \"#utility.yul\":8252:8271   */\n      mstore\n        /* \"#utility.yul\":8304:8308   */\n      0x20\n        /* \"#utility.yul\":8299:8302   */\n      dup3\n        /* \"#utility.yul\":8295:8309   */\n      add\n        /* \"#utility.yul\":8280:8309   */\n      swap1\n      pop\n        /* \"#utility.yul\":8146:8315   */\n      swap3\n      swap2\n      pop\n      pop\n      jump\t// out\n        /* \"#utility.yul\":8321:8460   */\n    tag_339:\n        /* \"#utility.yul\":8410:8416   */\n      dup3\n        /* \"#utility.yul\":8405:8408   */\n      dup2\n        /* \"#utility.yul\":8400:8403   */\n      dup4\n        /* \"#utility.yul\":8394:8417   */\n      mcopy\n        /* \"#utility.yul\":8451:8452   */\n      0x00\n        /* \"#utility.yul\":8442:8448   */\n      dup4\n        /* \"#utility.yul\":8437:8440   */\n      dup4\n        /* \"#utility.yul\":8433:8449   */\n      add\n        /* \"#utility.yul\":8426:8453   */\n      mstore\n        /* \"#utility.yul\":8321:8460   */\n      pop\n      pop\n      pop\n      jump\t// out\n        /* \"#utility.yul\":8466:8568   */\n    tag_340:\n        /* \"#utility.yul\":8507:8513   */\n      0x00\n        /* \"#utility.yul\":8558:8560   */\n      0x1f\n        /* \"#utility.yul\":8554:8561   */\n      not\n        /* \"#utility.yul\":8549:8551   */\n      0x1f\n        /* \"#utility.yul\":8542:8547   */\n      dup4\n        /* \"#utility.yul\":8538:8552   */\n      add\n        /* \"#utility.yul\":8534:8562   */\n      and\n        /* \"#utility.yul\":8524:8562   */\n      swap1\n      pop\n        /* \"#utility.yul\":8466:8568   */\n      swap2\n      swap1\n      pop\n      jump\t// out\n        /* \"#utility.yul\":8574:8951   */\n    tag_341:\n        /* \"#utility.yul\":8662:8665   */\n      0x00\n        /* \"#utility.yul\":8690:8729   */\n      tag_495\n        /* \"#utility.yul\":8723:8728   */\n      dup3\n        /* \"#utility.yul\":8690:8729   */\n      tag_337\n      jump\t// in\n    tag_495:\n        /* \"#utility.yul\":8745:8816   */\n      tag_496\n        /* \"#utility.yul\":8809:8815   */\n      dup2\n        /* \"#utility.yul\":8804:8807   */\n      dup6\n        /* \"#utility.yul\":8745:8816   */\n      tag_338\n      jump\t// in\n    tag_496:\n        /* \"#utility.yul\":8738:8816   */\n      swap4\n      pop\n        /* \"#utility.yul\":8825:8890   */\n      tag_497\n        /* \"#utility.yul\":8883:8889   */\n      dup2\n        /* \"#utility.yul\":8878:8881   */\n      dup6\n        /* \"#utility.yul\":8871:8875   */\n      0x20\n        /* \"#utility.yul\":8864:8869   */\n      dup7\n        /* \"#utility.yul\":8860:8876   */\n      add\n        /* \"#utility.yul\":8825:8890   */\n      tag_339\n      jump\t// in\n    tag_497:\n        /* \"#utility.yul\":8915:8944   */\n      tag_498\n        /* \"#utility.yul\":8937:8943   */\n      dup2\n        /* \"#utility.yul\":8915:8944   */\n      tag_340\n      jump\t// in\n    tag_498:\n        /* \"#utility.yul\":8910:8913   */\n      dup5\n        /* \"#utility.yul\":8906:8945   */\n      add\n        /* \"#utility.yul\":8899:8945   */\n      swap2\n      pop\n        /* \"#utility.yul\":8666:8951   */\n      pop\n        /* \"#utility.yul\":8574:8951   */\n      swap3\n      swap2\n      pop\n      pop\n      jump\t// out\n        /* \"#utility.yul\":8957:10020   */\n    tag_37:\n        /* \"#utility.yul\":9280:9284   */\n      0x00\n        /* \"#utility.yul\":9318:9321   */\n      0x0120\n        /* \"#utility.yul\":9307:9316   */\n      dup3\n        /* \"#utility.yul\":9303:9322   */\n      add\n        /* \"#utility.yul\":9295:9322   */\n      swap1\n      pop\n        /* \"#utility.yul\":9332:9403   */\n      tag_500\n        /* \"#utility.yul\":9400:9401   */\n      0x00\n        /* \"#utility.yul\":9389:9398   */\n      dup4\n        /* \"#utility.yul\":9385:9402   */\n      add\n        /* \"#utility.yul\":9376:9382   */\n      dup11\n        /* \"#utility.yul\":9332:9403   */\n      tag_327\n      jump\t// in\n    tag_500:\n        /* \"#utility.yul\":9413:9529   */\n      tag_501\n        /* \"#utility.yul\":9525:9527   */\n      0x20\n        /* \"#utility.yul\":9514:9523   */\n      dup4\n        /* \"#utility.yul\":9510:9528   */\n      add\n        /* \"#utility.yul\":9501:9507   */\n      dup10\n        /* \"#utility.yul\":9413:9529   */\n      tag_335\n      jump\t// in\n    tag_501:\n        /* \"#utility.yul\":9539:9612   */\n      tag_502\n        /* \"#utility.yul\":9607:9610   */\n      0x80\n        /* \"#utility.yul\":9596:9605   */\n      dup4\n        /* \"#utility.yul\":9592:9611   */\n      add\n        /* \"#utility.yul\":9583:9589   */\n      dup9\n        /* \"#utility.yul\":9539:9612   */\n      tag_324\n      jump\t// in\n    tag_502:\n        /* \"#utility.yul\":9622:9693   */\n      tag_503\n        /* \"#utility.yul\":9688:9691   */\n      0xa0\n        /* \"#utility.yul\":9677:9686   */\n      dup4\n        /* \"#utility.yul\":9673:9692   */\n      add\n        /* \"#utility.yul\":9664:9670   */\n      dup8\n        /* \"#utility.yul\":9622:9693   */\n      tag_336\n      jump\t// in\n    tag_503:\n        /* \"#utility.yul\":9703:9776   */\n      tag_504\n        /* \"#utility.yul\":9771:9774   */\n      0xc0\n        /* \"#utility.yul\":9760:9769   */\n      dup4\n        /* \"#utility.yul\":9756:9775   */\n      add\n        /* \"#utility.yul\":9747:9753   */\n      dup7\n        /* \"#utility.yul\":9703:9776   */\n      tag_324\n      jump\t// in\n    tag_504:\n        /* \"#utility.yul\":9786:9859   */\n      tag_505\n        /* \"#utility.yul\":9854:9857   */\n      0xe0\n        /* \"#utility.yul\":9843:9852   */\n      dup4\n        /* \"#utility.yul\":9839:9858   */\n      add\n        /* \"#utility.yul\":9830:9836   */\n      dup6\n        /* \"#utility.yul\":9786:9859   */\n      tag_324\n      jump\t// in\n    tag_505:\n        /* \"#utility.yul\":9907:9916   */\n      dup2\n        /* \"#utility.yul\":9901:9905   */\n      dup2\n        /* \"#utility.yul\":9897:9917   */\n      sub\n        /* \"#utility.yul\":9891:9894   */\n      0x0100\n        /* \"#utility.yul\":9880:9889   */\n      dup4\n        /* \"#utility.yul\":9876:9895   */\n      add\n        /* \"#utility.yul\":9869:9918   */\n      mstore\n        /* \"#utility.yul\":9935:10013   */\n      tag_506\n        /* \"#utility.yul\":10008:10012   */\n      dup2\n        /* \"#utility.yul\":9999:10005   */\n      dup5\n        /* \"#utility.yul\":9935:10013   */\n      tag_341\n      jump\t// in\n    tag_506:\n        /* \"#utility.yul\":9927:10013   */\n      swap1\n      pop\n        /* \"#utility.yul\":8957:10020   */\n      swap9\n      swap8\n      pop\n      pop\n      pop\n      pop\n      pop\n      pop\n      pop\n      pop\n      jump\t// out\n        /* \"#utility.yul\":10026:10248   */\n    tag_41:\n        /* \"#utility.yul\":10119:10123   */\n      0x00\n        /* \"#utility.yul\":10157:10159   */\n      0x20\n        /* \"#utility.yul\":10146:10155   */\n      dup3\n        /* \"#utility.yul\":10142:10160   */\n      add\n        /* \"#utility.yul\":10134:10160   */\n      swap1\n      pop\n        /* \"#utility.yul\":10170:10241   */\n      tag_508\n        /* \"#utility.yul\":10238:10239   */\n      0x00\n        /* \"#utility.yul\":10227:10236   */\n      dup4\n        /* \"#utility.yul\":10223:10240   */\n      add\n        /* \"#utility.yul\":10214:10220   */\n      dup5\n        /* \"#utility.yul\":10170:10241   */\n      tag_327\n      jump\t// in\n    tag_508:\n        /* \"#utility.yul\":10026:10248   */\n      swap3\n      swap2\n      pop\n      pop\n      jump\t// out\n        /* \"#utility.yul\":10254:10581   */\n    tag_47:\n        /* \"#utility.yul\":10312:10318   */\n      0x00\n        /* \"#utility.yul\":10361:10363   */\n      0x20\n        /* \"#utility.yul\":10349:10358   */\n      dup3\n        /* \"#utility.yul\":10340:10347   */\n      dup5\n        /* \"#utility.yul\":10336:10359   */\n      sub\n        /* \"#utility.yul\":10332:10364   */\n      slt\n        /* \"#utility.yul\":10329:10448   */\n      iszero\n      tag_510\n      jumpi\n        /* \"#utility.yul\":10367:10446   */\n      tag_511\n      tag_304\n      jump\t// in\n    tag_511:\n        /* \"#utility.yul\":10329:10448   */\n    tag_510:\n        /* \"#utility.yul\":10487:10488   */\n      0x00\n        /* \"#utility.yul\":10512:10564   */\n      tag_512\n        /* \"#utility.yul\":10556:10563   */\n      dup5\n        /* \"#utility.yul\":10547:10553   */\n      dup3\n        /* \"#utility.yul\":10536:10545   */\n      dup6\n        /* \"#utility.yul\":10532:10554   */\n      add\n        /* \"#utility.yul\":10512:10564   */\n      tag_320\n      jump\t// in\n    tag_512:\n        /* \"#utility.yul\":10502:10564   */\n      swap2\n      pop\n        /* \"#utility.yul\":10458:10574   */\n      pop\n        /* \"#utility.yul\":10254:10581   */\n      swap3\n      swap2\n      pop\n      pop\n      jump\t// out\n        /* \"#utility.yul\":10639:11134   */\n    tag_342:\n        /* \"#utility.yul\":10780:10784   */\n      0x40\n        /* \"#utility.yul\":10775:10778   */\n      dup3\n        /* \"#utility.yul\":10771:10785   */\n      add\n        /* \"#utility.yul\":10864:10868   */\n      0x00\n        /* \"#utility.yul\":10857:10862   */\n      dup3\n        /* \"#utility.yul\":10853:10869   */\n      add\n        /* \"#utility.yul\":10847:10870   */\n      mload\n        /* \"#utility.yul\":10883:10946   */\n      tag_514\n        /* \"#utility.yul\":10940:10944   */\n      0x00\n        /* \"#utility.yul\":10935:10938   */\n      dup6\n        /* \"#utility.yul\":10931:10945   */\n      add\n        /* \"#utility.yul\":10917:10929   */\n      dup3\n        /* \"#utility.yul\":10883:10946   */\n      tag_312\n      jump\t// in\n    tag_514:\n        /* \"#utility.yul\":10795:10956   */\n      pop\n        /* \"#utility.yul\":11035:11039   */\n      0x20\n        /* \"#utility.yul\":11028:11033   */\n      dup3\n        /* \"#utility.yul\":11024:11040   */\n      add\n        /* \"#utility.yul\":11018:11041   */\n      mload\n        /* \"#utility.yul\":11054:11117   */\n      tag_515\n        /* \"#utility.yul\":11111:11115   */\n      0x20\n        /* \"#utility.yul\":11106:11109   */\n      dup6\n        /* \"#utility.yul\":11102:11116   */\n      add\n        /* \"#utility.yul\":11088:11100   */\n      dup3\n        /* \"#utility.yul\":11054:11117   */\n      tag_312\n      jump\t// in\n    tag_515:\n        /* \"#utility.yul\":10966:11127   */\n      pop\n        /* \"#utility.yul\":10749:11134   */\n      pop\n        /* \"#utility.yul\":10639:11134   */\n      pop\n      pop\n      jump\t// out\n        /* \"#utility.yul\":11140:11230   */\n    tag_343:\n        /* \"#utility.yul\":11174:11181   */\n      0x00\n        /* \"#utility.yul\":11217:11222   */\n      dup2\n        /* \"#utility.yul\":11210:11223   */\n      iszero\n        /* \"#utility.yul\":11203:11224   */\n      iszero\n        /* \"#utility.yul\":11192:11224   */\n      swap1\n      pop\n        /* \"#utility.yul\":11140:11230   */\n      swap2\n      swap1\n      pop\n      jump\t// out\n        /* \"#utility.yul\":11236:11345   */\n    tag_344:\n        /* \"#utility.yul\":11317:11338   */\n      tag_518\n        /* \"#utility.yul\":11332:11337   */\n      dup2\n        /* \"#utility.yul\":11317:11338   */\n      tag_343\n      jump\t// in\n    tag_518:\n        /* \"#utility.yul\":11312:11315   */\n      dup3\n        /* \"#utility.yul\":11305:11339   */\n      mstore\n        /* \"#utility.yul\":11236:11345   */\n      pop\n      pop\n      jump\t// out\n        /* \"#utility.yul\":11351:12289   */\n    tag_64:\n        /* \"#utility.yul\":11640:11644   */\n      0x00\n        /* \"#utility.yul\":11678:11681   */\n      0xe0\n        /* \"#utility.yul\":11667:11676   */\n      dup3\n        /* \"#utility.yul\":11663:11682   */\n      add\n        /* \"#utility.yul\":11655:11682   */\n      swap1\n      pop\n        /* \"#utility.yul\":11692:11763   */\n      tag_520\n        /* \"#utility.yul\":11760:11761   */\n      0x00\n        /* \"#utility.yul\":11749:11758   */\n      dup4\n        /* \"#utility.yul\":11745:11762   */\n      add\n        /* \"#utility.yul\":11736:11742   */\n      dup10\n        /* \"#utility.yul\":11692:11763   */\n      tag_327\n      jump\t// in\n    tag_520:\n        /* \"#utility.yul\":11773:11845   */\n      tag_521\n        /* \"#utility.yul\":11841:11843   */\n      0x20\n        /* \"#utility.yul\":11830:11839   */\n      dup4\n        /* \"#utility.yul\":11826:11844   */\n      add\n        /* \"#utility.yul\":11817:11823   */\n      dup9\n        /* \"#utility.yul\":11773:11845   */\n      tag_324\n      jump\t// in\n    tag_521:\n        /* \"#utility.yul\":11855:11925   */\n      tag_522\n        /* \"#utility.yul\":11921:11923   */\n      0x40\n        /* \"#utility.yul\":11910:11919   */\n      dup4\n        /* \"#utility.yul\":11906:11924   */\n      add\n        /* \"#utility.yul\":11897:11903   */\n      dup8\n        /* \"#utility.yul\":11855:11925   */\n      tag_336\n      jump\t// in\n    tag_522:\n        /* \"#utility.yul\":11935:12051   */\n      tag_523\n        /* \"#utility.yul\":12047:12049   */\n      0x60\n        /* \"#utility.yul\":12036:12045   */\n      dup4\n        /* \"#utility.yul\":12032:12050   */\n      add\n        /* \"#utility.yul\":12023:12029   */\n      dup7\n        /* \"#utility.yul\":11935:12051   */\n      tag_342\n      jump\t// in\n    tag_523:\n        /* \"#utility.yul\":12099:12108   */\n      dup2\n        /* \"#utility.yul\":12093:12097   */\n      dup2\n        /* \"#utility.yul\":12089:12109   */\n      sub\n        /* \"#utility.yul\":12083:12086   */\n      0xa0\n        /* \"#utility.yul\":12072:12081   */\n      dup4\n        /* \"#utility.yul\":12068:12087   */\n      add\n        /* \"#utility.yul\":12061:12110   */\n      mstore\n        /* \"#utility.yul\":12127:12205   */\n      tag_524\n        /* \"#utility.yul\":12200:12204   */\n      dup2\n        /* \"#utility.yul\":12191:12197   */\n      dup6\n        /* \"#utility.yul\":12127:12205   */\n      tag_341\n      jump\t// in\n    tag_524:\n        /* \"#utility.yul\":12119:12205   */\n      swap1\n      pop\n        /* \"#utility.yul\":12215:12282   */\n      tag_525\n        /* \"#utility.yul\":12277:12280   */\n      0xc0\n        /* \"#utility.yul\":12266:12275   */\n      dup4\n        /* \"#utility.yul\":12262:12281   */\n      add\n        /* \"#utility.yul\":12253:12259   */\n      dup5\n        /* \"#utility.yul\":12215:12282   */\n      tag_344\n      jump\t// in\n    tag_525:\n        /* \"#utility.yul\":11351:12289   */\n      swap8\n      swap7\n      pop\n      pop\n      pop\n      pop\n      pop\n      pop\n      pop\n      jump\t// out\n        /* \"#utility.yul\":12295:12505   */\n    tag_68:\n        /* \"#utility.yul\":12382:12386   */\n      0x00\n        /* \"#utility.yul\":12420:12422   */\n      0x20\n        /* \"#utility.yul\":12409:12418   */\n      dup3\n        /* \"#utility.yul\":12405:12423   */\n      add\n        /* \"#utility.yul\":12397:12423   */\n      swap1\n      pop\n        /* \"#utility.yul\":12433:12498   */\n      tag_527\n        /* \"#utility.yul\":12495:12496   */\n      0x00\n        /* \"#utility.yul\":12484:12493   */\n      dup4\n        /* \"#utility.yul\":12480:12497   */\n      add\n        /* \"#utility.yul\":12471:12477   */\n      dup5\n        /* \"#utility.yul\":12433:12498   */\n      tag_344\n      jump\t// in\n    tag_527:\n        /* \"#utility.yul\":12295:12505   */\n      swap3\n      swap2\n      pop\n      pop\n      jump\t// out\n        /* \"#utility.yul\":12511:12729   */\n    tag_72:\n        /* \"#utility.yul\":12602:12606   */\n      0x00\n        /* \"#utility.yul\":12640:12642   */\n      0x20\n        /* \"#utility.yul\":12629:12638   */\n      dup3\n        /* \"#utility.yul\":12625:12643   */\n      add\n        /* \"#utility.yul\":12617:12643   */\n      swap1\n      pop\n        /* \"#utility.yul\":12653:12722   */\n      tag_529\n        /* \"#utility.yul\":12719:12720   */\n      0x00\n        /* \"#utility.yul\":12708:12717   */\n      dup4\n        /* \"#utility.yul\":12704:12721   */\n      add\n        /* \"#utility.yul\":12695:12701   */\n      dup5\n        /* \"#utility.yul\":12653:12722   */\n      tag_336\n      jump\t// in\n    tag_529:\n        /* \"#utility.yul\":12511:12729   */\n      swap3\n      swap2\n      pop\n      pop\n      jump\t// out\n        /* \"#utility.yul\":12735:13604   */\n    tag_75:\n        /* \"#utility.yul\":12848:12854   */\n      0x00\n        /* \"#utility.yul\":12856:12862   */\n      0x00\n        /* \"#utility.yul\":12864:12870   */\n      0x00\n        /* \"#utility.yul\":12872:12878   */\n      0x00\n        /* \"#utility.yul\":12921:12924   */\n      0xa0\n        /* \"#utility.yul\":12909:12918   */\n      dup6\n        /* \"#utility.yul\":12900:12907   */\n      dup8\n        /* \"#utility.yul\":12896:12919   */\n      sub\n        /* \"#utility.yul\":12892:12925   */\n      slt\n        /* \"#utility.yul\":12889:13009   */\n      iszero\n      tag_531\n      jumpi\n        /* \"#utility.yul\":12928:13007   */\n      tag_532\n      tag_304\n      jump\t// in\n    tag_532:\n        /* \"#utility.yul\":12889:13009   */\n    tag_531:\n        /* \"#utility.yul\":13048:13049   */\n      0x00\n        /* \"#utility.yul\":13073:13150   */\n      tag_533\n        /* \"#utility.yul\":13142:13149   */\n      dup8\n        /* \"#utility.yul\":13133:13139   */\n      dup3\n        /* \"#utility.yul\":13122:13131   */\n      dup9\n        /* \"#utility.yul\":13118:13140   */\n      add\n        /* \"#utility.yul\":13073:13150   */\n      tag_317\n      jump\t// in\n    tag_533:\n        /* \"#utility.yul\":13063:13150   */\n      swap5\n      pop\n        /* \"#utility.yul\":13019:13160   */\n      pop\n        /* \"#utility.yul\":13199:13201   */\n      0x60\n        /* \"#utility.yul\":13225:13278   */\n      tag_534\n        /* \"#utility.yul\":13270:13277   */\n      dup8\n        /* \"#utility.yul\":13261:13267   */\n      dup3\n        /* \"#utility.yul\":13250:13259   */\n      dup9\n        /* \"#utility.yul\":13246:13268   */\n      add\n        /* \"#utility.yul\":13225:13278   */\n      tag_308\n      jump\t// in\n    tag_534:\n        /* \"#utility.yul\":13215:13278   */\n      swap4\n      pop\n        /* \"#utility.yul\":13170:13288   */\n      pop\n        /* \"#utility.yul\":13355:13358   */\n      0x80\n        /* \"#utility.yul\":13344:13353   */\n      dup6\n        /* \"#utility.yul\":13340:13359   */\n      add\n        /* \"#utility.yul\":13327:13360   */\n      calldataload\n        /* \"#utility.yul\":13387:13405   */\n      0xffffffffffffffff\n        /* \"#utility.yul\":13379:13385   */\n      dup2\n        /* \"#utility.yul\":13376:13406   */\n      gt\n        /* \"#utility.yul\":13373:13490   */\n      iszero\n      tag_535\n      jumpi\n        /* \"#utility.yul\":13409:13488   */\n      tag_536\n      tag_305\n      jump\t// in\n    tag_536:\n        /* \"#utility.yul\":13373:13490   */\n    tag_535:\n        /* \"#utility.yul\":13522:13587   */\n      tag_537\n        /* \"#utility.yul\":13579:13586   */\n      dup8\n        /* \"#utility.yul\":13570:13576   */\n      dup3\n        /* \"#utility.yul\":13559:13568   */\n      dup9\n        /* \"#utility.yul\":13555:13577   */\n      add\n        /* \"#utility.yul\":13522:13587   */\n      tag_323\n      jump\t// in\n    tag_537:\n        /* \"#utility.yul\":13504:13587   */\n      swap3\n      pop\n      swap3\n      pop\n        /* \"#utility.yul\":13298:13597   */\n      pop\n        /* \"#utility.yul\":12735:13604   */\n      swap3\n      swap6\n      swap2\n      swap5\n      pop\n      swap3\n      pop\n      jump\t// out\n        /* \"#utility.yul\":13610:13670   */\n    tag_345:\n        /* \"#utility.yul\":13638:13641   */\n      0x00\n        /* \"#utility.yul\":13659:13664   */\n      dup2\n        /* \"#utility.yul\":13652:13664   */\n      swap1\n      pop\n        /* \"#utility.yul\":13610:13670   */\n      swap2\n      swap1\n      pop\n      jump\t// out\n        /* \"#utility.yul\":13676:13818   */\n    tag_346:\n        /* \"#utility.yul\":13726:13735   */\n      0x00\n        /* \"#utility.yul\":13759:13812   */\n      tag_540\n        /* \"#utility.yul\":13777:13811   */\n      tag_541\n        /* \"#utility.yul\":13786:13810   */\n      tag_542\n        /* \"#utility.yul\":13804:13809   */\n      dup5\n        /* \"#utility.yul\":13786:13810   */\n      tag_325\n      jump\t// in\n    tag_542:\n        /* \"#utility.yul\":13777:13811   */\n      tag_345\n      jump\t// in\n    tag_541:\n        /* \"#utility.yul\":13759:13812   */\n      tag_325\n      jump\t// in\n    tag_540:\n        /* \"#utility.yul\":13746:13812   */\n      swap1\n      pop\n        /* \"#utility.yul\":13676:13818   */\n      swap2\n      swap1\n      pop\n      jump\t// out\n        /* \"#utility.yul\":13824:13950   */\n    tag_347:\n        /* \"#utility.yul\":13874:13883   */\n      0x00\n        /* \"#utility.yul\":13907:13944   */\n      tag_544\n        /* \"#utility.yul\":13938:13943   */\n      dup3\n        /* \"#utility.yul\":13907:13944   */\n      tag_346\n      jump\t// in\n    tag_544:\n        /* \"#utility.yul\":13894:13944   */\n      swap1\n      pop\n        /* \"#utility.yul\":13824:13950   */\n      swap2\n      swap1\n      pop\n      jump\t// out\n        /* \"#utility.yul\":13956:14096   */\n    tag_348:\n        /* \"#utility.yul\":14020:14029   */\n      0x00\n        /* \"#utility.yul\":14053:14090   */\n      tag_546\n        /* \"#utility.yul\":14084:14089   */\n      dup3\n        /* \"#utility.yul\":14053:14090   */\n      tag_347\n      jump\t// in\n    tag_546:\n        /* \"#utility.yul\":14040:14090   */\n      swap1\n      pop\n        /* \"#utility.yul\":13956:14096   */\n      swap2\n      swap1\n      pop\n      jump\t// out\n        /* \"#utility.yul\":14102:14261   */\n    tag_349:\n        /* \"#utility.yul\":14203:14254   */\n      tag_548\n        /* \"#utility.yul\":14248:14253   */\n      dup2\n        /* \"#utility.yul\":14203:14254   */\n      tag_348\n      jump\t// in\n    tag_548:\n        /* \"#utility.yul\":14198:14201   */\n      dup3\n        /* \"#utility.yul\":14191:14255   */\n      mstore\n        /* \"#utility.yul\":14102:14261   */\n      pop\n      pop\n      jump\t// out\n        /* \"#utility.yul\":14267:14517   */\n    tag_83:\n        /* \"#utility.yul\":14374:14378   */\n      0x00\n        /* \"#utility.yul\":14412:14414   */\n      0x20\n        /* \"#utility.yul\":14401:14410   */\n      dup3\n        /* \"#utility.yul\":14397:14415   */\n      add\n        /* \"#utility.yul\":14389:14415   */\n      swap1\n      pop\n        /* \"#utility.yul\":14425:14510   */\n      tag_550\n        /* \"#utility.yul\":14507:14508   */\n      0x00\n        /* \"#utility.yul\":14496:14505   */\n      dup4\n        /* \"#utility.yul\":14492:14509   */\n      add\n        /* \"#utility.yul\":14483:14489   */\n      dup5\n        /* \"#utility.yul\":14425:14510   */\n      tag_349\n      jump\t// in\n    tag_550:\n        /* \"#utility.yul\":14267:14517   */\n      swap3\n      swap2\n      pop\n      pop\n      jump\t// out\n        /* \"#utility.yul\":14523:14703   */\n    tag_88:\n        /* \"#utility.yul\":14571:14648   */\n      0x4e487b7100000000000000000000000000000000000000000000000000000000\n        /* \"#utility.yul\":14568:14569   */\n      0x00\n        /* \"#utility.yul\":14561:14649   */\n      mstore\n        /* \"#utility.yul\":14668:14672   */\n      0x41\n        /* \"#utility.yul\":14665:14666   */\n      0x04\n        /* \"#utility.yul\":14658:14673   */\n      mstore\n        /* \"#utility.yul\":14692:14696   */\n      0x24\n        /* \"#utility.yul\":14689:14690   */\n      0x00\n        /* \"#utility.yul\":14682:14697   */\n      revert\n        /* \"#utility.yul\":14709:14889   */\n    tag_350:\n        /* \"#utility.yul\":14757:14834   */\n      0x4e487b7100000000000000000000000000000000000000000000000000000000\n        /* \"#utility.yul\":14754:14755   */\n      0x00\n        /* \"#utility.yul\":14747:14835   */\n      mstore\n        /* \"#utility.yul\":14854:14858   */\n      0x11\n        /* \"#utility.yul\":14851:14852   */\n      0x04\n        /* \"#utility.yul\":14844:14859   */\n      mstore\n        /* \"#utility.yul\":14878:14882   */\n      0x24\n        /* \"#utility.yul\":14875:14876   */\n      0x00\n        /* \"#utility.yul\":14868:14883   */\n      revert\n        /* \"#utility.yul\":14895:15086   */\n    tag_91:\n        /* \"#utility.yul\":14935:14938   */\n      0x00\n        /* \"#utility.yul\":14954:14974   */\n      tag_554\n        /* \"#utility.yul\":14972:14973   */\n      dup3\n        /* \"#utility.yul\":14954:14974   */\n      tag_306\n      jump\t// in\n    tag_554:\n        /* \"#utility.yul\":14949:14974   */\n      swap2\n      pop\n        /* \"#utility.yul\":14988:15008   */\n      tag_555\n        /* \"#utility.yul\":15006:15007   */\n      dup4\n        /* \"#utility.yul\":14988:15008   */\n      tag_306\n      jump\t// in\n    tag_555:\n        /* \"#utility.yul\":14983:15008   */\n      swap3\n      pop\n        /* \"#utility.yul\":15031:15032   */\n      dup3\n        /* \"#utility.yul\":15028:15029   */\n      dup3\n        /* \"#utility.yul\":15024:15033   */\n      add\n        /* \"#utility.yul\":15017:15033   */\n      swap1\n      pop\n        /* \"#utility.yul\":15052:15055   */\n      dup1\n        /* \"#utility.yul\":15049:15050   */\n      dup3\n        /* \"#utility.yul\":15046:15056   */\n      gt\n        /* \"#utility.yul\":15043:15079   */\n      iszero\n      tag_556\n      jumpi\n        /* \"#utility.yul\":15059:15077   */\n      tag_557\n      tag_350\n      jump\t// in\n    tag_557:\n        /* \"#utility.yul\":15043:15079   */\n    tag_556:\n        /* \"#utility.yul\":14895:15086   */\n      swap3\n      swap2\n      pop\n      pop\n      jump\t// out\n        /* \"#utility.yul\":15092:15272   */\n    tag_103:\n        /* \"#utility.yul\":15140:15217   */\n      0x4e487b7100000000000000000000000000000000000000000000000000000000\n        /* \"#utility.yul\":15137:15138   */\n      0x00\n        /* \"#utility.yul\":15130:15218   */\n      mstore\n        /* \"#utility.yul\":15237:15241   */\n      0x32\n        /* \"#utility.yul\":15234:15235   */\n      0x04\n        /* \"#utility.yul\":15227:15242   */\n      mstore\n        /* \"#utility.yul\":15261:15265   */\n      0x24\n        /* \"#utility.yul\":15258:15259   */\n      0x00\n        /* \"#utility.yul\":15251:15266   */\n      revert\n        /* \"#utility.yul\":15278:15511   */\n    tag_108:\n        /* \"#utility.yul\":15317:15320   */\n      0x00\n        /* \"#utility.yul\":15340:15364   */\n      tag_560\n        /* \"#utility.yul\":15358:15363   */\n      dup3\n        /* \"#utility.yul\":15340:15364   */\n      tag_306\n      jump\t// in\n    tag_560:\n        /* \"#utility.yul\":15331:15364   */\n      swap2\n      pop\n        /* \"#utility.yul\":15386:15452   */\n      0xffffffffffffffffffffffffffffffffffffffffffffffffffffffffffffffff\n        /* \"#utility.yul\":15379:15384   */\n      dup3\n        /* \"#utility.yul\":15376:15453   */\n      sub\n        /* \"#utility.yul\":15373:15476   */\n      tag_561\n      jumpi\n        /* \"#utility.yul\":15456:15474   */\n      tag_562\n      tag_350\n      jump\t// in\n    tag_562:\n        /* \"#utility.yul\":15373:15476   */\n    tag_561:\n        /* \"#utility.yul\":15503:15504   */\n      0x01\n        /* \"#utility.yul\":15496:15501   */\n      dup3\n        /* \"#utility.yul\":15492:15505   */\n      add\n        /* \"#utility.yul\":15485:15505   */\n      swap1\n      pop\n        /* \"#utility.yul\":15278:15511   */\n      swap2\n      swap1\n      pop\n      jump\t// out\n        /* \"#utility.yul\":15517:15697   */\n    tag_351:\n        /* \"#utility.yul\":15565:15642   */\n      0x4e487b7100000000000000000000000000000000000000000000000000000000\n        /* \"#utility.yul\":15562:15563   */\n      0x00\n        /* \"#utility.yul\":15555:15643   */\n      mstore\n        /* \"#utility.yul\":15662:15666   */\n      0x22\n        /* \"#utility.yul\":15659:15660   */\n      0x04\n        /* \"#utility.yul\":15652:15667   */\n      mstore\n        /* \"#utility.yul\":15686:15690   */\n      0x24\n        /* \"#utility.yul\":15683:15684   */\n      0x00\n        /* \"#utility.yul\":15676:15691   */\n      revert\n        /* \"#utility.yul\":15703:16023   */\n    tag_132:\n        /* \"#utility.yul\":15747:15753   */\n      0x00\n        /* \"#utility.yul\":15784:15785   */\n      0x02\n        /* \"#utility.yul\":15778:15782   */\n      dup3\n        /* \"#utility.yul\":15774:15786   */\n      div\n        /* \"#utility.yul\":15764:15786   */\n      swap1\n      pop\n        /* \"#utility.yul\":15831:15832   */\n      0x01\n        /* \"#utility.yul\":15825:15829   */\n      dup3\n        /* \"#utility.yul\":15821:15833   */\n      and\n        /* \"#utility.yul\":15852:15870   */\n      dup1\n        /* \"#utility.yul\":15842:15923   */\n      tag_565\n      jumpi\n        /* \"#utility.yul\":15908:15912   */\n      0x7f\n        /* \"#utility.yul\":15900:15906   */\n      dup3\n        /* \"#utility.yul\":15896:15913   */\n      and\n        /* \"#utility.yul\":15886:15913   */\n      swap2\n      pop\n        /* \"#utility.yul\":15842:15923   */\n    tag_565:\n        /* \"#utility.yul\":15970:15972   */\n      0x20\n        /* \"#utility.yul\":15962:15968   */\n      dup3\n        /* \"#utility.yul\":15959:15973   */\n      lt\n        /* \"#utility.yul\":15939:15957   */\n      dup2\n        /* \"#utility.yul\":15936:15974   */\n      sub\n        /* \"#utility.yul\":15933:16017   */\n      tag_566\n      jumpi\n        /* \"#utility.yul\":15989:16007   */\n      tag_567\n      tag_351\n      jump\t// in\n    tag_567:\n        /* \"#utility.yul\":15933:16017   */\n    tag_566:\n        /* \"#utility.yul\":15754:16023   */\n      pop\n        /* \"#utility.yul\":15703:16023   */\n      swap2\n      swap1\n      pop\n      jump\t// out\n        /* \"#utility.yul\":16029:16170   */\n    tag_352:\n        /* \"#utility.yul\":16078:16082   */\n      0x00\n        /* \"#utility.yul\":16101:16104   */\n      dup2\n        /* \"#utility.yul\":16093:16104   */\n      swap1\n      pop\n        /* \"#utility.yul\":16124:16127   */\n      dup2\n        /* \"#utility.yul\":16121:16122   */\n      0x00\n        /* \"#utility.yul\":16114:16128   */\n      mstore\n        /* \"#utility.yul\":16158:16162   */\n      0x20\n        /* \"#utility.yul\":16155:16156   */\n      0x00\n        /* \"#utility.yul\":16145:16163   */\n      keccak256\n        /* \"#utility.yul\":16137:16163   */\n      swap1\n      pop\n        /* \"#utility.yul\":16029:16170   */\n      swap2\n      swap1\n      pop\n      jump\t// out\n        /* \"#utility.yul\":16176:16269   */\n    tag_353:\n        /* \"#utility.yul\":16213:16219   */\n      0x00\n        /* \"#utility.yul\":16260:16262   */\n      0x20\n        /* \"#utility.yul\":16255:16257   */\n      0x1f\n        /* \"#utility.yul\":16248:16253   */\n      dup4\n        /* \"#utility.yul\":16244:16258   */\n      add\n        /* \"#utility.yul\":16240:16263   */\n      div\n        /* \"#utility.yul\":16230:16263   */\n      swap1\n      pop\n        /* \"#utility.yul\":16176:16269   */\n      swap2\n      swap1\n      pop\n      jump\t// out\n        /* \"#utility.yul\":16275:16382   */\n    tag_354:\n        /* \"#utility.yul\":16319:16327   */\n      0x00\n        /* \"#utility.yul\":16369:16374   */\n      dup3\n        /* \"#utility.yul\":16363:16367   */\n      dup3\n        /* \"#utility.yul\":16359:16375   */\n      shl\n        /* \"#utility.yul\":16338:16375   */\n      swap1\n      pop\n        /* \"#utility.yul\":16275:16382   */\n      swap3\n      swap2\n      pop\n      pop\n      jump\t// out\n        /* \"#utility.yul\":16388:16781   */\n    tag_355:\n        /* \"#utility.yul\":16457:16463   */\n      0x00\n        /* \"#utility.yul\":16507:16508   */\n      0x08\n        /* \"#utility.yul\":16495:16505   */\n      dup4\n        /* \"#utility.yul\":16491:16509   */\n      mul\n        /* \"#utility.yul\":16530:16627   */\n      tag_572\n        /* \"#utility.yul\":16560:16626   */\n      0xffffffffffffffffffffffffffffffffffffffffffffffffffffffffffffffff\n        /* \"#utility.yul\":16549:16558   */\n      dup3\n        /* \"#utility.yul\":16530:16627   */\n      tag_354\n      jump\t// in\n    tag_572:\n        /* \"#utility.yul\":16648:16687   */\n      tag_573\n        /* \"#utility.yul\":16678:16686   */\n      dup7\n        /* \"#utility.yul\":16667:16676   */\n      dup4\n        /* \"#utility.yul\":16648:16687   */\n      tag_354\n      jump\t// in\n    tag_573:\n        /* \"#utility.yul\":16636:16687   */\n      swap6\n      pop\n        /* \"#utility.yul\":16720:16724   */\n      dup1\n        /* \"#utility.yul\":16716:16725   */\n      not\n        /* \"#utility.yul\":16709:16714   */\n      dup5\n        /* \"#utility.yul\":16705:16726   */\n      and\n        /* \"#utility.yul\":16696:16726   */\n      swap4\n      pop\n        /* \"#utility.yul\":16769:16773   */\n      dup1\n        /* \"#utility.yul\":16759:16767   */\n      dup7\n        /* \"#utility.yul\":16755:16774   */\n      and\n        /* \"#utility.yul\":16748:16753   */\n      dup5\n        /* \"#utility.yul\":16745:16775   */\n      or\n        /* \"#utility.yul\":16735:16775   */\n      swap3\n      pop\n        /* \"#utility.yul\":16464:16781   */\n      pop\n      pop\n        /* \"#utility.yul\":16388:16781   */\n      swap4\n      swap3\n      pop\n      pop\n      pop\n      jump\t// out\n        /* \"#utility.yul\":16787:16929   */\n    tag_356:\n        /* \"#utility.yul\":16837:16846   */\n      0x00\n        /* \"#utility.yul\":16870:16923   */\n      tag_575\n        /* \"#utility.yul\":16888:16922   */\n      tag_576\n        /* \"#utility.yul\":16897:16921   */\n      tag_577\n        /* \"#utility.yul\":16915:16920   */\n      dup5\n        /* \"#utility.yul\":16897:16921   */\n      tag_306\n      jump\t// in\n    tag_577:\n        /* \"#utility.yul\":16888:16922   */\n      tag_345\n      jump\t// in\n    tag_576:\n        /* \"#utility.yul\":16870:16923   */\n      tag_306\n      jump\t// in\n    tag_575:\n        /* \"#utility.yul\":16857:16923   */\n      swap1\n      pop\n        /* \"#utility.yul\":16787:16929   */\n      swap2\n      swap1\n      pop\n      jump\t// out\n        /* \"#utility.yul\":16935:17010   */\n    tag_357:\n        /* \"#utility.yul\":16978:16981   */\n      0x00\n        /* \"#utility.yul\":16999:17004   */\n      dup2\n        /* \"#utility.yul\":16992:17004   */\n      swap1\n      pop\n        /* \"#utility.yul\":16935:17010   */\n      swap2\n      swap1\n      pop\n      jump\t// out\n        /* \"#utility.yul\":17016:17285   */\n    tag_358:\n        /* \"#utility.yul\":17126:17165   */\n      tag_580\n        /* \"#utility.yul\":17157:17164   */\n      dup4\n        /* \"#utility.yul\":17126:17165   */\n      tag_356\n      jump\t// in\n    tag_580:\n        /* \"#utility.yul\":17187:17278   */\n      tag_581\n        /* \"#utility.yul\":17236:17277   */\n      tag_582\n        /* \"#utility.yul\":17260:17276   */\n      dup3\n        /* \"#utility.yul\":17236:17277   */\n      tag_357\n      jump\t// in\n    tag_582:\n        /* \"#utility.yul\":17228:17234   */\n      dup5\n        /* \"#utility.yul\":17221:17225   */\n      dup5\n        /* \"#utility.yul\":17215:17226   */\n      sload\n        /* \"#utility.yul\":17187:17278   */\n      tag_355\n      jump\t// in\n    tag_581:\n        /* \"#utility.yul\":17181:17185   */\n      dup3\n        /* \"#utility.yul\":17174:17279   */\n      sstore\n        /* \"#utility.yul\":17092:17285   */\n      pop\n        /* \"#utility.yul\":17016:17285   */\n      pop\n      pop\n      pop\n      jump\t// out\n        /* \"#utility.yul\":17291:17364   */\n    tag_359:\n        /* \"#utility.yul\":17336:17339   */\n      0x00\n        /* \"#utility.yul\":17357:17358   */\n      0x00\n        /* \"#utility.yul\":17350:17358   */\n      swap1\n      pop\n        /* \"#utility.yul\":17291:17364   */\n      swap1\n      jump\t// out\n        /* \"#utility.yul\":17370:17559   */\n    tag_360:\n        /* \"#utility.yul\":17447:17479   */\n      tag_585\n      tag_359\n      jump\t// in\n    tag_585:\n        /* \"#utility.yul\":17488:17553   */\n      tag_586\n        /* \"#utility.yul\":17546:17552   */\n      dup2\n        /* \"#utility.yul\":17538:17544   */\n      dup5\n        /* \"#utility.yul\":17532:17536   */\n      dup5\n        /* \"#utility.yul\":17488:17553   */\n      tag_358\n      jump\t// in\n    tag_586:\n        /* \"#utility.yul\":17423:17559   */\n      pop\n        /* \"#utility.yul\":17370:17559   */\n      pop\n      pop\n      jump\t// out\n        /* \"#utility.yul\":17565:17751   */\n    tag_361:\n        /* \"#utility.yul\":17625:17745   */\n    tag_588:\n        /* \"#utility.yul\":17642:17645   */\n      dup2\n        /* \"#utility.yul\":17635:17640   */\n      dup2\n        /* \"#utility.yul\":17632:17646   */\n      lt\n        /* \"#utility.yul\":17625:17745   */\n      iszero\n      tag_590\n      jumpi\n        /* \"#utility.yul\":17696:17735   */\n      tag_591\n        /* \"#utility.yul\":17733:17734   */\n      0x00\n        /* \"#utility.yul\":17726:17731   */\n      dup3\n        /* \"#utility.yul\":17696:17735   */\n      tag_360\n      jump\t// in\n    tag_591:\n        /* \"#utility.yul\":17669:17670   */\n      0x01\n        /* \"#utility.yul\":17662:17667   */\n      dup2\n        /* \"#utility.yul\":17658:17671   */\n      add\n        /* \"#utility.yul\":17649:17671   */\n      swap1\n      pop\n        /* \"#utility.yul\":17625:17745   */\n      jump(tag_588)\n    tag_590:\n        /* \"#utility.yul\":17565:17751   */\n      pop\n      pop\n      jump\t// out\n        /* \"#utility.yul\":17757:18300   */\n    tag_362:\n        /* \"#utility.yul\":17858:17860   */\n      0x1f\n        /* \"#utility.yul\":17853:17856   */\n      dup3\n        /* \"#utility.yul\":17850:17861   */\n      gt\n        /* \"#utility.yul\":17847:18293   */\n      iszero\n      tag_593\n      jumpi\n        /* \"#utility.yul\":17892:17930   */\n      tag_594\n        /* \"#utility.yul\":17924:17929   */\n      dup2\n        /* \"#utility.yul\":17892:17930   */\n      tag_352\n      jump\t// in\n    tag_594:\n        /* \"#utility.yul\":17976:18005   */\n      tag_595\n        /* \"#utility.yul\":17994:18004   */\n      dup5\n        /* \"#utility.yul\":17976:18005   */\n      tag_353\n      jump\t// in\n    tag_595:\n        /* \"#utility.yul\":17966:17974   */\n      dup2\n        /* \"#utility.yul\":17962:18006   */\n      add\n        /* \"#utility.yul\":18159:18161   */\n      0x20\n        /* \"#utility.yul\":18147:18157   */\n      dup6\n        /* \"#utility.yul\":18144:18162   */\n      lt\n        /* \"#utility.yul\":18141:18190   */\n      iszero\n      tag_596\n      jumpi\n        /* \"#utility.yul\":18180:18188   */\n      dup2\n        /* \"#utility.yul\":18165:18188   */\n      swap1\n      pop\n        /* \"#utility.yul\":18141:18190   */\n    tag_596:\n        /* \"#utility.yul\":18203:18283   */\n      tag_597\n        /* \"#utility.yul\":18259:18281   */\n      tag_598\n        /* \"#utility.yul\":18277:18280   */\n      dup6\n        /* \"#utility.yul\":18259:18281   */\n      tag_353\n      jump\t// in\n    tag_598:\n        /* \"#utility.yul\":18249:18257   */\n      dup4\n        /* \"#utility.yul\":18245:18282   */\n      add\n        /* \"#utility.yul\":18232:18243   */\n      dup3\n        /* \"#utility.yul\":18203:18283   */\n      tag_361\n      jump\t// in\n    tag_597:\n        /* \"#utility.yul\":17862:18293   */\n      pop\n      pop\n        /* \"#utility.yul\":17847:18293   */\n    tag_593:\n        /* \"#utility.yul\":17757:18300   */\n      pop\n      pop\n      pop\n      jump\t// out\n        /* \"#utility.yul\":18306:18423   */\n    tag_363:\n        /* \"#utility.yul\":18360:18368   */\n      0x00\n        /* \"#utility.yul\":18410:18415   */\n      dup3\n        /* \"#utility.yul\":18404:18408   */\n      dup3\n        /* \"#utility.yul\":18400:18416   */\n      shr\n        /* \"#utility.yul\":18379:18416   */\n      swap1\n      pop\n        /* \"#utility.yul\":18306:18423   */\n      swap3\n      swap2\n      pop\n      pop\n      jump\t// out\n        /* \"#utility.yul\":18429:18598   */\n    tag_364:\n        /* \"#utility.yul\":18473:18479   */\n      0x00\n        /* \"#utility.yul\":18506:18557   */\n      tag_601\n        /* \"#utility.yul\":18554:18555   */\n      0x00\n        /* \"#utility.yul\":18550:18556   */\n      not\n        /* \"#utility.yul\":18542:18547   */\n      dup5\n        /* \"#utility.yul\":18539:18540   */\n      0x08\n        /* \"#utility.yul\":18535:18548   */\n      mul\n        /* \"#utility.yul\":18506:18557   */\n      tag_363\n      jump\t// in\n    tag_601:\n        /* \"#utility.yul\":18502:18558   */\n      not\n        /* \"#utility.yul\":18587:18591   */\n      dup1\n        /* \"#utility.yul\":18581:18585   */\n      dup4\n        /* \"#utility.yul\":18577:18592   */\n      and\n        /* \"#utility.yul\":18567:18592   */\n      swap2\n      pop\n        /* \"#utility.yul\":18480:18598   */\n      pop\n        /* \"#utility.yul\":18429:18598   */\n      swap3\n      swap2\n      pop\n      pop\n      jump\t// out\n        /* \"#utility.yul\":18603:18898   */\n    tag_365:\n        /* \"#utility.yul\":18679:18683   */\n      0x00\n        /* \"#utility.yul\":18825:18854   */\n      tag_603\n        /* \"#utility.yul\":18850:18853   */\n      dup4\n        /* \"#utility.yul\":18844:18848   */\n      dup4\n        /* \"#utility.yul\":18825:18854   */\n      tag_364\n      jump\t// in\n    tag_603:\n        /* \"#utility.yul\":18817:18854   */\n      swap2\n      pop\n        /* \"#utility.yul\":18887:18890   */\n      dup3\n        /* \"#utility.yul\":18884:18885   */\n      0x02\n        /* \"#utility.yul\":18880:18891   */\n      mul\n        /* \"#utility.yul\":18874:18878   */\n      dup3\n        /* \"#utility.yul\":18871:18892   */\n      or\n        /* \"#utility.yul\":18863:18892   */\n      swap1\n      pop\n        /* \"#utility.yul\":18603:18898   */\n      swap3\n      swap2\n      pop\n      pop\n      jump\t// out\n        /* \"#utility.yul\":18903:20298   */\n    tag_120:\n        /* \"#utility.yul\":19020:19057   */\n      tag_605\n        /* \"#utility.yul\":19053:19056   */\n      dup3\n        /* \"#utility.yul\":19020:19057   */\n      tag_337\n      jump\t// in\n    tag_605:\n        /* \"#utility.yul\":19122:19140   */\n      0xffffffffffffffff\n        /* \"#utility.yul\":19114:19120   */\n      dup2\n        /* \"#utility.yul\":19111:19141   */\n      gt\n        /* \"#utility.yul\":19108:19164   */\n      iszero\n      tag_606\n      jumpi\n        /* \"#utility.yul\":19144:19162   */\n      tag_607\n      tag_88\n      jump\t// in\n    tag_607:\n        /* \"#utility.yul\":19108:19164   */\n    tag_606:\n        /* \"#utility.yul\":19188:19226   */\n      tag_608\n        /* \"#utility.yul\":19220:19224   */\n      dup3\n        /* \"#utility.yul\":19214:19225   */\n      sload\n        /* \"#utility.yul\":19188:19226   */\n      tag_132\n      jump\t// in\n    tag_608:\n        /* \"#utility.yul\":19273:19340   */\n      tag_609\n        /* \"#utility.yul\":19333:19339   */\n      dup3\n        /* \"#utility.yul\":19325:19331   */\n      dup3\n        /* \"#utility.yul\":19319:19323   */\n      dup6\n        /* \"#utility.yul\":19273:19340   */\n      tag_362\n      jump\t// in\n    tag_609:\n        /* \"#utility.yul\":19367:19368   */\n      0x00\n        /* \"#utility.yul\":19391:19395   */\n      0x20\n        /* \"#utility.yul\":19378:19395   */\n      swap1\n      pop\n        /* \"#utility.yul\":19423:19425   */\n      0x1f\n        /* \"#utility.yul\":19415:19421   */\n      dup4\n        /* \"#utility.yul\":19412:19426   */\n      gt\n        /* \"#utility.yul\":19440:19441   */\n      0x01\n        /* \"#utility.yul\":19435:20053   */\n      dup2\n      eq\n      tag_611\n      jumpi\n        /* \"#utility.yul\":20097:20098   */\n      0x00\n        /* \"#utility.yul\":20114:20120   */\n      dup5\n        /* \"#utility.yul\":20111:20188   */\n      iszero\n      tag_612\n      jumpi\n        /* \"#utility.yul\":20163:20172   */\n      dup3\n        /* \"#utility.yul\":20158:20161   */\n      dup8\n        /* \"#utility.yul\":20154:20173   */\n      add\n        /* \"#utility.yul\":20148:20174   */\n      mload\n        /* \"#utility.yul\":20139:20174   */\n      swap1\n      pop\n        /* \"#utility.yul\":20111:20188   */\n    tag_612:\n        /* \"#utility.yul\":20214:20281   */\n      tag_613\n        /* \"#utility.yul\":20274:20280   */\n      dup6\n        /* \"#utility.yul\":20267:20272   */\n      dup3\n        /* \"#utility.yul\":20214:20281   */\n      tag_365\n      jump\t// in\n    tag_613:\n        /* \"#utility.yul\":20208:20212   */\n      dup7\n        /* \"#utility.yul\":20201:20282   */\n      sstore\n        /* \"#utility.yul\":20070:20292   */\n      pop\n        /* \"#utility.yul\":19405:20292   */\n      jump(tag_610)\n        /* \"#utility.yul\":19435:20053   */\n    tag_611:\n        /* \"#utility.yul\":19487:19491   */\n      0x1f\n        /* \"#utility.yul\":19483:19492   */\n      not\n        /* \"#utility.yul\":19475:19481   */\n      dup5\n        /* \"#utility.yul\":19471:19493   */\n      and\n        /* \"#utility.yul\":19521:19558   */\n      tag_614\n        /* \"#utility.yul\":19553:19557   */\n      dup7\n        /* \"#utility.yul\":19521:19558   */\n      tag_352\n      jump\t// in\n    tag_614:\n        /* \"#utility.yul\":19580:19581   */\n      0x00\n        /* \"#utility.yul\":19594:19802   */\n    tag_615:\n        /* \"#utility.yul\":19608:19615   */\n      dup3\n        /* \"#utility.yul\":19605:19606   */\n      dup2\n        /* \"#utility.yul\":19602:19616   */\n      lt\n        /* \"#utility.yul\":19594:19802   */\n      iszero\n      tag_617\n      jumpi\n        /* \"#utility.yul\":19687:19696   */\n      dup5\n        /* \"#utility.yul\":19682:19685   */\n      dup10\n        /* \"#utility.yul\":19678:19697   */\n      add\n        /* \"#utility.yul\":19672:19698   */\n      mload\n        /* \"#utility.yul\":19664:19670   */\n      dup3\n        /* \"#utility.yul\":19657:19699   */\n      sstore\n        /* \"#utility.yul\":19738:19739   */\n      0x01\n        /* \"#utility.yul\":19730:19736   */\n      dup3\n        /* \"#utility.yul\":19726:19740   */\n      add\n        /* \"#utility.yul\":19716:19740   */\n      swap2\n      pop\n        /* \"#utility.yul\":19785:19787   */\n      0x20\n        /* \"#utility.yul\":19774:19783   */\n      dup6\n        /* \"#utility.yul\":19770:19788   */\n      add\n        /* \"#utility.yul\":19757:19788   */\n      swap5\n      pop\n        /* \"#utility.yul\":19631:19635   */\n      0x20\n        /* \"#utility.yul\":19628:19629   */\n      dup2\n        /* \"#utility.yul\":19624:19636   */\n      add\n        /* \"#utility.yul\":19619:19636   */\n      swap1\n      pop\n        /* \"#utility.yul\":19594:19802   */\n      jump(tag_615)\n    tag_617:\n        /* \"#utility.yul\":19830:19836   */\n      dup7\n        /* \"#utility.yul\":19821:19828   */\n      dup4\n        /* \"#utility.yul\":19818:19837   */\n      lt\n        /* \"#utility.yul\":19815:19994   */\n      iszero\n      tag_618\n      jumpi\n        /* \"#utility.yul\":19888:19897   */\n      dup5\n        /* \"#utility.yul\":19883:19886   */\n      dup10\n        /* \"#utility.yul\":19879:19898   */\n      add\n        /* \"#utility.yul\":19873:19899   */\n      mload\n        /* \"#utility.yul\":19931:19979   */\n      tag_619\n        /* \"#utility.yul\":19973:19977   */\n      0x1f\n        /* \"#utility.yul\":19965:19971   */\n      dup10\n        /* \"#utility.yul\":19961:19978   */\n      and\n        /* \"#utility.yul\":19950:19959   */\n      dup3\n        /* \"#utility.yul\":19931:19979   */\n      tag_364\n      jump\t// in\n    tag_619:\n        /* \"#utility.yul\":19923:19929   */\n      dup4\n        /* \"#utility.yul\":19916:19980   */\n      sstore\n        /* \"#utility.yul\":19838:19994   */\n      pop\n        /* \"#utility.yul\":19815:19994   */\n    tag_618:\n        /* \"#utility.yul\":20040:20041   */\n      0x01\n        /* \"#utility.yul\":20036:20037   */\n      0x02\n        /* \"#utility.yul\":20028:20034   */\n      dup9\n        /* \"#utility.yul\":20024:20038   */\n      mul\n        /* \"#utility.yul\":20020:20042   */\n      add\n        /* \"#utility.yul\":20014:20018   */\n      dup9\n        /* \"#utility.yul\":20007:20043   */\n      sstore\n        /* \"#utility.yul\":19442:20053   */\n      pop\n      pop\n      pop\n        /* \"#utility.yul\":19405:20292   */\n    tag_610:\n      pop\n        /* \"#utility.yul\":18995:20298   */\n      pop\n      pop\n      pop\n        /* \"#utility.yul\":18903:20298   */\n      pop\n      pop\n      jump\t// out\n        /* \"#utility.yul\":20304:20742   */\n    tag_122:\n        /* \"#utility.yul\":20451:20455   */\n      0x00\n        /* \"#utility.yul\":20489:20491   */\n      0x60\n        /* \"#utility.yul\":20478:20487   */\n      dup3\n        /* \"#utility.yul\":20474:20492   */\n      add\n        /* \"#utility.yul\":20466:20492   */\n      swap1\n      pop\n        /* \"#utility.yul\":20502:20571   */\n      tag_621\n        /* \"#utility.yul\":20568:20569   */\n      0x00\n        /* \"#utility.yul\":20557:20566   */\n      dup4\n        /* \"#utility.yul\":20553:20570   */\n      add\n        /* \"#utility.yul\":20544:20550   */\n      dup7\n        /* \"#utility.yul\":20502:20571   */\n      tag_336\n      jump\t// in\n    tag_621:\n        /* \"#utility.yul\":20581:20653   */\n      tag_622\n        /* \"#utility.yul\":20649:20651   */\n      0x20\n        /* \"#utility.yul\":20638:20647   */\n      dup4\n        /* \"#utility.yul\":20634:20652   */\n      add\n        /* \"#utility.yul\":20625:20631   */\n      dup6\n        /* \"#utility.yul\":20581:20653   */\n      tag_324\n      jump\t// in\n    tag_622:\n        /* \"#utility.yul\":20663:20735   */\n      tag_623\n        /* \"#utility.yul\":20731:20733   */\n      0x40\n        /* \"#utility.yul\":20720:20729   */\n      dup4\n        /* \"#utility.yul\":20716:20734   */\n      add\n        /* \"#utility.yul\":20707:20713   */\n      dup5\n        /* \"#utility.yul\":20663:20735   */\n      tag_324\n      jump\t// in\n    tag_623:\n        /* \"#utility.yul\":20304:20742   */\n      swap5\n      swap4\n      pop\n      pop\n      pop\n      pop\n      jump\t// out\n        /* \"#utility.yul\":20748:20904   */\n    tag_366:\n        /* \"#utility.yul\":20888:20896   */\n      0x6261642069640000000000000000000000000000000000000000000000000000\n        /* \"#utility.yul\":20884:20885   */\n      0x00\n        /* \"#utility.yul\":20876:20882   */\n      dup3\n        /* \"#utility.yul\":20872:20886   */\n      add\n        /* \"#utility.yul\":20865:20897   */\n      mstore\n        /* \"#utility.yul\":20748:20904   */\n      pop\n      jump\t// out\n        /* \"#utility.yul\":20910:21275   */\n    tag_367:\n        /* \"#utility.yul\":21052:21055   */\n      0x00\n        /* \"#utility.yul\":21073:21139   */\n      tag_626\n        /* \"#utility.yul\":21137:21138   */\n      0x06\n        /* \"#utility.yul\":21132:21135   */\n      dup4\n        /* \"#utility.yul\":21073:21139   */\n      tag_338\n      jump\t// in\n    tag_626:\n        /* \"#utility.yul\":21066:21139   */\n      swap2\n      pop\n        /* \"#utility.yul\":21148:21241   */\n      tag_627\n        /* \"#utility.yul\":21237:21240   */\n      dup3\n        /* \"#utility.yul\":21148:21241   */\n      tag_366\n      jump\t// in\n    tag_627:\n        /* \"#utility.yul\":21266:21268   */\n      0x20\n        /* \"#utility.yul\":21261:21264   */\n      dup3\n        /* \"#utility.yul\":21257:21269   */\n      add\n        /* \"#utility.yul\":21250:21269   */\n      swap1\n      pop\n        /* \"#utility.yul\":20910:21275   */\n      swap2\n      swap1\n      pop\n      jump\t// out\n        /* \"#utility.yul\":21281:21700   */\n    tag_128:\n        /* \"#utility.yul\":21447:21451   */\n      0x00\n        /* \"#utility.yul\":21485:21487   */\n      0x20\n        /* \"#utility.yul\":21474:21483   */\n      dup3\n        /* \"#utility.yul\":21470:21488   */\n      add\n        /* \"#utility.yul\":21462:21488   */\n      swap1\n      pop\n        /* \"#utility.yul\":21534:21543   */\n      dup2\n        /* \"#utility.yul\":21528:21532   */\n      dup2\n        /* \"#utility.yul\":21524:21544   */\n      sub\n        /* \"#utility.yul\":21520:21521   */\n      0x00\n        /* \"#utility.yul\":21509:21518   */\n      dup4\n        /* \"#utility.yul\":21505:21522   */\n      add\n        /* \"#utility.yul\":21498:21545   */\n      mstore\n        /* \"#utility.yul\":21562:21693   */\n      tag_629\n        /* \"#utility.yul\":21688:21692   */\n      dup2\n        /* \"#utility.yul\":21562:21693   */\n      tag_367\n      jump\t// in\n    tag_629:\n        /* \"#utility.yul\":21554:21693   */\n      swap1\n      pop\n        /* \"#utility.yul\":21281:21700   */\n      swap2\n      swap1\n      pop\n      jump\t// out\n        /* \"#utility.yul\":21706:21886   */\n    tag_368:\n        /* \"#utility.yul\":21754:21831   */\n      0x4e487b7100000000000000000000000000000000000000000000000000000000\n        /* \"#utility.yul\":21751:21752   */\n      0x00\n        /* \"#utility.yul\":21744:21832   */\n      mstore\n        /* \"#utility.yul\":21851:21855   */\n      0x12\n        /* \"#utility.yul\":21848:21849   */\n      0x04\n        /* \"#utility.yul\":21841:21856   */\n      mstore\n        /* \"#utility.yul\":21875:21879   */\n      0x24\n        /* \"#utility.yul\":21872:21873   */\n      0x00\n        /* \"#utility.yul\":21865:21880   */\n      revert\n        /* \"#utility.yul\":21892:22077   */\n    tag_141:\n        /* \"#utility.yul\":21932:21933   */\n      0x00\n        /* \"#utility.yul\":21949:21969   */\n      tag_632\n        /* \"#utility.yul\":21967:21968   */\n      dup3\n        /* \"#utility.yul\":21949:21969   */\n      tag_306\n      jump\t// in\n    tag_632:\n        /* \"#utility.yul\":21944:21969   */\n      swap2\n      pop\n        /* \"#utility.yul\":21983:22003   */\n      tag_633\n        /* \"#utility.yul\":22001:22002   */\n      dup4\n        /* \"#utility.yul\":21983:22003   */\n      tag_306\n      jump\t// in\n    tag_633:\n        /* \"#utility.yul\":21978:22003   */\n      swap3\n      pop\n        /* \"#utility.yul\":22022:22023   */\n      dup3\n        /* \"#utility.yul\":22012:22047   */\n      tag_634\n      jumpi\n        /* \"#utility.yul\":22027:22045   */\n      tag_635\n      tag_368\n      jump\t// in\n    tag_635:\n        /* \"#utility.yul\":22012:22047   */\n    tag_634:\n        /* \"#utility.yul\":22069:22070   */\n      dup3\n        /* \"#utility.yul\":22066:22067   */\n      dup3\n        /* \"#utility.yul\":22062:22071   */\n      div\n        /* \"#utility.yul\":22057:22071   */\n      swap1\n      pop\n        /* \"#utility.yul\":21892:22077   */\n      swap3\n      swap2\n      pop\n      pop\n      jump\t// out\n        /* \"#utility.yul\":22083:22250   */\n    tag_369:\n        /* \"#utility.yul\":22223:22242   */\n      0x616c72656164792066696e616c697a6564000000000000000000000000000000\n        /* \"#utility.yul\":22219:22220   */\n      0x00\n        /* \"#utility.yul\":22211:22217   */\n      dup3\n        /* \"#utility.yul\":22207:22221   */\n      add\n        /* \"#utility.yul\":22200:22243   */\n      mstore\n        /* \"#utility.yul\":22083:22250   */\n      pop\n      jump\t// out\n        /* \"#utility.yul\":22256:22622   */\n    tag_370:\n        /* \"#utility.yul\":22398:22401   */\n      0x00\n        /* \"#utility.yul\":22419:22486   */\n      tag_638\n        /* \"#utility.yul\":22483:22485   */\n      0x11\n        /* \"#utility.yul\":22478:22481   */\n      dup4\n        /* \"#utility.yul\":22419:22486   */\n      tag_338\n      jump\t// in\n    tag_638:\n        /* \"#utility.yul\":22412:22486   */\n      swap2\n      pop\n        /* \"#utility.yul\":22495:22588   */\n      tag_639\n        /* \"#utility.yul\":22584:22587   */\n      dup3\n        /* \"#utility.yul\":22495:22588   */\n      tag_369\n      jump\t// in\n    tag_639:\n        /* \"#utility.yul\":22613:22615   */\n      0x20\n        /* \"#utility.yul\":22608:22611   */\n      dup3\n        /* \"#utility.yul\":22604:22616   */\n      add\n        /* \"#utility.yul\":22597:22616   */\n      swap1\n      pop\n        /* \"#utility.yul\":22256:22622   */\n      swap2\n      swap1\n      pop\n      jump\t// out\n        /* \"#utility.yul\":22628:23047   */\n    tag_152:\n        /* \"#utility.yul\":22794:22798   */\n      0x00\n        /* \"#utility.yul\":22832:22834   */\n      0x20\n        /* \"#utility.yul\":22821:22830   */\n      dup3\n        /* \"#utility.yul\":22817:22835   */\n      add\n        /* \"#utility.yul\":22809:22835   */\n      swap1\n      pop\n        /* \"#utility.yul\":22881:22890   */\n      dup2\n        /* \"#utility.yul\":22875:22879   */\n      dup2\n        /* \"#utility.yul\":22871:22891   */\n      sub\n        /* \"#utility.yul\":22867:22868   */\n      0x00\n        /* \"#utility.yul\":22856:22865   */\n      dup4\n        /* \"#utility.yul\":22852:22869   */\n      add\n        /* \"#utility.yul\":22845:22892   */\n      mstore\n        /* \"#utility.yul\":22909:23040   */\n      tag_641\n        /* \"#utility.yul\":23035:23039   */\n      dup2\n        /* \"#utility.yul\":22909:23040   */\n      tag_370\n      jump\t// in\n    tag_641:\n        /* \"#utility.yul\":22901:23040   */\n      swap1\n      pop\n        /* \"#utility.yul\":22628:23047   */\n      swap2\n      swap1\n      pop\n      jump\t// out\n        /* \"#utility.yul\":23053:23217   */\n    tag_371:\n        /* \"#utility.yul\":23193:23209   */\n      0x6e6f207375626d697373696f6e73000000000000000000000000000000000000\n        /* \"#utility.yul\":23189:23190   */\n      0x00\n        /* \"#utility.yul\":23181:23187   */\n      dup3\n        /* \"#utility.yul\":23177:23191   */\n      add\n        /* \"#utility.yul\":23170:23210   */\n      mstore\n        /* \"#utility.yul\":23053:23217   */\n      pop\n      jump\t// out\n        /* \"#utility.yul\":23223:23589   */\n    tag_372:\n        /* \"#utility.yul\":23365:23368   */\n      0x00\n        /* \"#utility.yul\":23386:23453   */\n      tag_644\n        /* \"#utility.yul\":23450:23452   */\n      0x0e\n        /* \"#utility.yul\":23445:23448   */\n      dup4\n        /* \"#utility.yul\":23386:23453   */\n      tag_338\n      jump\t// in\n    tag_644:\n        /* \"#utility.yul\":23379:23453   */\n      swap2\n      pop\n        /* \"#utility.yul\":23462:23555   */\n      tag_645\n        /* \"#utility.yul\":23551:23554   */\n      dup3\n        /* \"#utility.yul\":23462:23555   */\n      tag_371\n      jump\t// in\n    tag_645:\n        /* \"#utility.yul\":23580:23582   */\n      0x20\n        /* \"#utility.yul\":23575:23578   */\n      dup3\n        /* \"#utility.yul\":23571:23583   */\n      add\n        /* \"#utility.yul\":23564:23583   */\n      swap1\n      pop\n        /* \"#utility.yul\":23223:23589   */\n      swap2\n      swap1\n      pop\n      jump\t// out\n        /* \"#utility.yul\":23595:24014   */\n    tag_155:\n        /* \"#utility.yul\":23761:23765   */\n      0x00\n        /* \"#utility.yul\":23799:23801   */\n      0x20\n        /* \"#utility.yul\":23788:23797   */\n      dup3\n        /* \"#utility.yul\":23784:23802   */\n      add\n        /* \"#utility.yul\":23776:23802   */\n      swap1\n      pop\n        /* \"#utility.yul\":23848:23857   */\n      dup2\n        /* \"#utility.yul\":23842:23846   */\n      dup2\n        /* \"#utility.yul\":23838:23858   */\n      sub\n        /* \"#utility.yul\":23834:23835   */\n      0x00\n        /* \"#utility.yul\":23823:23832   */\n      dup4\n        /* \"#utility.yul\":23819:23836   */\n      add\n        /* \"#utility.yul\":23812:23859   */\n      mstore\n        /* \"#utility.yul\":23876:24007   */\n      tag_647\n        /* \"#utility.yul\":24002:24006   */\n      dup2\n        /* \"#utility.yul\":23876:24007   */\n      tag_372\n      jump\t// in\n    tag_647:\n        /* \"#utility.yul\":23868:24007   */\n      swap1\n      pop\n        /* \"#utility.yul\":23595:24014   */\n      swap2\n      swap1\n      pop\n      jump\t// out\n        /* \"#utility.yul\":24020:24178   */\n    tag_373:\n        /* \"#utility.yul\":24160:24170   */\n      0x73756d4e756d3d30000000000000000000000000000000000000000000000000\n        /* \"#utility.yul\":24156:24157   */\n      0x00\n        /* \"#utility.yul\":24148:24154   */\n      dup3\n        /* \"#utility.yul\":24144:24158   */\n      add\n        /* \"#utility.yul\":24137:24171   */\n      mstore\n        /* \"#utility.yul\":24020:24178   */\n      pop\n      jump\t// out\n        /* \"#utility.yul\":24184:24549   */\n    tag_374:\n        /* \"#utility.yul\":24326:24329   */\n      0x00\n        /* \"#utility.yul\":24347:24413   */\n      tag_650\n        /* \"#utility.yul\":24411:24412   */\n      0x08\n        /* \"#utility.yul\":24406:24409   */\n      dup4\n        /* \"#utility.yul\":24347:24413   */\n      tag_338\n      jump\t// in\n    tag_650:\n        /* \"#utility.yul\":24340:24413   */\n      swap2\n      pop\n        /* \"#utility.yul\":24422:24515   */\n      tag_651\n        /* \"#utility.yul\":24511:24514   */\n      dup3\n        /* \"#utility.yul\":24422:24515   */\n      tag_373\n      jump\t// in\n    tag_651:\n        /* \"#utility.yul\":24540:24542   */\n      0x20\n        /* \"#utility.yul\":24535:24538   */\n      dup3\n        /* \"#utility.yul\":24531:24543   */\n      add\n        /* \"#utility.yul\":24524:24543   */\n      swap1\n      pop\n        /* \"#utility.yul\":24184:24549   */\n      swap2\n      swap1\n      pop\n      jump\t// out\n        /* \"#utility.yul\":24555:24974   */\n    tag_171:\n        /* \"#utility.yul\":24721:24725   */\n      0x00\n        /* \"#utility.yul\":24759:24761   */\n      0x20\n        /* \"#utility.yul\":24748:24757   */\n      dup3\n        /* \"#utility.yul\":24744:24762   */\n      add\n        /* \"#utility.yul\":24736:24762   */\n      swap1\n      pop\n        /* \"#utility.yul\":24808:24817   */\n      dup2\n        /* \"#utility.yul\":24802:24806   */\n      dup2\n        /* \"#utility.yul\":24798:24818   */\n      sub\n        /* \"#utility.yul\":24794:24795   */\n      0x00\n        /* \"#utility.yul\":24783:24792   */\n      dup4\n        /* \"#utility.yul\":24779:24796   */\n      add\n        /* \"#utility.yul\":24772:24819   */\n      mstore\n        /* \"#utility.yul\":24836:24967   */\n      tag_653\n        /* \"#utility.yul\":24962:24966   */\n      dup2\n        /* \"#utility.yul\":24836:24967   */\n      tag_374\n      jump\t// in\n    tag_653:\n        /* \"#utility.yul\":24828:24967   */\n      swap1\n      pop\n        /* \"#utility.yul\":24555:24974   */\n      swap2\n      swap1\n      pop\n      jump\t// out\n        /* \"#utility.yul\":24980:25154   */\n    tag_375:\n        /* \"#utility.yul\":25120:25146   */\n      0x6167677265676174696f6e20505643206d69736d617463680000000000000000\n        /* \"#utility.yul\":25116:25117   */\n      0x00\n        /* \"#utility.yul\":25108:25114   */\n      dup3\n        /* \"#utility.yul\":25104:25118   */\n      add\n        /* \"#utility.yul\":25097:25147   */\n      mstore\n        /* \"#utility.yul\":24980:25154   */\n      pop\n      jump\t// out\n        /* \"#utility.yul\":25160:25526   */\n    tag_376:\n        /* \"#utility.yul\":25302:25305   */\n      0x00\n        /* \"#utility.yul\":25323:25390   */\n      tag_656\n        /* \"#utility.yul\":25387:25389   */\n      0x18\n        /* \"#utility.yul\":25382:25385   */\n      dup4\n        /* \"#utility.yul\":25323:25390   */\n      tag_338\n      jump\t// in\n    tag_656:\n        /* \"#utility.yul\":25316:25390   */\n      swap2\n      pop\n        /* \"#utility.yul\":25399:25492   */\n      tag_657\n        /* \"#utility.yul\":25488:25491   */\n      dup3\n        /* \"#utility.yul\":25399:25492   */\n      tag_375\n      jump\t// in\n    tag_657:\n        /* \"#utility.yul\":25517:25519   */\n      0x20\n        /* \"#utility.yul\":25512:25515   */\n      dup3\n        /* \"#utility.yul\":25508:25520   */\n      add\n        /* \"#utility.yul\":25501:25520   */\n      swap1\n      pop\n        /* \"#utility.yul\":25160:25526   */\n      swap2\n      swap1\n      pop\n      jump\t// out\n        /* \"#utility.yul\":25532:25951   */\n    tag_177:\n        /* \"#utility.yul\":25698:25702   */\n      0x00\n        /* \"#utility.yul\":25736:25738   */\n      0x20\n        /* \"#utility.yul\":25725:25734   */\n      dup3\n        /* \"#utility.yul\":25721:25739   */\n      add\n        /* \"#utility.yul\":25713:25739   */\n      swap1\n      pop\n        /* \"#utility.yul\":25785:25794   */\n      dup2\n        /* \"#utility.yul\":25779:25783   */\n      dup2\n        /* \"#utility.yul\":25775:25795   */\n      sub\n        /* \"#utility.yul\":25771:25772   */\n      0x00\n        /* \"#utility.yul\":25760:25769   */\n      dup4\n        /* \"#utility.yul\":25756:25773   */\n      add\n        /* \"#utility.yul\":25749:25796   */\n      mstore\n        /* \"#utility.yul\":25813:25944   */\n      tag_659\n        /* \"#utility.yul\":25939:25943   */\n      dup2\n        /* \"#utility.yul\":25813:25944   */\n      tag_376\n      jump\t// in\n    tag_659:\n        /* \"#utility.yul\":25805:25944   */\n      swap1\n      pop\n        /* \"#utility.yul\":25532:25951   */\n      swap2\n      swap1\n      pop\n      jump\t// out\n        /* \"#utility.yul\":25957:26367   */\n    tag_185:\n        /* \"#utility.yul\":25997:26004   */\n      0x00\n        /* \"#utility.yul\":26020:26040   */\n      tag_661\n        /* \"#utility.yul\":26038:26039   */\n      dup3\n        /* \"#utility.yul\":26020:26040   */\n      tag_306\n      jump\t// in\n    tag_661:\n        /* \"#utility.yul\":26015:26040   */\n      swap2\n      pop\n        /* \"#utility.yul\":26054:26074   */\n      tag_662\n        /* \"#utility.yul\":26072:26073   */\n      dup4\n        /* \"#utility.yul\":26054:26074   */\n      tag_306\n      jump\t// in\n    tag_662:\n        /* \"#utility.yul\":26049:26074   */\n      swap3\n      pop\n        /* \"#utility.yul\":26109:26110   */\n      dup3\n        /* \"#utility.yul\":26106:26107   */\n      dup3\n        /* \"#utility.yul\":26102:26111   */\n      mul\n        /* \"#utility.yul\":26131:26161   */\n      tag_663\n        /* \"#utility.yul\":26149:26160   */\n      dup2\n        /* \"#utility.yul\":26131:26161   */\n      tag_306\n      jump\t// in\n    tag_663:\n        /* \"#utility.yul\":26120:26161   */\n      swap2\n      pop\n        /* \"#utility.yul\":26310:26311   */\n      dup3\n        /* \"#utility.yul\":26301:26308   */\n      dup3\n        /* \"#utility.yul\":26297:26312   */\n      div\n        /* \"#utility.yul\":26294:26295   */\n      dup5\n        /* \"#utility.yul\":26291:26313   */\n      eq\n        /* \"#utility.yul\":26271:26272   */\n      dup4\n        /* \"#utility.yul\":26264:26273   */\n      iszero\n        /* \"#utility.yul\":26244:26327   */\n      or\n        /* \"#utility.yul\":26221:26360   */\n      tag_664\n      jumpi\n        /* \"#utility.yul\":26340:26358   */\n      tag_665\n      tag_350\n      jump\t// in\n    tag_665:\n        /* \"#utility.yul\":26221:26360   */\n    tag_664:\n        /* \"#utility.yul\":26005:26367   */\n      pop\n        /* \"#utility.yul\":25957:26367   */\n      swap3\n      swap2\n      pop\n      pop\n      jump\t// out\n        /* \"#utility.yul\":26373:26567   */\n    tag_189:\n        /* \"#utility.yul\":26413:26417   */\n      0x00\n        /* \"#utility.yul\":26433:26453   */\n      tag_667\n        /* \"#utility.yul\":26451:26452   */\n      dup3\n        /* \"#utility.yul\":26433:26453   */\n      tag_306\n      jump\t// in\n    tag_667:\n        /* \"#utility.yul\":26428:26453   */\n      swap2\n      pop\n        /* \"#utility.yul\":26467:26487   */\n      tag_668\n        /* \"#utility.yul\":26485:26486   */\n      dup4\n        /* \"#utility.yul\":26467:26487   */\n      tag_306\n      jump\t// in\n    tag_668:\n        /* \"#utility.yul\":26462:26487   */\n      swap3\n      pop\n        /* \"#utility.yul\":26511:26512   */\n      dup3\n        /* \"#utility.yul\":26508:26509   */\n      dup3\n        /* \"#utility.yul\":26504:26513   */\n      sub\n        /* \"#utility.yul\":26496:26513   */\n      swap1\n      pop\n        /* \"#utility.yul\":26535:26536   */\n      dup2\n        /* \"#utility.yul\":26529:26533   */\n      dup2\n        /* \"#utility.yul\":26526:26537   */\n      gt\n        /* \"#utility.yul\":26523:26560   */\n      iszero\n      tag_669\n      jumpi\n        /* \"#utility.yul\":26540:26558   */\n      tag_670\n      tag_350\n      jump\t// in\n    tag_670:\n        /* \"#utility.yul\":26523:26560   */\n    tag_669:\n        /* \"#utility.yul\":26373:26567   */\n      swap3\n      swap2\n      pop\n      pop\n      jump\t// out\n        /* \"#utility.yul\":26573:26905   */\n    tag_191:\n        /* \"#utility.yul\":26694:26698   */\n      0x00\n        /* \"#utility.yul\":26732:26734   */\n      0x40\n        /* \"#utility.yul\":26721:26730   */\n      dup3\n        /* \"#utility.yul\":26717:26735   */\n      add\n        /* \"#utility.yul\":26709:26735   */\n      swap1\n      pop\n        /* \"#utility.yul\":26745:26816   */\n      tag_672\n        /* \"#utility.yul\":26813:26814   */\n      0x00\n        /* \"#utility.yul\":26802:26811   */\n      dup4\n        /* \"#utility.yul\":26798:26815   */\n      add\n        /* \"#utility.yul\":26789:26795   */\n      dup6\n        /* \"#utility.yul\":26745:26816   */\n      tag_327\n      jump\t// in\n    tag_672:\n        /* \"#utility.yul\":26826:26898   */\n      tag_673\n        /* \"#utility.yul\":26894:26896   */\n      0x20\n        /* \"#utility.yul\":26883:26892   */\n      dup4\n        /* \"#utility.yul\":26879:26897   */\n      add\n        /* \"#utility.yul\":26870:26876   */\n      dup5\n        /* \"#utility.yul\":26826:26898   */\n      tag_324\n      jump\t// in\n    tag_673:\n        /* \"#utility.yul\":26573:26905   */\n      swap4\n      swap3\n      pop\n      pop\n      pop\n      jump\t// out\n        /* \"#utility.yul\":26911:27027   */\n    tag_377:\n        /* \"#utility.yul\":26981:27002   */\n      tag_675\n        /* \"#utility.yul\":26996:27001   */\n      dup2\n        /* \"#utility.yul\":26981:27002   */\n      tag_343\n      jump\t// in\n    tag_675:\n        /* \"#utility.yul\":26974:26979   */\n      dup2\n        /* \"#utility.yul\":26971:27003   */\n      eq\n        /* \"#utility.yul\":26961:27021   */\n      tag_676\n      jumpi\n        /* \"#utility.yul\":27017:27018   */\n      0x00\n        /* \"#utility.yul\":27014:27015   */\n      0x00\n        /* \"#utility.yul\":27007:27019   */\n      revert\n        /* \"#utility.yul\":26961:27021   */\n    tag_676:\n        /* \"#utility.yul\":26911:27027   */\n      pop\n      jump\t// out\n        /* \"#utility.yul\":27033:27170   */\n    tag_378:\n        /* \"#utility.yul\":27087:27092   */\n      0x00\n        /* \"#utility.yul\":27118:27124   */\n      dup2\n        /* \"#utility.yul\":27112:27125   */\n      mload\n        /* \"#utility.yul\":27103:27125   */\n      swap1\n      pop\n        /* \"#utility.yul\":27134:27164   */\n      tag_678\n        /* \"#utility.yul\":27158:27163   */\n      dup2\n        /* \"#utility.yul\":27134:27164   */\n      tag_377\n      jump\t// in\n    tag_678:\n        /* \"#utility.yul\":27033:27170   */\n      swap3\n      swap2\n      pop\n      pop\n      jump\t// out\n        /* \"#utility.yul\":27176:27521   */\n    tag_195:\n        /* \"#utility.yul\":27243:27249   */\n      0x00\n        /* \"#utility.yul\":27292:27294   */\n      0x20\n        /* \"#utility.yul\":27280:27289   */\n      dup3\n        /* \"#utility.yul\":27271:27278   */\n      dup5\n        /* \"#utility.yul\":27267:27290   */\n      sub\n        /* \"#utility.yul\":27263:27295   */\n      slt\n        /* \"#utility.yul\":27260:27379   */\n      iszero\n      tag_680\n      jumpi\n        /* \"#utility.yul\":27298:27377   */\n      tag_681\n      tag_304\n      jump\t// in\n    tag_681:\n        /* \"#utility.yul\":27260:27379   */\n    tag_680:\n        /* \"#utility.yul\":27418:27419   */\n      0x00\n        /* \"#utility.yul\":27443:27504   */\n      tag_682\n        /* \"#utility.yul\":27496:27503   */\n      dup5\n        /* \"#utility.yul\":27487:27493   */\n      dup3\n        /* \"#utility.yul\":27476:27485   */\n      dup6\n        /* \"#utility.yul\":27472:27494   */\n      add\n        /* \"#utility.yul\":27443:27504   */\n      tag_378\n      jump\t// in\n    tag_682:\n        /* \"#utility.yul\":27433:27504   */\n      swap2\n      pop\n        /* \"#utility.yul\":27389:27514   */\n      pop\n        /* \"#utility.yul\":27176:27521   */\n      swap3\n      swap2\n      pop\n      pop\n      jump\t// out\n        /* \"#utility.yul\":27527:27692   */\n    tag_379:\n        /* \"#utility.yul\":27667:27684   */\n      0x7472616e73666572206661696c65640000000000000000000000000000000000\n        /* \"#utility.yul\":27663:27664   */\n      0x00\n        /* \"#utility.yul\":27655:27661   */\n      dup3\n        /* \"#utility.yul\":27651:27665   */\n      add\n        /* \"#utility.yul\":27644:27685   */\n      mstore\n        /* \"#utility.yul\":27527:27692   */\n      pop\n      jump\t// out\n        /* \"#utility.yul\":27698:28064   */\n    tag_380:\n        /* \"#utility.yul\":27840:27843   */\n      0x00\n        /* \"#utility.yul\":27861:27928   */\n      tag_685\n        /* \"#utility.yul\":27925:27927   */\n      0x0f\n        /* \"#utility.yul\":27920:27923   */\n      dup4\n        /* \"#utility.yul\":27861:27928   */\n      tag_338\n      jump\t// in\n    tag_685:\n        /* \"#utility.yul\":27854:27928   */\n      swap2\n      pop\n        /* \"#utility.yul\":27937:28030   */\n      tag_686\n        /* \"#utility.yul\":28026:28029   */\n      dup3\n        /* \"#utility.yul\":27937:28030   */\n      tag_379\n      jump\t// in\n    tag_686:\n        /* \"#utility.yul\":28055:28057   */\n      0x20\n        /* \"#utility.yul\":28050:28053   */\n      dup3\n        /* \"#utility.yul\":28046:28058   */\n      add\n        /* \"#utility.yul\":28039:28058   */\n      swap1\n      pop\n        /* \"#utility.yul\":27698:28064   */\n      swap2\n      swap1\n      pop\n      jump\t// out\n        /* \"#utility.yul\":28070:28489   */\n    tag_198:\n        /* \"#utility.yul\":28236:28240   */\n      0x00\n        /* \"#utility.yul\":28274:28276   */\n      0x20\n        /* \"#utility.yul\":28263:28272   */\n      dup3\n        /* \"#utility.yul\":28259:28277   */\n      add\n        /* \"#utility.yul\":28251:28277   */\n      swap1\n      pop\n        /* \"#utility.yul\":28323:28332   */\n      dup2\n        /* \"#utility.yul\":28317:28321   */\n      dup2\n        /* \"#utility.yul\":28313:28333   */\n      sub\n        /* \"#utility.yul\":28309:28310   */\n      0x00\n        /* \"#utility.yul\":28298:28307   */\n      dup4\n        /* \"#utility.yul\":28294:28311   */\n      add\n        /* \"#utility.yul\":28287:28334   */\n      mstore\n        /* \"#utility.yul\":28351:28482   */\n      tag_688\n        /* \"#utility.yul\":28477:28481   */\n      dup2\n        /* \"#utility.yul\":28351:28482   */\n      tag_380\n      jump\t// in\n    tag_688:\n        /* \"#utility.yul\":28343:28482   */\n      swap1\n      pop\n        /* \"#utility.yul\":28070:28489   */\n      swap2\n      swap1\n      pop\n      jump\t// out\n        /* \"#utility.yul\":28495:28643   */\n    tag_381:\n        /* \"#utility.yul\":28597:28608   */\n      0x00\n        /* \"#utility.yul\":28634:28637   */\n      dup2\n        /* \"#utility.yul\":28619:28637   */\n      swap1\n      pop\n        /* \"#utility.yul\":28495:28643   */\n      swap3\n      swap2\n      pop\n      pop\n      jump\t// out\n        /* \"#utility.yul\":28649:28797   */\n    tag_382:\n        /* \"#utility.yul\":28747:28753   */\n      dup3\n        /* \"#utility.yul\":28742:28745   */\n      dup2\n        /* \"#utility.yul\":28737:28740   */\n      dup4\n        /* \"#utility.yul\":28724:28754   */\n      calldatacopy\n        /* \"#utility.yul\":28788:28789   */\n      0x00\n        /* \"#utility.yul\":28779:28785   */\n      dup4\n        /* \"#utility.yul\":28774:28777   */\n      dup4\n        /* \"#utility.yul\":28770:28786   */\n      add\n        /* \"#utility.yul\":28763:28790   */\n      mstore\n        /* \"#utility.yul\":28649:28797   */\n      pop\n      pop\n      pop\n      jump\t// out\n        /* \"#utility.yul\":28827:29157   */\n    tag_383:\n        /* \"#utility.yul\":28943:28946   */\n      0x00\n        /* \"#utility.yul\":28964:29053   */\n      tag_692\n        /* \"#utility.yul\":29046:29052   */\n      dup4\n        /* \"#utility.yul\":29041:29044   */\n      dup6\n        /* \"#utility.yul\":28964:29053   */\n      tag_381\n      jump\t// in\n    tag_692:\n        /* \"#utility.yul\":28957:29053   */\n      swap4\n      pop\n        /* \"#utility.yul\":29063:29119   */\n      tag_693\n        /* \"#utility.yul\":29112:29118   */\n      dup4\n        /* \"#utility.yul\":29107:29110   */\n      dup6\n        /* \"#utility.yul\":29100:29105   */\n      dup5\n        /* \"#utility.yul\":29063:29119   */\n      tag_382\n      jump\t// in\n    tag_693:\n        /* \"#utility.yul\":29144:29150   */\n      dup3\n        /* \"#utility.yul\":29139:29142   */\n      dup5\n        /* \"#utility.yul\":29135:29151   */\n      add\n        /* \"#utility.yul\":29128:29151   */\n      swap1\n      pop\n        /* \"#utility.yul\":28827:29157   */\n      swap4\n      swap3\n      pop\n      pop\n      pop\n      jump\t// out\n        /* \"#utility.yul\":29163:29268   */\n    tag_384:\n        /* \"#utility.yul\":29229:29235   */\n      0x00\n        /* \"#utility.yul\":29257:29261   */\n      0x03\n        /* \"#utility.yul\":29247:29261   */\n      swap1\n      pop\n        /* \"#utility.yul\":29163:29268   */\n      swap2\n      swap1\n      pop\n      jump\t// out\n        /* \"#utility.yul\":29274:29434   */\n    tag_385:\n        /* \"#utility.yul\":29388:29399   */\n      0x00\n        /* \"#utility.yul\":29425:29428   */\n      dup2\n        /* \"#utility.yul\":29410:29428   */\n      swap1\n      pop\n        /* \"#utility.yul\":29274:29434   */\n      swap3\n      swap2\n      pop\n      pop\n      jump\t// out\n        /* \"#utility.yul\":29440:29539   */\n    tag_386:\n        /* \"#utility.yul\":29506:29510   */\n      0x00\n        /* \"#utility.yul\":29529:29532   */\n      dup2\n        /* \"#utility.yul\":29521:29532   */\n      swap1\n      pop\n        /* \"#utility.yul\":29440:29539   */\n      swap2\n      swap1\n      pop\n      jump\t// out\n        /* \"#utility.yul\":29545:29658   */\n    tag_387:\n        /* \"#utility.yul\":29628:29651   */\n      tag_698\n        /* \"#utility.yul\":29645:29650   */\n      dup2\n        /* \"#utility.yul\":29628:29651   */\n      tag_331\n      jump\t// in\n    tag_698:\n        /* \"#utility.yul\":29623:29626   */\n      dup3\n        /* \"#utility.yul\":29616:29652   */\n      mstore\n        /* \"#utility.yul\":29545:29658   */\n      pop\n      pop\n      jump\t// out\n        /* \"#utility.yul\":29664:29855   */\n    tag_388:\n        /* \"#utility.yul\":29739:29749   */\n      0x00\n        /* \"#utility.yul\":29760:29812   */\n      tag_700\n        /* \"#utility.yul\":29808:29811   */\n      dup4\n        /* \"#utility.yul\":29800:29806   */\n      dup4\n        /* \"#utility.yul\":29760:29812   */\n      tag_387\n      jump\t// in\n    tag_700:\n        /* \"#utility.yul\":29844:29848   */\n      0x20\n        /* \"#utility.yul\":29839:29842   */\n      dup4\n        /* \"#utility.yul\":29835:29849   */\n      add\n        /* \"#utility.yul\":29821:29849   */\n      swap1\n      pop\n        /* \"#utility.yul\":29664:29855   */\n      swap3\n      swap2\n      pop\n      pop\n      jump\t// out\n        /* \"#utility.yul\":29861:29981   */\n    tag_389:\n        /* \"#utility.yul\":29933:29956   */\n      tag_702\n        /* \"#utility.yul\":29950:29955   */\n      dup2\n        /* \"#utility.yul\":29933:29956   */\n      tag_331\n      jump\t// in\n    tag_702:\n        /* \"#utility.yul\":29926:29931   */\n      dup2\n        /* \"#utility.yul\":29923:29957   */\n      eq\n        /* \"#utility.yul\":29913:29975   */\n      tag_703\n      jumpi\n        /* \"#utility.yul\":29971:29972   */\n      0x00\n        /* \"#utility.yul\":29968:29969   */\n      0x00\n        /* \"#utility.yul\":29961:29973   */\n      revert\n        /* \"#utility.yul\":29913:29975   */\n    tag_703:\n        /* \"#utility.yul\":29861:29981   */\n      pop\n      jump\t// out\n        /* \"#utility.yul\":29987:30124   */\n    tag_390:\n        /* \"#utility.yul\":30032:30037   */\n      0x00\n        /* \"#utility.yul\":30070:30076   */\n      dup2\n        /* \"#utility.yul\":30057:30077   */\n      calldataload\n        /* \"#utility.yul\":30048:30077   */\n      swap1\n      pop\n        /* \"#utility.yul\":30086:30118   */\n      tag_705\n        /* \"#utility.yul\":30112:30117   */\n      dup2\n        /* \"#utility.yul\":30086:30118   */\n      tag_389\n      jump\t// in\n    tag_705:\n        /* \"#utility.yul\":29987:30124   */\n      swap3\n      swap2\n      pop\n      pop\n      jump\t// out\n        /* \"#utility.yul\":30130:30250   */\n    tag_391:\n        /* \"#utility.yul\":30181:30186   */\n      0x00\n        /* \"#utility.yul\":30206:30244   */\n      tag_707\n        /* \"#utility.yul\":30240:30242   */\n      0x20\n        /* \"#utility.yul\":30235:30238   */\n      dup5\n        /* \"#utility.yul\":30231:30243   */\n      add\n        /* \"#utility.yul\":30226:30229   */\n      dup5\n        /* \"#utility.yul\":30206:30244   */\n      tag_390\n      jump\t// in\n    tag_707:\n        /* \"#utility.yul\":30197:30244   */\n      swap1\n      pop\n        /* \"#utility.yul\":30130:30250   */\n      swap3\n      swap2\n      pop\n      pop\n      jump\t// out\n        /* \"#utility.yul\":30256:30368   */\n    tag_392:\n        /* \"#utility.yul\":30325:30329   */\n      0x00\n        /* \"#utility.yul\":30357:30361   */\n      0x20\n        /* \"#utility.yul\":30352:30355   */\n      dup3\n        /* \"#utility.yul\":30348:30362   */\n      add\n        /* \"#utility.yul\":30340:30362   */\n      swap1\n      pop\n        /* \"#utility.yul\":30256:30368   */\n      swap2\n      swap1\n      pop\n      jump\t// out\n        /* \"#utility.yul\":30404:31170   */\n    tag_393:\n        /* \"#utility.yul\":30558:30611   */\n      tag_710\n        /* \"#utility.yul\":30605:30610   */\n      dup2\n        /* \"#utility.yul\":30558:30611   */\n      tag_384\n      jump\t// in\n    tag_710:\n        /* \"#utility.yul\":30627:30728   */\n      tag_711\n        /* \"#utility.yul\":30721:30727   */\n      dup2\n        /* \"#utility.yul\":30716:30719   */\n      dup5\n        /* \"#utility.yul\":30627:30728   */\n      tag_385\n      jump\t// in\n    tag_711:\n        /* \"#utility.yul\":30620:30728   */\n      swap3\n      pop\n        /* \"#utility.yul\":30752:30807   */\n      tag_712\n        /* \"#utility.yul\":30801:30806   */\n      dup3\n        /* \"#utility.yul\":30752:30807   */\n      tag_386\n      jump\t// in\n    tag_712:\n        /* \"#utility.yul\":30830:30837   */\n      dup1\n        /* \"#utility.yul\":30861:30862   */\n      0x00\n        /* \"#utility.yul\":30846:31163   */\n    tag_713:\n        /* \"#utility.yul\":30871:30877   */\n      dup4\n        /* \"#utility.yul\":30868:30869   */\n      dup2\n        /* \"#utility.yul\":30865:30878   */\n      lt\n        /* \"#utility.yul\":30846:31163   */\n      iszero\n      tag_715\n      jumpi\n        /* \"#utility.yul\":30941:30982   */\n      tag_716\n        /* \"#utility.yul\":30975:30981   */\n      dup3\n        /* \"#utility.yul\":30966:30973   */\n      dup5\n        /* \"#utility.yul\":30941:30982   */\n      tag_391\n      jump\t// in\n    tag_716:\n        /* \"#utility.yul\":31002:31071   */\n      tag_717\n        /* \"#utility.yul\":31067:31070   */\n      dup8\n        /* \"#utility.yul\":31052:31065   */\n      dup3\n        /* \"#utility.yul\":31002:31071   */\n      tag_388\n      jump\t// in\n    tag_717:\n        /* \"#utility.yul\":30995:31071   */\n      swap7\n      pop\n        /* \"#utility.yul\":31094:31153   */\n      tag_718\n        /* \"#utility.yul\":31146:31152   */\n      dup4\n        /* \"#utility.yul\":31094:31153   */\n      tag_392\n      jump\t// in\n    tag_718:\n        /* \"#utility.yul\":31084:31153   */\n      swap3\n      pop\n        /* \"#utility.yul\":30906:31163   */\n      pop\n        /* \"#utility.yul\":30893:30894   */\n      0x01\n        /* \"#utility.yul\":30890:30891   */\n      dup2\n        /* \"#utility.yul\":30886:30895   */\n      add\n        /* \"#utility.yul\":30881:30895   */\n      swap1\n      pop\n        /* \"#utility.yul\":30846:31163   */\n      jump(tag_713)\n    tag_715:\n        /* \"#utility.yul\":30850:30864   */\n      pop\n        /* \"#utility.yul\":30534:31170   */\n      pop\n      pop\n      pop\n        /* \"#utility.yul\":30404:31170   */\n      pop\n      pop\n      jump\t// out\n        /* \"#utility.yul\":31176:31255   */\n    tag_394:\n        /* \"#utility.yul\":31215:31222   */\n      0x00\n        /* \"#utility.yul\":31244:31249   */\n      dup2\n        /* \"#utility.yul\":31233:31249   */\n      swap1\n      pop\n        /* \"#utility.yul\":31176:31255   */\n      swap2\n      swap1\n      pop\n      jump\t// out\n        /* \"#utility.yul\":31261:31418   */\n    tag_395:\n        /* \"#utility.yul\":31366:31411   */\n      tag_721\n        /* \"#utility.yul\":31386:31410   */\n      tag_722\n        /* \"#utility.yul\":31404:31409   */\n      dup3\n        /* \"#utility.yul\":31386:31410   */\n      tag_306\n      jump\t// in\n    tag_722:\n        /* \"#utility.yul\":31366:31411   */\n      tag_394\n      jump\t// in\n    tag_721:\n        /* \"#utility.yul\":31361:31364   */\n      dup3\n        /* \"#utility.yul\":31354:31412   */\n      mstore\n        /* \"#utility.yul\":31261:31418   */\n      pop\n      pop\n      jump\t// out\n        /* \"#utility.yul\":31424:32234   */\n    tag_202:\n        /* \"#utility.yul\":31696:31699   */\n      0x00\n        /* \"#utility.yul\":31718:31823   */\n      tag_724\n        /* \"#utility.yul\":31819:31822   */\n      dup3\n        /* \"#utility.yul\":31810:31816   */\n      dup8\n        /* \"#utility.yul\":31802:31808   */\n      dup10\n        /* \"#utility.yul\":31718:31823   */\n      tag_383\n      jump\t// in\n    tag_724:\n        /* \"#utility.yul\":31711:31823   */\n      swap2\n      pop\n        /* \"#utility.yul\":31833:31954   */\n      tag_725\n        /* \"#utility.yul\":31950:31953   */\n      dup3\n        /* \"#utility.yul\":31941:31947   */\n      dup7\n        /* \"#utility.yul\":31833:31954   */\n      tag_393\n      jump\t// in\n    tag_725:\n        /* \"#utility.yul\":31979:31981   */\n      0x60\n        /* \"#utility.yul\":31974:31977   */\n      dup3\n        /* \"#utility.yul\":31970:31982   */\n      add\n        /* \"#utility.yul\":31963:31982   */\n      swap2\n      pop\n        /* \"#utility.yul\":31992:32067   */\n      tag_726\n        /* \"#utility.yul\":32063:32066   */\n      dup3\n        /* \"#utility.yul\":32054:32060   */\n      dup6\n        /* \"#utility.yul\":31992:32067   */\n      tag_395\n      jump\t// in\n    tag_726:\n        /* \"#utility.yul\":32092:32094   */\n      0x20\n        /* \"#utility.yul\":32087:32090   */\n      dup3\n        /* \"#utility.yul\":32083:32095   */\n      add\n        /* \"#utility.yul\":32076:32095   */\n      swap2\n      pop\n        /* \"#utility.yul\":32105:32180   */\n      tag_727\n        /* \"#utility.yul\":32176:32179   */\n      dup3\n        /* \"#utility.yul\":32167:32173   */\n      dup5\n        /* \"#utility.yul\":32105:32180   */\n      tag_395\n      jump\t// in\n    tag_727:\n        /* \"#utility.yul\":32205:32207   */\n      0x20\n        /* \"#utility.yul\":32200:32203   */\n      dup3\n        /* \"#utility.yul\":32196:32208   */\n      add\n        /* \"#utility.yul\":32189:32208   */\n      swap2\n      pop\n        /* \"#utility.yul\":32225:32228   */\n      dup2\n        /* \"#utility.yul\":32218:32228   */\n      swap1\n      pop\n        /* \"#utility.yul\":31424:32234   */\n      swap7\n      swap6\n      pop\n      pop\n      pop\n      pop\n      pop\n      pop\n      jump\t// out\n        /* \"#utility.yul\":32240:32317   */\n    tag_396:\n        /* \"#utility.yul\":32277:32284   */\n      0x00\n        /* \"#utility.yul\":32306:32311   */\n      dup2\n        /* \"#utility.yul\":32295:32311   */\n      swap1\n      pop\n        /* \"#utility.yul\":32240:32317   */\n      swap2\n      swap1\n      pop\n      jump\t// out\n        /* \"#utility.yul\":32323:32441   */\n    tag_397:\n        /* \"#utility.yul\":32410:32434   */\n      tag_730\n        /* \"#utility.yul\":32428:32433   */\n      dup2\n        /* \"#utility.yul\":32410:32434   */\n      tag_396\n      jump\t// in\n    tag_730:\n        /* \"#utility.yul\":32405:32408   */\n      dup3\n        /* \"#utility.yul\":32398:32435   */\n      mstore\n        /* \"#utility.yul\":32323:32441   */\n      pop\n      pop\n      jump\t// out\n        /* \"#utility.yul\":32447:32779   */\n    tag_204:\n        /* \"#utility.yul\":32568:32572   */\n      0x00\n        /* \"#utility.yul\":32606:32608   */\n      0x40\n        /* \"#utility.yul\":32595:32604   */\n      dup3\n        /* \"#utility.yul\":32591:32609   */\n      add\n        /* \"#utility.yul\":32583:32609   */\n      swap1\n      pop\n        /* \"#utility.yul\":32619:32690   */\n      tag_732\n        /* \"#utility.yul\":32687:32688   */\n      0x00\n        /* \"#utility.yul\":32676:32685   */\n      dup4\n        /* \"#utility.yul\":32672:32689   */\n      add\n        /* \"#utility.yul\":32663:32669   */\n      dup6\n        /* \"#utility.yul\":32619:32690   */\n      tag_397\n      jump\t// in\n    tag_732:\n        /* \"#utility.yul\":32700:32772   */\n      tag_733\n        /* \"#utility.yul\":32768:32770   */\n      0x20\n        /* \"#utility.yul\":32757:32766   */\n      dup4\n        /* \"#utility.yul\":32753:32771   */\n      add\n        /* \"#utility.yul\":32744:32750   */\n      dup5\n        /* \"#utility.yul\":32700:32772   */\n      tag_324\n      jump\t// in\n    tag_733:\n        /* \"#utility.yul\":32447:32779   */\n      swap4\n      swap3\n      pop\n      pop\n      pop\n      jump\t// out\n        /* \"#utility.yul\":32785:32961   */\n    tag_259:\n        /* \"#utility.yul\":32817:32818   */\n      0x00\n        /* \"#utility.yul\":32834:32854   */\n      tag_735\n        /* \"#utility.yul\":32852:32853   */\n      dup3\n        /* \"#utility.yul\":32834:32854   */\n      tag_306\n      jump\t// in\n    tag_735:\n        /* \"#utility.yul\":32829:32854   */\n      swap2\n      pop\n        /* \"#utility.yul\":32868:32888   */\n      tag_736\n        /* \"#utility.yul\":32886:32887   */\n      dup4\n        /* \"#utility.yul\":32868:32888   */\n      tag_306\n      jump\t// in\n    tag_736:\n        /* \"#utility.yul\":32863:32888   */\n      swap3\n      pop\n        /* \"#utility.yul\":32907:32908   */\n      dup3\n        /* \"#utility.yul\":32897:32932   */\n      tag_737\n      jumpi\n        /* \"#utility.yul\":32912:32930   */\n      tag_738\n      tag_368\n      jump\t// in\n    tag_738:\n        /* \"#utility.yul\":32897:32932   */\n    tag_737:\n        /* \"#utility.yul\":32953:32954   */\n      dup3\n        /* \"#utility.yul\":32950:32951   */\n      dup3\n        /* \"#utility.yul\":32946:32955   */\n      mod\n        /* \"#utility.yul\":32941:32955   */\n      swap1\n      pop\n        /* \"#utility.yul\":32785:32961   */\n      swap3\n      swap2\n      pop\n      pop\n      jump\t// out\n        /* \"#utility.yul\":32967:33195   */\n    tag_261:\n        /* \"#utility.yul\":33002:33005   */\n      0x00\n        /* \"#utility.yul\":33025:33048   */\n      tag_740\n        /* \"#utility.yul\":33042:33047   */\n      dup3\n        /* \"#utility.yul\":33025:33048   */\n      tag_331\n      jump\t// in\n    tag_740:\n        /* \"#utility.yul\":33016:33048   */\n      swap2\n      pop\n        /* \"#utility.yul\":33070:33136   */\n      0x8000000000000000000000000000000000000000000000000000000000000000\n        /* \"#utility.yul\":33063:33068   */\n      dup3\n        /* \"#utility.yul\":33060:33137   */\n      sub\n        /* \"#utility.yul\":33057:33160   */\n      tag_741\n      jumpi\n        /* \"#utility.yul\":33140:33158   */\n      tag_742\n      tag_350\n      jump\t// in\n    tag_742:\n        /* \"#utility.yul\":33057:33160   */\n    tag_741:\n        /* \"#utility.yul\":33183:33188   */\n      dup2\n        /* \"#utility.yul\":33180:33181   */\n      0x00\n        /* \"#utility.yul\":33176:33189   */\n      sub\n        /* \"#utility.yul\":33169:33189   */\n      swap1\n      pop\n        /* \"#utility.yul\":32967:33195   */\n      swap2\n      swap1\n      pop\n      jump\t// out\n        /* \"#utility.yul\":33201:33363   */\n    tag_398:\n        /* \"#utility.yul\":33341:33355   */\n      0x6f7574206f662072616e67650000000000000000000000000000000000000000\n        /* \"#utility.yul\":33337:33338   */\n      0x00\n        /* \"#utility.yul\":33329:33335   */\n      dup3\n        /* \"#utility.yul\":33325:33339   */\n      add\n        /* \"#utility.yul\":33318:33356   */\n      mstore\n        /* \"#utility.yul\":33201:33363   */\n      pop\n      jump\t// out\n        /* \"#utility.yul\":33369:33735   */\n    tag_399:\n        /* \"#utility.yul\":33511:33514   */\n      0x00\n        /* \"#utility.yul\":33532:33599   */\n      tag_745\n        /* \"#utility.yul\":33596:33598   */\n      0x0c\n        /* \"#utility.yul\":33591:33594   */\n      dup4\n        /* \"#utility.yul\":33532:33599   */\n      tag_338\n      jump\t// in\n    tag_745:\n        /* \"#utility.yul\":33525:33599   */\n      swap2\n      pop\n        /* \"#utility.yul\":33608:33701   */\n      tag_746\n        /* \"#utility.yul\":33697:33700   */\n      dup3\n        /* \"#utility.yul\":33608:33701   */\n      tag_398\n      jump\t// in\n    tag_746:\n        /* \"#utility.yul\":33726:33728   */\n      0x20\n        /* \"#utility.yul\":33721:33724   */\n      dup3\n        /* \"#utility.yul\":33717:33729   */\n      add\n        /* \"#utility.yul\":33710:33729   */\n      swap1\n      pop\n        /* \"#utility.yul\":33369:33735   */\n      swap2\n      swap1\n      pop\n      jump\t// out\n        /* \"#utility.yul\":33741:34160   */\n    tag_277:\n        /* \"#utility.yul\":33907:33911   */\n      0x00\n        /* \"#utility.yul\":33945:33947   */\n      0x20\n        /* \"#utility.yul\":33934:33943   */\n      dup3\n        /* \"#utility.yul\":33930:33948   */\n      add\n        /* \"#utility.yul\":33922:33948   */\n      swap1\n      pop\n        /* \"#utility.yul\":33994:34003   */\n      dup2\n        /* \"#utility.yul\":33988:33992   */\n      dup2\n        /* \"#utility.yul\":33984:34004   */\n      sub\n        /* \"#utility.yul\":33980:33981   */\n      0x00\n        /* \"#utility.yul\":33969:33978   */\n      dup4\n        /* \"#utility.yul\":33965:33982   */\n      add\n        /* \"#utility.yul\":33958:34005   */\n      mstore\n        /* \"#utility.yul\":34022:34153   */\n      tag_748\n        /* \"#utility.yul\":34148:34152   */\n      dup2\n        /* \"#utility.yul\":34022:34153   */\n      tag_399\n      jump\t// in\n    tag_748:\n        /* \"#utility.yul\":34014:34153   */\n      swap1\n      pop\n        /* \"#utility.yul\":33741:34160   */\n      swap2\n      swap1\n      pop\n      jump\t// out\n\n    auxdata: 0xa2646970667358221220fdfe715e540e5b54afc494b0022c885e2733a832e426fcf8a5302e31e3b855ea64736f6c634300081e0033\n}\n",
				"bytecode": {
					"linkReferences": {},
					"object": "610100604052348015610010575f5ffd5b50604051612d7e380380612d7e8339818101604052810190610032919061037b565b5f73ffffffffffffffffffffffffffffffffffffffff168373ffffffffffffffffffffffffffffffffffffffff16036100a0576040517f08c379a000000000000000000000000000000000000000000000000000000000815260040161009790610425565b60405180910390fd5b8273ffffffffffffffffffffffffffffffffffffffff1660808173ffffffffffffffffffffffffffffffffffffffff16815250503373ffffffffffffffffffffffffffffffffffffffff1660a08173ffffffffffffffffffffffffffffffffffffffff16815250508063ffffffff1660e08163ffffffff16815250508160805173ffffffffffffffffffffffffffffffffffffffff1663dd62ed3e60a051306040518363ffffffff1660e01b815260040161015c929190610452565b602060405180830381865afa158015610177573d5f5f3e3d5ffd5b505050506040513d601f19601f8201168201806040525081019061019b9190610479565b10156101dc576040517f08c379a00000000000000000000000000000000000000000000000000000000081526004016101d3906104ee565b60405180910390fd5b5f60805173ffffffffffffffffffffffffffffffffffffffff166323b872dd60a05130866040518463ffffffff1660e01b815260040161021e9392919061051b565b6020604051808303815f875af115801561023a573d5f5f3e3d5ffd5b505050506040513d601f19601f8201168201806040525081019061025e9190610585565b9050806102a0576040517f08c379a0000000000000000000000000000000000000000000000000000000008152600401610297906105fa565b60405180910390fd5b8260c0818152505050505050610618565b5f5ffd5b5f73ffffffffffffffffffffffffffffffffffffffff82169050919050565b5f6102de826102b5565b9050919050565b6102ee816102d4565b81146102f8575f5ffd5b50565b5f81519050610309816102e5565b92915050565b5f819050919050565b6103218161030f565b811461032b575f5ffd5b50565b5f8151905061033c81610318565b92915050565b5f63ffffffff82169050919050565b61035a81610342565b8114610364575f5ffd5b50565b5f8151905061037581610351565b92915050565b5f5f5f60608486031215610392576103916102b1565b5b5f61039f868287016102fb565b93505060206103b08682870161032e565b92505060406103c186828701610367565b9150509250925092565b5f82825260208201905092915050565b7f62616420746f6b656e00000000000000000000000000000000000000000000005f82015250565b5f61040f6009836103cb565b915061041a826103db565b602082019050919050565b5f6020820190508181035f83015261043c81610403565b9050919050565b61044c816102d4565b82525050565b5f6040820190506104655f830185610443565b6104726020830184610443565b9392505050565b5f6020828403121561048e5761048d6102b1565b5b5f61049b8482850161032e565b91505092915050565b7f617070726f7665206669727374000000000000000000000000000000000000005f82015250565b5f6104d8600d836103cb565b91506104e3826104a4565b602082019050919050565b5f6020820190508181035f830152610505816104cc565b9050919050565b6105158161030f565b82525050565b5f60608201905061052e5f830186610443565b61053b6020830185610443565b610548604083018461050c565b949350505050565b5f8115159050919050565b61056481610550565b811461056e575f5ffd5b50565b5f8151905061057f8161055b565b92915050565b5f6020828403121561059a576105996102b1565b5b5f6105a784828501610571565b91505092915050565b7f7472616e7366657246726f6d206661696c6564000000000000000000000000005f82015250565b5f6105e46013836103cb565b91506105ef826105b0565b602082019050919050565b5f6020820190508181035f830152610611816105d8565b9050919050565b60805160a05160c05160e0516127176106675f395f81816109550152610b1001525f81816109c501528181610d600152610df001525f61092a01525f8181610e3d015261105b01526127175ff3fe608060405234801561000f575f5ffd5b50600436106100f3575f3560e01c8063a395401611610095578063be7a078d11610064578063be7a078d146102b8578063ccdab78c146102d6578063defe80ef146102f2578063fc0c546a14610310576100f3565b8063a395401614610229578063a693600b14610247578063ad73349e14610265578063b3f05b971461029a576100f3565b806361203265116100d1578063612032651461018d5780636ec02be9146101ab57806393956b7b146101c95780639a409c32146101f9576100f3565b806337caa8b6146100f75780633988146f146101275780633e8686cc14610157575b5f5ffd5b610111600480360381019061010c9190611627565b61032e565b60405161011e9190611709565b60405180910390f35b610141600480360381019061013c91906117e4565b61050b565b60405161014e9190611877565b60405180910390f35b610171600480360381019061016c9190611627565b610785565b60405161018497969594939291906119fc565b60405180910390f35b610195610928565b6040516101a29190611a72565b60405180910390f35b6101b361094c565b6040516101c09190611877565b60405180910390f35b6101e360048036038101906101de9190611a8b565b610951565b6040516101f09190611877565b60405180910390f35b610213600480360381019061020e9190611a8b565b6109b2565b6040516102209190611877565b60405180910390f35b6102316109bb565b60405161023e9190611877565b60405180910390f35b61024f6109c3565b60405161025c9190611877565b60405180910390f35b61027f600480360381019061027a9190611627565b6109e7565b60405161029196959493929190611afd565b60405180910390f35b6102a2610afc565b6040516102af9190611b63565b60405180910390f35b6102c0610b0e565b6040516102cd9190611b7c565b60405180910390f35b6102f060048036038101906102eb9190611b95565b610b32565b005b6102fa611050565b6040516103079190611877565b60405180910390f35b610318611059565b6040516103259190611c61565b60405180910390f35b60605f5482111561033e575f5491505b8167ffffffffffffffff81111561035857610357611c7a565b5b6040519080825280602002602001820160405280156103865781602001602082028036833780820191505090505b5090505f60015f546103989190611cd4565b67ffffffffffffffff8111156103b1576103b0611c7a565b5b6040519080825280602002602001820160405280156103df5781602001602082028036833780820191505090505b5090505f5f90505b83811015610504575f63ffffffff90505f5f90505f600190505b5f5481116104ad5784818151811061041c5761041b611d07565b5b602002602001015161049a575f60015f8381526020019081526020015f209050806009015f9054906101000a900460ff16610457575061049a565b8363ffffffff16816005015f9054906101000a900463ffffffff1663ffffffff16101561049857806005015f9054906101000a900463ffffffff1693508192505b505b80806104a590611d34565b915050610401565b5060018482815181106104c3576104c2611d07565b5b602002602001019015159081151581525050808584815181106104e9576104e8611d07565b5b602002602001018181525050505080806001019150506103e7565b5050919050565b5f5f61054d8760038060200260405190810160405280929190826003602002808284375f81840152601f19601f8201169050808301925050505050508761107d565b90505f5f815461055c90611d34565b91905081905591506040518060e001604052803373ffffffffffffffffffffffffffffffffffffffff1681526020018860038060200260405190810160405280929190826003602002808284375f81840152601f19601f82011690508083019250505050505081526020018781526020018663ffffffff16815260200182815260200185858080601f0160208091040260200160405190810160405280939291908181526020018383808284375f81840152601f19601f8201169050808301925050505050505081526020016001151581525060015f8481526020019081526020015f205f820151815f015f6101000a81548173ffffffffffffffffffffffffffffffffffffffff021916908373ffffffffffffffffffffffffffffffffffffffff16021790555060208201518160010190600361069b929190611535565b50604082015181600401556060820151816005015f6101000a81548163ffffffff021916908363ffffffff1602179055506080820151816006015f820151815f015560208201518160010155505060a08201518160080190816106fe9190611f6f565b5060c0820151816009015f6101000a81548160ff0219169083151502179055509050503373ffffffffffffffffffffffffffffffffffffffff16827fc9a7acc6a55c72b2a45bf3fc2c99685d9a14729abc4a6b9ffa1c73a7a0810b8a87845f015185602001516040516107739392919061203e565b60405180910390a35095945050505050565b5f61078e611575565b5f5f5f5f60605f60015f8a81526020019081526020015f209050806009015f9054906101000a900460ff166107f8576040517f08c379a00000000000000000000000000000000000000000000000000000000081526004016107ef906120bd565b60405180910390fd5b805f015f9054906101000a900473ffffffffffffffffffffffffffffffffffffffff16975080600101600380602002604051908101604052809291908260038015610858576020028201915b815481526020019060010190808311610844575b5050505050965080600401549550806005015f9054906101000a900463ffffffff169450806006015f015493508060060160010154925080600801805461089e90611da8565b80601f01602080910402602001604051908101604052809291908181526020018280546108ca90611da8565b80156109155780601f106108ec57610100808354040283529160200191610915565b820191905f5260205f20905b8154815290600101906020018083116108f857829003601f168201915b5050505050915050919395979092949650565b7f000000000000000000000000000000000000000000000000000000000000000081565b5f5481565b5f5f7f000000000000000000000000000000000000000000000000000000000000000063ffffffff168363ffffffff1661098b9190611cd4565b90505f810361099957600190505b8064e8d4a510006109aa9190612108565b915050919050565b5f5f9050919050565b5f5f54905090565b7f000000000000000000000000000000000000000000000000000000000000000081565b6001602052805f5260405f205f91509050805f015f9054906101000a900473ffffffffffffffffffffffffffffffffffffffff1690806004015490806005015f9054906101000a900463ffffffff1690806006016040518060400160405290815f820154815260200160018201548152505090806008018054610a6990611da8565b80601f0160208091040260200160405190810160405280929190818152602001828054610a9590611da8565b8015610ae05780601f10610ab757610100808354040283529160200191610ae0565b820191905f5260205f20905b815481529060010190602001808311610ac357829003601f168201915b505050505090806009015f9054906101000a900460ff16905086565b60025f9054906101000a900460ff1681565b7f000000000000000000000000000000000000000000000000000000000000000081565b60025f9054906101000a900460ff1615610b81576040517f08c379a0000000000000000000000000000000000000000000000000000000008152600401610b7890612182565b60405180910390fd5b5f5f5411610bc4576040517f08c379a0000000000000000000000000000000000000000000000000000000008152600401610bbb906121ea565b60405180910390fd5b5f610bcd61118f565b90505f5f90505f600190505b5f548111610c8e575f60015f8381526020019081526020015f209050806009015f9054906101000a900460ff16610c105750610c7b565b5f610c2d826005015f9054906101000a900463ffffffff16610951565b90508084610c3b9190611cd4565b93505f610c69836006016040518060400160405290815f8201548152602001600182015481525050836111b1565b9050610c758682611242565b95505050505b8080610c8690611d34565b915050610bd9565b505f8111610cd1576040517f08c379a0000000000000000000000000000000000000000000000000000000008152600401610cc890612252565b60405180910390fd5b5f610d128760038060200260405190810160405280929190826003602002808284375f81840152601f19601f8201169050808301925050505050508761107d565b9050610d1e8184611289565b610d5d576040517f08c379a0000000000000000000000000000000000000000000000000000000008152600401610d54906122ba565b60405180910390fd5b5f7f000000000000000000000000000000000000000000000000000000000000000090505f600190505b5f548111610fbf575f60015f8381526020019081526020015f209050806009015f9054906101000a900460ff16610dbe5750610fac565b5f610ddb826005015f9054906101000a900463ffffffff16610951565b90505f8103610deb575050610fac565b5f86827f0000000000000000000000000000000000000000000000000000000000000000610e1991906122d8565b610e239190612108565b90505f811115610fa8578085610e399190612319565b94507f000000000000000000000000000000000000000000000000000000000000000073ffffffffffffffffffffffffffffffffffffffff1663a9059cbb845f015f9054906101000a900473ffffffffffffffffffffffffffffffffffffffff16836040518363ffffffff1660e01b8152600401610eb892919061234c565b6020604051808303815f875af1158015610ed4573d5f5f3e3d5ffd5b505050506040513d601f19601f82011682018060405250810190610ef8919061239d565b610f37576040517f08c379a0000000000000000000000000000000000000000000000000000000008152600401610f2e90612412565b60405180910390fd5b825f015f9054906101000a900473ffffffffffffffffffffffffffffffffffffffff1673ffffffffffffffffffffffffffffffffffffffff167f737c69225d647e5994eab1a6c301bf6d9232beb2759ae1e27a8966b4732bc48982604051610f9f9190611877565b60405180910390a25b5050505b8080610fb790611d34565b915050610d87565b50600160025f6101000a81548160ff0219169083151502179055505f86868a8a87604051602001610ff4959493929190612579565b6040516020818303038152906040528051906020012090507fd827b005bf57a7bc26451fa8c853ab1baca77e3409a05e7232a55e635385e756818560405161103d9291906125dc565b60405180910390a1505050505050505050565b64e8d4a5100081565b7f000000000000000000000000000000000000000000000000000000000000000081565b611085611597565b61108d61118f565b9050611097611597565b5f6110b8855f600381106110ae576110ad611d07565b5b60200201516112ae565b90506110cc6110c65f611366565b826111b1565b91506110d88383611242565b92505f6110fc866001600381106110f2576110f1611d07565b5b60200201516112ae565b905061111161110b6001611366565b826111b1565b925061111d8484611242565b93505f6111418760026003811061113757611136611d07565b5b60200201516112ae565b90506111566111506002611366565b826111b1565b93506111628585611242565b94505f6111766111706113f2565b886111b1565b90506111828682611242565b9550505050505092915050565b611197611597565b60405180604001604052805f81526020015f815250905090565b6111b9611597565b5f6040518060600160405280855f01518152602001856020015181526020018481525090506111e66115af565b60408160608460075afa6111f8575f5ffd5b805f6002811061120b5761120a611d07565b5b6020020151835f0181815250508060016002811061122c5761122b611d07565b5b6020020151836020018181525050505092915050565b61124a611597565b61125383611414565b1561126057819050611283565b61126982611414565b1561127657829050611283565b6112808383611431565b90505b92915050565b5f815f0151835f01511480156112a6575081602001518360200151145b905092915050565b5f5f82126112e9577f30644e72e131a029b85045b68181585d2833e84879b9709143e1f593f0000001826112e29190612603565b9050611361565b5f7f30644e72e131a029b85045b68181585d2833e84879b9709143e1f593f00000018361131590612633565b61131f9190612603565b90505f8103611331575f915050611361565b807f30644e72e131a029b85045b68181585d2833e84879b9709143e1f593f000000161135d9190612319565b9150505b919050565b61136e611597565b5f82036113845761137d6114cf565b90506113ed565b6001820361139b576113946114f1565b90506113ed565b600282036113b2576113ab611513565b90506113ed565b6040517f08c379a00000000000000000000000000000000000000000000000000000000081526004016113e4906126c3565b60405180910390fd5b919050565b6113fa611597565b60405180604001604052805f81526020015f815250905090565b5f5f825f015114801561142a57505f8260200151145b9050919050565b611439611597565b5f6040518060800160405280855f0151815260200185602001518152602001845f01518152602001846020015181525090506114736115af565b60408160808460065afa611485575f5ffd5b805f6002811061149857611497611d07565b5b6020020151835f018181525050806001600281106114b9576114b8611d07565b5b6020020151836020018181525050505092915050565b6114d7611597565b60405180604001604052805f81526020015f815250905090565b6114f9611597565b60405180604001604052805f81526020015f815250905090565b61151b611597565b60405180604001604052805f81526020015f815250905090565b8260038101928215611564579160200282015b82811115611563578251825591602001919060010190611548565b5b50905061157191906115d1565b5090565b6040518060600160405280600390602082028036833780820191505090505090565b60405180604001604052805f81526020015f81525090565b6040518060400160405280600290602082028036833780820191505090505090565b5b808211156115e8575f815f9055506001016115d2565b5090565b5f5ffd5b5f5ffd5b5f819050919050565b611606816115f4565b8114611610575f5ffd5b50565b5f81359050611621816115fd565b92915050565b5f6020828403121561163c5761163b6115ec565b5b5f61164984828501611613565b91505092915050565b5f81519050919050565b5f82825260208201905092915050565b5f819050602082019050919050565b611684816115f4565b82525050565b5f611695838361167b565b60208301905092915050565b5f602082019050919050565b5f6116b782611652565b6116c1818561165c565b93506116cc8361166c565b805f5b838110156116fc5781516116e3888261168a565b97506116ee836116a1565b9250506001810190506116cf565b5085935050505092915050565b5f6020820190508181035f83015261172181846116ad565b905092915050565b5f5ffd5b5f8190508260206003028201111561174857611747611729565b5b92915050565b5f63ffffffff82169050919050565b6117668161174e565b8114611770575f5ffd5b50565b5f813590506117818161175d565b92915050565b5f5ffd5b5f5ffd5b5f5f83601f8401126117a4576117a3611787565b5b8235905067ffffffffffffffff8111156117c1576117c061178b565b5b6020830191508360018202830111156117dd576117dc611729565b5b9250929050565b5f5f5f5f5f60c086880312156117fd576117fc6115ec565b5b5f61180a8882890161172d565b955050606061181b88828901611613565b945050608061182c88828901611773565b93505060a086013567ffffffffffffffff81111561184d5761184c6115f0565b5b6118598882890161178f565b92509250509295509295909350565b611871816115f4565b82525050565b5f60208201905061188a5f830184611868565b92915050565b5f73ffffffffffffffffffffffffffffffffffffffff82169050919050565b5f6118b982611890565b9050919050565b6118c9816118af565b82525050565b5f60039050919050565b5f81905092915050565b5f819050919050565b5f819050919050565b6118fe816118ec565b82525050565b5f61190f83836118f5565b60208301905092915050565b5f602082019050919050565b611930816118cf565b61193a81846118d9565b9250611945826118e3565b805f5b8381101561197557815161195c8782611904565b96506119678361191b565b925050600181019050611948565b505050505050565b6119868161174e565b82525050565b5f81519050919050565b5f82825260208201905092915050565b8281835e5f83830152505050565b5f601f19601f8301169050919050565b5f6119ce8261198c565b6119d88185611996565b93506119e88185602086016119a6565b6119f1816119b4565b840191505092915050565b5f61012082019050611a105f83018a6118c0565b611a1d6020830189611927565b611a2a6080830188611868565b611a3760a083018761197d565b611a4460c0830186611868565b611a5160e0830185611868565b818103610100830152611a6481846119c4565b905098975050505050505050565b5f602082019050611a855f8301846118c0565b92915050565b5f60208284031215611aa057611a9f6115ec565b5b5f611aad84828501611773565b91505092915050565b604082015f820151611aca5f85018261167b565b506020820151611add602085018261167b565b50505050565b5f8115159050919050565b611af781611ae3565b82525050565b5f60e082019050611b105f8301896118c0565b611b1d6020830188611868565b611b2a604083018761197d565b611b376060830186611ab6565b81810360a0830152611b4981856119c4565b9050611b5860c0830184611aee565b979650505050505050565b5f602082019050611b765f830184611aee565b92915050565b5f602082019050611b8f5f83018461197d565b92915050565b5f5f5f5f60a08587031215611bad57611bac6115ec565b5b5f611bba8782880161172d565b9450506060611bcb87828801611613565b935050608085013567ffffffffffffffff811115611bec57611beb6115f0565b5b611bf88782880161178f565b925092505092959194509250565b5f819050919050565b5f611c29611c24611c1f84611890565b611c06565b611890565b9050919050565b5f611c3a82611c0f565b9050919050565b5f611c4b82611c30565b9050919050565b611c5b81611c41565b82525050565b5f602082019050611c745f830184611c52565b92915050565b7f4e487b71000000000000000000000000000000000000000000000000000000005f52604160045260245ffd5b7f4e487b71000000000000000000000000000000000000000000000000000000005f52601160045260245ffd5b5f611cde826115f4565b9150611ce9836115f4565b9250828201905080821115611d0157611d00611ca7565b5b92915050565b7f4e487b71000000000000000000000000000000000000000000000000000000005f52603260045260245ffd5b5f611d3e826115f4565b91507fffffffffffffffffffffffffffffffffffffffffffffffffffffffffffffffff8203611d7057611d6f611ca7565b5b600182019050919050565b7f4e487b71000000000000000000000000000000000000000000000000000000005f52602260045260245ffd5b5f6002820490506001821680611dbf57607f821691505b602082108103611dd257611dd1611d7b565b5b50919050565b5f819050815f5260205f209050919050565b5f6020601f8301049050919050565b5f82821b905092915050565b5f60088302611e347fffffffffffffffffffffffffffffffffffffffffffffffffffffffffffffffff82611df9565b611e3e8683611df9565b95508019841693508086168417925050509392505050565b5f611e70611e6b611e66846115f4565b611c06565b6115f4565b9050919050565b5f819050919050565b611e8983611e56565b611e9d611e9582611e77565b848454611e05565b825550505050565b5f5f905090565b611eb4611ea5565b611ebf818484611e80565b505050565b5b81811015611ee257611ed75f82611eac565b600181019050611ec5565b5050565b601f821115611f2757611ef881611dd8565b611f0184611dea565b81016020851015611f10578190505b611f24611f1c85611dea565b830182611ec4565b50505b505050565b5f82821c905092915050565b5f611f475f1984600802611f2c565b1980831691505092915050565b5f611f5f8383611f38565b9150826002028217905092915050565b611f788261198c565b67ffffffffffffffff811115611f9157611f90611c7a565b5b611f9b8254611da8565b611fa6828285611ee6565b5f60209050601f831160018114611fd7575f8415611fc5578287015190505b611fcf8582611f54565b865550612036565b601f198416611fe586611dd8565b5f5b8281101561200c57848901518255600182019150602085019450602081019050611fe7565b868310156120295784890151612025601f891682611f38565b8355505b6001600288020188555050505b505050505050565b5f6060820190506120515f83018661197d565b61205e6020830185611868565b61206b6040830184611868565b949350505050565b7f62616420696400000000000000000000000000000000000000000000000000005f82015250565b5f6120a7600683611996565b91506120b282612073565b602082019050919050565b5f6020820190508181035f8301526120d48161209b565b9050919050565b7f4e487b71000000000000000000000000000000000000000000000000000000005f52601260045260245ffd5b5f612112826115f4565b915061211d836115f4565b92508261212d5761212c6120db565b5b828204905092915050565b7f616c72656164792066696e616c697a65640000000000000000000000000000005f82015250565b5f61216c601183611996565b915061217782612138565b602082019050919050565b5f6020820190508181035f83015261219981612160565b9050919050565b7f6e6f207375626d697373696f6e730000000000000000000000000000000000005f82015250565b5f6121d4600e83611996565b91506121df826121a0565b602082019050919050565b5f6020820190508181035f830152612201816121c8565b9050919050565b7f73756d4e756d3d300000000000000000000000000000000000000000000000005f82015250565b5f61223c600883611996565b915061224782612208565b602082019050919050565b5f6020820190508181035f83015261226981612230565b9050919050565b7f6167677265676174696f6e20505643206d69736d6174636800000000000000005f82015250565b5f6122a4601883611996565b91506122af82612270565b602082019050919050565b5f6020820190508181035f8301526122d181612298565b9050919050565b5f6122e2826115f4565b91506122ed836115f4565b92508282026122fb816115f4565b9150828204841483151761231257612311611ca7565b5b5092915050565b5f612323826115f4565b915061232e836115f4565b925082820390508181111561234657612345611ca7565b5b92915050565b5f60408201905061235f5f8301856118c0565b61236c6020830184611868565b9392505050565b61237c81611ae3565b8114612386575f5ffd5b50565b5f8151905061239781612373565b92915050565b5f602082840312156123b2576123b16115ec565b5b5f6123bf84828501612389565b91505092915050565b7f7472616e73666572206661696c656400000000000000000000000000000000005f82015250565b5f6123fc600f83611996565b9150612407826123c8565b602082019050919050565b5f6020820190508181035f830152612429816123f0565b9050919050565b5f81905092915050565b828183375f83830152505050565b5f6124538385612430565b935061246083858461243a565b82840190509392505050565b5f60039050919050565b5f81905092915050565b5f819050919050565b612492816118ec565b82525050565b5f6124a38383612489565b60208301905092915050565b6124b8816118ec565b81146124c2575f5ffd5b50565b5f813590506124d3816124af565b92915050565b5f6124e760208401846124c5565b905092915050565b5f602082019050919050565b6125048161246c565b61250e8184612476565b925061251982612480565b805f5b838110156125515761252e82846124d9565b6125388782612498565b9650612543836124ef565b92505060018101905061251c565b505050505050565b5f819050919050565b61257361256e826115f4565b612559565b82525050565b5f612585828789612448565b915061259182866124fb565b6060820191506125a18285612562565b6020820191506125b18284612562565b6020820191508190509695505050505050565b5f819050919050565b6125d6816125c4565b82525050565b5f6040820190506125ef5f8301856125cd565b6125fc6020830184611868565b9392505050565b5f61260d826115f4565b9150612618836115f4565b925082612628576126276120db565b5b828206905092915050565b5f61263d826118ec565b91507f8000000000000000000000000000000000000000000000000000000000000000820361266f5761266e611ca7565b5b815f039050919050565b7f6f7574206f662072616e676500000000000000000000000000000000000000005f82015250565b5f6126ad600c83611996565b91506126b882612679565b602082019050919050565b5f6020820190508181035f8301526126da816126a1565b905091905056fea2646970667358221220fdfe715e540e5b54afc494b0022c885e2733a832e426fcf8a5302e31e3b855ea64736f6c634300081e0033",
					"opcodes": "PUSH2 0x100 PUSH1 0x40 MSTORE CALLVALUE DUP1 ISZERO PUSH2 0x10 JUMPI PUSH0 PUSH0 REVERT JUMPDEST POP PUSH1 0x40 MLOAD PUSH2 0x2D7E CODESIZE SUB DUP1 PUSH2 0x2D7E DUP4 CODECOPY DUP2 DUP2 ADD PUSH1 0x40 MSTORE DUP2 ADD SWAP1 PUSH2 0x32 SWAP2 SWAP1 PUSH2 0x37B JUMP JUMPDEST PUSH0 PUSH20 0xFFFFFFFFFFFFFFFFFFFFFFFFFFFFFFFFFFFFFFFF AND DUP4 PUSH20 0xFFFFFFFFFFFFFFFFFFFFFFFFFFFFFFFFFFFFFFFF AND SUB PUSH2 0xA0 JUMPI PUSH1 0x40 MLOAD PUSH32 0x8C379A000000000000000000000000000000000000000000000000000000000 DUP2 MSTORE PUSH1 0x4 ADD PUSH2 0x97 SWAP1 PUSH2 0x425 JUMP JUMPDEST PUSH1 0x40 MLOAD DUP1 SWAP2 SUB SWAP1 REVERT JUMPDEST DUP3 PUSH20 0xFFFFFFFFFFFFFFFFFFFFFFFFFFFFFFFFFFFFFFFF AND PUSH1 0x80 DUP2 PUSH20 0xFFFFFFFFFFFFFFFFFFFFFFFFFFFFFFFFFFFFFFFF AND DUP2 MSTORE POP POP CALLER PUSH20 0xFFFFFFFFFFFFFFFFFFFFFFFFFFFFFFFFFFFFFFFF AND PUSH1 0xA0 DUP2 PUSH20 0xFFFFFFFFFFFFFFFFFFFFFFFFFFFFFFFFFFFFFFFF AND DUP2 MSTORE POP POP DUP1 PUSH4 0xFFFFFFFF AND PUSH1 0xE0 DUP2 PUSH4 0xFFFFFFFF AND DUP2 MSTORE POP POP DUP2 PUSH1 0x80 MLOAD PUSH20 0xFFFFFFFFFFFFFFFFFFFFFFFFFFFFFFFFFFFFFFFF AND PUSH4 0xDD62ED3E PUSH1 0xA0 MLOAD ADDRESS PUSH1 0x40 MLOAD DUP4 PUSH4 0xFFFFFFFF AND PUSH1 0xE0 SHL DUP2 MSTORE PUSH1 0x4 ADD PUSH2 0x15C SWAP3 SWAP2 SWAP1 PUSH2 0x452 JUMP JUMPDEST PUSH1 0x20 PUSH1 0x40 MLOAD DUP1 DUP4 SUB DUP2 DUP7 GAS STATICCALL ISZERO DUP1 ISZERO PUSH2 0x177 JUMPI RETURNDATASIZE PUSH0 PUSH0 RETURNDATACOPY RETURNDATASIZE PUSH0 REVERT JUMPDEST POP POP POP POP PUSH1 0x40 MLOAD RETURNDATASIZE PUSH1 0x1F NOT PUSH1 0x1F DUP3 ADD AND DUP3 ADD DUP1 PUSH1 0x40 MSTORE POP DUP2 ADD SWAP1 PUSH2 0x19B SWAP2 SWAP1 PUSH2 0x479 JUMP JUMPDEST LT ISZERO PUSH2 0x1DC JUMPI PUSH1 0x40 MLOAD PUSH32 0x8C379A000000000000000000000000000000000000000000000000000000000 DUP2 MSTORE PUSH1 0x4 ADD PUSH2 0x1D3 SWAP1 PUSH2 0x4EE JUMP JUMPDEST PUSH1 0x40 MLOAD DUP1 SWAP2 SUB SWAP1 REVERT JUMPDEST PUSH0 PUSH1 0x80 MLOAD PUSH20 0xFFFFFFFFFFFFFFFFFFFFFFFFFFFFFFFFFFFFFFFF AND PUSH4 0x23B872DD PUSH1 0xA0 MLOAD ADDRESS DUP7 PUSH1 0x40 MLOAD DUP5 PUSH4 0xFFFFFFFF AND PUSH1 0xE0 SHL DUP2 MSTORE PUSH1 0x4 ADD PUSH2 0x21E SWAP4 SWAP3 SWAP2 SWAP1 PUSH2 0x51B JUMP JUMPDEST PUSH1 0x20 PUSH1 0x40 MLOAD DUP1 DUP4 SUB DUP2 PUSH0 DUP8 GAS CALL ISZERO DUP1 ISZERO PUSH2 0x23A JUMPI RETURNDATASIZE PUSH0 PUSH0 RETURNDATACOPY RETURNDATASIZE PUSH0 REVERT JUMPDEST POP POP POP POP PUSH1 0x40 MLOAD RETURNDATASIZE PUSH1 0x1F NOT PUSH1 0x1F DUP3 ADD AND DUP3 ADD DUP1 PUSH1 0x40 MSTORE POP DUP2 ADD SWAP1 PUSH2 0x25E SWAP2 SWAP1 PUSH2 0x585 JUMP JUMPDEST SWAP1 POP DUP1 PUSH2 0x2A0 JUMPI PUSH1 0x40 MLOAD PUSH32 0x8C379A000000000000000000000000000000000000000000000000000000000 DUP2 MSTORE PUSH1 0x4 ADD PUSH2 0x297 SWAP1 PUSH2 0x5FA JUMP JUMPDEST PUSH1 0x40 MLOAD DUP1 SWAP2 SUB SWAP1 REVERT JUMPDEST DUP3 PUSH1 0xC0 DUP2 DUP2 MSTORE POP POP POP POP POP POP PUSH2 0x618 JUMP JUMPDEST PUSH0 PUSH0 REVERT JUMPDEST PUSH0 PUSH20 0xFFFFFFFFFFFFFFFFFFFFFFFFFFFFFFFFFFFFFFFF DUP3 AND SWAP1 POP SWAP2 SWAP1 POP JUMP JUMPDEST PUSH0 PUSH2 0x2DE DUP3 PUSH2 0x2B5 JUMP JUMPDEST SWAP1 POP SWAP2 SWAP1 POP JUMP JUMPDEST PUSH2 0x2EE DUP2 PUSH2 0x2D4 JUMP JUMPDEST DUP2 EQ PUSH2 0x2F8 JUMPI PUSH0 PUSH0 REVERT JUMPDEST POP JUMP JUMPDEST PUSH0 DUP2 MLOAD SWAP1 POP PUSH2 0x309 DUP2 PUSH2 0x2E5 JUMP JUMPDEST SWAP3 SWAP2 POP POP JUMP JUMPDEST PUSH0 DUP2 SWAP1 POP SWAP2 SWAP1 POP JUMP JUMPDEST PUSH2 0x321 DUP2 PUSH2 0x30F JUMP JUMPDEST DUP2 EQ PUSH2 0x32B JUMPI PUSH0 PUSH0 REVERT JUMPDEST POP JUMP JUMPDEST PUSH0 DUP2 MLOAD SWAP1 POP PUSH2 0x33C DUP2 PUSH2 0x318 JUMP JUMPDEST SWAP3 SWAP2 POP POP JUMP JUMPDEST PUSH0 PUSH4 0xFFFFFFFF DUP3 AND SWAP1 POP SWAP2 SWAP1 POP JUMP JUMPDEST PUSH2 0x35A DUP2 PUSH2 0x342 JUMP JUMPDEST DUP2 EQ PUSH2 0x364 JUMPI PUSH0 PUSH0 REVERT JUMPDEST POP JUMP JUMPDEST PUSH0 DUP2 MLOAD SWAP1 POP PUSH2 0x375 DUP2 PUSH2 0x351 JUMP JUMPDEST SWAP3 SWAP2 POP POP JUMP JUMPDEST PUSH0 PUSH0 PUSH0 PUSH1 0x60 DUP5 DUP7 SUB SLT ISZERO PUSH2 0x392 JUMPI PUSH2 0x391 PUSH2 0x2B1 JUMP JUMPDEST JUMPDEST PUSH0 PUSH2 0x39F DUP7 DUP3 DUP8 ADD PUSH2 0x2FB JUMP JUMPDEST SWAP4 POP POP PUSH1 0x20 PUSH2 0x3B0 DUP7 DUP3 DUP8 ADD PUSH2 0x32E JUMP JUMPDEST SWAP3 POP POP PUSH1 0x40 PUSH2 0x3C1 DUP7 DUP3 DUP8 ADD PUSH2 0x367 JUMP JUMPDEST SWAP2 POP POP SWAP3 POP SWAP3 POP SWAP3 JUMP JUMPDEST PUSH0 DUP3 DUP3 MSTORE PUSH1 0x20 DUP3 ADD SWAP1 POP SWAP3 SWAP2 POP POP JUMP JUMPDEST PUSH32 0x62616420746F6B656E0000000000000000000000000000000000000000000000 PUSH0 DUP3 ADD MSTORE POP JUMP JUMPDEST PUSH0 PUSH2 0x40F PUSH1 0x9 DUP4 PUSH2 0x3CB JUMP JUMPDEST SWAP2 POP PUSH2 0x41A DUP3 PUSH2 0x3DB JUMP JUMPDEST PUSH1 0x20 DUP3 ADD SWAP1 POP SWAP2 SWAP1 POP JUMP JUMPDEST PUSH0 PUSH1 0x20 DUP3 ADD SWAP1 POP DUP2 DUP2 SUB PUSH0 DUP4 ADD MSTORE PUSH2 0x43C DUP2 PUSH2 0x403 JUMP JUMPDEST SWAP1 POP SWAP2 SWAP1 POP JUMP JUMPDEST PUSH2 0x44C DUP2 PUSH2 0x2D4 JUMP JUMPDEST DUP3 MSTORE POP POP JUMP JUMPDEST PUSH0 PUSH1 0x40 DUP3 ADD SWAP1 POP PUSH2 0x465 PUSH0 DUP4 ADD DUP6 PUSH2 0x443 JUMP JUMPDEST PUSH2 0x472 PUSH1 0x20 DUP4 ADD DUP5 PUSH2 0x443 JUMP JUMPDEST SWAP4 SWAP3 POP POP POP JUMP JUMPDEST PUSH0 PUSH1 0x20 DUP3 DUP5 SUB SLT ISZERO PUSH2 0x48E JUMPI PUSH2 0x48D PUSH2 0x2B1 JUMP JUMPDEST JUMPDEST PUSH0 PUSH2 0x49B DUP5 DUP3 DUP6 ADD PUSH2 0x32E JUMP JUMPDEST SWAP2 POP POP SWAP3 SWAP2 POP POP JUMP JUMPDEST PUSH32 0x617070726F766520666972737400000000000000000000000000000000000000 PUSH0 DUP3 ADD MSTORE POP JUMP JUMPDEST PUSH0 PUSH2 0x4D8 PUSH1 0xD DUP4 PUSH2 0x3CB JUMP JUMPDEST SWAP2 POP PUSH2 0x4E3 DUP3 PUSH2 0x4A4 JUMP JUMPDEST PUSH1 0x20 DUP3 ADD SWAP1 POP SWAP2 SWAP1 POP JUMP JUMPDEST PUSH0 PUSH1 0x20 DUP3 ADD SWAP1 POP DUP2 DUP2 SUB PUSH0 DUP4 ADD MSTORE PUSH2 0x505 DUP2 PUSH2 0x4CC JUMP JUMPDEST SWAP1 POP SWAP2 SWAP1 POP JUMP JUMPDEST PUSH2 0x515 DUP2 PUSH2 0x30F JUMP JUMPDEST DUP3 MSTORE POP POP JUMP JUMPDEST PUSH0 PUSH1 0x60 DUP3 ADD SWAP1 POP PUSH2 0x52E PUSH0 DUP4 ADD DUP7 PUSH2 0x443 JUMP JUMPDEST PUSH2 0x53B PUSH1 0x20 DUP4 ADD DUP6 PUSH2 0x443 JUMP JUMPDEST PUSH2 0x548 PUSH1 0x40 DUP4 ADD DUP5 PUSH2 0x50C JUMP JUMPDEST SWAP5 SWAP4 POP POP POP POP JUMP JUMPDEST PUSH0 DUP2 ISZERO ISZERO SWAP1 POP SWAP2 SWAP1 POP JUMP JUMPDEST PUSH2 0x564 DUP2 PUSH2 0x550 JUMP JUMPDEST DUP2 EQ PUSH2 0x56E JUMPI PUSH0 PUSH0 REVERT JUMPDEST POP JUMP JUMPDEST PUSH0 DUP2 MLOAD SWAP1 POP PUSH2 0x57F DUP2 PUSH2 0x55B JUMP JUMPDEST SWAP3 SWAP2 POP POP JUMP JUMPDEST PUSH0 PUSH1 0x20 DUP3 DUP5 SUB SLT ISZERO PUSH2 0x59A JUMPI PUSH2 0x599 PUSH2 0x2B1 JUMP JUMPDEST JUMPDEST PUSH0 PUSH2 0x5A7 DUP5 DUP3 DUP6 ADD PUSH2 0x571 JUMP JUMPDEST SWAP2 POP POP SWAP3 SWAP2 POP POP JUMP JUMPDEST PUSH32 0x7472616E7366657246726F6D206661696C656400000000000000000000000000 PUSH0 DUP3 ADD MSTORE POP JUMP JUMPDEST PUSH0 PUSH2 0x5E4 PUSH1 0x13 DUP4 PUSH2 0x3CB JUMP JUMPDEST SWAP2 POP PUSH2 0x5EF DUP3 PUSH2 0x5B0 JUMP JUMPDEST PUSH1 0x20 DUP3 ADD SWAP1 POP SWAP2 SWAP1 POP JUMP JUMPDEST PUSH0 PUSH1 0x20 DUP3 ADD SWAP1 POP DUP2 DUP2 SUB PUSH0 DUP4 ADD MSTORE PUSH2 0x611 DUP2 PUSH2 0x5D8 JUMP JUMPDEST SWAP1 POP SWAP2 SWAP1 POP JUMP JUMPDEST PUSH1 0x80 MLOAD PUSH1 0xA0 MLOAD PUSH1 0xC0 MLOAD PUSH1 0xE0 MLOAD PUSH2 0x2717 PUSH2 0x667 PUSH0 CODECOPY PUSH0 DUP2 DUP2 PUSH2 0x955 ADD MSTORE PUSH2 0xB10 ADD MSTORE PUSH0 DUP2 DUP2 PUSH2 0x9C5 ADD MSTORE DUP2 DUP2 PUSH2 0xD60 ADD MSTORE PUSH2 0xDF0 ADD MSTORE PUSH0 PUSH2 0x92A ADD MSTORE PUSH0 DUP2 DUP2 PUSH2 0xE3D ADD MSTORE PUSH2 0x105B ADD MSTORE PUSH2 0x2717 PUSH0 RETURN INVALID PUSH1 0x80 PUSH1 0x40 MSTORE CALLVALUE DUP1 ISZERO PUSH2 0xF JUMPI PUSH0 PUSH0 REVERT JUMPDEST POP PUSH1 0x4 CALLDATASIZE LT PUSH2 0xF3 JUMPI PUSH0 CALLDATALOAD PUSH1 0xE0 SHR DUP1 PUSH4 0xA3954016 GT PUSH2 0x95 JUMPI DUP1 PUSH4 0xBE7A078D GT PUSH2 0x64 JUMPI DUP1 PUSH4 0xBE7A078D EQ PUSH2 0x2B8 JUMPI DUP1 PUSH4 0xCCDAB78C EQ PUSH2 0x2D6 JUMPI DUP1 PUSH4 0xDEFE80EF EQ PUSH2 0x2F2 JUMPI DUP1 PUSH4 0xFC0C546A EQ PUSH2 0x310 JUMPI PUSH2 0xF3 JUMP JUMPDEST DUP1 PUSH4 0xA3954016 EQ PUSH2 0x229 JUMPI DUP1 PUSH4 0xA693600B EQ PUSH2 0x247 JUMPI DUP1 PUSH4 0xAD73349E EQ PUSH2 0x265 JUMPI DUP1 PUSH4 0xB3F05B97 EQ PUSH2 0x29A JUMPI PUSH2 0xF3 JUMP JUMPDEST DUP1 PUSH4 0x61203265 GT PUSH2 0xD1 JUMPI DUP1 PUSH4 0x61203265 EQ PUSH2 0x18D JUMPI DUP1 PUSH4 0x6EC02BE9 EQ PUSH2 0x1AB JUMPI DUP1 PUSH4 0x93956B7B EQ PUSH2 0x1C9 JUMPI DUP1 PUSH4 0x9A409C32 EQ PUSH2 0x1F9 JUMPI PUSH2 0xF3 JUMP JUMPDEST DUP1 PUSH4 0x37CAA8B6 EQ PUSH2 0xF7 JUMPI DUP1 PUSH4 0x3988146F EQ PUSH2 0x127 JUMPI DUP1 PUSH4 0x3E8686CC EQ PUSH2 0x157 JUMPI JUMPDEST PUSH0 PUSH0 REVERT JUMPDEST PUSH2 0x111 PUSH1 0x4 DUP1 CALLDATASIZE SUB DUP2 ADD SWAP1 PUSH2 0x10C SWAP2 SWAP1 PUSH2 0x1627 JUMP JUMPDEST PUSH2 0x32E JUMP JUMPDEST PUSH1 0x40 MLOAD PUSH2 0x11E SWAP2 SWAP1 PUSH2 0x1709 JUMP JUMPDEST PUSH1 0x40 MLOAD DUP1 SWAP2 SUB SWAP1 RETURN JUMPDEST PUSH2 0x141 PUSH1 0x4 DUP1 CALLDATASIZE SUB DUP2 ADD SWAP1 PUSH2 0x13C SWAP2 SWAP1 PUSH2 0x17E4 JUMP JUMPDEST PUSH2 0x50B JUMP JUMPDEST PUSH1 0x40 MLOAD PUSH2 0x14E SWAP2 SWAP1 PUSH2 0x1877 JUMP JUMPDEST PUSH1 0x40 MLOAD DUP1 SWAP2 SUB SWAP1 RETURN JUMPDEST PUSH2 0x171 PUSH1 0x4 DUP1 CALLDATASIZE SUB DUP2 ADD SWAP1 PUSH2 0x16C SWAP2 SWAP1 PUSH2 0x1627 JUMP JUMPDEST PUSH2 0x785 JUMP JUMPDEST PUSH1 0x40 MLOAD PUSH2 0x184 SWAP8 SWAP7 SWAP6 SWAP5 SWAP4 SWAP3 SWAP2 SWAP1 PUSH2 0x19FC JUMP JUMPDEST PUSH1 0x40 MLOAD DUP1 SWAP2 SUB SWAP1 RETURN JUMPDEST PUSH2 0x195 PUSH2 0x928 JUMP JUMPDEST PUSH1 0x40 MLOAD PUSH2 0x1A2 SWAP2 SWAP1 PUSH2 0x1A72 JUMP JUMPDEST PUSH1 0x40 MLOAD DUP1 SWAP2 SUB SWAP1 RETURN JUMPDEST PUSH2 0x1B3 PUSH2 0x94C JUMP JUMPDEST PUSH1 0x40 MLOAD PUSH2 0x1C0 SWAP2 SWAP1 PUSH2 0x1877 JUMP JUMPDEST PUSH1 0x40 MLOAD DUP1 SWAP2 SUB SWAP1 RETURN JUMPDEST PUSH2 0x1E3 PUSH1 0x4 DUP1 CALLDATASIZE SUB DUP2 ADD SWAP1 PUSH2 0x1DE SWAP2 SWAP1 PUSH2 0x1A8B JUMP JUMPDEST PUSH2 0x951 JUMP JUMPDEST PUSH1 0x40 MLOAD PUSH2 0x1F0 SWAP2 SWAP1 PUSH2 0x1877 JUMP JUMPDEST PUSH1 0x40 MLOAD DUP1 SWAP2 SUB SWAP1 RETURN JUMPDEST PUSH2 0x213 PUSH1 0x4 DUP1 CALLDATASIZE SUB DUP2 ADD SWAP1 PUSH2 0x20E SWAP2 SWAP1 PUSH2 0x1A8B JUMP JUMPDEST PUSH2 0x9B2 JUMP JUMPDEST PUSH1 0x40 MLOAD PUSH2 0x220 SWAP2 SWAP1 PUSH2 0x1877 JUMP JUMPDEST PUSH1 0x40 MLOAD DUP1 SWAP2 SUB SWAP1 RETURN JUMPDEST PUSH2 0x231 PUSH2 0x9BB JUMP JUMPDEST PUSH1 0x40 MLOAD PUSH2 0x23E SWAP2 SWAP1 PUSH2 0x1877 JUMP JUMPDEST PUSH1 0x40 MLOAD DUP1 SWAP2 SUB SWAP1 RETURN JUMPDEST PUSH2 0x24F PUSH2 0x9C3 JUMP JUMPDEST PUSH1 0x40 MLOAD PUSH2 0x25C SWAP2 SWAP1 PUSH2 0x1877 JUMP JUMPDEST PUSH1 0x40 MLOAD DUP1 SWAP2 SUB SWAP1 RETURN JUMPDEST PUSH2 0x27F PUSH1 0x4 DUP1 CALLDATASIZE SUB DUP2 ADD SWAP1 PUSH2 0x27A SWAP2 SWAP1 PUSH2 0x1627 JUMP JUMPDEST PUSH2 0x9E7 JUMP JUMPDEST PUSH1 0x40 MLOAD PUSH2 0x291 SWAP7 SWAP6 SWAP5 SWAP4 SWAP3 SWAP2 SWAP1 PUSH2 0x1AFD JUMP JUMPDEST PUSH1 0x40 MLOAD DUP1 SWAP2 SUB SWAP1 RETURN JUMPDEST PUSH2 0x2A2 PUSH2 0xAFC JUMP JUMPDEST PUSH1 0x40 MLOAD PUSH2 0x2AF SWAP2 SWAP1 PUSH2 0x1B63 JUMP JUMPDEST PUSH1 0x40 MLOAD DUP1 SWAP2 SUB SWAP1 RETURN JUMPDEST PUSH2 0x2C0 PUSH2 0xB0E JUMP JUMPDEST PUSH1 0x40 MLOAD PUSH2 0x2CD SWAP2 SWAP1 PUSH2 0x1B7C JUMP JUMPDEST PUSH1 0x40 MLOAD DUP1 SWAP2 SUB SWAP1 RETURN JUMPDEST PUSH2 0x2F0 PUSH1 0x4 DUP1 CALLDATASIZE SUB DUP2 ADD SWAP1 PUSH2 0x2EB SWAP2 SWAP1 PUSH2 0x1B95 JUMP JUMPDEST PUSH2 0xB32 JUMP JUMPDEST STOP JUMPDEST PUSH2 0x2FA PUSH2 0x1050 JUMP JUMPDEST PUSH1 0x40 MLOAD PUSH2 0x307 SWAP2 SWAP1 PUSH2 0x1877 JUMP JUMPDEST PUSH1 0x40 MLOAD DUP1 SWAP2 SUB SWAP1 RETURN JUMPDEST PUSH2 0x318 PUSH2 0x1059 JUMP JUMPDEST PUSH1 0x40 MLOAD PUSH2 0x325 SWAP2 SWAP1 PUSH2 0x1C61 JUMP JUMPDEST PUSH1 0x40 MLOAD DUP1 SWAP2 SUB SWAP1 RETURN JUMPDEST PUSH1 0x60 PUSH0 SLOAD DUP3 GT ISZERO PUSH2 0x33E JUMPI PUSH0 SLOAD SWAP2 POP JUMPDEST DUP2 PUSH8 0xFFFFFFFFFFFFFFFF DUP2 GT ISZERO PUSH2 0x358 JUMPI PUSH2 0x357 PUSH2 0x1C7A JUMP JUMPDEST JUMPDEST PUSH1 0x40 MLOAD SWAP1 DUP1 DUP3 MSTORE DUP1 PUSH1 0x20 MUL PUSH1 0x20 ADD DUP3 ADD PUSH1 0x40 MSTORE DUP1 ISZERO PUSH2 0x386 JUMPI DUP2 PUSH1 0x20 ADD PUSH1 0x20 DUP3 MUL DUP1 CALLDATASIZE DUP4 CALLDATACOPY DUP1 DUP3 ADD SWAP2 POP POP SWAP1 POP JUMPDEST POP SWAP1 POP PUSH0 PUSH1 0x1 PUSH0 SLOAD PUSH2 0x398 SWAP2 SWAP1 PUSH2 0x1CD4 JUMP JUMPDEST PUSH8 0xFFFFFFFFFFFFFFFF DUP2 GT ISZERO PUSH2 0x3B1 JUMPI PUSH2 0x3B0 PUSH2 0x1C7A JUMP JUMPDEST JUMPDEST PUSH1 0x40 MLOAD SWAP1 DUP1 DUP3 MSTORE DUP1 PUSH1 0x20 MUL PUSH1 0x20 ADD DUP3 ADD PUSH1 0x40 MSTORE DUP1 ISZERO PUSH2 0x3DF JUMPI DUP2 PUSH1 0x20 ADD PUSH1 0x20 DUP3 MUL DUP1 CALLDATASIZE DUP4 CALLDATACOPY DUP1 DUP3 ADD SWAP2 POP POP SWAP1 POP JUMPDEST POP SWAP1 POP PUSH0 PUSH0 SWAP1 POP JUMPDEST DUP4 DUP2 LT ISZERO PUSH2 0x504 JUMPI PUSH0 PUSH4 0xFFFFFFFF SWAP1 POP PUSH0 PUSH0 SWAP1 POP PUSH0 PUSH1 0x1 SWAP1 POP JUMPDEST PUSH0 SLOAD DUP2 GT PUSH2 0x4AD JUMPI DUP5 DUP2 DUP2 MLOAD DUP2 LT PUSH2 0x41C JUMPI PUSH2 0x41B PUSH2 0x1D07 JUMP JUMPDEST JUMPDEST PUSH1 0x20 MUL PUSH1 0x20 ADD ADD MLOAD PUSH2 0x49A JUMPI PUSH0 PUSH1 0x1 PUSH0 DUP4 DUP2 MSTORE PUSH1 0x20 ADD SWAP1 DUP2 MSTORE PUSH1 0x20 ADD PUSH0 KECCAK256 SWAP1 POP DUP1 PUSH1 0x9 ADD PUSH0 SWAP1 SLOAD SWAP1 PUSH2 0x100 EXP SWAP1 DIV PUSH1 0xFF AND PUSH2 0x457 JUMPI POP PUSH2 0x49A JUMP JUMPDEST DUP4 PUSH4 0xFFFFFFFF AND DUP2 PUSH1 0x5 ADD PUSH0 SWAP1 SLOAD SWAP1 PUSH2 0x100 EXP SWAP1 DIV PUSH4 0xFFFFFFFF AND PUSH4 0xFFFFFFFF AND LT ISZERO PUSH2 0x498 JUMPI DUP1 PUSH1 0x5 ADD PUSH0 SWAP1 SLOAD SWAP1 PUSH2 0x100 EXP SWAP1 DIV PUSH4 0xFFFFFFFF AND SWAP4 POP DUP2 SWAP3 POP JUMPDEST POP JUMPDEST DUP1 DUP1 PUSH2 0x4A5 SWAP1 PUSH2 0x1D34 JUMP JUMPDEST SWAP2 POP POP PUSH2 0x401 JUMP JUMPDEST POP PUSH1 0x1 DUP5 DUP3 DUP2 MLOAD DUP2 LT PUSH2 0x4C3 JUMPI PUSH2 0x4C2 PUSH2 0x1D07 JUMP JUMPDEST JUMPDEST PUSH1 0x20 MUL PUSH1 0x20 ADD ADD SWAP1 ISZERO ISZERO SWAP1 DUP2 ISZERO ISZERO DUP2 MSTORE POP POP DUP1 DUP6 DUP5 DUP2 MLOAD DUP2 LT PUSH2 0x4E9 JUMPI PUSH2 0x4E8 PUSH2 0x1D07 JUMP JUMPDEST JUMPDEST PUSH1 0x20 MUL PUSH1 0x20 ADD ADD DUP2 DUP2 MSTORE POP POP POP POP DUP1 DUP1 PUSH1 0x1 ADD SWAP2 POP POP PUSH2 0x3E7 JUMP JUMPDEST POP POP SWAP2 SWAP1 POP JUMP JUMPDEST PUSH0 PUSH0 PUSH2 0x54D DUP8 PUSH1 0x3 DUP1 PUSH1 0x20 MUL PUSH1 0x40 MLOAD SWAP1 DUP2 ADD PUSH1 0x40 MSTORE DUP1 SWAP3 SWAP2 SWAP1 DUP3 PUSH1 0x3 PUSH1 0x20 MUL DUP1 DUP3 DUP5 CALLDATACOPY PUSH0 DUP2 DUP5 ADD MSTORE PUSH1 0x1F NOT PUSH1 0x1F DUP3 ADD AND SWAP1 POP DUP1 DUP4 ADD SWAP3 POP POP POP POP POP POP DUP8 PUSH2 0x107D JUMP JUMPDEST SWAP1 POP PUSH0 PUSH0 DUP2 SLOAD PUSH2 0x55C SWAP1 PUSH2 0x1D34 JUMP JUMPDEST SWAP2 SWAP1 POP DUP2 SWAP1 SSTORE SWAP2 POP PUSH1 0x40 MLOAD DUP1 PUSH1 0xE0 ADD PUSH1 0x40 MSTORE DUP1 CALLER PUSH20 0xFFFFFFFFFFFFFFFFFFFFFFFFFFFFFFFFFFFFFFFF AND DUP2 MSTORE PUSH1 0x20 ADD DUP9 PUSH1 0x3 DUP1 PUSH1 0x20 MUL PUSH1 0x40 MLOAD SWAP1 DUP2 ADD PUSH1 0x40 MSTORE DUP1 SWAP3 SWAP2 SWAP1 DUP3 PUSH1 0x3 PUSH1 0x20 MUL DUP1 DUP3 DUP5 CALLDATACOPY PUSH0 DUP2 DUP5 ADD MSTORE PUSH1 0x1F NOT PUSH1 0x1F DUP3 ADD AND SWAP1 POP DUP1 DUP4 ADD SWAP3 POP POP POP POP POP POP DUP2 MSTORE PUSH1 0x20 ADD DUP8 DUP2 MSTORE PUSH1 0x20 ADD DUP7 PUSH4 0xFFFFFFFF AND DUP2 MSTORE PUSH1 0x20 ADD DUP3 DUP2 MSTORE PUSH1 0x20 ADD DUP6 DUP6 DUP1 DUP1 PUSH1 0x1F ADD PUSH1 0x20 DUP1 SWAP2 DIV MUL PUSH1 0x20 ADD PUSH1 0x40 MLOAD SWAP1 DUP2 ADD PUSH1 0x40 MSTORE DUP1 SWAP4 SWAP3 SWAP2 SWAP1 DUP2 DUP2 MSTORE PUSH1 0x20 ADD DUP4 DUP4 DUP1 DUP3 DUP5 CALLDATACOPY PUSH0 DUP2 DUP5 ADD MSTORE PUSH1 0x1F NOT PUSH1 0x1F DUP3 ADD AND SWAP1 POP DUP1 DUP4 ADD SWAP3 POP POP POP POP POP POP POP DUP2 MSTORE PUSH1 0x20 ADD PUSH1 0x1 ISZERO ISZERO DUP2 MSTORE POP PUSH1 0x1 PUSH0 DUP5 DUP2 MSTORE PUSH1 0x20 ADD SWAP1 DUP2 MSTORE PUSH1 0x20 ADD PUSH0 KECCAK256 PUSH0 DUP3 ADD MLOAD DUP2 PUSH0 ADD PUSH0 PUSH2 0x100 EXP DUP2 SLOAD DUP2 PUSH20 0xFFFFFFFFFFFFFFFFFFFFFFFFFFFFFFFFFFFFFFFF MUL NOT AND SWAP1 DUP4 PUSH20 0xFFFFFFFFFFFFFFFFFFFFFFFFFFFFFFFFFFFFFFFF AND MUL OR SWAP1 SSTORE POP PUSH1 0x20 DUP3 ADD MLOAD DUP2 PUSH1 0x1 ADD SWAP1 PUSH1 0x3 PUSH2 0x69B SWAP3 SWAP2 SWAP1 PUSH2 0x1535 JUMP JUMPDEST POP PUSH1 0x40 DUP3 ADD MLOAD DUP2 PUSH1 0x4 ADD SSTORE PUSH1 0x60 DUP3 ADD MLOAD DUP2 PUSH1 0x5 ADD PUSH0 PUSH2 0x100 EXP DUP2 SLOAD DUP2 PUSH4 0xFFFFFFFF MUL NOT AND SWAP1 DUP4 PUSH4 0xFFFFFFFF AND MUL OR SWAP1 SSTORE POP PUSH1 0x80 DUP3 ADD MLOAD DUP2 PUSH1 0x6 ADD PUSH0 DUP3 ADD MLOAD DUP2 PUSH0 ADD SSTORE PUSH1 0x20 DUP3 ADD MLOAD DUP2 PUSH1 0x1 ADD SSTORE POP POP PUSH1 0xA0 DUP3 ADD MLOAD DUP2 PUSH1 0x8 ADD SWAP1 DUP2 PUSH2 0x6FE SWAP2 SWAP1 PUSH2 0x1F6F JUMP JUMPDEST POP PUSH1 0xC0 DUP3 ADD MLOAD DUP2 PUSH1 0x9 ADD PUSH0 PUSH2 0x100 EXP DUP2 SLOAD DUP2 PUSH1 0xFF MUL NOT AND SWAP1 DUP4 ISZERO ISZERO MUL OR SWAP1 SSTORE POP SWAP1 POP POP CALLER PUSH20 0xFFFFFFFFFFFFFFFFFFFFFFFFFFFFFFFFFFFFFFFF AND DUP3 PUSH32 0xC9A7ACC6A55C72B2A45BF3FC2C99685D9A14729ABC4A6B9FFA1C73A7A0810B8A DUP8 DUP5 PUSH0 ADD MLOAD DUP6 PUSH1 0x20 ADD MLOAD PUSH1 0x40 MLOAD PUSH2 0x773 SWAP4 SWAP3 SWAP2 SWAP1 PUSH2 0x203E JUMP JUMPDEST PUSH1 0x40 MLOAD DUP1 SWAP2 SUB SWAP1 LOG3 POP SWAP6 SWAP5 POP POP POP POP POP JUMP JUMPDEST PUSH0 PUSH2 0x78E PUSH2 0x1575 JUMP JUMPDEST PUSH0 PUSH0 PUSH0 PUSH0 PUSH1 0x60 PUSH0 PUSH1 0x1 PUSH0 DUP11 DUP2 MSTORE PUSH1 0x20 ADD SWAP1 DUP2 MSTORE PUSH1 0x20 ADD PUSH0 KECCAK256 SWAP1 POP DUP1 PUSH1 0x9 ADD PUSH0 SWAP1 SLOAD SWAP1 PUSH2 0x100 EXP SWAP1 DIV PUSH1 0xFF AND PUSH2 0x7F8 JUMPI PUSH1 0x40 MLOAD PUSH32 0x8C379A000000000000000000000000000000000000000000000000000000000 DUP2 MSTORE PUSH1 0x4 ADD PUSH2 0x7EF SWAP1 PUSH2 0x20BD JUMP JUMPDEST PUSH1 0x40 MLOAD DUP1 SWAP2 SUB SWAP1 REVERT JUMPDEST DUP1 PUSH0 ADD PUSH0 SWAP1 SLOAD SWAP1 PUSH2 0x100 EXP SWAP1 DIV PUSH20 0xFFFFFFFFFFFFFFFFFFFFFFFFFFFFFFFFFFFFFFFF AND SWAP8 POP DUP1 PUSH1 0x1 ADD PUSH1 0x3 DUP1 PUSH1 0x20 MUL PUSH1 0x40 MLOAD SWAP1 DUP2 ADD PUSH1 0x40 MSTORE DUP1 SWAP3 SWAP2 SWAP1 DUP3 PUSH1 0x3 DUP1 ISZERO PUSH2 0x858 JUMPI PUSH1 0x20 MUL DUP3 ADD SWAP2 JUMPDEST DUP2 SLOAD DUP2 MSTORE PUSH1 0x20 ADD SWAP1 PUSH1 0x1 ADD SWAP1 DUP1 DUP4 GT PUSH2 0x844 JUMPI JUMPDEST POP POP POP POP POP SWAP7 POP DUP1 PUSH1 0x4 ADD SLOAD SWAP6 POP DUP1 PUSH1 0x5 ADD PUSH0 SWAP1 SLOAD SWAP1 PUSH2 0x100 EXP SWAP1 DIV PUSH4 0xFFFFFFFF AND SWAP5 POP DUP1 PUSH1 0x6 ADD PUSH0 ADD SLOAD SWAP4 POP DUP1 PUSH1 0x6 ADD PUSH1 0x1 ADD SLOAD SWAP3 POP DUP1 PUSH1 0x8 ADD DUP1 SLOAD PUSH2 0x89E SWAP1 PUSH2 0x1DA8 JUMP JUMPDEST DUP1 PUSH1 0x1F ADD PUSH1 0x20 DUP1 SWAP2 DIV MUL PUSH1 0x20 ADD PUSH1 0x40 MLOAD SWAP1 DUP2 ADD PUSH1 0x40 MSTORE DUP1 SWAP3 SWAP2 SWAP1 DUP2 DUP2 MSTORE PUSH1 0x20 ADD DUP3 DUP1 SLOAD PUSH2 0x8CA SWAP1 PUSH2 0x1DA8 JUMP JUMPDEST DUP1 ISZERO PUSH2 0x915 JUMPI DUP1 PUSH1 0x1F LT PUSH2 0x8EC JUMPI PUSH2 0x100 DUP1 DUP4 SLOAD DIV MUL DUP4 MSTORE SWAP2 PUSH1 0x20 ADD SWAP2 PUSH2 0x915 JUMP JUMPDEST DUP3 ADD SWAP2 SWAP1 PUSH0 MSTORE PUSH1 0x20 PUSH0 KECCAK256 SWAP1 JUMPDEST DUP2 SLOAD DUP2 MSTORE SWAP1 PUSH1 0x1 ADD SWAP1 PUSH1 0x20 ADD DUP1 DUP4 GT PUSH2 0x8F8 JUMPI DUP3 SWAP1 SUB PUSH1 0x1F AND DUP3 ADD SWAP2 JUMPDEST POP POP POP POP POP SWAP2 POP POP SWAP2 SWAP4 SWAP6 SWAP8 SWAP1 SWAP3 SWAP5 SWAP7 POP JUMP JUMPDEST PUSH32 0x0 DUP2 JUMP JUMPDEST PUSH0 SLOAD DUP2 JUMP JUMPDEST PUSH0 PUSH0 PUSH32 0x0 PUSH4 0xFFFFFFFF AND DUP4 PUSH4 0xFFFFFFFF AND PUSH2 0x98B SWAP2 SWAP1 PUSH2 0x1CD4 JUMP JUMPDEST SWAP1 POP PUSH0 DUP2 SUB PUSH2 0x999 JUMPI PUSH1 0x1 SWAP1 POP JUMPDEST DUP1 PUSH5 0xE8D4A51000 PUSH2 0x9AA SWAP2 SWAP1 PUSH2 0x2108 JUMP JUMPDEST SWAP2 POP POP SWAP2 SWAP1 POP JUMP JUMPDEST PUSH0 PUSH0 SWAP1 POP SWAP2 SWAP1 POP JUMP JUMPDEST PUSH0 PUSH0 SLOAD SWAP1 POP SWAP1 JUMP JUMPDEST PUSH32 0x0 DUP2 JUMP JUMPDEST PUSH1 0x1 PUSH1 0x20 MSTORE DUP1 PUSH0 MSTORE PUSH1 0x40 PUSH0 KECCAK256 PUSH0 SWAP2 POP SWAP1 POP DUP1 PUSH0 ADD PUSH0 SWAP1 SLOAD SWAP1 PUSH2 0x100 EXP SWAP1 DIV PUSH20 0xFFFFFFFFFFFFFFFFFFFFFFFFFFFFFFFFFFFFFFFF AND SWAP1 DUP1 PUSH1 0x4 ADD SLOAD SWAP1 DUP1 PUSH1 0x5 ADD PUSH0 SWAP1 SLOAD SWAP1 PUSH2 0x100 EXP SWAP1 DIV PUSH4 0xFFFFFFFF AND SWAP1 DUP1 PUSH1 0x6 ADD PUSH1 0x40 MLOAD DUP1 PUSH1 0x40 ADD PUSH1 0x40 MSTORE SWAP1 DUP2 PUSH0 DUP3 ADD SLOAD DUP2 MSTORE PUSH1 0x20 ADD PUSH1 0x1 DUP3 ADD SLOAD DUP2 MSTORE POP POP SWAP1 DUP1 PUSH1 0x8 ADD DUP1 SLOAD PUSH2 0xA69 SWAP1 PUSH2 0x1DA8 JUMP JUMPDEST DUP1 PUSH1 0x1F ADD PUSH1 0x20 DUP1 SWAP2 DIV MUL PUSH1 0x20 ADD PUSH1 0x40 MLOAD SWAP1 DUP2 ADD PUSH1 0x40 MSTORE DUP1 SWAP3 SWAP2 SWAP1 DUP2 DUP2 MSTORE PUSH1 0x20 ADD DUP3 DUP1 SLOAD PUSH2 0xA95 SWAP1 PUSH2 0x1DA8 JUMP JUMPDEST DUP1 ISZERO PUSH2 0xAE0 JUMPI DUP1 PUSH1 0x1F LT PUSH2 0xAB7 JUMPI PUSH2 0x100 DUP1 DUP4 SLOAD DIV MUL DUP4 MSTORE SWAP2 PUSH1 0x20 ADD SWAP2 PUSH2 0xAE0 JUMP JUMPDEST DUP3 ADD SWAP2 SWAP1 PUSH0 MSTORE PUSH1 0x20 PUSH0 KECCAK256 SWAP1 JUMPDEST DUP2 SLOAD DUP2 MSTORE SWAP1 PUSH1 0x1 ADD SWAP1 PUSH1 0x20 ADD DUP1 DUP4 GT PUSH2 0xAC3 JUMPI DUP3 SWAP1 SUB PUSH1 0x1F AND DUP3 ADD SWAP2 JUMPDEST POP POP POP POP POP SWAP1 DUP1 PUSH1 0x9 ADD PUSH0 SWAP1 SLOAD SWAP1 PUSH2 0x100 EXP SWAP1 DIV PUSH1 0xFF AND SWAP1 POP DUP7 JUMP JUMPDEST PUSH1 0x2 PUSH0 SWAP1 SLOAD SWAP1 PUSH2 0x100 EXP SWAP1 DIV PUSH1 0xFF AND DUP2 JUMP JUMPDEST PUSH32 0x0 DUP2 JUMP JUMPDEST PUSH1 0x2 PUSH0 SWAP1 SLOAD SWAP1 PUSH2 0x100 EXP SWAP1 DIV PUSH1 0xFF AND ISZERO PUSH2 0xB81 JUMPI PUSH1 0x40 MLOAD PUSH32 0x8C379A000000000000000000000000000000000000000000000000000000000 DUP2 MSTORE PUSH1 0x4 ADD PUSH2 0xB78 SWAP1 PUSH2 0x2182 JUMP JUMPDEST PUSH1 0x40 MLOAD DUP1 SWAP2 SUB SWAP1 REVERT JUMPDEST PUSH0 PUSH0 SLOAD GT PUSH2 0xBC4 JUMPI PUSH1 0x40 MLOAD PUSH32 0x8C379A000000000000000000000000000000000000000000000000000000000 DUP2 MSTORE PUSH1 0x4 ADD PUSH2 0xBBB SWAP1 PUSH2 0x21EA JUMP JUMPDEST PUSH1 0x40 MLOAD DUP1 SWAP2 SUB SWAP1 REVERT JUMPDEST PUSH0 PUSH2 0xBCD PUSH2 0x118F JUMP JUMPDEST SWAP1 POP PUSH0 PUSH0 SWAP1 POP PUSH0 PUSH1 0x1 SWAP1 POP JUMPDEST PUSH0 SLOAD DUP2 GT PUSH2 0xC8E JUMPI PUSH0 PUSH1 0x1 PUSH0 DUP4 DUP2 MSTORE PUSH1 0x20 ADD SWAP1 DUP2 MSTORE PUSH1 0x20 ADD PUSH0 KECCAK256 SWAP1 POP DUP1 PUSH1 0x9 ADD PUSH0 SWAP1 SLOAD SWAP1 PUSH2 0x100 EXP SWAP1 DIV PUSH1 0xFF AND PUSH2 0xC10 JUMPI POP PUSH2 0xC7B JUMP JUMPDEST PUSH0 PUSH2 0xC2D DUP3 PUSH1 0x5 ADD PUSH0 SWAP1 SLOAD SWAP1 PUSH2 0x100 EXP SWAP1 DIV PUSH4 0xFFFFFFFF AND PUSH2 0x951 JUMP JUMPDEST SWAP1 POP DUP1 DUP5 PUSH2 0xC3B SWAP2 SWAP1 PUSH2 0x1CD4 JUMP JUMPDEST SWAP4 POP PUSH0 PUSH2 0xC69 DUP4 PUSH1 0x6 ADD PUSH1 0x40 MLOAD DUP1 PUSH1 0x40 ADD PUSH1 0x40 MSTORE SWAP1 DUP2 PUSH0 DUP3 ADD SLOAD DUP2 MSTORE PUSH1 0x20 ADD PUSH1 0x1 DUP3 ADD SLOAD DUP2 MSTORE POP POP DUP4 PUSH2 0x11B1 JUMP JUMPDEST SWAP1 POP PUSH2 0xC75 DUP7 DUP3 PUSH2 0x1242 JUMP JUMPDEST SWAP6 POP POP POP POP JUMPDEST DUP1 DUP1 PUSH2 0xC86 SWAP1 PUSH2 0x1D34 JUMP JUMPDEST SWAP2 POP POP PUSH2 0xBD9 JUMP JUMPDEST POP PUSH0 DUP2 GT PUSH2 0xCD1 JUMPI PUSH1 0x40 MLOAD PUSH32 0x8C379A000000000000000000000000000000000000000000000000000000000 DUP2 MSTORE PUSH1 0x4 ADD PUSH2 0xCC8 SWAP1 PUSH2 0x2252 JUMP JUMPDEST PUSH1 0x40 MLOAD DUP1 SWAP2 SUB SWAP1 REVERT JUMPDEST PUSH0 PUSH2 0xD12 DUP8 PUSH1 0x3 DUP1 PUSH1 0x20 MUL PUSH1 0x40 MLOAD SWAP1 DUP2 ADD PUSH1 0x40 MSTORE DUP1 SWAP3 SWAP2 SWAP1 DUP3 PUSH1 0x3 PUSH1 0x20 MUL DUP1 DUP3 DUP5 CALLDATACOPY PUSH0 DUP2 DUP5 ADD MSTORE PUSH1 0x1F NOT PUSH1 0x1F DUP3 ADD AND SWAP1 POP DUP1 DUP4 ADD SWAP3 POP POP POP POP POP POP DUP8 PUSH2 0x107D JUMP JUMPDEST SWAP1 POP PUSH2 0xD1E DUP2 DUP5 PUSH2 0x1289 JUMP JUMPDEST PUSH2 0xD5D JUMPI PUSH1 0x40 MLOAD PUSH32 0x8C379A000000000000000000000000000000000000000000000000000000000 DUP2 MSTORE PUSH1 0x4 ADD PUSH2 0xD54 SWAP1 PUSH2 0x22BA JUMP JUMPDEST PUSH1 0x40 MLOAD DUP1 SWAP2 SUB SWAP1 REVERT JUMPDEST PUSH0 PUSH32 0x0 SWAP1 POP PUSH0 PUSH1 0x1 SWAP1 POP JUMPDEST PUSH0 SLOAD DUP2 GT PUSH2 0xFBF JUMPI PUSH0 PUSH1 0x1 PUSH0 DUP4 DUP2 MSTORE PUSH1 0x20 ADD SWAP1 DUP2 MSTORE PUSH1 0x20 ADD PUSH0 KECCAK256 SWAP1 POP DUP1 PUSH1 0x9 ADD PUSH0 SWAP1 SLOAD SWAP1 PUSH2 0x100 EXP SWAP1 DIV PUSH1 0xFF AND PUSH2 0xDBE JUMPI POP PUSH2 0xFAC JUMP JUMPDEST PUSH0 PUSH2 0xDDB DUP3 PUSH1 0x5 ADD PUSH0 SWAP1 SLOAD SWAP1 PUSH2 0x100 EXP SWAP1 DIV PUSH4 0xFFFFFFFF AND PUSH2 0x951 JUMP JUMPDEST SWAP1 POP PUSH0 DUP2 SUB PUSH2 0xDEB JUMPI POP POP PUSH2 0xFAC JUMP JUMPDEST PUSH0 DUP7 DUP3 PUSH32 0x0 PUSH2 0xE19 SWAP2 SWAP1 PUSH2 0x22D8 JUMP JUMPDEST PUSH2 0xE23 SWAP2 SWAP1 PUSH2 0x2108 JUMP JUMPDEST SWAP1 POP PUSH0 DUP2 GT ISZERO PUSH2 0xFA8 JUMPI DUP1 DUP6 PUSH2 0xE39 SWAP2 SWAP1 PUSH2 0x2319 JUMP JUMPDEST SWAP5 POP PUSH32 0x0 PUSH20 0xFFFFFFFFFFFFFFFFFFFFFFFFFFFFFFFFFFFFFFFF AND PUSH4 0xA9059CBB DUP5 PUSH0 ADD PUSH0 SWAP1 SLOAD SWAP1 PUSH2 0x100 EXP SWAP1 DIV PUSH20 0xFFFFFFFFFFFFFFFFFFFFFFFFFFFFFFFFFFFFFFFF AND DUP4 PUSH1 0x40 MLOAD DUP4 PUSH4 0xFFFFFFFF AND PUSH1 0xE0 SHL DUP2 MSTORE PUSH1 0x4 ADD PUSH2 0xEB8 SWAP3 SWAP2 SWAP1 PUSH2 0x234C JUMP JUMPDEST PUSH1 0x20 PUSH1 0x40 MLOAD DUP1 DUP4 SUB DUP2 PUSH0 DUP8 GAS CALL ISZERO DUP1 ISZERO PUSH2 0xED4 JUMPI RETURNDATASIZE PUSH0 PUSH0 RETURNDATACOPY RETURNDATASIZE PUSH0 REVERT JUMPDEST POP POP POP POP PUSH1 0x40 MLOAD RETURNDATASIZE PUSH1 0x1F NOT PUSH1 0x1F DUP3 ADD AND DUP3 ADD DUP1 PUSH1 0x40 MSTORE POP DUP2 ADD SWAP1 PUSH2 0xEF8 SWAP2 SWAP1 PUSH2 0x239D JUMP JUMPDEST PUSH2 0xF37 JUMPI PUSH1 0x40 MLOAD PUSH32 0x8C379A000000000000000000000000000000000000000000000000000000000 DUP2 MSTORE PUSH1 0x4 ADD PUSH2 0xF2E SWAP1 PUSH2 0x2412 JUMP JUMPDEST PUSH1 0x40 MLOAD DUP1 SWAP2 SUB SWAP1 REVERT JUMPDEST DUP3 PUSH0 ADD PUSH0 SWAP1 SLOAD SWAP1 PUSH2 0x100 EXP SWAP1 DIV PUSH20 0xFFFFFFFFFFFFFFFFFFFFFFFFFFFFFFFFFFFFFFFF AND PUSH20 0xFFFFFFFFFFFFFFFFFFFFFFFFFFFFFFFFFFFFFFFF AND PUSH32 0x737C69225D647E5994EAB1A6C301BF6D9232BEB2759AE1E27A8966B4732BC489 DUP3 PUSH1 0x40 MLOAD PUSH2 0xF9F SWAP2 SWAP1 PUSH2 0x1877 JUMP JUMPDEST PUSH1 0x40 MLOAD DUP1 SWAP2 SUB SWAP1 LOG2 JUMPDEST POP POP POP JUMPDEST DUP1 DUP1 PUSH2 0xFB7 SWAP1 PUSH2 0x1D34 JUMP JUMPDEST SWAP2 POP POP PUSH2 0xD87 JUMP JUMPDEST POP PUSH1 0x1 PUSH1 0x2 PUSH0 PUSH2 0x100 EXP DUP2 SLOAD DUP2 PUSH1 0xFF MUL NOT AND SWAP1 DUP4 ISZERO ISZERO MUL OR SWAP1 SSTORE POP PUSH0 DUP7 DUP7 DUP11 DUP11 DUP8 PUSH1 0x40 MLOAD PUSH1 0x20 ADD PUSH2 0xFF4 SWAP6 SWAP5 SWAP4 SWAP3 SWAP2 SWAP1 PUSH2 0x2579 JUMP JUMPDEST PUSH1 0x40 MLOAD PUSH1 0x20 DUP2 DUP4 SUB SUB DUP2 MSTORE SWAP1 PUSH1 0x40 MSTORE DUP1 MLOAD SWAP1 PUSH1 0x20 ADD KECCAK256 SWAP1 POP PUSH32 0xD827B005BF57A7BC26451FA8C853AB1BACA77E3409A05E7232A55E635385E756 DUP2 DUP6 PUSH1 0x40 MLOAD PUSH2 0x103D SWAP3 SWAP2 SWAP1 PUSH2 0x25DC JUMP JUMPDEST PUSH1 0x40 MLOAD DUP1 SWAP2 SUB SWAP1 LOG1 POP POP POP POP POP POP POP POP POP JUMP JUMPDEST PUSH5 0xE8D4A51000 DUP2 JUMP JUMPDEST PUSH32 0x0 DUP2 JUMP JUMPDEST PUSH2 0x1085 PUSH2 0x1597 JUMP JUMPDEST PUSH2 0x108D PUSH2 0x118F JUMP JUMPDEST SWAP1 POP PUSH2 0x1097 PUSH2 0x1597 JUMP JUMPDEST PUSH0 PUSH2 0x10B8 DUP6 PUSH0 PUSH1 0x3 DUP2 LT PUSH2 0x10AE JUMPI PUSH2 0x10AD PUSH2 0x1D07 JUMP JUMPDEST JUMPDEST PUSH1 0x20 MUL ADD MLOAD PUSH2 0x12AE JUMP JUMPDEST SWAP1 POP PUSH2 0x10CC PUSH2 0x10C6 PUSH0 PUSH2 0x1366 JUMP JUMPDEST DUP3 PUSH2 0x11B1 JUMP JUMPDEST SWAP2 POP PUSH2 0x10D8 DUP4 DUP4 PUSH2 0x1242 JUMP JUMPDEST SWAP3 POP PUSH0 PUSH2 0x10FC DUP7 PUSH1 0x1 PUSH1 0x3 DUP2 LT PUSH2 0x10F2 JUMPI PUSH2 0x10F1 PUSH2 0x1D07 JUMP JUMPDEST JUMPDEST PUSH1 0x20 MUL ADD MLOAD PUSH2 0x12AE JUMP JUMPDEST SWAP1 POP PUSH2 0x1111 PUSH2 0x110B PUSH1 0x1 PUSH2 0x1366 JUMP JUMPDEST DUP3 PUSH2 0x11B1 JUMP JUMPDEST SWAP3 POP PUSH2 0x111D DUP5 DUP5 PUSH2 0x1242 JUMP JUMPDEST SWAP4 POP PUSH0 PUSH2 0x1141 DUP8 PUSH1 0x2 PUSH1 0x3 DUP2 LT PUSH2 0x1137 JUMPI PUSH2 0x1136 PUSH2 0x1D07 JUMP JUMPDEST JUMPDEST PUSH1 0x20 MUL ADD MLOAD PUSH2 0x12AE JUMP JUMPDEST SWAP1 POP PUSH2 0x1156 PUSH2 0x1150 PUSH1 0x2 PUSH2 0x1366 JUMP JUMPDEST DUP3 PUSH2 0x11B1 JUMP JUMPDEST SWAP4 POP PUSH2 0x1162 DUP6 DUP6 PUSH2 0x1242 JUMP JUMPDEST SWAP5 POP PUSH0 PUSH2 0x1176 PUSH2 0x1170 PUSH2 0x13F2 JUMP JUMPDEST DUP9 PUSH2 0x11B1 JUMP JUMPDEST SWAP1 POP PUSH2 0x1182 DUP7 DUP3 PUSH2 0x1242 JUMP JUMPDEST SWAP6 POP POP POP POP POP POP SWAP3 SWAP2 POP POP JUMP JUMPDEST PUSH2 0x1197 PUSH2 0x1597 JUMP JUMPDEST PUSH1 0x40 MLOAD DUP1 PUSH1 0x40 ADD PUSH1 0x40 MSTORE DUP1 PUSH0 DUP2 MSTORE PUSH1 0x20 ADD PUSH0 DUP2 MSTORE POP SWAP1 POP SWAP1 JUMP JUMPDEST PUSH2 0x11B9 PUSH2 0x1597 JUMP JUMPDEST PUSH0 PUSH1 0x40 MLOAD DUP1 PUSH1 0x60 ADD PUSH1 0x40 MSTORE DUP1 DUP6 PUSH0 ADD MLOAD DUP2 MSTORE PUSH1 0x20 ADD DUP6 PUSH1 0x20 ADD MLOAD DUP2 MSTORE PUSH1 0x20 ADD DUP5 DUP2 MSTORE POP SWAP1 POP PUSH2 0x11E6 PUSH2 0x15AF JUMP JUMPDEST PUSH1 0x40 DUP2 PUSH1 0x60 DUP5 PUSH1 0x7 GAS STATICCALL PUSH2 0x11F8 JUMPI PUSH0 PUSH0 REVERT JUMPDEST DUP1 PUSH0 PUSH1 0x2 DUP2 LT PUSH2 0x120B JUMPI PUSH2 0x120A PUSH2 0x1D07 JUMP JUMPDEST JUMPDEST PUSH1 0x20 MUL ADD MLOAD DUP4 PUSH0 ADD DUP2 DUP2 MSTORE POP POP DUP1 PUSH1 0x1 PUSH1 0x2 DUP2 LT PUSH2 0x122C JUMPI PUSH2 0x122B PUSH2 0x1D07 JUMP JUMPDEST JUMPDEST PUSH1 0x20 MUL ADD MLOAD DUP4 PUSH1 0x20 ADD DUP2 DUP2 MSTORE POP POP POP POP SWAP3 SWAP2 POP POP JUMP JUMPDEST PUSH2 0x124A PUSH2 0x1597 JUMP JUMPDEST PUSH2 0x1253 DUP4 PUSH2 0x1414 JUMP JUMPDEST ISZERO PUSH2 0x1260 JUMPI DUP2 SWAP1 POP PUSH2 0x1283 JUMP JUMPDEST PUSH2 0x1269 DUP3 PUSH2 0x1414 JUMP JUMPDEST ISZERO PUSH2 0x1276 JUMPI DUP3 SWAP1 POP PUSH2 0x1283 JUMP JUMPDEST PUSH2 0x1280 DUP4 DUP4 PUSH2 0x1431 JUMP JUMPDEST SWAP1 POP JUMPDEST SWAP3 SWAP2 POP POP JUMP JUMPDEST PUSH0 DUP2 PUSH0 ADD MLOAD DUP4 PUSH0 ADD MLOAD EQ DUP1 ISZERO PUSH2 0x12A6 JUMPI POP DUP2 PUSH1 0x20 ADD MLOAD DUP4 PUSH1 0x20 ADD MLOAD EQ JUMPDEST SWAP1 POP SWAP3 SWAP2 POP POP JUMP JUMPDEST PUSH0 PUSH0 DUP3 SLT PUSH2 0x12E9 JUMPI PUSH32 0x30644E72E131A029B85045B68181585D2833E84879B9709143E1F593F0000001 DUP3 PUSH2 0x12E2 SWAP2 SWAP1 PUSH2 0x2603 JUMP JUMPDEST SWAP1 POP PUSH2 0x1361 JUMP JUMPDEST PUSH0 PUSH32 0x30644E72E131A029B85045B68181585D2833E84879B9709143E1F593F0000001 DUP4 PUSH2 0x1315 SWAP1 PUSH2 0x2633 JUMP JUMPDEST PUSH2 0x131F SWAP2 SWAP1 PUSH2 0x2603 JUMP JUMPDEST SWAP1 POP PUSH0 DUP2 SUB PUSH2 0x1331 JUMPI PUSH0 SWAP2 POP POP PUSH2 0x1361 JUMP JUMPDEST DUP1 PUSH32 0x30644E72E131A029B85045B68181585D2833E84879B9709143E1F593F0000001 PUSH2 0x135D SWAP2 SWAP1 PUSH2 0x2319 JUMP JUMPDEST SWAP2 POP POP JUMPDEST SWAP2 SWAP1 POP JUMP JUMPDEST PUSH2 0x136E PUSH2 0x1597 JUMP JUMPDEST PUSH0 DUP3 SUB PUSH2 0x1384 JUMPI PUSH2 0x137D PUSH2 0x14CF JUMP JUMPDEST SWAP1 POP PUSH2 0x13ED JUMP JUMPDEST PUSH1 0x1 DUP3 SUB PUSH2 0x139B JUMPI PUSH2 0x1394 PUSH2 0x14F1 JUMP JUMPDEST SWAP1 POP PUSH2 0x13ED JUMP JUMPDEST PUSH1 0x2 DUP3 SUB PUSH2 0x13B2 JUMPI PUSH2 0x13AB PUSH2 0x1513 JUMP JUMPDEST SWAP1 POP PUSH2 0x13ED JUMP JUMPDEST PUSH1 0x40 MLOAD PUSH32 0x8C379A000000000000000000000000000000000000000000000000000000000 DUP2 MSTORE PUSH1 0x4 ADD PUSH2 0x13E4 SWAP1 PUSH2 0x26C3 JUMP JUMPDEST PUSH1 0x40 MLOAD DUP1 SWAP2 SUB SWAP1 REVERT JUMPDEST SWAP2 SWAP1 POP JUMP JUMPDEST PUSH2 0x13FA PUSH2 0x1597 JUMP JUMPDEST PUSH1 0x40 MLOAD DUP1 PUSH1 0x40 ADD PUSH1 0x40 MSTORE DUP1 PUSH0 DUP2 MSTORE PUSH1 0x20 ADD PUSH0 DUP2 MSTORE POP SWAP1 POP SWAP1 JUMP JUMPDEST PUSH0 PUSH0 DUP3 PUSH0 ADD MLOAD EQ DUP1 ISZERO PUSH2 0x142A JUMPI POP PUSH0 DUP3 PUSH1 0x20 ADD MLOAD EQ JUMPDEST SWAP1 POP SWAP2 SWAP1 POP JUMP JUMPDEST PUSH2 0x1439 PUSH2 0x1597 JUMP JUMPDEST PUSH0 PUSH1 0x40 MLOAD DUP1 PUSH1 0x80 ADD PUSH1 0x40 MSTORE DUP1 DUP6 PUSH0 ADD MLOAD DUP2 MSTORE PUSH1 0x20 ADD DUP6 PUSH1 0x20 ADD MLOAD DUP2 MSTORE PUSH1 0x20 ADD DUP5 PUSH0 ADD MLOAD DUP2 MSTORE PUSH1 0x20 ADD DUP5 PUSH1 0x20 ADD MLOAD DUP2 MSTORE POP SWAP1 POP PUSH2 0x1473 PUSH2 0x15AF JUMP JUMPDEST PUSH1 0x40 DUP2 PUSH1 0x80 DUP5 PUSH1 0x6 GAS STATICCALL PUSH2 0x1485 JUMPI PUSH0 PUSH0 REVERT JUMPDEST DUP1 PUSH0 PUSH1 0x2 DUP2 LT PUSH2 0x1498 JUMPI PUSH2 0x1497 PUSH2 0x1D07 JUMP JUMPDEST JUMPDEST PUSH1 0x20 MUL ADD MLOAD DUP4 PUSH0 ADD DUP2 DUP2 MSTORE POP POP DUP1 PUSH1 0x1 PUSH1 0x2 DUP2 LT PUSH2 0x14B9 JUMPI PUSH2 0x14B8 PUSH2 0x1D07 JUMP JUMPDEST JUMPDEST PUSH1 0x20 MUL ADD MLOAD DUP4 PUSH1 0x20 ADD DUP2 DUP2 MSTORE POP POP POP POP SWAP3 SWAP2 POP POP JUMP JUMPDEST PUSH2 0x14D7 PUSH2 0x1597 JUMP JUMPDEST PUSH1 0x40 MLOAD DUP1 PUSH1 0x40 ADD PUSH1 0x40 MSTORE DUP1 PUSH0 DUP2 MSTORE PUSH1 0x20 ADD PUSH0 DUP2 MSTORE POP SWAP1 POP SWAP1 JUMP JUMPDEST PUSH2 0x14F9 PUSH2 0x1597 JUMP JUMPDEST PUSH1 0x40 MLOAD DUP1 PUSH1 0x40 ADD PUSH1 0x40 MSTORE DUP1 PUSH0 DUP2 MSTORE PUSH1 0x20 ADD PUSH0 DUP2 MSTORE POP SWAP1 POP SWAP1 JUMP JUMPDEST PUSH2 0x151B PUSH2 0x1597 JUMP JUMPDEST PUSH1 0x40 MLOAD DUP1 PUSH1 0x40 ADD PUSH1 0x40 MSTORE DUP1 PUSH0 DUP2 MSTORE PUSH1 0x20 ADD PUSH0 DUP2 MSTORE POP SWAP1 POP SWAP1 JUMP JUMPDEST DUP3 PUSH1 0x3 DUP2 ADD SWAP3 DUP3 ISZERO PUSH2 0x1564 JUMPI SWAP2 PUSH1 0x20 MUL DUP3 ADD JUMPDEST DUP3 DUP2 GT ISZERO PUSH2 0x1563 JUMPI DUP3 MLOAD DUP3 SSTORE SWAP2 PUSH1 0x20 ADD SWAP2 SWAP1 PUSH1 0x1 ADD SWAP1 PUSH2 0x1548 JUMP JUMPDEST JUMPDEST POP SWAP1 POP PUSH2 0x1571 SWAP2 SWAP1 PUSH2 0x15D1 JUMP JUMPDEST POP SWAP1 JUMP JUMPDEST PUSH1 0x40 MLOAD DUP1 PUSH1 0x60 ADD PUSH1 0x40 MSTORE DUP1 PUSH1 0x3 SWAP1 PUSH1 0x20 DUP3 MUL DUP1 CALLDATASIZE DUP4 CALLDATACOPY DUP1 DUP3 ADD SWAP2 POP POP SWAP1 POP POP SWAP1 JUMP JUMPDEST PUSH1 0x40 MLOAD DUP1 PUSH1 0x40 ADD PUSH1 0x40 MSTORE DUP1 PUSH0 DUP2 MSTORE PUSH1 0x20 ADD PUSH0 DUP2 MSTORE POP SWAP1 JUMP JUMPDEST PUSH1 0x40 MLOAD DUP1 PUSH1 0x40 ADD PUSH1 0x40 MSTORE DUP1 PUSH1 0x2 SWAP1 PUSH1 0x20 DUP3 MUL DUP1 CALLDATASIZE DUP4 CALLDATACOPY DUP1 DUP3 ADD SWAP2 POP POP SWAP1 POP POP SWAP1 JUMP JUMPDEST JUMPDEST DUP1 DUP3 GT ISZERO PUSH2 0x15E8 JUMPI PUSH0 DUP2 PUSH0 SWAP1 SSTORE POP PUSH1 0x1 ADD PUSH2 0x15D2 JUMP JUMPDEST POP SWAP1 JUMP JUMPDEST PUSH0 PUSH0 REVERT JUMPDEST PUSH0 PUSH0 REVERT JUMPDEST PUSH0 DUP2 SWAP1 POP SWAP2 SWAP1 POP JUMP JUMPDEST PUSH2 0x1606 DUP2 PUSH2 0x15F4 JUMP JUMPDEST DUP2 EQ PUSH2 0x1610 JUMPI PUSH0 PUSH0 REVERT JUMPDEST POP JUMP JUMPDEST PUSH0 DUP2 CALLDATALOAD SWAP1 POP PUSH2 0x1621 DUP2 PUSH2 0x15FD JUMP JUMPDEST SWAP3 SWAP2 POP POP JUMP JUMPDEST PUSH0 PUSH1 0x20 DUP3 DUP5 SUB SLT ISZERO PUSH2 0x163C JUMPI PUSH2 0x163B PUSH2 0x15EC JUMP JUMPDEST JUMPDEST PUSH0 PUSH2 0x1649 DUP5 DUP3 DUP6 ADD PUSH2 0x1613 JUMP JUMPDEST SWAP2 POP POP SWAP3 SWAP2 POP POP JUMP JUMPDEST PUSH0 DUP2 MLOAD SWAP1 POP SWAP2 SWAP1 POP JUMP JUMPDEST PUSH0 DUP3 DUP3 MSTORE PUSH1 0x20 DUP3 ADD SWAP1 POP SWAP3 SWAP2 POP POP JUMP JUMPDEST PUSH0 DUP2 SWAP1 POP PUSH1 0x20 DUP3 ADD SWAP1 POP SWAP2 SWAP1 POP JUMP JUMPDEST PUSH2 0x1684 DUP2 PUSH2 0x15F4 JUMP JUMPDEST DUP3 MSTORE POP POP JUMP JUMPDEST PUSH0 PUSH2 0x1695 DUP4 DUP4 PUSH2 0x167B JUMP JUMPDEST PUSH1 0x20 DUP4 ADD SWAP1 POP SWAP3 SWAP2 POP POP JUMP JUMPDEST PUSH0 PUSH1 0x20 DUP3 ADD SWAP1 POP SWAP2 SWAP1 POP JUMP JUMPDEST PUSH0 PUSH2 0x16B7 DUP3 PUSH2 0x1652 JUMP JUMPDEST PUSH2 0x16C1 DUP2 DUP6 PUSH2 0x165C JUMP JUMPDEST SWAP4 POP PUSH2 0x16CC DUP4 PUSH2 0x166C JUMP JUMPDEST DUP1 PUSH0 JUMPDEST DUP4 DUP2 LT ISZERO PUSH2 0x16FC JUMPI DUP2 MLOAD PUSH2 0x16E3 DUP9 DUP3 PUSH2 0x168A JUMP JUMPDEST SWAP8 POP PUSH2 0x16EE DUP4 PUSH2 0x16A1 JUMP JUMPDEST SWAP3 POP POP PUSH1 0x1 DUP2 ADD SWAP1 POP PUSH2 0x16CF JUMP JUMPDEST POP DUP6 SWAP4 POP POP POP POP SWAP3 SWAP2 POP POP JUMP JUMPDEST PUSH0 PUSH1 0x20 DUP3 ADD SWAP1 POP DUP2 DUP2 SUB PUSH0 DUP4 ADD MSTORE PUSH2 0x1721 DUP2 DUP5 PUSH2 0x16AD JUMP JUMPDEST SWAP1 POP SWAP3 SWAP2 POP POP JUMP JUMPDEST PUSH0 PUSH0 REVERT JUMPDEST PUSH0 DUP2 SWAP1 POP DUP3 PUSH1 0x20 PUSH1 0x3 MUL DUP3 ADD GT ISZERO PUSH2 0x1748 JUMPI PUSH2 0x1747 PUSH2 0x1729 JUMP JUMPDEST JUMPDEST SWAP3 SWAP2 POP POP JUMP JUMPDEST PUSH0 PUSH4 0xFFFFFFFF DUP3 AND SWAP1 POP SWAP2 SWAP1 POP JUMP JUMPDEST PUSH2 0x1766 DUP2 PUSH2 0x174E JUMP JUMPDEST DUP2 EQ PUSH2 0x1770 JUMPI PUSH0 PUSH0 REVERT JUMPDEST POP JUMP JUMPDEST PUSH0 DUP2 CALLDATALOAD SWAP1 POP PUSH2 0x1781 DUP2 PUSH2 0x175D JUMP JUMPDEST SWAP3 SWAP2 POP POP JUMP JUMPDEST PUSH0 PUSH0 REVERT JUMPDEST PUSH0 PUSH0 REVERT JUMPDEST PUSH0 PUSH0 DUP4 PUSH1 0x1F DUP5 ADD SLT PUSH2 0x17A4 JUMPI PUSH2 0x17A3 PUSH2 0x1787 JUMP JUMPDEST JUMPDEST DUP3 CALLDATALOAD SWAP1 POP PUSH8 0xFFFFFFFFFFFFFFFF DUP2 GT ISZERO PUSH2 0x17C1 JUMPI PUSH2 0x17C0 PUSH2 0x178B JUMP JUMPDEST JUMPDEST PUSH1 0x20 DUP4 ADD SWAP2 POP DUP4 PUSH1 0x1 DUP3 MUL DUP4 ADD GT ISZERO PUSH2 0x17DD JUMPI PUSH2 0x17DC PUSH2 0x1729 JUMP JUMPDEST JUMPDEST SWAP3 POP SWAP3 SWAP1 POP JUMP JUMPDEST PUSH0 PUSH0 PUSH0 PUSH0 PUSH0 PUSH1 0xC0 DUP7 DUP9 SUB SLT ISZERO PUSH2 0x17FD JUMPI PUSH2 0x17FC PUSH2 0x15EC JUMP JUMPDEST JUMPDEST PUSH0 PUSH2 0x180A DUP9 DUP3 DUP10 ADD PUSH2 0x172D JUMP JUMPDEST SWAP6 POP POP PUSH1 0x60 PUSH2 0x181B DUP9 DUP3 DUP10 ADD PUSH2 0x1613 JUMP JUMPDEST SWAP5 POP POP PUSH1 0x80 PUSH2 0x182C DUP9 DUP3 DUP10 ADD PUSH2 0x1773 JUMP JUMPDEST SWAP4 POP POP PUSH1 0xA0 DUP7 ADD CALLDATALOAD PUSH8 0xFFFFFFFFFFFFFFFF DUP2 GT ISZERO PUSH2 0x184D JUMPI PUSH2 0x184C PUSH2 0x15F0 JUMP JUMPDEST JUMPDEST PUSH2 0x1859 DUP9 DUP3 DUP10 ADD PUSH2 0x178F JUMP JUMPDEST SWAP3 POP SWAP3 POP POP SWAP3 SWAP6 POP SWAP3 SWAP6 SWAP1 SWAP4 POP JUMP JUMPDEST PUSH2 0x1871 DUP2 PUSH2 0x15F4 JUMP JUMPDEST DUP3 MSTORE POP POP JUMP JUMPDEST PUSH0 PUSH1 0x20 DUP3 ADD SWAP1 POP PUSH2 0x188A PUSH0 DUP4 ADD DUP5 PUSH2 0x1868 JUMP JUMPDEST SWAP3 SWAP2 POP POP JUMP JUMPDEST PUSH0 PUSH20 0xFFFFFFFFFFFFFFFFFFFFFFFFFFFFFFFFFFFFFFFF DUP3 AND SWAP1 POP SWAP2 SWAP1 POP JUMP JUMPDEST PUSH0 PUSH2 0x18B9 DUP3 PUSH2 0x1890 JUMP JUMPDEST SWAP1 POP SWAP2 SWAP1 POP JUMP JUMPDEST PUSH2 0x18C9 DUP2 PUSH2 0x18AF JUMP JUMPDEST DUP3 MSTORE POP POP JUMP JUMPDEST PUSH0 PUSH1 0x3 SWAP1 POP SWAP2 SWAP1 POP JUMP JUMPDEST PUSH0 DUP2 SWAP1 POP SWAP3 SWAP2 POP POP JUMP JUMPDEST PUSH0 DUP2 SWAP1 POP SWAP2 SWAP1 POP JUMP JUMPDEST PUSH0 DUP2 SWAP1 POP SWAP2 SWAP1 POP JUMP JUMPDEST PUSH2 0x18FE DUP2 PUSH2 0x18EC JUMP JUMPDEST DUP3 MSTORE POP POP JUMP JUMPDEST PUSH0 PUSH2 0x190F DUP4 DUP4 PUSH2 0x18F5 JUMP JUMPDEST PUSH1 0x20 DUP4 ADD SWAP1 POP SWAP3 SWAP2 POP POP JUMP JUMPDEST PUSH0 PUSH1 0x20 DUP3 ADD SWAP1 POP SWAP2 SWAP1 POP JUMP JUMPDEST PUSH2 0x1930 DUP2 PUSH2 0x18CF JUMP JUMPDEST PUSH2 0x193A DUP2 DUP5 PUSH2 0x18D9 JUMP JUMPDEST SWAP3 POP PUSH2 0x1945 DUP3 PUSH2 0x18E3 JUMP JUMPDEST DUP1 PUSH0 JUMPDEST DUP4 DUP2 LT ISZERO PUSH2 0x1975 JUMPI DUP2 MLOAD PUSH2 0x195C DUP8 DUP3 PUSH2 0x1904 JUMP JUMPDEST SWAP7 POP PUSH2 0x1967 DUP4 PUSH2 0x191B JUMP JUMPDEST SWAP3 POP POP PUSH1 0x1 DUP2 ADD SWAP1 POP PUSH2 0x1948 JUMP JUMPDEST POP POP POP POP POP POP JUMP JUMPDEST PUSH2 0x1986 DUP2 PUSH2 0x174E JUMP JUMPDEST DUP3 MSTORE POP POP JUMP JUMPDEST PUSH0 DUP2 MLOAD SWAP1 POP SWAP2 SWAP1 POP JUMP JUMPDEST PUSH0 DUP3 DUP3 MSTORE PUSH1 0x20 DUP3 ADD SWAP1 POP SWAP3 SWAP2 POP POP JUMP JUMPDEST DUP3 DUP2 DUP4 MCOPY PUSH0 DUP4 DUP4 ADD MSTORE POP POP POP JUMP JUMPDEST PUSH0 PUSH1 0x1F NOT PUSH1 0x1F DUP4 ADD AND SWAP1 POP SWAP2 SWAP1 POP JUMP JUMPDEST PUSH0 PUSH2 0x19CE DUP3 PUSH2 0x198C JUMP JUMPDEST PUSH2 0x19D8 DUP2 DUP6 PUSH2 0x1996 JUMP JUMPDEST SWAP4 POP PUSH2 0x19E8 DUP2 DUP6 PUSH1 0x20 DUP7 ADD PUSH2 0x19A6 JUMP JUMPDEST PUSH2 0x19F1 DUP2 PUSH2 0x19B4 JUMP JUMPDEST DUP5 ADD SWAP2 POP POP SWAP3 SWAP2 POP POP JUMP JUMPDEST PUSH0 PUSH2 0x120 DUP3 ADD SWAP1 POP PUSH2 0x1A10 PUSH0 DUP4 ADD DUP11 PUSH2 0x18C0 JUMP JUMPDEST PUSH2 0x1A1D PUSH1 0x20 DUP4 ADD DUP10 PUSH2 0x1927 JUMP JUMPDEST PUSH2 0x1A2A PUSH1 0x80 DUP4 ADD DUP9 PUSH2 0x1868 JUMP JUMPDEST PUSH2 0x1A37 PUSH1 0xA0 DUP4 ADD DUP8 PUSH2 0x197D JUMP JUMPDEST PUSH2 0x1A44 PUSH1 0xC0 DUP4 ADD DUP7 PUSH2 0x1868 JUMP JUMPDEST PUSH2 0x1A51 PUSH1 0xE0 DUP4 ADD DUP6 PUSH2 0x1868 JUMP JUMPDEST DUP2 DUP2 SUB PUSH2 0x100 DUP4 ADD MSTORE PUSH2 0x1A64 DUP2 DUP5 PUSH2 0x19C4 JUMP JUMPDEST SWAP1 POP SWAP9 SWAP8 POP POP POP POP POP POP POP POP JUMP JUMPDEST PUSH0 PUSH1 0x20 DUP3 ADD SWAP1 POP PUSH2 0x1A85 PUSH0 DUP4 ADD DUP5 PUSH2 0x18C0 JUMP JUMPDEST SWAP3 SWAP2 POP POP JUMP JUMPDEST PUSH0 PUSH1 0x20 DUP3 DUP5 SUB SLT ISZERO PUSH2 0x1AA0 JUMPI PUSH2 0x1A9F PUSH2 0x15EC JUMP JUMPDEST JUMPDEST PUSH0 PUSH2 0x1AAD DUP5 DUP3 DUP6 ADD PUSH2 0x1773 JUMP JUMPDEST SWAP2 POP POP SWAP3 SWAP2 POP POP JUMP JUMPDEST PUSH1 0x40 DUP3 ADD PUSH0 DUP3 ADD MLOAD PUSH2 0x1ACA PUSH0 DUP6 ADD DUP3 PUSH2 0x167B JUMP JUMPDEST POP PUSH1 0x20 DUP3 ADD MLOAD PUSH2 0x1ADD PUSH1 0x20 DUP6 ADD DUP3 PUSH2 0x167B JUMP JUMPDEST POP POP POP POP JUMP JUMPDEST PUSH0 DUP2 ISZERO ISZERO SWAP1 POP SWAP2 SWAP1 POP JUMP JUMPDEST PUSH2 0x1AF7 DUP2 PUSH2 0x1AE3 JUMP JUMPDEST DUP3 MSTORE POP POP JUMP JUMPDEST PUSH0 PUSH1 0xE0 DUP3 ADD SWAP1 POP PUSH2 0x1B10 PUSH0 DUP4 ADD DUP10 PUSH2 0x18C0 JUMP JUMPDEST PUSH2 0x1B1D PUSH1 0x20 DUP4 ADD DUP9 PUSH2 0x1868 JUMP JUMPDEST PUSH2 0x1B2A PUSH1 0x40 DUP4 ADD DUP8 PUSH2 0x197D JUMP JUMPDEST PUSH2 0x1B37 PUSH1 0x60 DUP4 ADD DUP7 PUSH2 0x1AB6 JUMP JUMPDEST DUP2 DUP2 SUB PUSH1 0xA0 DUP4 ADD MSTORE PUSH2 0x1B49 DUP2 DUP6 PUSH2 0x19C4 JUMP JUMPDEST SWAP1 POP PUSH2 0x1B58 PUSH1 0xC0 DUP4 ADD DUP5 PUSH2 0x1AEE JUMP JUMPDEST SWAP8 SWAP7 POP POP POP POP POP POP POP JUMP JUMPDEST PUSH0 PUSH1 0x20 DUP3 ADD SWAP1 POP PUSH2 0x1B76 PUSH0 DUP4 ADD DUP5 PUSH2 0x1AEE JUMP JUMPDEST SWAP3 SWAP2 POP POP JUMP JUMPDEST PUSH0 PUSH1 0x20 DUP3 ADD SWAP1 POP PUSH2 0x1B8F PUSH0 DUP4 ADD DUP5 PUSH2 0x197D JUMP JUMPDEST SWAP3 SWAP2 POP POP JUMP JUMPDEST PUSH0 PUSH0 PUSH0 PUSH0 PUSH1 0xA0 DUP6 DUP8 SUB SLT ISZERO PUSH2 0x1BAD JUMPI PUSH2 0x1BAC PUSH2 0x15EC JUMP JUMPDEST JUMPDEST PUSH0 PUSH2 0x1BBA DUP8 DUP3 DUP9 ADD PUSH2 0x172D JUMP JUMPDEST SWAP5 POP POP PUSH1 0x60 PUSH2 0x1BCB DUP8 DUP3 DUP9 ADD PUSH2 0x1613 JUMP JUMPDEST SWAP4 POP POP PUSH1 0x80 DUP6 ADD CALLDATALOAD PUSH8 0xFFFFFFFFFFFFFFFF DUP2 GT ISZERO PUSH2 0x1BEC JUMPI PUSH2 0x1BEB PUSH2 0x15F0 JUMP JUMPDEST JUMPDEST PUSH2 0x1BF8 DUP8 DUP3 DUP9 ADD PUSH2 0x178F JUMP JUMPDEST SWAP3 POP SWAP3 POP POP SWAP3 SWAP6 SWAP2 SWAP5 POP SWAP3 POP JUMP JUMPDEST PUSH0 DUP2 SWAP1 POP SWAP2 SWAP1 POP JUMP JUMPDEST PUSH0 PUSH2 0x1C29 PUSH2 0x1C24 PUSH2 0x1C1F DUP5 PUSH2 0x1890 JUMP JUMPDEST PUSH2 0x1C06 JUMP JUMPDEST PUSH2 0x1890 JUMP JUMPDEST SWAP1 POP SWAP2 SWAP1 POP JUMP JUMPDEST PUSH0 PUSH2 0x1C3A DUP3 PUSH2 0x1C0F JUMP JUMPDEST SWAP1 POP SWAP2 SWAP1 POP JUMP JUMPDEST PUSH0 PUSH2 0x1C4B DUP3 PUSH2 0x1C30 JUMP JUMPDEST SWAP1 POP SWAP2 SWAP1 POP JUMP JUMPDEST PUSH2 0x1C5B DUP2 PUSH2 0x1C41 JUMP JUMPDEST DUP3 MSTORE POP POP JUMP JUMPDEST PUSH0 PUSH1 0x20 DUP3 ADD SWAP1 POP PUSH2 0x1C74 PUSH0 DUP4 ADD DUP5 PUSH2 0x1C52 JUMP JUMPDEST SWAP3 SWAP2 POP POP JUMP JUMPDEST PUSH32 0x4E487B7100000000000000000000000000000000000000000000000000000000 PUSH0 MSTORE PUSH1 0x41 PUSH1 0x4 MSTORE PUSH1 0x24 PUSH0 REVERT JUMPDEST PUSH32 0x4E487B7100000000000000000000000000000000000000000000000000000000 PUSH0 MSTORE PUSH1 0x11 PUSH1 0x4 MSTORE PUSH1 0x24 PUSH0 REVERT JUMPDEST PUSH0 PUSH2 0x1CDE DUP3 PUSH2 0x15F4 JUMP JUMPDEST SWAP2 POP PUSH2 0x1CE9 DUP4 PUSH2 0x15F4 JUMP JUMPDEST SWAP3 POP DUP3 DUP3 ADD SWAP1 POP DUP1 DUP3 GT ISZERO PUSH2 0x1D01 JUMPI PUSH2 0x1D00 PUSH2 0x1CA7 JUMP JUMPDEST JUMPDEST SWAP3 SWAP2 POP POP JUMP JUMPDEST PUSH32 0x4E487B7100000000000000000000000000000000000000000000000000000000 PUSH0 MSTORE PUSH1 0x32 PUSH1 0x4 MSTORE PUSH1 0x24 PUSH0 REVERT JUMPDEST PUSH0 PUSH2 0x1D3E DUP3 PUSH2 0x15F4 JUMP JUMPDEST SWAP2 POP PUSH32 0xFFFFFFFFFFFFFFFFFFFFFFFFFFFFFFFFFFFFFFFFFFFFFFFFFFFFFFFFFFFFFFFF DUP3 SUB PUSH2 0x1D70 JUMPI PUSH2 0x1D6F PUSH2 0x1CA7 JUMP JUMPDEST JUMPDEST PUSH1 0x1 DUP3 ADD SWAP1 POP SWAP2 SWAP1 POP JUMP JUMPDEST PUSH32 0x4E487B7100000000000000000000000000000000000000000000000000000000 PUSH0 MSTORE PUSH1 0x22 PUSH1 0x4 MSTORE PUSH1 0x24 PUSH0 REVERT JUMPDEST PUSH0 PUSH1 0x2 DUP3 DIV SWAP1 POP PUSH1 0x1 DUP3 AND DUP1 PUSH2 0x1DBF JUMPI PUSH1 0x7F DUP3 AND SWAP2 POP JUMPDEST PUSH1 0x20 DUP3 LT DUP2 SUB PUSH2 0x1DD2 JUMPI PUSH2 0x1DD1 PUSH2 0x1D7B JUMP JUMPDEST JUMPDEST POP SWAP2 SWAP1 POP JUMP JUMPDEST PUSH0 DUP2 SWAP1 POP DUP2 PUSH0 MSTORE PUSH1 0x20 PUSH0 KECCAK256 SWAP1 POP SWAP2 SWAP1 POP JUMP JUMPDEST PUSH0 PUSH1 0x20 PUSH1 0x1F DUP4 ADD DIV SWAP1 POP SWAP2 SWAP1 POP JUMP JUMPDEST PUSH0 DUP3 DUP3 SHL SWAP1 POP SWAP3 SWAP2 POP POP JUMP JUMPDEST PUSH0 PUSH1 0x8 DUP4 MUL PUSH2 0x1E34 PUSH32 0xFFFFFFFFFFFFFFFFFFFFFFFFFFFFFFFFFFFFFFFFFFFFFFFFFFFFFFFFFFFFFFFF DUP3 PUSH2 0x1DF9 JUMP JUMPDEST PUSH2 0x1E3E DUP7 DUP4 PUSH2 0x1DF9 JUMP JUMPDEST SWAP6 POP DUP1 NOT DUP5 AND SWAP4 POP DUP1 DUP7 AND DUP5 OR SWAP3 POP POP POP SWAP4 SWAP3 POP POP POP JUMP JUMPDEST PUSH0 PUSH2 0x1E70 PUSH2 0x1E6B PUSH2 0x1E66 DUP5 PUSH2 0x15F4 JUMP JUMPDEST PUSH2 0x1C06 JUMP JUMPDEST PUSH2 0x15F4 JUMP JUMPDEST SWAP1 POP SWAP2 SWAP1 POP JUMP JUMPDEST PUSH0 DUP2 SWAP1 POP SWAP2 SWAP1 POP JUMP JUMPDEST PUSH2 0x1E89 DUP4 PUSH2 0x1E56 JUMP JUMPDEST PUSH2 0x1E9D PUSH2 0x1E95 DUP3 PUSH2 0x1E77 JUMP JUMPDEST DUP5 DUP5 SLOAD PUSH2 0x1E05 JUMP JUMPDEST DUP3 SSTORE POP POP POP POP JUMP JUMPDEST PUSH0 PUSH0 SWAP1 POP SWAP1 JUMP JUMPDEST PUSH2 0x1EB4 PUSH2 0x1EA5 JUMP JUMPDEST PUSH2 0x1EBF DUP2 DUP5 DUP5 PUSH2 0x1E80 JUMP JUMPDEST POP POP POP JUMP JUMPDEST JUMPDEST DUP2 DUP2 LT ISZERO PUSH2 0x1EE2 JUMPI PUSH2 0x1ED7 PUSH0 DUP3 PUSH2 0x1EAC JUMP JUMPDEST PUSH1 0x1 DUP2 ADD SWAP1 POP PUSH2 0x1EC5 JUMP JUMPDEST POP POP JUMP JUMPDEST PUSH1 0x1F DUP3 GT ISZERO PUSH2 0x1F27 JUMPI PUSH2 0x1EF8 DUP2 PUSH2 0x1DD8 JUMP JUMPDEST PUSH2 0x1F01 DUP5 PUSH2 0x1DEA JUMP JUMPDEST DUP2 ADD PUSH1 0x20 DUP6 LT ISZERO PUSH2 0x1F10 JUMPI DUP2 SWAP1 POP JUMPDEST PUSH2 0x1F24 PUSH2 0x1F1C DUP6 PUSH2 0x1DEA JUMP JUMPDEST DUP4 ADD DUP3 PUSH2 0x1EC4 JUMP JUMPDEST POP POP JUMPDEST POP POP POP JUMP JUMPDEST PUSH0 DUP3 DUP3 SHR SWAP1 POP SWAP3 SWAP2 POP POP JUMP JUMPDEST PUSH0 PUSH2 0x1F47 PUSH0 NOT DUP5 PUSH1 0x8 MUL PUSH2 0x1F2C JUMP JUMPDEST NOT DUP1 DUP4 AND SWAP2 POP POP SWAP3 SWAP2 POP POP JUMP JUMPDEST PUSH0 PUSH2 0x1F5F DUP4 DUP4 PUSH2 0x1F38 JUMP JUMPDEST SWAP2 POP DUP3 PUSH1 0x2 MUL DUP3 OR SWAP1 POP SWAP3 SWAP2 POP POP JUMP JUMPDEST PUSH2 0x1F78 DUP3 PUSH2 0x198C JUMP JUMPDEST PUSH8 0xFFFFFFFFFFFFFFFF DUP2 GT ISZERO PUSH2 0x1F91 JUMPI PUSH2 0x1F90 PUSH2 0x1C7A JUMP JUMPDEST JUMPDEST PUSH2 0x1F9B DUP3 SLOAD PUSH2 0x1DA8 JUMP JUMPDEST PUSH2 0x1FA6 DUP3 DUP3 DUP6 PUSH2 0x1EE6 JUMP JUMPDEST PUSH0 PUSH1 0x20 SWAP1 POP PUSH1 0x1F DUP4 GT PUSH1 0x1 DUP2 EQ PUSH2 0x1FD7 JUMPI PUSH0 DUP5 ISZERO PUSH2 0x1FC5 JUMPI DUP3 DUP8 ADD MLOAD SWAP1 POP JUMPDEST PUSH2 0x1FCF DUP6 DUP3 PUSH2 0x1F54 JUMP JUMPDEST DUP7 SSTORE POP PUSH2 0x2036 JUMP JUMPDEST PUSH1 0x1F NOT DUP5 AND PUSH2 0x1FE5 DUP7 PUSH2 0x1DD8 JUMP JUMPDEST PUSH0 JUMPDEST DUP3 DUP2 LT ISZERO PUSH2 0x200C JUMPI DUP5 DUP10 ADD MLOAD DUP3 SSTORE PUSH1 0x1 DUP3 ADD SWAP2 POP PUSH1 0x20 DUP6 ADD SWAP5 POP PUSH1 0x20 DUP2 ADD SWAP1 POP PUSH2 0x1FE7 JUMP JUMPDEST DUP7 DUP4 LT ISZERO PUSH2 0x2029 JUMPI DUP5 DUP10 ADD MLOAD PUSH2 0x2025 PUSH1 0x1F DUP10 AND DUP3 PUSH2 0x1F38 JUMP JUMPDEST DUP4 SSTORE POP JUMPDEST PUSH1 0x1 PUSH1 0x2 DUP9 MUL ADD DUP9 SSTORE POP POP POP JUMPDEST POP POP POP POP POP POP JUMP JUMPDEST PUSH0 PUSH1 0x60 DUP3 ADD SWAP1 POP PUSH2 0x2051 PUSH0 DUP4 ADD DUP7 PUSH2 0x197D JUMP JUMPDEST PUSH2 0x205E PUSH1 0x20 DUP4 ADD DUP6 PUSH2 0x1868 JUMP JUMPDEST PUSH2 0x206B PUSH1 0x40 DUP4 ADD DUP5 PUSH2 0x1868 JUMP JUMPDEST SWAP5 SWAP4 POP POP POP POP JUMP JUMPDEST PUSH32 0x6261642069640000000000000000000000000000000000000000000000000000 PUSH0 DUP3 ADD MSTORE POP JUMP JUMPDEST PUSH0 PUSH2 0x20A7 PUSH1 0x6 DUP4 PUSH2 0x1996 JUMP JUMPDEST SWAP2 POP PUSH2 0x20B2 DUP3 PUSH2 0x2073 JUMP JUMPDEST PUSH1 0x20 DUP3 ADD SWAP1 POP SWAP2 SWAP1 POP JUMP JUMPDEST PUSH0 PUSH1 0x20 DUP3 ADD SWAP1 POP DUP2 DUP2 SUB PUSH0 DUP4 ADD MSTORE PUSH2 0x20D4 DUP2 PUSH2 0x209B JUMP JUMPDEST SWAP1 POP SWAP2 SWAP1 POP JUMP JUMPDEST PUSH32 0x4E487B7100000000000000000000000000000000000000000000000000000000 PUSH0 MSTORE PUSH1 0x12 PUSH1 0x4 MSTORE PUSH1 0x24 PUSH0 REVERT JUMPDEST PUSH0 PUSH2 0x2112 DUP3 PUSH2 0x15F4 JUMP JUMPDEST SWAP2 POP PUSH2 0x211D DUP4 PUSH2 0x15F4 JUMP JUMPDEST SWAP3 POP DUP3 PUSH2 0x212D JUMPI PUSH2 0x212C PUSH2 0x20DB JUMP JUMPDEST JUMPDEST DUP3 DUP3 DIV SWAP1 POP SWAP3 SWAP2 POP POP JUMP JUMPDEST PUSH32 0x616C72656164792066696E616C697A6564000000000000000000000000000000 PUSH0 DUP3 ADD MSTORE POP JUMP JUMPDEST PUSH0 PUSH2 0x216C PUSH1 0x11 DUP4 PUSH2 0x1996 JUMP JUMPDEST SWAP2 POP PUSH2 0x2177 DUP3 PUSH2 0x2138 JUMP JUMPDEST PUSH1 0x20 DUP3 ADD SWAP1 POP SWAP2 SWAP1 POP JUMP JUMPDEST PUSH0 PUSH1 0x20 DUP3 ADD SWAP1 POP DUP2 DUP2 SUB PUSH0 DUP4 ADD MSTORE PUSH2 0x2199 DUP2 PUSH2 0x2160 JUMP JUMPDEST SWAP1 POP SWAP2 SWAP1 POP JUMP JUMPDEST PUSH32 0x6E6F207375626D697373696F6E73000000000000000000000000000000000000 PUSH0 DUP3 ADD MSTORE POP JUMP JUMPDEST PUSH0 PUSH2 0x21D4 PUSH1 0xE DUP4 PUSH2 0x1996 JUMP JUMPDEST SWAP2 POP PUSH2 0x21DF DUP3 PUSH2 0x21A0 JUMP JUMPDEST PUSH1 0x20 DUP3 ADD SWAP1 POP SWAP2 SWAP1 POP JUMP JUMPDEST PUSH0 PUSH1 0x20 DUP3 ADD SWAP1 POP DUP2 DUP2 SUB PUSH0 DUP4 ADD MSTORE PUSH2 0x2201 DUP2 PUSH2 0x21C8 JUMP JUMPDEST SWAP1 POP SWAP2 SWAP1 POP JUMP JUMPDEST PUSH32 0x73756D4E756D3D30000000000000000000000000000000000000000000000000 PUSH0 DUP3 ADD MSTORE POP JUMP JUMPDEST PUSH0 PUSH2 0x223C PUSH1 0x8 DUP4 PUSH2 0x1996 JUMP JUMPDEST SWAP2 POP PUSH2 0x2247 DUP3 PUSH2 0x2208 JUMP JUMPDEST PUSH1 0x20 DUP3 ADD SWAP1 POP SWAP2 SWAP1 POP JUMP JUMPDEST PUSH0 PUSH1 0x20 DUP3 ADD SWAP1 POP DUP2 DUP2 SUB PUSH0 DUP4 ADD MSTORE PUSH2 0x2269 DUP2 PUSH2 0x2230 JUMP JUMPDEST SWAP1 POP SWAP2 SWAP1 POP JUMP JUMPDEST PUSH32 0x6167677265676174696F6E20505643206D69736D617463680000000000000000 PUSH0 DUP3 ADD MSTORE POP JUMP JUMPDEST PUSH0 PUSH2 0x22A4 PUSH1 0x18 DUP4 PUSH2 0x1996 JUMP JUMPDEST SWAP2 POP PUSH2 0x22AF DUP3 PUSH2 0x2270 JUMP JUMPDEST PUSH1 0x20 DUP3 ADD SWAP1 POP SWAP2 SWAP1 POP JUMP JUMPDEST PUSH0 PUSH1 0x20 DUP3 ADD SWAP1 POP DUP2 DUP2 SUB PUSH0 DUP4 ADD MSTORE PUSH2 0x22D1 DUP2 PUSH2 0x2298 JUMP JUMPDEST SWAP1 POP SWAP2 SWAP1 POP JUMP JUMPDEST PUSH0 PUSH2 0x22E2 DUP3 PUSH2 0x15F4 JUMP JUMPDEST SWAP2 POP PUSH2 0x22ED DUP4 PUSH2 0x15F4 JUMP JUMPDEST SWAP3 POP DUP3 DUP3 MUL PUSH2 0x22FB DUP2 PUSH2 0x15F4 JUMP JUMPDEST SWAP2 POP DUP3 DUP3 DIV DUP5 EQ DUP4 ISZERO OR PUSH2 0x2312 JUMPI PUSH2 0x2311 PUSH2 0x1CA7 JUMP JUMPDEST JUMPDEST POP SWAP3 SWAP2 POP POP JUMP JUMPDEST PUSH0 PUSH2 0x2323 DUP3 PUSH2 0x15F4 JUMP JUMPDEST SWAP2 POP PUSH2 0x232E DUP4 PUSH2 0x15F4 JUMP JUMPDEST SWAP3 POP DUP3 DUP3 SUB SWAP1 POP DUP2 DUP2 GT ISZERO PUSH2 0x2346 JUMPI PUSH2 0x2345 PUSH2 0x1CA7 JUMP JUMPDEST JUMPDEST SWAP3 SWAP2 POP POP JUMP JUMPDEST PUSH0 PUSH1 0x40 DUP3 ADD SWAP1 POP PUSH2 0x235F PUSH0 DUP4 ADD DUP6 PUSH2 0x18C0 JUMP JUMPDEST PUSH2 0x236C PUSH1 0x20 DUP4 ADD DUP5 PUSH2 0x1868 JUMP JUMPDEST SWAP4 SWAP3 POP POP POP JUMP JUMPDEST PUSH2 0x237C DUP2 PUSH2 0x1AE3 JUMP JUMPDEST DUP2 EQ PUSH2 0x2386 JUMPI PUSH0 PUSH0 REVERT JUMPDEST POP JUMP JUMPDEST PUSH0 DUP2 MLOAD SWAP1 POP PUSH2 0x2397 DUP2 PUSH2 0x2373 JUMP JUMPDEST SWAP3 SWAP2 POP POP JUMP JUMPDEST PUSH0 PUSH1 0x20 DUP3 DUP5 SUB SLT ISZERO PUSH2 0x23B2 JUMPI PUSH2 0x23B1 PUSH2 0x15EC JUMP JUMPDEST JUMPDEST PUSH0 PUSH2 0x23BF DUP5 DUP3 DUP6 ADD PUSH2 0x2389 JUMP JUMPDEST SWAP2 POP POP SWAP3 SWAP2 POP POP JUMP JUMPDEST PUSH32 0x7472616E73666572206661696C65640000000000000000000000000000000000 PUSH0 DUP3 ADD MSTORE POP JUMP JUMPDEST PUSH0 PUSH2 0x23FC PUSH1 0xF DUP4 PUSH2 0x1996 JUMP JUMPDEST SWAP2 POP PUSH2 0x2407 DUP3 PUSH2 0x23C8 JUMP JUMPDEST PUSH1 0x20 DUP3 ADD SWAP1 POP SWAP2 SWAP1 POP JUMP JUMPDEST PUSH0 PUSH1 0x20 DUP3 ADD SWAP1 POP DUP2 DUP2 SUB PUSH0 DUP4 ADD MSTORE PUSH2 0x2429 DUP2 PUSH2 0x23F0 JUMP JUMPDEST SWAP1 POP SWAP2 SWAP1 POP JUMP JUMPDEST PUSH0 DUP2 SWAP1 POP SWAP3 SWAP2 POP POP JUMP JUMPDEST DUP3 DUP2 DUP4 CALLDATACOPY PUSH0 DUP4 DUP4 ADD MSTORE POP POP POP JUMP JUMPDEST PUSH0 PUSH2 0x2453 DUP4 DUP6 PUSH2 0x2430 JUMP JUMPDEST SWAP4 POP PUSH2 0x2460 DUP4 DUP6 DUP5 PUSH2 0x243A JUMP JUMPDEST DUP3 DUP5 ADD SWAP1 POP SWAP4 SWAP3 POP POP POP JUMP JUMPDEST PUSH0 PUSH1 0x3 SWAP1 POP SWAP2 SWAP1 POP JUMP JUMPDEST PUSH0 DUP2 SWAP1 POP SWAP3 SWAP2 POP POP JUMP JUMPDEST PUSH0 DUP2 SWAP1 POP SWAP2 SWAP1 POP JUMP JUMPDEST PUSH2 0x2492 DUP2 PUSH2 0x18EC JUMP JUMPDEST DUP3 MSTORE POP POP JUMP JUMPDEST PUSH0 PUSH2 0x24A3 DUP4 DUP4 PUSH2 0x2489 JUMP JUMPDEST PUSH1 0x20 DUP4 ADD SWAP1 POP SWAP3 SWAP2 POP POP JUMP JUMPDEST PUSH2 0x24B8 DUP2 PUSH2 0x18EC JUMP JUMPDEST DUP2 EQ PUSH2 0x24C2 JUMPI PUSH0 PUSH0 REVERT JUMPDEST POP JUMP JUMPDEST PUSH0 DUP2 CALLDATALOAD SWAP1 POP PUSH2 0x24D3 DUP2 PUSH2 0x24AF JUMP JUMPDEST SWAP3 SWAP2 POP POP JUMP JUMPDEST PUSH0 PUSH2 0x24E7 PUSH1 0x20 DUP5 ADD DUP5 PUSH2 0x24C5 JUMP JUMPDEST SWAP1 POP SWAP3 SWAP2 POP POP JUMP JUMPDEST PUSH0 PUSH1 0x20 DUP3 ADD SWAP1 POP SWAP2 SWAP1 POP JUMP JUMPDEST PUSH2 0x2504 DUP2 PUSH2 0x246C JUMP JUMPDEST PUSH2 0x250E DUP2 DUP5 PUSH2 0x2476 JUMP JUMPDEST SWAP3 POP PUSH2 0x2519 DUP3 PUSH2 0x2480 JUMP JUMPDEST DUP1 PUSH0 JUMPDEST DUP4 DUP2 LT ISZERO PUSH2 0x2551 JUMPI PUSH2 0x252E DUP3 DUP5 PUSH2 0x24D9 JUMP JUMPDEST PUSH2 0x2538 DUP8 DUP3 PUSH2 0x2498 JUMP JUMPDEST SWAP7 POP PUSH2 0x2543 DUP4 PUSH2 0x24EF JUMP JUMPDEST SWAP3 POP POP PUSH1 0x1 DUP2 ADD SWAP1 POP PUSH2 0x251C JUMP JUMPDEST POP POP POP POP POP POP JUMP JUMPDEST PUSH0 DUP2 SWAP1 POP SWAP2 SWAP1 POP JUMP JUMPDEST PUSH2 0x2573 PUSH2 0x256E DUP3 PUSH2 0x15F4 JUMP JUMPDEST PUSH2 0x2559 JUMP JUMPDEST DUP3 MSTORE POP POP JUMP JUMPDEST PUSH0 PUSH2 0x2585 DUP3 DUP8 DUP10 PUSH2 0x2448 JUMP JUMPDEST SWAP2 POP PUSH2 0x2591 DUP3 DUP7 PUSH2 0x24FB JUMP JUMPDEST PUSH1 0x60 DUP3 ADD SWAP2 POP PUSH2 0x25A1 DUP3 DUP6 PUSH2 0x2562 JUMP JUMPDEST PUSH1 0x20 DUP3 ADD SWAP2 POP PUSH2 0x25B1 DUP3 DUP5 PUSH2 0x2562 JUMP JUMPDEST PUSH1 0x20 DUP3 ADD SWAP2 POP DUP2 SWAP1 POP SWAP7 SWAP6 POP POP POP POP POP POP JUMP JUMPDEST PUSH0 DUP2 SWAP1 POP SWAP2 SWAP1 POP JUMP JUMPDEST PUSH2 0x25D6 DUP2 PUSH2 0x25C4 JUMP JUMPDEST DUP3 MSTORE POP POP JUMP JUMPDEST PUSH0 PUSH1 0x40 DUP3 ADD SWAP1 POP PUSH2 0x25EF PUSH0 DUP4 ADD DUP6 PUSH2 0x25CD JUMP JUMPDEST PUSH2 0x25FC PUSH1 0x20 DUP4 ADD DUP5 PUSH2 0x1868 JUMP JUMPDEST SWAP4 SWAP3 POP POP POP JUMP JUMPDEST PUSH0 PUSH2 0x260D DUP3 PUSH2 0x15F4 JUMP JUMPDEST SWAP2 POP PUSH2 0x2618 DUP4 PUSH2 0x15F4 JUMP JUMPDEST SWAP3 POP DUP3 PUSH2 0x2628 JUMPI PUSH2 0x2627 PUSH2 0x20DB JUMP JUMPDEST JUMPDEST DUP3 DUP3 MOD SWAP1 POP SWAP3 SWAP2 POP POP JUMP JUMPDEST PUSH0 PUSH2 0x263D DUP3 PUSH2 0x18EC JUMP JUMPDEST SWAP2 POP PUSH32 0x8000000000000000000000000000000000000000000000000000000000000000 DUP3 SUB PUSH2 0x266F JUMPI PUSH2 0x266E PUSH2 0x1CA7 JUMP JUMPDEST JUMPDEST DUP2 PUSH0 SUB SWAP1 POP SWAP2 SWAP1 POP JUMP JUMPDEST PUSH32 0x6F7574206F662072616E67650000000000000000000000000000000000000000 PUSH0 DUP3 ADD MSTORE POP JUMP JUMPDEST PUSH0 PUSH2 0x26AD PUSH1 0xC DUP4 PUSH2 0x1996 JUMP JUMPDEST SWAP2 POP PUSH2 0x26B8 DUP3 PUSH2 0x2679 JUMP JUMPDEST PUSH1 0x20 DUP3 ADD SWAP1 POP SWAP2 SWAP1 POP JUMP JUMPDEST PUSH0 PUSH1 0x20 DUP3 ADD SWAP1 POP DUP2 DUP2 SUB PUSH0 DUP4 ADD MSTORE PUSH2 0x26DA DUP2 PUSH2 0x26A1 JUMP JUMPDEST SWAP1 POP SWAP2 SWAP1 POP JUMP INVALID LOG2 PUSH5 0x6970667358 0x22 SLT KECCAK256 REVERT INVALID PUSH18 0x5E540E5B54AFC494B0022C885E2733A832E4 0x26 0xFC EXTCALL 0xA5 ADDRESS 0x2E BALANCE CALLF 0xB855 0xEA PUSH5 0x736F6C6343 STOP ADDMOD 0x1E STOP CALLER "
				},
				"gasEstimates": {
					"creation": {
						"codeDepositCost": "2001400",
						"executionCost": "infinite",
						"totalCost": "infinite"
					},
					"external": {
						"WEIGHT_BASE()": "391",
						"epsBps()": "infinite",
						"finalized()": "2555",
						"getSubmission(uint256)": "infinite",
						"getTop(uint256)": "infinite",
						"organizer()": "infinite",
						"poolAmount()": "infinite",
						"submissionCount()": "2469",
						"submissions(uint256)": "infinite",
						"submit(int256[3],uint256,uint32,string)": "infinite",
						"token()": "infinite",
						"totalSubmissions()": "2454",
						"verifyAggregationAndPayout(int256[3],uint256,string)": "infinite",
						"weightNumerator(uint32)": "687",
						"weightNumeratorFor(uint32)": "infinite"
					},
					"internal": {
						"commit3(int256[3] memory,uint256)": "infinite"
					}
				},
				"methodIdentifiers": {
					"WEIGHT_BASE()": "defe80ef",
					"epsBps()": "be7a078d",
					"finalized()": "b3f05b97",
					"getSubmission(uint256)": "3e8686cc",
					"getTop(uint256)": "37caa8b6",
					"organizer()": "61203265",
					"poolAmount()": "a693600b",
					"submissionCount()": "6ec02be9",
					"submissions(uint256)": "ad73349e",
					"submit(int256[3],uint256,uint32,string)": "3988146f",
					"token()": "fc0c546a",
					"totalSubmissions()": "a3954016",
					"verifyAggregationAndPayout(int256[3],uint256,string)": "ccdab78c",
					"weightNumerator(uint32)": "9a409c32",
					"weightNumeratorFor(uint32)": "93956b7b"
				}
			},
			"storageLayout": {
				"storage": [
					{
						"astId": 411,
						"contract": "contracts/PVCContest.sol:PVCContest3",
						"label": "submissionCount",
						"offset": 0,
						"slot": "0",
						"type": "t_uint256"
					},
					{
						"astId": 416,
						"contract": "contracts/PVCContest.sol:PVCContest3",
						"label": "submissions",
						"offset": 0,
						"slot": "1",
						"type": "t_mapping(t_uint256,t_struct(Submission)409_storage)"
					},
					{
						"astId": 418,
						"contract": "contracts/PVCContest.sol:PVCContest3",
						"label": "finalized",
						"offset": 0,
						"slot": "2",
						"type": "t_bool"
					}
				],
				"types": {
					"t_address": {
						"encoding": "inplace",
						"label": "address",
						"numberOfBytes": "20"
					},
					"t_array(t_int256)3_storage": {
						"base": "t_int256",
						"encoding": "inplace",
						"label": "int256[3]",
						"numberOfBytes": "96"
					},
					"t_bool": {
						"encoding": "inplace",
						"label": "bool",
						"numberOfBytes": "1"
					},
					"t_int256": {
						"encoding": "inplace",
						"label": "int256",
						"numberOfBytes": "32"
					},
					"t_mapping(t_uint256,t_struct(Submission)409_storage)": {
						"encoding": "mapping",
						"key": "t_uint256",
						"label": "mapping(uint256 => struct PVCContest3.Submission)",
						"numberOfBytes": "32",
						"value": "t_struct(Submission)409_storage"
					},
					"t_string_storage": {
						"encoding": "bytes",
						"label": "string",
						"numberOfBytes": "32"
					},
					"t_struct(G1Point)9_storage": {
						"encoding": "inplace",
						"label": "struct BN254.G1Point",
						"members": [
							{
								"astId": 6,
								"contract": "contracts/PVCContest.sol:PVCContest3",
								"label": "x",
								"offset": 0,
								"slot": "0",
								"type": "t_uint256"
							},
							{
								"astId": 8,
								"contract": "contracts/PVCContest.sol:PVCContest3",
								"label": "y",
								"offset": 0,
								"slot": "1",
								"type": "t_uint256"
							}
						],
						"numberOfBytes": "64"
					},
					"t_struct(Submission)409_storage": {
						"encoding": "inplace",
						"label": "struct PVCContest3.Submission",
						"members": [
							{
								"astId": 393,
								"contract": "contracts/PVCContest.sol:PVCContest3",
								"label": "submitter",
								"offset": 0,
								"slot": "0",
								"type": "t_address"
							},
							{
								"astId": 397,
								"contract": "contracts/PVCContest.sol:PVCContest3",
								"label": "w",
								"offset": 0,
								"slot": "1",
								"type": "t_array(t_int256)3_storage"
							},
							{
								"astId": 399,
								"contract": "contracts/PVCContest.sol:PVCContest3",
								"label": "r",
								"offset": 0,
								"slot": "4",
								"type": "t_uint256"
							},
							{
								"astId": 401,
								"contract": "contracts/PVCContest.sol:PVCContest3",
								"label": "errorBps",
								"offset": 0,
								"slot": "5",
								"type": "t_uint32"
							},
							{
								"astId": 404,
								"contract": "contracts/PVCContest.sol:PVCContest3",
								"label": "C",
								"offset": 0,
								"slot": "6",
								"type": "t_struct(G1Point)9_storage"
							},
							{
								"astId": 406,
								"contract": "contracts/PVCContest.sol:PVCContest3",
								"label": "uri",
								"offset": 0,
								"slot": "8",
								"type": "t_string_storage"
							},
							{
								"astId": 408,
								"contract": "contracts/PVCContest.sol:PVCContest3",
								"label": "exists",
								"offset": 0,
								"slot": "9",
								"type": "t_bool"
							}
						],
						"numberOfBytes": "320"
					},
					"t_uint256": {
						"encoding": "inplace",
						"label": "uint256",
						"numberOfBytes": "32"
					},
					"t_uint32": {
						"encoding": "inplace",
						"label": "uint32",
						"numberOfBytes": "4"
					}
				}
			},
			"userdoc": {
				"kind": "user",
				"methods": {},
				"version": 1
			}
		}
	}
}