{
	"data": {
		"bytecode": {
			"linkReferences": {},
			"object": "610100604052348015610010575f5ffd5b50604051612d7e380380612d7e8339818101604052810190610032919061037b565b5f73ffffffffffffffffffffffffffffffffffffffff168373ffffffffffffffffffffffffffffffffffffffff16036100a0576040517f08c379a000000000000000000000000000000000000000000000000000000000815260040161009790610425565b60405180910390fd5b8273ffffffffffffffffffffffffffffffffffffffff1660808173ffffffffffffffffffffffffffffffffffffffff16815250503373ffffffffffffffffffffffffffffffffffffffff1660a08173ffffffffffffffffffffffffffffffffffffffff16815250508063ffffffff1660e08163ffffffff16815250508160805173ffffffffffffffffffffffffffffffffffffffff1663dd62ed3e60a051306040518363ffffffff1660e01b815260040161015c929190610452565b602060405180830381865afa158015610177573d5f5f3e3d5ffd5b505050506040513d601f19601f8201168201806040525081019061019b9190610479565b10156101dc576040517f08c379a00000000000000000000000000000000000000000000000000000000081526004016101d3906104ee565b60405180910390fd5b5f60805173ffffffffffffffffffffffffffffffffffffffff166323b872dd60a05130866040518463ffffffff1660e01b815260040161021e9392919061051b565b6020604051808303815f875af115801561023a573d5f5f3e3d5ffd5b505050506040513d601f19601f8201168201806040525081019061025e9190610585565b9050806102a0576040517f08c379a0000000000000000000000000000000000000000000000000000000008152600401610297906105fa565b60405180910390fd5b8260c0818152505050505050610618565b5f5ffd5b5f73ffffffffffffffffffffffffffffffffffffffff82169050919050565b5f6102de826102b5565b9050919050565b6102ee816102d4565b81146102f8575f5ffd5b50565b5f81519050610309816102e5565b92915050565b5f819050919050565b6103218161030f565b811461032b575f5ffd5b50565b5f8151905061033c81610318565b92915050565b5f63ffffffff82169050919050565b61035a81610342565b8114610364575f5ffd5b50565b5f8151905061037581610351565b92915050565b5f5f5f60608486031215610392576103916102b1565b5b5f61039f868287016102fb565b93505060206103b08682870161032e565b92505060406103c186828701610367565b9150509250925092565b5f82825260208201905092915050565b7f62616420746f6b656e00000000000000000000000000000000000000000000005f82015250565b5f61040f6009836103cb565b915061041a826103db565b602082019050919050565b5f6020820190508181035f83015261043c81610403565b9050919050565b61044c816102d4565b82525050565b5f6040820190506104655f830185610443565b6104726020830184610443565b9392505050565b5f6020828403121561048e5761048d6102b1565b5b5f61049b8482850161032e565b91505092915050565b7f617070726f7665206669727374000000000000000000000000000000000000005f82015250565b5f6104d8600d836103cb565b91506104e3826104a4565b602082019050919050565b5f6020820190508181035f830152610505816104cc565b9050919050565b6105158161030f565b82525050565b5f60608201905061052e5f830186610443565b61053b6020830185610443565b610548604083018461050c565b949350505050565b5f8115159050919050565b61056481610550565b811461056e575f5ffd5b50565b5f8151905061057f8161055b565b92915050565b5f6020828403121561059a576105996102b1565b5b5f6105a784828501610571565b91505092915050565b7f7472616e7366657246726f6d206661696c6564000000000000000000000000005f82015250565b5f6105e46013836103cb565b91506105ef826105b0565b602082019050919050565b5f6020820190508181035f830152610611816105d8565b9050919050565b60805160a05160c05160e0516127176106675f395f81816109550152610b1001525f81816109c501528181610d600152610df001525f61092a01525f8181610e3d015261105b01526127175ff3fe608060405234801561000f575f5ffd5b50600436106100f3575f3560e01c8063a395401611610095578063be7a078d11610064578063be7a078d146102b8578063ccdab78c146102d6578063defe80ef146102f2578063fc0c546a14610310576100f3565b8063a395401614610229578063a693600b14610247578063ad73349e14610265578063b3f05b971461029a576100f3565b806361203265116100d1578063612032651461018d5780636ec02be9146101ab57806393956b7b146101c95780639a409c32146101f9576100f3565b806337caa8b6146100f75780633988146f146101275780633e8686cc14610157575b5f5ffd5b610111600480360381019061010c9190611627565b61032e565b60405161011e9190611709565b60405180910390f35b610141600480360381019061013c91906117e4565b61050b565b60405161014e9190611877565b60405180910390f35b610171600480360381019061016c9190611627565b610785565b60405161018497969594939291906119fc565b60405180910390f35b610195610928565b6040516101a29190611a72565b60405180910390f35b6101b361094c565b6040516101c09190611877565b60405180910390f35b6101e360048036038101906101de9190611a8b565b610951565b6040516101f09190611877565b60405180910390f35b610213600480360381019061020e9190611a8b565b6109b2565b6040516102209190611877565b60405180910390f35b6102316109bb565b60405161023e9190611877565b60405180910390f35b61024f6109c3565b60405161025c9190611877565b60405180910390f35b61027f600480360381019061027a9190611627565b6109e7565b60405161029196959493929190611afd565b60405180910390f35b6102a2610afc565b6040516102af9190611b63565b60405180910390f35b6102c0610b0e565b6040516102cd9190611b7c565b60405180910390f35b6102f060048036038101906102eb9190611b95565b610b32565b005b6102fa611050565b6040516103079190611877565b60405180910390f35b610318611059565b6040516103259190611c61565b60405180910390f35b60605f5482111561033e575f5491505b8167ffffffffffffffff81111561035857610357611c7a565b5b6040519080825280602002602001820160405280156103865781602001602082028036833780820191505090505b5090505f60015f546103989190611cd4565b67ffffffffffffffff8111156103b1576103b0611c7a565b5b6040519080825280602002602001820160405280156103df5781602001602082028036833780820191505090505b5090505f5f90505b83811015610504575f63ffffffff90505f5f90505f600190505b5f5481116104ad5784818151811061041c5761041b611d07565b5b602002602001015161049a575f60015f8381526020019081526020015f209050806009015f9054906101000a900460ff16610457575061049a565b8363ffffffff16816005015f9054906101000a900463ffffffff1663ffffffff16101561049857806005015f9054906101000a900463ffffffff1693508192505b505b80806104a590611d34565b915050610401565b5060018482815181106104c3576104c2611d07565b5b602002602001019015159081151581525050808584815181106104e9576104e8611d07565b5b602002602001018181525050505080806001019150506103e7565b5050919050565b5f5f61054d8760038060200260405190810160405280929190826003602002808284375f81840152601f19601f8201169050808301925050505050508761107d565b90505f5f815461055c90611d34565b91905081905591506040518060e001604052803373ffffffffffffffffffffffffffffffffffffffff1681526020018860038060200260405190810160405280929190826003602002808284375f81840152601f19601f82011690508083019250505050505081526020018781526020018663ffffffff16815260200182815260200185858080601f0160208091040260200160405190810160405280939291908181526020018383808284375f81840152601f19601f8201169050808301925050505050505081526020016001151581525060015f8481526020019081526020015f205f820151815f015f6101000a81548173ffffffffffffffffffffffffffffffffffffffff021916908373ffffffffffffffffffffffffffffffffffffffff16021790555060208201518160010190600361069b929190611535565b50604082015181600401556060820151816005015f6101000a81548163ffffffff021916908363ffffffff1602179055506080820151816006015f820151815f015560208201518160010155505060a08201518160080190816106fe9190611f6f565b5060c0820151816009015f6101000a81548160ff0219169083151502179055509050503373ffffffffffffffffffffffffffffffffffffffff16827fc9a7acc6a55c72b2a45bf3fc2c99685d9a14729abc4a6b9ffa1c73a7a0810b8a87845f015185602001516040516107739392919061203e565b60405180910390a35095945050505050565b5f61078e611575565b5f5f5f5f60605f60015f8a81526020019081526020015f209050806009015f9054906101000a900460ff166107f8576040517f08c379a00000000000000000000000000000000000000000000000000000000081526004016107ef906120bd565b60405180910390fd5b805f015f9054906101000a900473ffffffffffffffffffffffffffffffffffffffff16975080600101600380602002604051908101604052809291908260038015610858576020028201915b815481526020019060010190808311610844575b5050505050965080600401549550806005015f9054906101000a900463ffffffff169450806006015f015493508060060160010154925080600801805461089e90611da8565b80601f01602080910402602001604051908101604052809291908181526020018280546108ca90611da8565b80156109155780601f106108ec57610100808354040283529160200191610915565b820191905f5260205f20905b8154815290600101906020018083116108f857829003601f168201915b5050505050915050919395979092949650565b7f000000000000000000000000000000000000000000000000000000000000000081565b5f5481565b5f5f7f000000000000000000000000000000000000000000000000000000000000000063ffffffff168363ffffffff1661098b9190611cd4565b90505f810361099957600190505b8064e8d4a510006109aa9190612108565b915050919050565b5f5f9050919050565b5f5f54905090565b7f000000000000000000000000000000000000000000000000000000000000000081565b6001602052805f5260405f205f91509050805f015f9054906101000a900473ffffffffffffffffffffffffffffffffffffffff1690806004015490806005015f9054906101000a900463ffffffff1690806006016040518060400160405290815f820154815260200160018201548152505090806008018054610a6990611da8565b80601f0160208091040260200160405190810160405280929190818152602001828054610a9590611da8565b8015610ae05780601f10610ab757610100808354040283529160200191610ae0565b820191905f5260205f20905b815481529060010190602001808311610ac357829003601f168201915b505050505090806009015f9054906101000a900460ff16905086565b60025f9054906101000a900460ff1681565b7f000000000000000000000000000000000000000000000000000000000000000081565b60025f9054906101000a900460ff1615610b81576040517f08c379a0000000000000000000000000000000000000000000000000000000008152600401610b7890612182565b60405180910390fd5b5f5f5411610bc4576040517f08c379a0000000000000000000000000000000000000000000000000000000008152600401610bbb906121ea565b60405180910390fd5b5f610bcd61118f565b90505f5f90505f600190505b5f548111610c8e575f60015f8381526020019081526020015f209050806009015f9054906101000a900460ff16610c105750610c7b565b5f610c2d826005015f9054906101000a900463ffffffff16610951565b90508084610c3b9190611cd4565b93505f610c69836006016040518060400160405290815f8201548152602001600182015481525050836111b1565b9050610c758682611242565b95505050505b8080610c8690611d34565b915050610bd9565b505f8111610cd1576040517f08c379a0000000000000000000000000000000000000000000000000000000008152600401610cc890612252565b60405180910390fd5b5f610d128760038060200260405190810160405280929190826003602002808284375f81840152601f19601f8201169050808301925050505050508761107d565b9050610d1e8184611289565b610d5d576040517f08c379a0000000000000000000000000000000000000000000000000000000008152600401610d54906122ba565b60405180910390fd5b5f7f000000000000000000000000000000000000000000000000000000000000000090505f600190505b5f548111610fbf575f60015f8381526020019081526020015f209050806009015f9054906101000a900460ff16610dbe5750610fac565b5f610ddb826005015f9054906101000a900463ffffffff16610951565b90505f8103610deb575050610fac565b5f86827f0000000000000000000000000000000000000000000000000000000000000000610e1991906122d8565b610e239190612108565b90505f811115610fa8578085610e399190612319565b94507f000000000000000000000000000000000000000000000000000000000000000073ffffffffffffffffffffffffffffffffffffffff1663a9059cbb845f015f9054906101000a900473ffffffffffffffffffffffffffffffffffffffff16836040518363ffffffff1660e01b8152600401610eb892919061234c565b6020604051808303815f875af1158015610ed4573d5f5f3e3d5ffd5b505050506040513d601f19601f82011682018060405250810190610ef8919061239d565b610f37576040517f08c379a0000000000000000000000000000000000000000000000000000000008152600401610f2e90612412565b60405180910390fd5b825f015f9054906101000a900473ffffffffffffffffffffffffffffffffffffffff1673ffffffffffffffffffffffffffffffffffffffff167f737c69225d647e5994eab1a6c301bf6d9232beb2759ae1e27a8966b4732bc48982604051610f9f9190611877565b60405180910390a25b5050505b8080610fb790611d34565b915050610d87565b50600160025f6101000a81548160ff0219169083151502179055505f86868a8a87604051602001610ff4959493929190612579565b6040516020818303038152906040528051906020012090507fd827b005bf57a7bc26451fa8c853ab1baca77e3409a05e7232a55e635385e756818560405161103d9291906125dc565b60405180910390a1505050505050505050565b64e8d4a5100081565b7f000000000000000000000000000000000000000000000000000000000000000081565b611085611597565b61108d61118f565b9050611097611597565b5f6110b8855f600381106110ae576110ad611d07565b5b60200201516112ae565b90506110cc6110c65f611366565b826111b1565b91506110d88383611242565b92505f6110fc866001600381106110f2576110f1611d07565b5b60200201516112ae565b905061111161110b6001611366565b826111b1565b925061111d8484611242565b93505f6111418760026003811061113757611136611d07565b5b60200201516112ae565b90506111566111506002611366565b826111b1565b93506111628585611242565b94505f6111766111706113f2565b886111b1565b90506111828682611242565b9550505050505092915050565b611197611597565b60405180604001604052805f81526020015f815250905090565b6111b9611597565b5f6040518060600160405280855f01518152602001856020015181526020018481525090506111e66115af565b60408160608460075afa6111f8575f5ffd5b805f6002811061120b5761120a611d07565b5b6020020151835f0181815250508060016002811061122c5761122b611d07565b5b6020020151836020018181525050505092915050565b61124a611597565b61125383611414565b1561126057819050611283565b61126982611414565b1561127657829050611283565b6112808383611431565b90505b92915050565b5f815f0151835f01511480156112a6575081602001518360200151145b905092915050565b5f5f82126112e9577f30644e72e131a029b85045b68181585d2833e84879b9709143e1f593f0000001826112e29190612603565b9050611361565b5f7f30644e72e131a029b85045b68181585d2833e84879b9709143e1f593f00000018361131590612633565b61131f9190612603565b90505f8103611331575f915050611361565b807f30644e72e131a029b85045b68181585d2833e84879b9709143e1f593f000000161135d9190612319565b9150505b919050565b61136e611597565b5f82036113845761137d6114cf565b90506113ed565b6001820361139b576113946114f1565b90506113ed565b600282036113b2576113ab611513565b90506113ed565b6040517f08c379a00000000000000000000000000000000000000000000000000000000081526004016113e4906126c3565b60405180910390fd5b919050565b6113fa611597565b60405180604001604052805f81526020015f815250905090565b5f5f825f015114801561142a57505f8260200151145b9050919050565b611439611597565b5f6040518060800160405280855f0151815260200185602001518152602001845f01518152602001846020015181525090506114736115af565b60408160808460065afa611485575f5ffd5b805f6002811061149857611497611d07565b5b6020020151835f018181525050806001600281106114b9576114b8611d07565b5b6020020151836020018181525050505092915050565b6114d7611597565b60405180604001604052805f81526020015f815250905090565b6114f9611597565b60405180604001604052805f81526020015f815250905090565b61151b611597565b60405180604001604052805f81526020015f815250905090565b8260038101928215611564579160200282015b82811115611563578251825591602001919060010190611548565b5b50905061157191906115d1565b5090565b6040518060600160405280600390602082028036833780820191505090505090565b60405180604001604052805f81526020015f81525090565b6040518060400160405280600290602082028036833780820191505090505090565b5b808211156115e8575f815f9055506001016115d2565b5090565b5f5ffd5b5f5ffd5b5f819050919050565b611606816115f4565b8114611610575f5ffd5b50565b5f81359050611621816115fd565b92915050565b5f6020828403121561163c5761163b6115ec565b5b5f61164984828501611613565b91505092915050565b5f81519050919050565b5f82825260208201905092915050565b5f819050602082019050919050565b611684816115f4565b82525050565b5f611695838361167b565b60208301905092915050565b5f602082019050919050565b5f6116b782611652565b6116c1818561165c565b93506116cc8361166c565b805f5b838110156116fc5781516116e3888261168a565b97506116ee836116a1565b9250506001810190506116cf565b5085935050505092915050565b5f6020820190508181035f83015261172181846116ad565b905092915050565b5f5ffd5b5f8190508260206003028201111561174857611747611729565b5b92915050565b5f63ffffffff82169050919050565b6117668161174e565b8114611770575f5ffd5b50565b5f813590506117818161175d565b92915050565b5f5ffd5b5f5ffd5b5f5f83601f8401126117a4576117a3611787565b5b8235905067ffffffffffffffff8111156117c1576117c061178b565b5b6020830191508360018202830111156117dd576117dc611729565b5b9250929050565b5f5f5f5f5f60c086880312156117fd576117fc6115ec565b5b5f61180a8882890161172d565b955050606061181b88828901611613565b945050608061182c88828901611773565b93505060a086013567ffffffffffffffff81111561184d5761184c6115f0565b5b6118598882890161178f565b92509250509295509295909350565b611871816115f4565b82525050565b5f60208201905061188a5f830184611868565b92915050565b5f73ffffffffffffffffffffffffffffffffffffffff82169050919050565b5f6118b982611890565b9050919050565b6118c9816118af565b82525050565b5f60039050919050565b5f81905092915050565b5f819050919050565b5f819050919050565b6118fe816118ec565b82525050565b5f61190f83836118f5565b60208301905092915050565b5f602082019050919050565b611930816118cf565b61193a81846118d9565b9250611945826118e3565b805f5b8381101561197557815161195c8782611904565b96506119678361191b565b925050600181019050611948565b505050505050565b6119868161174e565b82525050565b5f81519050919050565b5f82825260208201905092915050565b8281835e5f83830152505050565b5f601f19601f8301169050919050565b5f6119ce8261198c565b6119d88185611996565b93506119e88185602086016119a6565b6119f1816119b4565b840191505092915050565b5f61012082019050611a105f83018a6118c0565b611a1d6020830189611927565b611a2a6080830188611868565b611a3760a083018761197d565b611a4460c0830186611868565b611a5160e0830185611868565b818103610100830152611a6481846119c4565b905098975050505050505050565b5f602082019050611a855f8301846118c0565b92915050565b5f60208284031215611aa057611a9f6115ec565b5b5f611aad84828501611773565b91505092915050565b604082015f820151611aca5f85018261167b565b506020820151611add602085018261167b565b50505050565b5f8115159050919050565b611af781611ae3565b82525050565b5f60e082019050611b105f8301896118c0565b611b1d6020830188611868565b611b2a604083018761197d565b611b376060830186611ab6565b81810360a0830152611b4981856119c4565b9050611b5860c0830184611aee565b979650505050505050565b5f602082019050611b765f830184611aee565b92915050565b5f602082019050611b8f5f83018461197d565b92915050565b5f5f5f5f60a08587031215611bad57611bac6115ec565b5b5f611bba8782880161172d565b9450506060611bcb87828801611613565b935050608085013567ffffffffffffffff811115611bec57611beb6115f0565b5b611bf88782880161178f565b925092505092959194509250565b5f819050919050565b5f611c29611c24611c1f84611890565b611c06565b611890565b9050919050565b5f611c3a82611c0f565b9050919050565b5f611c4b82611c30565b9050919050565b611c5b81611c41565b82525050565b5f602082019050611c745f830184611c52565b92915050565b7f4e487b71000000000000000000000000000000000000000000000000000000005f52604160045260245ffd5b7f4e487b71000000000000000000000000000000000000000000000000000000005f52601160045260245ffd5b5f611cde826115f4565b9150611ce9836115f4565b9250828201905080821115611d0157611d00611ca7565b5b92915050565b7f4e487b71000000000000000000000000000000000000000000000000000000005f52603260045260245ffd5b5f611d3e826115f4565b91507fffffffffffffffffffffffffffffffffffffffffffffffffffffffffffffffff8203611d7057611d6f611ca7565b5b600182019050919050565b7f4e487b71000000000000000000000000000000000000000000000000000000005f52602260045260245ffd5b5f6002820490506001821680611dbf57607f821691505b602082108103611dd257611dd1611d7b565b5b50919050565b5f819050815f5260205f209050919050565b5f6020601f8301049050919050565b5f82821b905092915050565b5f60088302611e347fffffffffffffffffffffffffffffffffffffffffffffffffffffffffffffffff82611df9565b611e3e8683611df9565b95508019841693508086168417925050509392505050565b5f611e70611e6b611e66846115f4565b611c06565b6115f4565b9050919050565b5f819050919050565b611e8983611e56565b611e9d611e9582611e77565b848454611e05565b825550505050565b5f5f905090565b611eb4611ea5565b611ebf818484611e80565b505050565b5b81811015611ee257611ed75f82611eac565b600181019050611ec5565b5050565b601f821115611f2757611ef881611dd8565b611f0184611dea565b81016020851015611f10578190505b611f24611f1c85611dea565b830182611ec4565b50505b505050565b5f82821c905092915050565b5f611f475f1984600802611f2c565b1980831691505092915050565b5f611f5f8383611f38565b9150826002028217905092915050565b611f788261198c565b67ffffffffffffffff811115611f9157611f90611c7a565b5b611f9b8254611da8565b611fa6828285611ee6565b5f60209050601f831160018114611fd7575f8415611fc5578287015190505b611fcf8582611f54565b865550612036565b601f198416611fe586611dd8565b5f5b8281101561200c57848901518255600182019150602085019450602081019050611fe7565b868310156120295784890151612025601f891682611f38565b8355505b6001600288020188555050505b505050505050565b5f6060820190506120515f83018661197d565b61205e6020830185611868565b61206b6040830184611868565b949350505050565b7f62616420696400000000000000000000000000000000000000000000000000005f82015250565b5f6120a7600683611996565b91506120b282612073565b602082019050919050565b5f6020820190508181035f8301526120d48161209b565b9050919050565b7f4e487b71000000000000000000000000000000000000000000000000000000005f52601260045260245ffd5b5f612112826115f4565b915061211d836115f4565b92508261212d5761212c6120db565b5b828204905092915050565b7f616c72656164792066696e616c697a65640000000000000000000000000000005f82015250565b5f61216c601183611996565b915061217782612138565b602082019050919050565b5f6020820190508181035f83015261219981612160565b9050919050565b7f6e6f207375626d697373696f6e730000000000000000000000000000000000005f82015250565b5f6121d4600e83611996565b91506121df826121a0565b602082019050919050565b5f6020820190508181035f830152612201816121c8565b9050919050565b7f73756d4e756d3d300000000000000000000000000000000000000000000000005f82015250565b5f61223c600883611996565b915061224782612208565b602082019050919050565b5f6020820190508181035f83015261226981612230565b9050919050565b7f6167677265676174696f6e20505643206d69736d6174636800000000000000005f82015250565b5f6122a4601883611996565b91506122af82612270565b602082019050919050565b5f6020820190508181035f8301526122d181612298565b9050919050565b5f6122e2826115f4565b91506122ed836115f4565b92508282026122fb816115f4565b9150828204841483151761231257612311611ca7565b5b5092915050565b5f612323826115f4565b915061232e836115f4565b925082820390508181111561234657612345611ca7565b5b92915050565b5f60408201905061235f5f8301856118c0565b61236c6020830184611868565b9392505050565b61237c81611ae3565b8114612386575f5ffd5b50565b5f8151905061239781612373565b92915050565b5f602082840312156123b2576123b16115ec565b5b5f6123bf84828501612389565b91505092915050565b7f7472616e73666572206661696c656400000000000000000000000000000000005f82015250565b5f6123fc600f83611996565b9150612407826123c8565b602082019050919050565b5f6020820190508181035f830152612429816123f0565b9050919050565b5f81905092915050565b828183375f83830152505050565b5f6124538385612430565b935061246083858461243a565b82840190509392505050565b5f60039050919050565b5f81905092915050565b5f819050919050565b612492816118ec565b82525050565b5f6124a38383612489565b60208301905092915050565b6124b8816118ec565b81146124c2575f5ffd5b50565b5f813590506124d3816124af565b92915050565b5f6124e760208401846124c5565b905092915050565b5f602082019050919050565b6125048161246c565b61250e8184612476565b925061251982612480565b805f5b838110156125515761252e82846124d9565b6125388782612498565b9650612543836124ef565b92505060018101905061251c565b505050505050565b5f819050919050565b61257361256e826115f4565b612559565b82525050565b5f612585828789612448565b915061259182866124fb565b6060820191506125a18285612562565b6020820191506125b18284612562565b6020820191508190509695505050505050565b5f819050919050565b6125d6816125c4565b82525050565b5f6040820190506125ef5f8301856125cd565b6125fc6020830184611868565b9392505050565b5f61260d826115f4565b9150612618836115f4565b925082612628576126276120db565b5b828206905092915050565b5f61263d826118ec565b91507f8000000000000000000000000000000000000000000000000000000000000000820361266f5761266e611ca7565b5b815f039050919050565b7f6f7574206f662072616e676500000000000000000000000000000000000000005f82015250565b5f6126ad600c83611996565b91506126b882612679565b602082019050919050565b5f6020820190508181035f8301526126da816126a1565b905091905056fea2646970667358221220fdfe715e540e5b54afc494b0022c885e2733a832e426fcf8a5302e31e3b855ea64736f6c634300081e0033",
			"opcodes": "PUSH2 0x100 PUSH1 0x40 MSTORE CALLVALUE DUP1 ISZERO PUSH2 0x10 JUMPI PUSH0 PUSH0 REVERT JUMPDEST POP PUSH1 0x40 MLOAD PUSH2 0x2D7E CODESIZE SUB DUP1 PUSH2 0x2D7E DUP4 CODECOPY DUP2 DUP2 ADD PUSH1 0x40 MSTORE DUP2 ADD SWAP1 PUSH2 0x32 SWAP2 SWAP1 PUSH2 0x37B JUMP JUMPDEST PUSH0 PUSH20 0xFFFFFFFFFFFFFFFFFFFFFFFFFFFFFFFFFFFFFFFF AND DUP4 PUSH20 0xFFFFFFFFFFFFFFFFFFFFFFFFFFFFFFFFFFFFFFFF AND SUB PUSH2 0xA0 JUMPI PUSH1 0x40 MLOAD PUSH32 0x8C379A000000000000000000000000000000000000000000000000000000000 DUP2 MSTORE PUSH1 0x4 ADD PUSH2 0x97 SWAP1 PUSH2 0x425 JUMP JUMPDEST PUSH1 0x40 MLOAD DUP1 SWAP2 SUB SWAP1 REVERT JUMPDEST DUP3 PUSH20 0xFFFFFFFFFFFFFFFFFFFFFFFFFFFFFFFFFFFFFFFF AND PUSH1 0x80 DUP2 PUSH20 0xFFFFFFFFFFFFFFFFFFFFFFFFFFFFFFFFFFFFFFFF AND DUP2 MSTORE POP POP CALLER PUSH20 0xFFFFFFFFFFFFFFFFFFFFFFFFFFFFFFFFFFFFFFFF AND PUSH1 0xA0 DUP2 PUSH20 0xFFFFFFFFFFFFFFFFFFFFFFFFFFFFFFFFFFFFFFFF AND DUP2 MSTORE POP POP DUP1 PUSH4 0xFFFFFFFF AND PUSH1 0xE0 DUP2 PUSH4 0xFFFFFFFF AND DUP2 MSTORE POP POP DUP2 PUSH1 0x80 MLOAD PUSH20 0xFFFFFFFFFFFFFFFFFFFFFFFFFFFFFFFFFFFFFFFF AND PUSH4 0xDD62ED3E PUSH1 0xA0 MLOAD ADDRESS PUSH1 0x40 MLOAD DUP4 PUSH4 0xFFFFFFFF AND PUSH1 0xE0 SHL DUP2 MSTORE PUSH1 0x4 ADD PUSH2 0x15C SWAP3 SWAP2 SWAP1 PUSH2 0x452 JUMP JUMPDEST PUSH1 0x20 PUSH1 0x40 MLOAD DUP1 DUP4 SUB DUP2 DUP7 GAS STATICCALL ISZERO DUP1 ISZERO PUSH2 0x177 JUMPI RETURNDATASIZE PUSH0 PUSH0 RETURNDATACOPY RETURNDATASIZE PUSH0 REVERT JUMPDEST POP POP POP POP PUSH1 0x40 MLOAD RETURNDATASIZE PUSH1 0x1F NOT PUSH1 0x1F DUP3 ADD AND DUP3 ADD DUP1 PUSH1 0x40 MSTORE POP DUP2 ADD SWAP1 PUSH2 0x19B SWAP2 SWAP1 PUSH2 0x479 JUMP JUMPDEST LT ISZERO PUSH2 0x1DC JUMPI PUSH1 0x40 MLOAD PUSH32 0x8C379A000000000000000000000000000000000000000000000000000000000 DUP2 MSTORE PUSH1 0x4 ADD PUSH2 0x1D3 SWAP1 PUSH2 0x4EE JUMP JUMPDEST PUSH1 0x40 MLOAD DUP1 SWAP2 SUB SWAP1 REVERT JUMPDEST PUSH0 PUSH1 0x80 MLOAD PUSH20 0xFFFFFFFFFFFFFFFFFFFFFFFFFFFFFFFFFFFFFFFF AND PUSH4 0x23B872DD PUSH1 0xA0 MLOAD ADDRESS DUP7 PUSH1 0x40 MLOAD DUP5 PUSH4 0xFFFFFFFF AND PUSH1 0xE0 SHL DUP2 MSTORE PUSH1 0x4 ADD PUSH2 0x21E SWAP4 SWAP3 SWAP2 SWAP1 PUSH2 0x51B JUMP JUMPDEST PUSH1 0x20 PUSH1 0x40 MLOAD DUP1 DUP4 SUB DUP2 PUSH0 DUP8 GAS CALL ISZERO DUP1 ISZERO PUSH2 0x23A JUMPI RETURNDATASIZE PUSH0 PUSH0 RETURNDATACOPY RETURNDATASIZE PUSH0 REVERT JUMPDEST POP POP POP POP PUSH1 0x40 MLOAD RETURNDATASIZE PUSH1 0x1F NOT PUSH1 0x1F DUP3 ADD AND DUP3 ADD DUP1 PUSH1 0x40 MSTORE POP DUP2 ADD SWAP1 PUSH2 0x25E SWAP2 SWAP1 PUSH2 0x585 JUMP JUMPDEST SWAP1 POP DUP1 PUSH2 0x2A0 JUMPI PUSH1 0x40 MLOAD PUSH32 0x8C379A000000000000000000000000000000000000000000000000000000000 DUP2 MSTORE PUSH1 0x4 ADD PUSH2 0x297 SWAP1 PUSH2 0x5FA JUMP JUMPDEST PUSH1 0x40 MLOAD DUP1 SWAP2 SUB SWAP1 REVERT JUMPDEST DUP3 PUSH1 0xC0 DUP2 DUP2 MSTORE POP POP POP POP POP POP PUSH2 0x618 JUMP JUMPDEST PUSH0 PUSH0 REVERT JUMPDEST PUSH0 PUSH20 0xFFFFFFFFFFFFFFFFFFFFFFFFFFFFFFFFFFFFFFFF DUP3 AND SWAP1 POP SWAP2 SWAP1 POP JUMP JUMPDEST PUSH0 PUSH2 0x2DE DUP3 PUSH2 0x2B5 JUMP JUMPDEST SWAP1 POP SWAP2 SWAP1 POP JUMP JUMPDEST PUSH2 0x2EE DUP2 PUSH2 0x2D4 JUMP JUMPDEST DUP2 EQ PUSH2 0x2F8 JUMPI PUSH0 PUSH0 REVERT JUMPDEST POP JUMP JUMPDEST PUSH0 DUP2 MLOAD SWAP1 POP PUSH2 0x309 DUP2 PUSH2 0x2E5 JUMP JUMPDEST SWAP3 SWAP2 POP POP JUMP JUMPDEST PUSH0 DUP2 SWAP1 POP SWAP2 SWAP1 POP JUMP JUMPDEST PUSH2 0x321 DUP2 PUSH2 0x30F JUMP JUMPDEST DUP2 EQ PUSH2 0x32B JUMPI PUSH0 PUSH0 REVERT JUMPDEST POP JUMP JUMPDEST PUSH0 DUP2 MLOAD SWAP1 POP PUSH2 0x33C DUP2 PUSH2 0x318 JUMP JUMPDEST SWAP3 SWAP2 POP POP JUMP JUMPDEST PUSH0 PUSH4 0xFFFFFFFF DUP3 AND SWAP1 POP SWAP2 SWAP1 POP JUMP JUMPDEST PUSH2 0x35A DUP2 PUSH2 0x342 JUMP JUMPDEST DUP2 EQ PUSH2 0x364 JUMPI PUSH0 PUSH0 REVERT JUMPDEST POP JUMP JUMPDEST PUSH0 DUP2 MLOAD SWAP1 POP PUSH2 0x375 DUP2 PUSH2 0x351 JUMP JUMPDEST SWAP3 SWAP2 POP POP JUMP JUMPDEST PUSH0 PUSH0 PUSH0 PUSH1 0x60 DUP5 DUP7 SUB SLT ISZERO PUSH2 0x392 JUMPI PUSH2 0x391 PUSH2 0x2B1 JUMP JUMPDEST JUMPDEST PUSH0 PUSH2 0x39F DUP7 DUP3 DUP8 ADD PUSH2 0x2FB JUMP JUMPDEST SWAP4 POP POP PUSH1 0x20 PUSH2 0x3B0 DUP7 DUP3 DUP8 ADD PUSH2 0x32E JUMP JUMPDEST SWAP3 POP POP PUSH1 0x40 PUSH2 0x3C1 DUP7 DUP3 DUP8 ADD PUSH2 0x367 JUMP JUMPDEST SWAP2 POP POP SWAP3 POP SWAP3 POP SWAP3 JUMP JUMPDEST PUSH0 DUP3 DUP3 MSTORE PUSH1 0x20 DUP3 ADD SWAP1 POP SWAP3 SWAP2 POP POP JUMP JUMPDEST PUSH32 0x62616420746F6B656E0000000000000000000000000000000000000000000000 PUSH0 DUP3 ADD MSTORE POP JUMP JUMPDEST PUSH0 PUSH2 0x40F PUSH1 0x9 DUP4 PUSH2 0x3CB JUMP JUMPDEST SWAP2 POP PUSH2 0x41A DUP3 PUSH2 0x3DB JUMP JUMPDEST PUSH1 0x20 DUP3 ADD SWAP1 POP SWAP2 SWAP1 POP JUMP JUMPDEST PUSH0 PUSH1 0x20 DUP3 ADD SWAP1 POP DUP2 DUP2 SUB PUSH0 DUP4 ADD MSTORE PUSH2 0x43C DUP2 PUSH2 0x403 JUMP JUMPDEST SWAP1 POP SWAP2 SWAP1 POP JUMP JUMPDEST PUSH2 0x44C DUP2 PUSH2 0x2D4 JUMP JUMPDEST DUP3 MSTORE POP POP JUMP JUMPDEST PUSH0 PUSH1 0x40 DUP3 ADD SWAP1 POP PUSH2 0x465 PUSH0 DUP4 ADD DUP6 PUSH2 0x443 JUMP JUMPDEST PUSH2 0x472 PUSH1 0x20 DUP4 ADD DUP5 PUSH2 0x443 JUMP JUMPDEST SWAP4 SWAP3 POP POP POP JUMP JUMPDEST PUSH0 PUSH1 0x20 DUP3 DUP5 SUB SLT ISZERO PUSH2 0x48E JUMPI PUSH2 0x48D PUSH2 0x2B1 JUMP JUMPDEST JUMPDEST PUSH0 PUSH2 0x49B DUP5 DUP3 DUP6 ADD PUSH2 0x32E JUMP JUMPDEST SWAP2 POP POP SWAP3 SWAP2 POP POP JUMP JUMPDEST PUSH32 0x617070726F766520666972737400000000000000000000000000000000000000 PUSH0 DUP3 ADD MSTORE POP JUMP JUMPDEST PUSH0 PUSH2 0x4D8 PUSH1 0xD DUP4 PUSH2 0x3CB JUMP JUMPDEST SWAP2 POP PUSH2 0x4E3 DUP3 PUSH2 0x4A4 JUMP JUMPDEST PUSH1 0x20 DUP3 ADD SWAP1 POP SWAP2 SWAP1 POP JUMP JUMPDEST PUSH0 PUSH1 0x20 DUP3 ADD SWAP1 POP DUP2 DUP2 SUB PUSH0 DUP4 ADD MSTORE PUSH2 0x505 DUP2 PUSH2 0x4CC JUMP JUMPDEST SWAP1 POP SWAP2 SWAP1 POP JUMP JUMPDEST PUSH2 0x515 DUP2 PUSH2 0x30F JUMP JUMPDEST DUP3 MSTORE POP POP JUMP JUMPDEST PUSH0 PUSH1 0x60 DUP3 ADD SWAP1 POP PUSH2 0x52E PUSH0 DUP4 ADD DUP7 PUSH2 0x443 JUMP JUMPDEST PUSH2 0x53B PUSH1 0x20 DUP4 ADD DUP6 PUSH2 0x443 JUMP JUMPDEST PUSH2 0x548 PUSH1 0x40 DUP4 ADD DUP5 PUSH2 0x50C JUMP JUMPDEST SWAP5 SWAP4 POP POP POP POP JUMP JUMPDEST PUSH0 DUP2 ISZERO ISZERO SWAP1 POP SWAP2 SWAP1 POP JUMP JUMPDEST PUSH2 0x564 DUP2 PUSH2 0x550 JUMP JUMPDEST DUP2 EQ PUSH2 0x56E JUMPI PUSH0 PUSH0 REVERT JUMPDEST POP JUMP JUMPDEST PUSH0 DUP2 MLOAD SWAP1 POP PUSH2 0x57F DUP2 PUSH2 0x55B JUMP JUMPDEST SWAP3 SWAP2 POP POP JUMP JUMPDEST PUSH0 PUSH1 0x20 DUP3 DUP5 SUB SLT ISZERO PUSH2 0x59A JUMPI PUSH2 0x599 PUSH2 0x2B1 JUMP JUMPDEST JUMPDEST PUSH0 PUSH2 0x5A7 DUP5 DUP3 DUP6 ADD PUSH2 0x571 JUMP JUMPDEST SWAP2 POP POP SWAP3 SWAP2 POP POP JUMP JUMPDEST PUSH32 0x7472616E7366657246726F6D206661696C656400000000000000000000000000 PUSH0 DUP3 ADD MSTORE POP JUMP JUMPDEST PUSH0 PUSH2 0x5E4 PUSH1 0x13 DUP4 PUSH2 0x3CB JUMP JUMPDEST SWAP2 POP PUSH2 0x5EF DUP3 PUSH2 0x5B0 JUMP JUMPDEST PUSH1 0x20 DUP3 ADD SWAP1 POP SWAP2 SWAP1 POP JUMP JUMPDEST PUSH0 PUSH1 0x20 DUP3 ADD SWAP1 POP DUP2 DUP2 SUB PUSH0 DUP4 ADD MSTORE PUSH2 0x611 DUP2 PUSH2 0x5D8 JUMP JUMPDEST SWAP1 POP SWAP2 SWAP1 POP JUMP JUMPDEST PUSH1 0x80 MLOAD PUSH1 0xA0 MLOAD PUSH1 0xC0 MLOAD PUSH1 0xE0 MLOAD PUSH2 0x2717 PUSH2 0x667 PUSH0 CODECOPY PUSH0 DUP2 DUP2 PUSH2 0x955 ADD MSTORE PUSH2 0xB10 ADD MSTORE PUSH0 DUP2 DUP2 PUSH2 0x9C5 ADD MSTORE DUP2 DUP2 PUSH2 0xD60 ADD MSTORE PUSH2 0xDF0 ADD MSTORE PUSH0 PUSH2 0x92A ADD MSTORE PUSH0 DUP2 DUP2 PUSH2 0xE3D ADD MSTORE PUSH2 0x105B ADD MSTORE PUSH2 0x2717 PUSH0 RETURN INVALID PUSH1 0x80 PUSH1 0x40 MSTORE CALLVALUE DUP1 ISZERO PUSH2 0xF JUMPI PUSH0 PUSH0 REVERT JUMPDEST POP PUSH1 0x4 CALLDATASIZE LT PUSH2 0xF3 JUMPI PUSH0 CALLDATALOAD PUSH1 0xE0 SHR DUP1 PUSH4 0xA3954016 GT PUSH2 0x95 JUMPI DUP1 PUSH4 0xBE7A078D GT PUSH2 0x64 JUMPI DUP1 PUSH4 0xBE7A078D EQ PUSH2 0x2B8 JUMPI DUP1 PUSH4 0xCCDAB78C EQ PUSH2 0x2D6 JUMPI DUP1 PUSH4 0xDEFE80EF EQ PUSH2 0x2F2 JUMPI DUP1 PUSH4 0xFC0C546A EQ PUSH2 0x310 JUMPI PUSH2 0xF3 JUMP JUMPDEST DUP1 PUSH4 0xA3954016 EQ PUSH2 0x229 JUMPI DUP1 PUSH4 0xA693600B EQ PUSH2 0x247 JUMPI DUP1 PUSH4 0xAD73349E EQ PUSH2 0x265 JUMPI DUP1 PUSH4 0xB3F05B97 EQ PUSH2 0x29A JUMPI PUSH2 0xF3 JUMP JUMPDEST DUP1 PUSH4 0x61203265 GT PUSH2 0xD1 JUMPI DUP1 PUSH4 0x61203265 EQ PUSH2 0x18D JUMPI DUP1 PUSH4 0x6EC02BE9 EQ PUSH2 0x1AB JUMPI DUP1 PUSH4 0x93956B7B EQ PUSH2 0x1C9 JUMPI DUP1 PUSH4 0x9A409C32 EQ PUSH2 0x1F9 JUMPI PUSH2 0xF3 JUMP JUMPDEST DUP1 PUSH4 0x37CAA8B6 EQ PUSH2 0xF7 JUMPI DUP1 PUSH4 0x3988146F EQ PUSH2 0x127 JUMPI DUP1 PUSH4 0x3E8686CC EQ PUSH2 0x157 JUMPI JUMPDEST PUSH0 PUSH0 REVERT JUMPDEST PUSH2 0x111 PUSH1 0x4 DUP1 CALLDATASIZE SUB DUP2 ADD SWAP1 PUSH2 0x10C SWAP2 SWAP1 PUSH2 0x1627 JUMP JUMPDEST PUSH2 0x32E JUMP JUMPDEST PUSH1 0x40 MLOAD PUSH2 0x11E SWAP2 SWAP1 PUSH2 0x1709 JUMP JUMPDEST PUSH1 0x40 MLOAD DUP1 SWAP2 SUB SWAP1 RETURN JUMPDEST PUSH2 0x141 PUSH1 0x4 DUP1 CALLDATASIZE SUB DUP2 ADD SWAP1 PUSH2 0x13C SWAP2 SWAP1 PUSH2 0x17E4 JUMP JUMPDEST PUSH2 0x50B JUMP JUMPDEST PUSH1 0x40 MLOAD PUSH2 0x14E SWAP2 SWAP1 PUSH2 0x1877 JUMP JUMPDEST PUSH1 0x40 MLOAD DUP1 SWAP2 SUB SWAP1 RETURN JUMPDEST PUSH2 0x171 PUSH1 0x4 DUP1 CALLDATASIZE SUB DUP2 ADD SWAP1 PUSH2 0x16C SWAP2 SWAP1 PUSH2 0x1627 JUMP JUMPDEST PUSH2 0x785 JUMP JUMPDEST PUSH1 0x40 MLOAD PUSH2 0x184 SWAP8 SWAP7 SWAP6 SWAP5 SWAP4 SWAP3 SWAP2 SWAP1 PUSH2 0x19FC JUMP JUMPDEST PUSH1 0x40 MLOAD DUP1 SWAP2 SUB SWAP1 RETURN JUMPDEST PUSH2 0x195 PUSH2 0x928 JUMP JUMPDEST PUSH1 0x40 MLOAD PUSH2 0x1A2 SWAP2 SWAP1 PUSH2 0x1A72 JUMP JUMPDEST PUSH1 0x40 MLOAD DUP1 SWAP2 SUB SWAP1 RETURN JUMPDEST PUSH2 0x1B3 PUSH2 0x94C JUMP JUMPDEST PUSH1 0x40 MLOAD PUSH2 0x1C0 SWAP2 SWAP1 PUSH2 0x1877 JUMP JUMPDEST PUSH1 0x40 MLOAD DUP1 SWAP2 SUB SWAP1 RETURN JUMPDEST PUSH2 0x1E3 PUSH1 0x4 DUP1 CALLDATASIZE SUB DUP2 ADD SWAP1 PUSH2 0x1DE SWAP2 SWAP1 PUSH2 0x1A8B JUMP JUMPDEST PUSH2 0x951 JUMP JUMPDEST PUSH1 0x40 MLOAD PUSH2 0x1F0 SWAP2 SWAP1 PUSH2 0x1877 JUMP JUMPDEST PUSH1 0x40 MLOAD DUP1 SWAP2 SUB SWAP1 RETURN JUMPDEST PUSH2 0x213 PUSH1 0x4 DUP1 CALLDATASIZE SUB DUP2 ADD SWAP1 PUSH2 0x20E SWAP2 SWAP1 PUSH2 0x1A8B JUMP JUMPDEST PUSH2 0x9B2 JUMP JUMPDEST PUSH1 0x40 MLOAD PUSH2 0x220 SWAP2 SWAP1 PUSH2 0x1877 JUMP JUMPDEST PUSH1 0x40 MLOAD DUP1 SWAP2 SUB SWAP1 RETURN JUMPDEST PUSH2 0x231 PUSH2 0x9BB JUMP JUMPDEST PUSH1 0x40 MLOAD PUSH2 0x23E SWAP2 SWAP1 PUSH2 0x1877 JUMP JUMPDEST PUSH1 0x40 MLOAD DUP1 SWAP2 SUB SWAP1 RETURN JUMPDEST PUSH2 0x24F PUSH2 0x9C3 JUMP JUMPDEST PUSH1 0x40 MLOAD PUSH2 0x25C SWAP2 SWAP1 PUSH2 0x1877 JUMP JUMPDEST PUSH1 0x40 MLOAD DUP1 SWAP2 SUB SWAP1 RETURN JUMPDEST PUSH2 0x27F PUSH1 0x4 DUP1 CALLDATASIZE SUB DUP2 ADD SWAP1 PUSH2 0x27A SWAP2 SWAP1 PUSH2 0x1627 JUMP JUMPDEST PUSH2 0x9E7 JUMP JUMPDEST PUSH1 0x40 MLOAD PUSH2 0x291 SWAP7 SWAP6 SWAP5 SWAP4 SWAP3 SWAP2 SWAP1 PUSH2 0x1AFD JUMP JUMPDEST PUSH1 0x40 MLOAD DUP1 SWAP2 SUB SWAP1 RETURN JUMPDEST PUSH2 0x2A2 PUSH2 0xAFC JUMP JUMPDEST PUSH1 0x40 MLOAD PUSH2 0x2AF SWAP2 SWAP1 PUSH2 0x1B63 JUMP JUMPDEST PUSH1 0x40 MLOAD DUP1 SWAP2 SUB SWAP1 RETURN JUMPDEST PUSH2 0x2C0 PUSH2 0xB0E JUMP JUMPDEST PUSH1 0x40 MLOAD PUSH2 0x2CD SWAP2 SWAP1 PUSH2 0x1B7C JUMP JUMPDEST PUSH1 0x40 MLOAD DUP1 SWAP2 SUB SWAP1 RETURN JUMPDEST PUSH2 0x2F0 PUSH1 0x4 DUP1 CALLDATASIZE SUB DUP2 ADD SWAP1 PUSH2 0x2EB SWAP2 SWAP1 PUSH2 0x1B95 JUMP JUMPDEST PUSH2 0xB32 JUMP JUMPDEST STOP JUMPDEST PUSH2 0x2FA PUSH2 0x1050 JUMP JUMPDEST PUSH1 0x40 MLOAD PUSH2 0x307 SWAP2 SWAP1 PUSH2 0x1877 JUMP JUMPDEST PUSH1 0x40 MLOAD DUP1 SWAP2 SUB SWAP1 RETURN JUMPDEST PUSH2 0x318 PUSH2 0x1059 JUMP JUMPDEST PUSH1 0x40 MLOAD PUSH2 0x325 SWAP2 SWAP1 PUSH2 0x1C61 JUMP JUMPDEST PUSH1 0x40 MLOAD DUP1 SWAP2 SUB SWAP1 RETURN JUMPDEST PUSH1 0x60 PUSH0 SLOAD DUP3 GT ISZERO PUSH2 0x33E JUMPI PUSH0 SLOAD SWAP2 POP JUMPDEST DUP2 PUSH8 0xFFFFFFFFFFFFFFFF DUP2 GT ISZERO PUSH2 0x358 JUMPI PUSH2 0x357 PUSH2 0x1C7A JUMP JUMPDEST JUMPDEST PUSH1 0x40 MLOAD SWAP1 DUP1 DUP3 MSTORE DUP1 PUSH1 0x20 MUL PUSH1 0x20 ADD DUP3 ADD PUSH1 0x40 MSTORE DUP1 ISZERO PUSH2 0x386 JUMPI DUP2 PUSH1 0x20 ADD PUSH1 0x20 DUP3 MUL DUP1 CALLDATASIZE DUP4 CALLDATACOPY DUP1 DUP3 ADD SWAP2 POP POP SWAP1 POP JUMPDEST POP SWAP1 POP PUSH0 PUSH1 0x1 PUSH0 SLOAD PUSH2 0x398 SWAP2 SWAP1 PUSH2 0x1CD4 JUMP JUMPDEST PUSH8 0xFFFFFFFFFFFFFFFF DUP2 GT ISZERO PUSH2 0x3B1 JUMPI PUSH2 0x3B0 PUSH2 0x1C7A JUMP JUMPDEST JUMPDEST PUSH1 0x40 MLOAD SWAP1 DUP1 DUP3 MSTORE DUP1 PUSH1 0x20 MUL PUSH1 0x20 ADD DUP3 ADD PUSH1 0x40 MSTORE DUP1 ISZERO PUSH2 0x3DF JUMPI DUP2 PUSH1 0x20 ADD PUSH1 0x20 DUP3 MUL DUP1 CALLDATASIZE DUP4 CALLDATACOPY DUP1 DUP3 ADD SWAP2 POP POP SWAP1 POP JUMPDEST POP SWAP1 POP PUSH0 PUSH0 SWAP1 POP JUMPDEST DUP4 DUP2 LT ISZERO PUSH2 0x504 JUMPI PUSH0 PUSH4 0xFFFFFFFF SWAP1 POP PUSH0 PUSH0 SWAP1 POP PUSH0 PUSH1 0x1 SWAP1 POP JUMPDEST PUSH0 SLOAD DUP2 GT PUSH2 0x4AD JUMPI DUP5 DUP2 DUP2 MLOAD DUP2 LT PUSH2 0x41C JUMPI PUSH2 0x41B PUSH2 0x1D07 JUMP JUMPDEST JUMPDEST PUSH1 0x20 MUL PUSH1 0x20 ADD ADD MLOAD PUSH2 0x49A JUMPI PUSH0 PUSH1 0x1 PUSH0 DUP4 DUP2 MSTORE PUSH1 0x20 ADD SWAP1 DUP2 MSTORE PUSH1 0x20 ADD PUSH0 KECCAK256 SWAP1 POP DUP1 PUSH1 0x9 ADD PUSH0 SWAP1 SLOAD SWAP1 PUSH2 0x100 EXP SWAP1 DIV PUSH1 0xFF AND PUSH2 0x457 JUMPI POP PUSH2 0x49A JUMP JUMPDEST DUP4 PUSH4 0xFFFFFFFF AND DUP2 PUSH1 0x5 ADD PUSH0 SWAP1 SLOAD SWAP1 PUSH2 0x100 EXP SWAP1 DIV PUSH4 0xFFFFFFFF AND PUSH4 0xFFFFFFFF AND LT ISZERO PUSH2 0x498 JUMPI DUP1 PUSH1 0x5 ADD PUSH0 SWAP1 SLOAD SWAP1 PUSH2 0x100 EXP SWAP1 DIV PUSH4 0xFFFFFFFF AND SWAP4 POP DUP2 SWAP3 POP JUMPDEST POP JUMPDEST DUP1 DUP1 PUSH2 0x4A5 SWAP1 PUSH2 0x1D34 JUMP JUMPDEST SWAP2 POP POP PUSH2 0x401 JUMP JUMPDEST POP PUSH1 0x1 DUP5 DUP3 DUP2 MLOAD DUP2 LT PUSH2 0x4C3 JUMPI PUSH2 0x4C2 PUSH2 0x1D07 JUMP JUMPDEST JUMPDEST PUSH1 0x20 MUL PUSH1 0x20 ADD ADD SWAP1 ISZERO ISZERO SWAP1 DUP2 ISZERO ISZERO DUP2 MSTORE POP POP DUP1 DUP6 DUP5 DUP2 MLOAD DUP2 LT PUSH2 0x4E9 JUMPI PUSH2 0x4E8 PUSH2 0x1D07 JUMP JUMPDEST JUMPDEST PUSH1 0x20 MUL PUSH1 0x20 ADD ADD DUP2 DUP2 MSTORE POP POP POP POP DUP1 DUP1 PUSH1 0x1 ADD SWAP2 POP POP PUSH2 0x3E7 JUMP JUMPDEST POP POP SWAP2 SWAP1 POP JUMP JUMPDEST PUSH0 PUSH0 PUSH2 0x54D DUP8 PUSH1 0x3 DUP1 PUSH1 0x20 MUL PUSH1 0x40 MLOAD SWAP1 DUP2 ADD PUSH1 0x40 MSTORE DUP1 SWAP3 SWAP2 SWAP1 DUP3 PUSH1 0x3 PUSH1 0x20 MUL DUP1 DUP3 DUP5 CALLDATACOPY PUSH0 DUP2 DUP5 ADD MSTORE PUSH1 0x1F NOT PUSH1 0x1F DUP3 ADD AND SWAP1 POP DUP1 DUP4 ADD SWAP3 POP POP POP POP POP POP DUP8 PUSH2 0x107D JUMP JUMPDEST SWAP1 POP PUSH0 PUSH0 DUP2 SLOAD PUSH2 0x55C SWAP1 PUSH2 0x1D34 JUMP JUMPDEST SWAP2 SWAP1 POP DUP2 SWAP1 SSTORE SWAP2 POP PUSH1 0x40 MLOAD DUP1 PUSH1 0xE0 ADD PUSH1 0x40 MSTORE DUP1 CALLER PUSH20 0xFFFFFFFFFFFFFFFFFFFFFFFFFFFFFFFFFFFFFFFF AND DUP2 MSTORE PUSH1 0x20 ADD DUP9 PUSH1 0x3 DUP1 PUSH1 0x20 MUL PUSH1 0x40 MLOAD SWAP1 DUP2 ADD PUSH1 0x40 MSTORE DUP1 SWAP3 SWAP2 SWAP1 DUP3 PUSH1 0x3 PUSH1 0x20 MUL DUP1 DUP3 DUP5 CALLDATACOPY PUSH0 DUP2 DUP5 ADD MSTORE PUSH1 0x1F NOT PUSH1 0x1F DUP3 ADD AND SWAP1 POP DUP1 DUP4 ADD SWAP3 POP POP POP POP POP POP DUP2 MSTORE PUSH1 0x20 ADD DUP8 DUP2 MSTORE PUSH1 0x20 ADD DUP7 PUSH4 0xFFFFFFFF AND DUP2 MSTORE PUSH1 0x20 ADD DUP3 DUP2 MSTORE PUSH1 0x20 ADD DUP6 DUP6 DUP1 DUP1 PUSH1 0x1F ADD PUSH1 0x20 DUP1 SWAP2 DIV MUL PUSH1 0x20 ADD PUSH1 0x40 MLOAD SWAP1 DUP2 ADD PUSH1 0x40 MSTORE DUP1 SWAP4 SWAP3 SWAP2 SWAP1 DUP2 DUP2 MSTORE PUSH1 0x20 ADD DUP4 DUP4 DUP1 DUP3 DUP5 CALLDATACOPY PUSH0 DUP2 DUP5 ADD MSTORE PUSH1 0x1F NOT PUSH1 0x1F DUP3 ADD AND SWAP1 POP DUP1 DUP4 ADD SWAP3 POP POP POP POP POP POP POP DUP2 MSTORE PUSH1 0x20 ADD PUSH1 0x1 ISZERO ISZERO DUP2 MSTORE POP PUSH1 0x1 PUSH0 DUP5 DUP2 MSTORE PUSH1 0x20 ADD SWAP1 DUP2 MSTORE PUSH1 0x20 ADD PUSH0 KECCAK256 PUSH0 DUP3 ADD MLOAD DUP2 PUSH0 ADD PUSH0 PUSH2 0x100 EXP DUP2 SLOAD DUP2 PUSH20 0xFFFFFFFFFFFFFFFFFFFFFFFFFFFFFFFFFFFFFFFF MUL NOT AND SWAP1 DUP4 PUSH20 0xFFFFFFFFFFFFFFFFFFFFFFFFFFFFFFFFFFFFFFFF AND MUL OR SWAP1 SSTORE POP PUSH1 0x20 DUP3 ADD MLOAD DUP2 PUSH1 0x1 ADD SWAP1 PUSH1 0x3 PUSH2 0x69B SWAP3 SWAP2 SWAP1 PUSH2 0x1535 JUMP JUMPDEST POP PUSH1 0x40 DUP3 ADD MLOAD DUP2 PUSH1 0x4 ADD SSTORE PUSH1 0x60 DUP3 ADD MLOAD DUP2 PUSH1 0x5 ADD PUSH0 PUSH2 0x100 EXP DUP2 SLOAD DUP2 PUSH4 0xFFFFFFFF MUL NOT AND SWAP1 DUP4 PUSH4 0xFFFFFFFF AND MUL OR SWAP1 SSTORE POP PUSH1 0x80 DUP3 ADD MLOAD DUP2 PUSH1 0x6 ADD PUSH0 DUP3 ADD MLOAD DUP2 PUSH0 ADD SSTORE PUSH1 0x20 DUP3 ADD MLOAD DUP2 PUSH1 0x1 ADD SSTORE POP POP PUSH1 0xA0 DUP3 ADD MLOAD DUP2 PUSH1 0x8 ADD SWAP1 DUP2 PUSH2 0x6FE SWAP2 SWAP1 PUSH2 0x1F6F JUMP JUMPDEST POP PUSH1 0xC0 DUP3 ADD MLOAD DUP2 PUSH1 0x9 ADD PUSH0 PUSH2 0x100 EXP DUP2 SLOAD DUP2 PUSH1 0xFF MUL NOT AND SWAP1 DUP4 ISZERO ISZERO MUL OR SWAP1 SSTORE POP SWAP1 POP POP CALLER PUSH20 0xFFFFFFFFFFFFFFFFFFFFFFFFFFFFFFFFFFFFFFFF AND DUP3 PUSH32 0xC9A7ACC6A55C72B2A45BF3FC2C99685D9A14729ABC4A6B9FFA1C73A7A0810B8A DUP8 DUP5 PUSH0 ADD MLOAD DUP6 PUSH1 0x20 ADD MLOAD PUSH1 0x40 MLOAD PUSH2 0x773 SWAP4 SWAP3 SWAP2 SWAP1 PUSH2 0x203E JUMP JUMPDEST PUSH1 0x40 MLOAD DUP1 SWAP2 SUB SWAP1 LOG3 POP SWAP6 SWAP5 POP POP POP POP POP JUMP JUMPDEST PUSH0 PUSH2 0x78E PUSH2 0x1575 JUMP JUMPDEST PUSH0 PUSH0 PUSH0 PUSH0 PUSH1 0x60 PUSH0 PUSH1 0x1 PUSH0 DUP11 DUP2 MSTORE PUSH1 0x20 ADD SWAP1 DUP2 MSTORE PUSH1 0x20 ADD PUSH0 KECCAK256 SWAP1 POP DUP1 PUSH1 0x9 ADD PUSH0 SWAP1 SLOAD SWAP1 PUSH2 0x100 EXP SWAP1 DIV PUSH1 0xFF AND PUSH2 0x7F8 JUMPI PUSH1 0x40 MLOAD PUSH32 0x8C379A000000000000000000000000000000000000000000000000000000000 DUP2 MSTORE PUSH1 0x4 ADD PUSH2 0x7EF SWAP1 PUSH2 0x20BD JUMP JUMPDEST PUSH1 0x40 MLOAD DUP1 SWAP2 SUB SWAP1 REVERT JUMPDEST DUP1 PUSH0 ADD PUSH0 SWAP1 SLOAD SWAP1 PUSH2 0x100 EXP SWAP1 DIV PUSH20 0xFFFFFFFFFFFFFFFFFFFFFFFFFFFFFFFFFFFFFFFF AND SWAP8 POP DUP1 PUSH1 0x1 ADD PUSH1 0x3 DUP1 PUSH1 0x20 MUL PUSH1 0x40 MLOAD SWAP1 DUP2 ADD PUSH1 0x40 MSTORE DUP1 SWAP3 SWAP2 SWAP1 DUP3 PUSH1 0x3 DUP1 ISZERO PUSH2 0x858 JUMPI PUSH1 0x20 MUL DUP3 ADD SWAP2 JUMPDEST DUP2 SLOAD DUP2 MSTORE PUSH1 0x20 ADD SWAP1 PUSH1 0x1 ADD SWAP1 DUP1 DUP4 GT PUSH2 0x844 JUMPI JUMPDEST POP POP POP POP POP SWAP7 POP DUP1 PUSH1 0x4 ADD SLOAD SWAP6 POP DUP1 PUSH1 0x5 ADD PUSH0 SWAP1 SLOAD SWAP1 PUSH2 0x100 EXP SWAP1 DIV PUSH4 0xFFFFFFFF AND SWAP5 POP DUP1 PUSH1 0x6 ADD PUSH0 ADD SLOAD SWAP4 POP DUP1 PUSH1 0x6 ADD PUSH1 0x1 ADD SLOAD SWAP3 POP DUP1 PUSH1 0x8 ADD DUP1 SLOAD PUSH2 0x89E SWAP1 PUSH2 0x1DA8 JUMP JUMPDEST DUP1 PUSH1 0x1F ADD PUSH1 0x20 DUP1 SWAP2 DIV MUL PUSH1 0x20 ADD PUSH1 0x40 MLOAD SWAP1 DUP2 ADD PUSH1 0x40 MSTORE DUP1 SWAP3 SWAP2 SWAP1 DUP2 DUP2 MSTORE PUSH1 0x20 ADD DUP3 DUP1 SLOAD PUSH2 0x8CA SWAP1 PUSH2 0x1DA8 JUMP JUMPDEST DUP1 ISZERO PUSH2 0x915 JUMPI DUP1 PUSH1 0x1F LT PUSH2 0x8EC JUMPI PUSH2 0x100 DUP1 DUP4 SLOAD DIV MUL DUP4 MSTORE SWAP2 PUSH1 0x20 ADD SWAP2 PUSH2 0x915 JUMP JUMPDEST DUP3 ADD SWAP2 SWAP1 PUSH0 MSTORE PUSH1 0x20 PUSH0 KECCAK256 SWAP1 JUMPDEST DUP2 SLOAD DUP2 MSTORE SWAP1 PUSH1 0x1 ADD SWAP1 PUSH1 0x20 ADD DUP1 DUP4 GT PUSH2 0x8F8 JUMPI DUP3 SWAP1 SUB PUSH1 0x1F AND DUP3 ADD SWAP2 JUMPDEST POP POP POP POP POP SWAP2 POP POP SWAP2 SWAP4 SWAP6 SWAP8 SWAP1 SWAP3 SWAP5 SWAP7 POP JUMP JUMPDEST PUSH32 0x0 DUP2 JUMP JUMPDEST PUSH0 SLOAD DUP2 JUMP JUMPDEST PUSH0 PUSH0 PUSH32 0x0 PUSH4 0xFFFFFFFF AND DUP4 PUSH4 0xFFFFFFFF AND PUSH2 0x98B SWAP2 SWAP1 PUSH2 0x1CD4 JUMP JUMPDEST SWAP1 POP PUSH0 DUP2 SUB PUSH2 0x999 JUMPI PUSH1 0x1 SWAP1 POP JUMPDEST DUP1 PUSH5 0xE8D4A51000 PUSH2 0x9AA SWAP2 SWAP1 PUSH2 0x2108 JUMP JUMPDEST SWAP2 POP POP SWAP2 SWAP1 POP JUMP JUMPDEST PUSH0 PUSH0 SWAP1 POP SWAP2 SWAP1 POP JUMP JUMPDEST PUSH0 PUSH0 SLOAD SWAP1 POP SWAP1 JUMP JUMPDEST PUSH32 0x0 DUP2 JUMP JUMPDEST PUSH1 0x1 PUSH1 0x20 MSTORE DUP1 PUSH0 MSTORE PUSH1 0x40 PUSH0 KECCAK256 PUSH0 SWAP2 POP SWAP1 POP DUP1 PUSH0 ADD PUSH0 SWAP1 SLOAD SWAP1 PUSH2 0x100 EXP SWAP1 DIV PUSH20 0xFFFFFFFFFFFFFFFFFFFFFFFFFFFFFFFFFFFFFFFF AND SWAP1 DUP1 PUSH1 0x4 ADD SLOAD SWAP1 DUP1 PUSH1 0x5 ADD PUSH0 SWAP1 SLOAD SWAP1 PUSH2 0x100 EXP SWAP1 DIV PUSH4 0xFFFFFFFF AND SWAP1 DUP1 PUSH1 0x6 ADD PUSH1 0x40 MLOAD DUP1 PUSH1 0x40 ADD PUSH1 0x40 MSTORE SWAP1 DUP2 PUSH0 DUP3 ADD SLOAD DUP2 MSTORE PUSH1 0x20 ADD PUSH1 0x1 DUP3 ADD SLOAD DUP2 MSTORE POP POP SWAP1 DUP1 PUSH1 0x8 ADD DUP1 SLOAD PUSH2 0xA69 SWAP1 PUSH2 0x1DA8 JUMP JUMPDEST DUP1 PUSH1 0x1F ADD PUSH1 0x20 DUP1 SWAP2 DIV MUL PUSH1 0x20 ADD PUSH1 0x40 MLOAD SWAP1 DUP2 ADD PUSH1 0x40 MSTORE DUP1 SWAP3 SWAP2 SWAP1 DUP2 DUP2 MSTORE PUSH1 0x20 ADD DUP3 DUP1 SLOAD PUSH2 0xA95 SWAP1 PUSH2 0x1DA8 JUMP JUMPDEST DUP1 ISZERO PUSH2 0xAE0 JUMPI DUP1 PUSH1 0x1F LT PUSH2 0xAB7 JUMPI PUSH2 0x100 DUP1 DUP4 SLOAD DIV MUL DUP4 MSTORE SWAP2 PUSH1 0x20 ADD SWAP2 PUSH2 0xAE0 JUMP JUMPDEST DUP3 ADD SWAP2 SWAP1 PUSH0 MSTORE PUSH1 0x20 PUSH0 KECCAK256 SWAP1 JUMPDEST DUP2 SLOAD DUP2 MSTORE SWAP1 PUSH1 0x1 ADD SWAP1 PUSH1 0x20 ADD DUP1 DUP4 GT PUSH2 0xAC3 JUMPI DUP3 SWAP1 SUB PUSH1 0x1F AND DUP3 ADD SWAP2 JUMPDEST POP POP POP POP POP SWAP1 DUP1 PUSH1 0x9 ADD PUSH0 SWAP1 SLOAD SWAP1 PUSH2 0x100 EXP SWAP1 DIV PUSH1 0xFF AND SWAP1 POP DUP7 JUMP JUMPDEST PUSH1 0x2 PUSH0 SWAP1 SLOAD SWAP1 PUSH2 0x100 EXP SWAP1 DIV PUSH1 0xFF AND DUP2 JUMP JUMPDEST PUSH32 0x0 DUP2 JUMP JUMPDEST PUSH1 0x2 PUSH0 SWAP1 SLOAD SWAP1 PUSH2 0x100 EXP SWAP1 DIV PUSH1 0xFF AND ISZERO PUSH2 0xB81 JUMPI PUSH1 0x40 MLOAD PUSH32 0x8C379A000000000000000000000000000000000000000000000000000000000 DUP2 MSTORE PUSH1 0x4 ADD PUSH2 0xB78 SWAP1 PUSH2 0x2182 JUMP JUMPDEST PUSH1 0x40 MLOAD DUP1 SWAP2 SUB SWAP1 REVERT JUMPDEST PUSH0 PUSH0 SLOAD GT PUSH2 0xBC4 JUMPI PUSH1 0x40 MLOAD PUSH32 0x8C379A000000000000000000000000000000000000000000000000000000000 DUP2 MSTORE PUSH1 0x4 ADD PUSH2 0xBBB SWAP1 PUSH2 0x21EA JUMP JUMPDEST PUSH1 0x40 MLOAD DUP1 SWAP2 SUB SWAP1 REVERT JUMPDEST PUSH0 PUSH2 0xBCD PUSH2 0x118F JUMP JUMPDEST SWAP1 POP PUSH0 PUSH0 SWAP1 POP PUSH0 PUSH1 0x1 SWAP1 POP JUMPDEST PUSH0 SLOAD DUP2 GT PUSH2 0xC8E JUMPI PUSH0 PUSH1 0x1 PUSH0 DUP4 DUP2 MSTORE PUSH1 0x20 ADD SWAP1 DUP2 MSTORE PUSH1 0x20 ADD PUSH0 KECCAK256 SWAP1 POP DUP1 PUSH1 0x9 ADD PUSH0 SWAP1 SLOAD SWAP1 PUSH2 0x100 EXP SWAP1 DIV PUSH1 0xFF AND PUSH2 0xC10 JUMPI POP PUSH2 0xC7B JUMP JUMPDEST PUSH0 PUSH2 0xC2D DUP3 PUSH1 0x5 ADD PUSH0 SWAP1 SLOAD SWAP1 PUSH2 0x100 EXP SWAP1 DIV PUSH4 0xFFFFFFFF AND PUSH2 0x951 JUMP JUMPDEST SWAP1 POP DUP1 DUP5 PUSH2 0xC3B SWAP2 SWAP1 PUSH2 0x1CD4 JUMP JUMPDEST SWAP4 POP PUSH0 PUSH2 0xC69 DUP4 PUSH1 0x6 ADD PUSH1 0x40 MLOAD DUP1 PUSH1 0x40 ADD PUSH1 0x40 MSTORE SWAP1 DUP2 PUSH0 DUP3 ADD SLOAD DUP2 MSTORE PUSH1 0x20 ADD PUSH1 0x1 DUP3 ADD SLOAD DUP2 MSTORE POP POP DUP4 PUSH2 0x11B1 JUMP JUMPDEST SWAP1 POP PUSH2 0xC75 DUP7 DUP3 PUSH2 0x1242 JUMP JUMPDEST SWAP6 POP POP POP POP JUMPDEST DUP1 DUP1 PUSH2 0xC86 SWAP1 PUSH2 0x1D34 JUMP JUMPDEST SWAP2 POP POP PUSH2 0xBD9 JUMP JUMPDEST POP PUSH0 DUP2 GT PUSH2 0xCD1 JUMPI PUSH1 0x40 MLOAD PUSH32 0x8C379A000000000000000000000000000000000000000000000000000000000 DUP2 MSTORE PUSH1 0x4 ADD PUSH2 0xCC8 SWAP1 PUSH2 0x2252 JUMP JUMPDEST PUSH1 0x40 MLOAD DUP1 SWAP2 SUB SWAP1 REVERT JUMPDEST PUSH0 PUSH2 0xD12 DUP8 PUSH1 0x3 DUP1 PUSH1 0x20 MUL PUSH1 0x40 MLOAD SWAP1 DUP2 ADD PUSH1 0x40 MSTORE DUP1 SWAP3 SWAP2 SWAP1 DUP3 PUSH1 0x3 PUSH1 0x20 MUL DUP1 DUP3 DUP5 CALLDATACOPY PUSH0 DUP2 DUP5 ADD MSTORE PUSH1 0x1F NOT PUSH1 0x1F DUP3 ADD AND SWAP1 POP DUP1 DUP4 ADD SWAP3 POP POP POP POP POP POP DUP8 PUSH2 0x107D JUMP JUMPDEST SWAP1 POP PUSH2 0xD1E DUP2 DUP5 PUSH2 0x1289 JUMP JUMPDEST PUSH2 0xD5D JUMPI PUSH1 0x40 MLOAD PUSH32 0x8C379A000000000000000000000000000000000000000000000000000000000 DUP2 MSTORE PUSH1 0x4 ADD PUSH2 0xD54 SWAP1 PUSH2 0x22BA JUMP JUMPDEST PUSH1 0x40 MLOAD DUP1 SWAP2 SUB SWAP1 REVERT JUMPDEST PUSH0 PUSH32 0x0 SWAP1 POP PUSH0 PUSH1 0x1 SWAP1 POP JUMPDEST PUSH0 SLOAD DUP2 GT PUSH2 0xFBF JUMPI PUSH0 PUSH1 0x1 PUSH0 DUP4 DUP2 MSTORE PUSH1 0x20 ADD SWAP1 DUP2 MSTORE PUSH1 0x20 ADD PUSH0 KECCAK256 SWAP1 POP DUP1 PUSH1 0x9 ADD PUSH0 SWAP1 SLOAD SWAP1 PUSH2 0x100 EXP SWAP1 DIV PUSH1 0xFF AND PUSH2 0xDBE JUMPI POP PUSH2 0xFAC JUMP JUMPDEST PUSH0 PUSH2 0xDDB DUP3 PUSH1 0x5 ADD PUSH0 SWAP1 SLOAD SWAP1 PUSH2 0x100 EXP SWAP1 DIV PUSH4 0xFFFFFFFF AND PUSH2 0x951 JUMP JUMPDEST SWAP1 POP PUSH0 DUP2 SUB PUSH2 0xDEB JUMPI POP POP PUSH2 0xFAC JUMP JUMPDEST PUSH0 DUP7 DUP3 PUSH32 0x0 PUSH2 0xE19 SWAP2 SWAP1 PUSH2 0x22D8 JUMP JUMPDEST PUSH2 0xE23 SWAP2 SWAP1 PUSH2 0x2108 JUMP JUMPDEST SWAP1 POP PUSH0 DUP2 GT ISZERO PUSH2 0xFA8 JUMPI DUP1 DUP6 PUSH2 0xE39 SWAP2 SWAP1 PUSH2 0x2319 JUMP JUMPDEST SWAP5 POP PUSH32 0x0 PUSH20 0xFFFFFFFFFFFFFFFFFFFFFFFFFFFFFFFFFFFFFFFF AND PUSH4 0xA9059CBB DUP5 PUSH0 ADD PUSH0 SWAP1 SLOAD SWAP1 PUSH2 0x100 EXP SWAP1 DIV PUSH20 0xFFFFFFFFFFFFFFFFFFFFFFFFFFFFFFFFFFFFFFFF AND DUP4 PUSH1 0x40 MLOAD DUP4 PUSH4 0xFFFFFFFF AND PUSH1 0xE0 SHL DUP2 MSTORE PUSH1 0x4 ADD PUSH2 0xEB8 SWAP3 SWAP2 SWAP1 PUSH2 0x234C JUMP JUMPDEST PUSH1 0x20 PUSH1 0x40 MLOAD DUP1 DUP4 SUB DUP2 PUSH0 DUP8 GAS CALL ISZERO DUP1 ISZERO PUSH2 0xED4 JUMPI RETURNDATASIZE PUSH0 PUSH0 RETURNDATACOPY RETURNDATASIZE PUSH0 REVERT JUMPDEST POP POP POP POP PUSH1 0x40 MLOAD RETURNDATASIZE PUSH1 0x1F NOT PUSH1 0x1F DUP3 ADD AND DUP3 ADD DUP1 PUSH1 0x40 MSTORE POP DUP2 ADD SWAP1 PUSH2 0xEF8 SWAP2 SWAP1 PUSH2 0x239D JUMP JUMPDEST PUSH2 0xF37 JUMPI PUSH1 0x40 MLOAD PUSH32 0x8C379A000000000000000000000000000000000000000000000000000000000 DUP2 MSTORE PUSH1 0x4 ADD PUSH2 0xF2E SWAP1 PUSH2 0x2412 JUMP JUMPDEST PUSH1 0x40 MLOAD DUP1 SWAP2 SUB SWAP1 REVERT JUMPDEST DUP3 PUSH0 ADD PUSH0 SWAP1 SLOAD SWAP1 PUSH2 0x100 EXP SWAP1 DIV PUSH20 0xFFFFFFFFFFFFFFFFFFFFFFFFFFFFFFFFFFFFFFFF AND PUSH20 0xFFFFFFFFFFFFFFFFFFFFFFFFFFFFFFFFFFFFFFFF AND PUSH32 0x737C69225D647E5994EAB1A6C301BF6D9232BEB2759AE1E27A8966B4732BC489 DUP3 PUSH1 0x40 MLOAD PUSH2 0xF9F SWAP2 SWAP1 PUSH2 0x1877 JUMP JUMPDEST PUSH1 0x40 MLOAD DUP1 SWAP2 SUB SWAP1 LOG2 JUMPDEST POP POP POP JUMPDEST DUP1 DUP1 PUSH2 0xFB7 SWAP1 PUSH2 0x1D34 JUMP JUMPDEST SWAP2 POP POP PUSH2 0xD87 JUMP JUMPDEST POP PUSH1 0x1 PUSH1 0x2 PUSH0 PUSH2 0x100 EXP DUP2 SLOAD DUP2 PUSH1 0xFF MUL NOT AND SWAP1 DUP4 ISZERO ISZERO MUL OR SWAP1 SSTORE POP PUSH0 DUP7 DUP7 DUP11 DUP11 DUP8 PUSH1 0x40 MLOAD PUSH1 0x20 ADD PUSH2 0xFF4 SWAP6 SWAP5 SWAP4 SWAP3 SWAP2 SWAP1 PUSH2 0x2579 JUMP JUMPDEST PUSH1 0x40 MLOAD PUSH1 0x20 DUP2 DUP4 SUB SUB DUP2 MSTORE SWAP1 PUSH1 0x40 MSTORE DUP1 MLOAD SWAP1 PUSH1 0x20 ADD KECCAK256 SWAP1 POP PUSH32 0xD827B005BF57A7BC26451FA8C853AB1BACA77E3409A05E7232A55E635385E756 DUP2 DUP6 PUSH1 0x40 MLOAD PUSH2 0x103D SWAP3 SWAP2 SWAP1 PUSH2 0x25DC JUMP JUMPDEST PUSH1 0x40 MLOAD DUP1 SWAP2 SUB SWAP1 LOG1 POP POP POP POP POP POP POP POP POP JUMP JUMPDEST PUSH5 0xE8D4A51000 DUP2 JUMP JUMPDEST PUSH32 0x0 DUP2 JUMP JUMPDEST PUSH2 0x1085 PUSH2 0x1597 JUMP JUMPDEST PUSH2 0x108D PUSH2 0x118F JUMP JUMPDEST SWAP1 POP PUSH2 0x1097 PUSH2 0x1597 JUMP JUMPDEST PUSH0 PUSH2 0x10B8 DUP6 PUSH0 PUSH1 0x3 DUP2 LT PUSH2 0x10AE JUMPI PUSH2 0x10AD PUSH2 0x1D07 JUMP JUMPDEST JUMPDEST PUSH1 0x20 MUL ADD MLOAD PUSH2 0x12AE JUMP JUMPDEST SWAP1 POP PUSH2 0x10CC PUSH2 0x10C6 PUSH0 PUSH2 0x1366 JUMP JUMPDEST DUP3 PUSH2 0x11B1 JUMP JUMPDEST SWAP2 POP PUSH2 0x10D8 DUP4 DUP4 PUSH2 0x1242 JUMP JUMPDEST SWAP3 POP PUSH0 PUSH2 0x10FC DUP7 PUSH1 0x1 PUSH1 0x3 DUP2 LT PUSH2 0x10F2 JUMPI PUSH2 0x10F1 PUSH2 0x1D07 JUMP JUMPDEST JUMPDEST PUSH1 0x20 MUL ADD MLOAD PUSH2 0x12AE JUMP JUMPDEST SWAP1 POP PUSH2 0x1111 PUSH2 0x110B PUSH1 0x1 PUSH2 0x1366 JUMP JUMPDEST DUP3 PUSH2 0x11B1 JUMP JUMPDEST SWAP3 POP PUSH2 0x111D DUP5 DUP5 PUSH2 0x1242 JUMP JUMPDEST SWAP4 POP PUSH0 PUSH2 0x1141 DUP8 PUSH1 0x2 PUSH1 0x3 DUP2 LT PUSH2 0x1137 JUMPI PUSH2 0x1136 PUSH2 0x1D07 JUMP JUMPDEST JUMPDEST PUSH1 0x20 MUL ADD MLOAD PUSH2 0x12AE JUMP JUMPDEST SWAP1 POP PUSH2 0x1156 PUSH2 0x1150 PUSH1 0x2 PUSH2 0x1366 JUMP JUMPDEST DUP3 PUSH2 0x11B1 JUMP JUMPDEST SWAP4 POP PUSH2 0x1162 DUP6 DUP6 PUSH2 0x1242 JUMP JUMPDEST SWAP5 POP PUSH0 PUSH2 0x1176 PUSH2 0x1170 PUSH2 0x13F2 JUMP JUMPDEST DUP9 PUSH2 0x11B1 JUMP JUMPDEST SWAP1 POP PUSH2 0x1182 DUP7 DUP3 PUSH2 0x1242 JUMP JUMPDEST SWAP6 POP POP POP POP POP POP SWAP3 SWAP2 POP POP JUMP JUMPDEST PUSH2 0x1197 PUSH2 0x1597 JUMP JUMPDEST PUSH1 0x40 MLOAD DUP1 PUSH1 0x40 ADD PUSH1 0x40 MSTORE DUP1 PUSH0 DUP2 MSTORE PUSH1 0x20 ADD PUSH0 DUP2 MSTORE POP SWAP1 POP SWAP1 JUMP JUMPDEST PUSH2 0x11B9 PUSH2 0x1597 JUMP JUMPDEST PUSH0 PUSH1 0x40 MLOAD DUP1 PUSH1 0x60 ADD PUSH1 0x40 MSTORE DUP1 DUP6 PUSH0 ADD MLOAD DUP2 MSTORE PUSH1 0x20 ADD DUP6 PUSH1 0x20 ADD MLOAD DUP2 MSTORE PUSH1 0x20 ADD DUP5 DUP2 MSTORE POP SWAP1 POP PUSH2 0x11E6 PUSH2 0x15AF JUMP JUMPDEST PUSH1 0x40 DUP2 PUSH1 0x60 DUP5 PUSH1 0x7 GAS STATICCALL PUSH2 0x11F8 JUMPI PUSH0 PUSH0 REVERT JUMPDEST DUP1 PUSH0 PUSH1 0x2 DUP2 LT PUSH2 0x120B JUMPI PUSH2 0x120A PUSH2 0x1D07 JUMP JUMPDEST JUMPDEST PUSH1 0x20 MUL ADD MLOAD DUP4 PUSH0 ADD DUP2 DUP2 MSTORE POP POP DUP1 PUSH1 0x1 PUSH1 0x2 DUP2 LT PUSH2 0x122C JUMPI PUSH2 0x122B PUSH2 0x1D07 JUMP JUMPDEST JUMPDEST PUSH1 0x20 MUL ADD MLOAD DUP4 PUSH1 0x20 ADD DUP2 DUP2 MSTORE POP POP POP POP SWAP3 SWAP2 POP POP JUMP JUMPDEST PUSH2 0x124A PUSH2 0x1597 JUMP JUMPDEST PUSH2 0x1253 DUP4 PUSH2 0x1414 JUMP JUMPDEST ISZERO PUSH2 0x1260 JUMPI DUP2 SWAP1 POP PUSH2 0x1283 JUMP JUMPDEST PUSH2 0x1269 DUP3 PUSH2 0x1414 JUMP JUMPDEST ISZERO PUSH2 0x1276 JUMPI DUP3 SWAP1 POP PUSH2 0x1283 JUMP JUMPDEST PUSH2 0x1280 DUP4 DUP4 PUSH2 0x1431 JUMP JUMPDEST SWAP1 POP JUMPDEST SWAP3 SWAP2 POP POP JUMP JUMPDEST PUSH0 DUP2 PUSH0 ADD MLOAD DUP4 PUSH0 ADD MLOAD EQ DUP1 ISZERO PUSH2 0x12A6 JUMPI POP DUP2 PUSH1 0x20 ADD MLOAD DUP4 PUSH1 0x20 ADD MLOAD EQ JUMPDEST SWAP1 POP SWAP3 SWAP2 POP POP JUMP JUMPDEST PUSH0 PUSH0 DUP3 SLT PUSH2 0x12E9 JUMPI PUSH32 0x30644E72E131A029B85045B68181585D2833E84879B9709143E1F593F0000001 DUP3 PUSH2 0x12E2 SWAP2 SWAP1 PUSH2 0x2603 JUMP JUMPDEST SWAP1 POP PUSH2 0x1361 JUMP JUMPDEST PUSH0 PUSH32 0x30644E72E131A029B85045B68181585D2833E84879B9709143E1F593F0000001 DUP4 PUSH2 0x1315 SWAP1 PUSH2 0x2633 JUMP JUMPDEST PUSH2 0x131F SWAP2 SWAP1 PUSH2 0x2603 JUMP JUMPDEST SWAP1 POP PUSH0 DUP2 SUB PUSH2 0x1331 JUMPI PUSH0 SWAP2 POP POP PUSH2 0x1361 JUMP JUMPDEST DUP1 PUSH32 0x30644E72E131A029B85045B68181585D2833E84879B9709143E1F593F0000001 PUSH2 0x135D SWAP2 SWAP1 PUSH2 0x2319 JUMP JUMPDEST SWAP2 POP POP JUMPDEST SWAP2 SWAP1 POP JUMP JUMPDEST PUSH2 0x136E PUSH2 0x1597 JUMP JUMPDEST PUSH0 DUP3 SUB PUSH2 0x1384 JUMPI PUSH2 0x137D PUSH2 0x14CF JUMP JUMPDEST SWAP1 POP PUSH2 0x13ED JUMP JUMPDEST PUSH1 0x1 DUP3 SUB PUSH2 0x139B JUMPI PUSH2 0x1394 PUSH2 0x14F1 JUMP JUMPDEST SWAP1 POP PUSH2 0x13ED JUMP JUMPDEST PUSH1 0x2 DUP3 SUB PUSH2 0x13B2 JUMPI PUSH2 0x13AB PUSH2 0x1513 JUMP JUMPDEST SWAP1 POP PUSH2 0x13ED JUMP JUMPDEST PUSH1 0x40 MLOAD PUSH32 0x8C379A000000000000000000000000000000000000000000000000000000000 DUP2 MSTORE PUSH1 0x4 ADD PUSH2 0x13E4 SWAP1 PUSH2 0x26C3 JUMP JUMPDEST PUSH1 0x40 MLOAD DUP1 SWAP2 SUB SWAP1 REVERT JUMPDEST SWAP2 SWAP1 POP JUMP JUMPDEST PUSH2 0x13FA PUSH2 0x1597 JUMP JUMPDEST PUSH1 0x40 MLOAD DUP1 PUSH1 0x40 ADD PUSH1 0x40 MSTORE DUP1 PUSH0 DUP2 MSTORE PUSH1 0x20 ADD PUSH0 DUP2 MSTORE POP SWAP1 POP SWAP1 JUMP JUMPDEST PUSH0 PUSH0 DUP3 PUSH0 ADD MLOAD EQ DUP1 ISZERO PUSH2 0x142A JUMPI POP PUSH0 DUP3 PUSH1 0x20 ADD MLOAD EQ JUMPDEST SWAP1 POP SWAP2 SWAP1 POP JUMP JUMPDEST PUSH2 0x1439 PUSH2 0x1597 JUMP JUMPDEST PUSH0 PUSH1 0x40 MLOAD DUP1 PUSH1 0x80 ADD PUSH1 0x40 MSTORE DUP1 DUP6 PUSH0 ADD MLOAD DUP2 MSTORE PUSH1 0x20 ADD DUP6 PUSH1 0x20 ADD MLOAD DUP2 MSTORE PUSH1 0x20 ADD DUP5 PUSH0 ADD MLOAD DUP2 MSTORE PUSH1 0x20 ADD DUP5 PUSH1 0x20 ADD MLOAD DUP2 MSTORE POP SWAP1 POP PUSH2 0x1473 PUSH2 0x15AF JUMP JUMPDEST PUSH1 0x40 DUP2 PUSH1 0x80 DUP5 PUSH1 0x6 GAS STATICCALL PUSH2 0x1485 JUMPI PUSH0 PUSH0 REVERT JUMPDEST DUP1 PUSH0 PUSH1 0x2 DUP2 LT PUSH2 0x1498 JUMPI PUSH2 0x1497 PUSH2 0x1D07 JUMP JUMPDEST JUMPDEST PUSH1 0x20 MUL ADD MLOAD DUP4 PUSH0 ADD DUP2 DUP2 MSTORE POP POP DUP1 PUSH1 0x1 PUSH1 0x2 DUP2 LT PUSH2 0x14B9 JUMPI PUSH2 0x14B8 PUSH2 0x1D07 JUMP JUMPDEST JUMPDEST PUSH1 0x20 MUL ADD MLOAD DUP4 PUSH1 0x20 ADD DUP2 DUP2 MSTORE POP POP POP POP SWAP3 SWAP2 POP POP JUMP JUMPDEST PUSH2 0x14D7 PUSH2 0x1597 JUMP JUMPDEST PUSH1 0x40 MLOAD DUP1 PUSH1 0x40 ADD PUSH1 0x40 MSTORE DUP1 PUSH0 DUP2 MSTORE PUSH1 0x20 ADD PUSH0 DUP2 MSTORE POP SWAP1 POP SWAP1 JUMP JUMPDEST PUSH2 0x14F9 PUSH2 0x1597 JUMP JUMPDEST PUSH1 0x40 MLOAD DUP1 PUSH1 0x40 ADD PUSH1 0x40 MSTORE DUP1 PUSH0 DUP2 MSTORE PUSH1 0x20 ADD PUSH0 DUP2 MSTORE POP SWAP1 POP SWAP1 JUMP JUMPDEST PUSH2 0x151B PUSH2 0x1597 JUMP JUMPDEST PUSH1 0x40 MLOAD DUP1 PUSH1 0x40 ADD PUSH1 0x40 MSTORE DUP1 PUSH0 DUP2 MSTORE PUSH1 0x20 ADD PUSH0 DUP2 MSTORE POP SWAP1 POP SWAP1 JUMP JUMPDEST DUP3 PUSH1 0x3 DUP2 ADD SWAP3 DUP3 ISZERO PUSH2 0x1564 JUMPI SWAP2 PUSH1 0x20 MUL DUP3 ADD JUMPDEST DUP3 DUP2 GT ISZERO PUSH2 0x1563 JUMPI DUP3 MLOAD DUP3 SSTORE SWAP2 PUSH1 0x20 ADD SWAP2 SWAP1 PUSH1 0x1 ADD SWAP1 PUSH2 0x1548 JUMP JUMPDEST JUMPDEST POP SWAP1 POP PUSH2 0x1571 SWAP2 SWAP1 PUSH2 0x15D1 JUMP JUMPDEST POP SWAP1 JUMP JUMPDEST PUSH1 0x40 MLOAD DUP1 PUSH1 0x60 ADD PUSH1 0x40 MSTORE DUP1 PUSH1 0x3 SWAP1 PUSH1 0x20 DUP3 MUL DUP1 CALLDATASIZE DUP4 CALLDATACOPY DUP1 DUP3 ADD SWAP2 POP POP SWAP1 POP POP SWAP1 JUMP JUMPDEST PUSH1 0x40 MLOAD DUP1 PUSH1 0x40 ADD PUSH1 0x40 MSTORE DUP1 PUSH0 DUP2 MSTORE PUSH1 0x20 ADD PUSH0 DUP2 MSTORE POP SWAP1 JUMP JUMPDEST PUSH1 0x40 MLOAD DUP1 PUSH1 0x40 ADD PUSH1 0x40 MSTORE DUP1 PUSH1 0x2 SWAP1 PUSH1 0x20 DUP3 MUL DUP1 CALLDATASIZE DUP4 CALLDATACOPY DUP1 DUP3 ADD SWAP2 POP POP SWAP1 POP POP SWAP1 JUMP JUMPDEST JUMPDEST DUP1 DUP3 GT ISZERO PUSH2 0x15E8 JUMPI PUSH0 DUP2 PUSH0 SWAP1 SSTORE POP PUSH1 0x1 ADD PUSH2 0x15D2 JUMP JUMPDEST POP SWAP1 JUMP JUMPDEST PUSH0 PUSH0 REVERT JUMPDEST PUSH0 PUSH0 REVERT JUMPDEST PUSH0 DUP2 SWAP1 POP SWAP2 SWAP1 POP JUMP JUMPDEST PUSH2 0x1606 DUP2 PUSH2 0x15F4 JUMP JUMPDEST DUP2 EQ PUSH2 0x1610 JUMPI PUSH0 PUSH0 REVERT JUMPDEST POP JUMP JUMPDEST PUSH0 DUP2 CALLDATALOAD SWAP1 POP PUSH2 0x1621 DUP2 PUSH2 0x15FD JUMP JUMPDEST SWAP3 SWAP2 POP POP JUMP JUMPDEST PUSH0 PUSH1 0x20 DUP3 DUP5 SUB SLT ISZERO PUSH2 0x163C JUMPI PUSH2 0x163B PUSH2 0x15EC JUMP JUMPDEST JUMPDEST PUSH0 PUSH2 0x1649 DUP5 DUP3 DUP6 ADD PUSH2 0x1613 JUMP JUMPDEST SWAP2 POP POP SWAP3 SWAP2 POP POP JUMP JUMPDEST PUSH0 DUP2 MLOAD SWAP1 POP SWAP2 SWAP1 POP JUMP JUMPDEST PUSH0 DUP3 DUP3 MSTORE PUSH1 0x20 DUP3 ADD SWAP1 POP SWAP3 SWAP2 POP POP JUMP JUMPDEST PUSH0 DUP2 SWAP1 POP PUSH1 0x20 DUP3 ADD SWAP1 POP SWAP2 SWAP1 POP JUMP JUMPDEST PUSH2 0x1684 DUP2 PUSH2 0x15F4 JUMP JUMPDEST DUP3 MSTORE POP POP JUMP JUMPDEST PUSH0 PUSH2 0x1695 DUP4 DUP4 PUSH2 0x167B JUMP JUMPDEST PUSH1 0x20 DUP4 ADD SWAP1 POP SWAP3 SWAP2 POP POP JUMP JUMPDEST PUSH0 PUSH1 0x20 DUP3 ADD SWAP1 POP SWAP2 SWAP1 POP JUMP JUMPDEST PUSH0 PUSH2 0x16B7 DUP3 PUSH2 0x1652 JUMP JUMPDEST PUSH2 0x16C1 DUP2 DUP6 PUSH2 0x165C JUMP JUMPDEST SWAP4 POP PUSH2 0x16CC DUP4 PUSH2 0x166C JUMP JUMPDEST DUP1 PUSH0 JUMPDEST DUP4 DUP2 LT ISZERO PUSH2 0x16FC JUMPI DUP2 MLOAD PUSH2 0x16E3 DUP9 DUP3 PUSH2 0x168A JUMP JUMPDEST SWAP8 POP PUSH2 0x16EE DUP4 PUSH2 0x16A1 JUMP JUMPDEST SWAP3 POP POP PUSH1 0x1 DUP2 ADD SWAP1 POP PUSH2 0x16CF JUMP JUMPDEST POP DUP6 SWAP4 POP POP POP POP SWAP3 SWAP2 POP POP JUMP JUMPDEST PUSH0 PUSH1 0x20 DUP3 ADD SWAP1 POP DUP2 DUP2 SUB PUSH0 DUP4 ADD MSTORE PUSH2 0x1721 DUP2 DUP5 PUSH2 0x16AD JUMP JUMPDEST SWAP1 POP SWAP3 SWAP2 POP POP JUMP JUMPDEST PUSH0 PUSH0 REVERT JUMPDEST PUSH0 DUP2 SWAP1 POP DUP3 PUSH1 0x20 PUSH1 0x3 MUL DUP3 ADD GT ISZERO PUSH2 0x1748 JUMPI PUSH2 0x1747 PUSH2 0x1729 JUMP JUMPDEST JUMPDEST SWAP3 SWAP2 POP POP JUMP JUMPDEST PUSH0 PUSH4 0xFFFFFFFF DUP3 AND SWAP1 POP SWAP2 SWAP1 POP JUMP JUMPDEST PUSH2 0x1766 DUP2 PUSH2 0x174E JUMP JUMPDEST DUP2 EQ PUSH2 0x1770 JUMPI PUSH0 PUSH0 REVERT JUMPDEST POP JUMP JUMPDEST PUSH0 DUP2 CALLDATALOAD SWAP1 POP PUSH2 0x1781 DUP2 PUSH2 0x175D JUMP JUMPDEST SWAP3 SWAP2 POP POP JUMP JUMPDEST PUSH0 PUSH0 REVERT JUMPDEST PUSH0 PUSH0 REVERT JUMPDEST PUSH0 PUSH0 DUP4 PUSH1 0x1F DUP5 ADD SLT PUSH2 0x17A4 JUMPI PUSH2 0x17A3 PUSH2 0x1787 JUMP JUMPDEST JUMPDEST DUP3 CALLDATALOAD SWAP1 POP PUSH8 0xFFFFFFFFFFFFFFFF DUP2 GT ISZERO PUSH2 0x17C1 JUMPI PUSH2 0x17C0 PUSH2 0x178B JUMP JUMPDEST JUMPDEST PUSH1 0x20 DUP4 ADD SWAP2 POP DUP4 PUSH1 0x1 DUP3 MUL DUP4 ADD GT ISZERO PUSH2 0x17DD JUMPI PUSH2 0x17DC PUSH2 0x1729 JUMP JUMPDEST JUMPDEST SWAP3 POP SWAP3 SWAP1 POP JUMP JUMPDEST PUSH0 PUSH0 PUSH0 PUSH0 PUSH0 PUSH1 0xC0 DUP7 DUP9 SUB SLT ISZERO PUSH2 0x17FD JUMPI PUSH2 0x17FC PUSH2 0x15EC JUMP JUMPDEST JUMPDEST PUSH0 PUSH2 0x180A DUP9 DUP3 DUP10 ADD PUSH2 0x172D JUMP JUMPDEST SWAP6 POP POP PUSH1 0x60 PUSH2 0x181B DUP9 DUP3 DUP10 ADD PUSH2 0x1613 JUMP JUMPDEST SWAP5 POP POP PUSH1 0x80 PUSH2 0x182C DUP9 DUP3 DUP10 ADD PUSH2 0x1773 JUMP JUMPDEST SWAP4 POP POP PUSH1 0xA0 DUP7 ADD CALLDATALOAD PUSH8 0xFFFFFFFFFFFFFFFF DUP2 GT ISZERO PUSH2 0x184D JUMPI PUSH2 0x184C PUSH2 0x15F0 JUMP JUMPDEST JUMPDEST PUSH2 0x1859 DUP9 DUP3 DUP10 ADD PUSH2 0x178F JUMP JUMPDEST SWAP3 POP SWAP3 POP POP SWAP3 SWAP6 POP SWAP3 SWAP6 SWAP1 SWAP4 POP JUMP JUMPDEST PUSH2 0x1871 DUP2 PUSH2 0x15F4 JUMP JUMPDEST DUP3 MSTORE POP POP JUMP JUMPDEST PUSH0 PUSH1 0x20 DUP3 ADD SWAP1 POP PUSH2 0x188A PUSH0 DUP4 ADD DUP5 PUSH2 0x1868 JUMP JUMPDEST SWAP3 SWAP2 POP POP JUMP JUMPDEST PUSH0 PUSH20 0xFFFFFFFFFFFFFFFFFFFFFFFFFFFFFFFFFFFFFFFF DUP3 AND SWAP1 POP SWAP2 SWAP1 POP JUMP JUMPDEST PUSH0 PUSH2 0x18B9 DUP3 PUSH2 0x1890 JUMP JUMPDEST SWAP1 POP SWAP2 SWAP1 POP JUMP JUMPDEST PUSH2 0x18C9 DUP2 PUSH2 0x18AF JUMP JUMPDEST DUP3 MSTORE POP POP JUMP JUMPDEST PUSH0 PUSH1 0x3 SWAP1 POP SWAP2 SWAP1 POP JUMP JUMPDEST PUSH0 DUP2 SWAP1 POP SWAP3 SWAP2 POP POP JUMP JUMPDEST PUSH0 DUP2 SWAP1 POP SWAP2 SWAP1 POP JUMP JUMPDEST PUSH0 DUP2 SWAP1 POP SWAP2 SWAP1 POP JUMP JUMPDEST PUSH2 0x18FE DUP2 PUSH2 0x18EC JUMP JUMPDEST DUP3 MSTORE POP POP JUMP JUMPDEST PUSH0 PUSH2 0x190F DUP4 DUP4 PUSH2 0x18F5 JUMP JUMPDEST PUSH1 0x20 DUP4 ADD SWAP1 POP SWAP3 SWAP2 POP POP JUMP JUMPDEST PUSH0 PUSH1 0x20 DUP3 ADD SWAP1 POP SWAP2 SWAP1 POP JUMP JUMPDEST PUSH2 0x1930 DUP2 PUSH2 0x18CF JUMP JUMPDEST PUSH2 0x193A DUP2 DUP5 PUSH2 0x18D9 JUMP JUMPDEST SWAP3 POP PUSH2 0x1945 DUP3 PUSH2 0x18E3 JUMP JUMPDEST DUP1 PUSH0 JUMPDEST DUP4 DUP2 LT ISZERO PUSH2 0x1975 JUMPI DUP2 MLOAD PUSH2 0x195C DUP8 DUP3 PUSH2 0x1904 JUMP JUMPDEST SWAP7 POP PUSH2 0x1967 DUP4 PUSH2 0x191B JUMP JUMPDEST SWAP3 POP POP PUSH1 0x1 DUP2 ADD SWAP1 POP PUSH2 0x1948 JUMP JUMPDEST POP POP POP POP POP POP JUMP JUMPDEST PUSH2 0x1986 DUP2 PUSH2 0x174E JUMP JUMPDEST DUP3 MSTORE POP POP JUMP JUMPDEST PUSH0 DUP2 MLOAD SWAP1 POP SWAP2 SWAP1 POP JUMP JUMPDEST PUSH0 DUP3 DUP3 MSTORE PUSH1 0x20 DUP3 ADD SWAP1 POP SWAP3 SWAP2 POP POP JUMP JUMPDEST DUP3 DUP2 DUP4 MCOPY PUSH0 DUP4 DUP4 ADD MSTORE POP POP POP JUMP JUMPDEST PUSH0 PUSH1 0x1F NOT PUSH1 0x1F DUP4 ADD AND SWAP1 POP SWAP2 SWAP1 POP JUMP JUMPDEST PUSH0 PUSH2 0x19CE DUP3 PUSH2 0x198C JUMP JUMPDEST PUSH2 0x19D8 DUP2 DUP6 PUSH2 0x1996 JUMP JUMPDEST SWAP4 POP PUSH2 0x19E8 DUP2 DUP6 PUSH1 0x20 DUP7 ADD PUSH2 0x19A6 JUMP JUMPDEST PUSH2 0x19F1 DUP2 PUSH2 0x19B4 JUMP JUMPDEST DUP5 ADD SWAP2 POP POP SWAP3 SWAP2 POP POP JUMP JUMPDEST PUSH0 PUSH2 0x120 DUP3 ADD SWAP1 POP PUSH2 0x1A10 PUSH0 DUP4 ADD DUP11 PUSH2 0x18C0 JUMP JUMPDEST PUSH2 0x1A1D PUSH1 0x20 DUP4 ADD DUP10 PUSH2 0x1927 JUMP JUMPDEST PUSH2 0x1A2A PUSH1 0x80 DUP4 ADD DUP9 PUSH2 0x1868 JUMP JUMPDEST PUSH2 0x1A37 PUSH1 0xA0 DUP4 ADD DUP8 PUSH2 0x197D JUMP JUMPDEST PUSH2 0x1A44 PUSH1 0xC0 DUP4 ADD DUP7 PUSH2 0x1868 JUMP JUMPDEST PUSH2 0x1A51 PUSH1 0xE0 DUP4 ADD DUP6 PUSH2 0x1868 JUMP JUMPDEST DUP2 DUP2 SUB PUSH2 0x100 DUP4 ADD MSTORE PUSH2 0x1A64 DUP2 DUP5 PUSH2 0x19C4 JUMP JUMPDEST SWAP1 POP SWAP9 SWAP8 POP POP POP POP POP POP POP POP JUMP JUMPDEST PUSH0 PUSH1 0x20 DUP3 ADD SWAP1 POP PUSH2 0x1A85 PUSH0 DUP4 ADD DUP5 PUSH2 0x18C0 JUMP JUMPDEST SWAP3 SWAP2 POP POP JUMP JUMPDEST PUSH0 PUSH1 0x20 DUP3 DUP5 SUB SLT ISZERO PUSH2 0x1AA0 JUMPI PUSH2 0x1A9F PUSH2 0x15EC JUMP JUMPDEST JUMPDEST PUSH0 PUSH2 0x1AAD DUP5 DUP3 DUP6 ADD PUSH2 0x1773 JUMP JUMPDEST SWAP2 POP POP SWAP3 SWAP2 POP POP JUMP JUMPDEST PUSH1 0x40 DUP3 ADD PUSH0 DUP3 ADD MLOAD PUSH2 0x1ACA PUSH0 DUP6 ADD DUP3 PUSH2 0x167B JUMP JUMPDEST POP PUSH1 0x20 DUP3 ADD MLOAD PUSH2 0x1ADD PUSH1 0x20 DUP6 ADD DUP3 PUSH2 0x167B JUMP JUMPDEST POP POP POP POP JUMP JUMPDEST PUSH0 DUP2 ISZERO ISZERO SWAP1 POP SWAP2 SWAP1 POP JUMP JUMPDEST PUSH2 0x1AF7 DUP2 PUSH2 0x1AE3 JUMP JUMPDEST DUP3 MSTORE POP POP JUMP JUMPDEST PUSH0 PUSH1 0xE0 DUP3 ADD SWAP1 POP PUSH2 0x1B10 PUSH0 DUP4 ADD DUP10 PUSH2 0x18C0 JUMP JUMPDEST PUSH2 0x1B1D PUSH1 0x20 DUP4 ADD DUP9 PUSH2 0x1868 JUMP JUMPDEST PUSH2 0x1B2A PUSH1 0x40 DUP4 ADD DUP8 PUSH2 0x197D JUMP JUMPDEST PUSH2 0x1B37 PUSH1 0x60 DUP4 ADD DUP7 PUSH2 0x1AB6 JUMP JUMPDEST DUP2 DUP2 SUB PUSH1 0xA0 DUP4 ADD MSTORE PUSH2 0x1B49 DUP2 DUP6 PUSH2 0x19C4 JUMP JUMPDEST SWAP1 POP PUSH2 0x1B58 PUSH1 0xC0 DUP4 ADD DUP5 PUSH2 0x1AEE JUMP JUMPDEST SWAP8 SWAP7 POP POP POP POP POP POP POP JUMP JUMPDEST PUSH0 PUSH1 0x20 DUP3 ADD SWAP1 POP PUSH2 0x1B76 PUSH0 DUP4 ADD DUP5 PUSH2 0x1AEE JUMP JUMPDEST SWAP3 SWAP2 POP POP JUMP JUMPDEST PUSH0 PUSH1 0x20 DUP3 ADD SWAP1 POP PUSH2 0x1B8F PUSH0 DUP4 ADD DUP5 PUSH2 0x197D JUMP JUMPDEST SWAP3 SWAP2 POP POP JUMP JUMPDEST PUSH0 PUSH0 PUSH0 PUSH0 PUSH1 0xA0 DUP6 DUP8 SUB SLT ISZERO PUSH2 0x1BAD JUMPI PUSH2 0x1BAC PUSH2 0x15EC JUMP JUMPDEST JUMPDEST PUSH0 PUSH2 0x1BBA DUP8 DUP3 DUP9 ADD PUSH2 0x172D JUMP JUMPDEST SWAP5 POP POP PUSH1 0x60 PUSH2 0x1BCB DUP8 DUP3 DUP9 ADD PUSH2 0x1613 JUMP JUMPDEST SWAP4 POP POP PUSH1 0x80 DUP6 ADD CALLDATALOAD PUSH8 0xFFFFFFFFFFFFFFFF DUP2 GT ISZERO PUSH2 0x1BEC JUMPI PUSH2 0x1BEB PUSH2 0x15F0 JUMP JUMPDEST JUMPDEST PUSH2 0x1BF8 DUP8 DUP3 DUP9 ADD PUSH2 0x178F JUMP JUMPDEST SWAP3 POP SWAP3 POP POP SWAP3 SWAP6 SWAP2 SWAP5 POP SWAP3 POP JUMP JUMPDEST PUSH0 DUP2 SWAP1 POP SWAP2 SWAP1 POP JUMP JUMPDEST PUSH0 PUSH2 0x1C29 PUSH2 0x1C24 PUSH2 0x1C1F DUP5 PUSH2 0x1890 JUMP JUMPDEST PUSH2 0x1C06 JUMP JUMPDEST PUSH2 0x1890 JUMP JUMPDEST SWAP1 POP SWAP2 SWAP1 POP JUMP JUMPDEST PUSH0 PUSH2 0x1C3A DUP3 PUSH2 0x1C0F JUMP JUMPDEST SWAP1 POP SWAP2 SWAP1 POP JUMP JUMPDEST PUSH0 PUSH2 0x1C4B DUP3 PUSH2 0x1C30 JUMP JUMPDEST SWAP1 POP SWAP2 SWAP1 POP JUMP JUMPDEST PUSH2 0x1C5B DUP2 PUSH2 0x1C41 JUMP JUMPDEST DUP3 MSTORE POP POP JUMP JUMPDEST PUSH0 PUSH1 0x20 DUP3 ADD SWAP1 POP PUSH2 0x1C74 PUSH0 DUP4 ADD DUP5 PUSH2 0x1C52 JUMP JUMPDEST SWAP3 SWAP2 POP POP JUMP JUMPDEST PUSH32 0x4E487B7100000000000000000000000000000000000000000000000000000000 PUSH0 MSTORE PUSH1 0x41 PUSH1 0x4 MSTORE PUSH1 0x24 PUSH0 REVERT JUMPDEST PUSH32 0x4E487B7100000000000000000000000000000000000000000000000000000000 PUSH0 MSTORE PUSH1 0x11 PUSH1 0x4 MSTORE PUSH1 0x24 PUSH0 REVERT JUMPDEST PUSH0 PUSH2 0x1CDE DUP3 PUSH2 0x15F4 JUMP JUMPDEST SWAP2 POP PUSH2 0x1CE9 DUP4 PUSH2 0x15F4 JUMP JUMPDEST SWAP3 POP DUP3 DUP3 ADD SWAP1 POP DUP1 DUP3 GT ISZERO PUSH2 0x1D01 JUMPI PUSH2 0x1D00 PUSH2 0x1CA7 JUMP JUMPDEST JUMPDEST SWAP3 SWAP2 POP POP JUMP JUMPDEST PUSH32 0x4E487B7100000000000000000000000000000000000000000000000000000000 PUSH0 MSTORE PUSH1 0x32 PUSH1 0x4 MSTORE PUSH1 0x24 PUSH0 REVERT JUMPDEST PUSH0 PUSH2 0x1D3E DUP3 PUSH2 0x15F4 JUMP JUMPDEST SWAP2 POP PUSH32 0xFFFFFFFFFFFFFFFFFFFFFFFFFFFFFFFFFFFFFFFFFFFFFFFFFFFFFFFFFFFFFFFF DUP3 SUB PUSH2 0x1D70 JUMPI PUSH2 0x1D6F PUSH2 0x1CA7 JUMP JUMPDEST JUMPDEST PUSH1 0x1 DUP3 ADD SWAP1 POP SWAP2 SWAP1 POP JUMP JUMPDEST PUSH32 0x4E487B7100000000000000000000000000000000000000000000000000000000 PUSH0 MSTORE PUSH1 0x22 PUSH1 0x4 MSTORE PUSH1 0x24 PUSH0 REVERT JUMPDEST PUSH0 PUSH1 0x2 DUP3 DIV SWAP1 POP PUSH1 0x1 DUP3 AND DUP1 PUSH2 0x1DBF JUMPI PUSH1 0x7F DUP3 AND SWAP2 POP JUMPDEST PUSH1 0x20 DUP3 LT DUP2 SUB PUSH2 0x1DD2 JUMPI PUSH2 0x1DD1 PUSH2 0x1D7B JUMP JUMPDEST JUMPDEST POP SWAP2 SWAP1 POP JUMP JUMPDEST PUSH0 DUP2 SWAP1 POP DUP2 PUSH0 MSTORE PUSH1 0x20 PUSH0 KECCAK256 SWAP1 POP SWAP2 SWAP1 POP JUMP JUMPDEST PUSH0 PUSH1 0x20 PUSH1 0x1F DUP4 ADD DIV SWAP1 POP SWAP2 SWAP1 POP JUMP JUMPDEST PUSH0 DUP3 DUP3 SHL SWAP1 POP SWAP3 SWAP2 POP POP JUMP JUMPDEST PUSH0 PUSH1 0x8 DUP4 MUL PUSH2 0x1E34 PUSH32 0xFFFFFFFFFFFFFFFFFFFFFFFFFFFFFFFFFFFFFFFFFFFFFFFFFFFFFFFFFFFFFFFF DUP3 PUSH2 0x1DF9 JUMP JUMPDEST PUSH2 0x1E3E DUP7 DUP4 PUSH2 0x1DF9 JUMP JUMPDEST SWAP6 POP DUP1 NOT DUP5 AND SWAP4 POP DUP1 DUP7 AND DUP5 OR SWAP3 POP POP POP SWAP4 SWAP3 POP POP POP JUMP JUMPDEST PUSH0 PUSH2 0x1E70 PUSH2 0x1E6B PUSH2 0x1E66 DUP5 PUSH2 0x15F4 JUMP JUMPDEST PUSH2 0x1C06 JUMP JUMPDEST PUSH2 0x15F4 JUMP JUMPDEST SWAP1 POP SWAP2 SWAP1 POP JUMP JUMPDEST PUSH0 DUP2 SWAP1 POP SWAP2 SWAP1 POP JUMP JUMPDEST PUSH2 0x1E89 DUP4 PUSH2 0x1E56 JUMP JUMPDEST PUSH2 0x1E9D PUSH2 0x1E95 DUP3 PUSH2 0x1E77 JUMP JUMPDEST DUP5 DUP5 SLOAD PUSH2 0x1E05 JUMP JUMPDEST DUP3 SSTORE POP POP POP POP JUMP JUMPDEST PUSH0 PUSH0 SWAP1 POP SWAP1 JUMP JUMPDEST PUSH2 0x1EB4 PUSH2 0x1EA5 JUMP JUMPDEST PUSH2 0x1EBF DUP2 DUP5 DUP5 PUSH2 0x1E80 JUMP JUMPDEST POP POP POP JUMP JUMPDEST JUMPDEST DUP2 DUP2 LT ISZERO PUSH2 0x1EE2 JUMPI PUSH2 0x1ED7 PUSH0 DUP3 PUSH2 0x1EAC JUMP JUMPDEST PUSH1 0x1 DUP2 ADD SWAP1 POP PUSH2 0x1EC5 JUMP JUMPDEST POP POP JUMP JUMPDEST PUSH1 0x1F DUP3 GT ISZERO PUSH2 0x1F27 JUMPI PUSH2 0x1EF8 DUP2 PUSH2 0x1DD8 JUMP JUMPDEST PUSH2 0x1F01 DUP5 PUSH2 0x1DEA JUMP JUMPDEST DUP2 ADD PUSH1 0x20 DUP6 LT ISZERO PUSH2 0x1F10 JUMPI DUP2 SWAP1 POP JUMPDEST PUSH2 0x1F24 PUSH2 0x1F1C DUP6 PUSH2 0x1DEA JUMP JUMPDEST DUP4 ADD DUP3 PUSH2 0x1EC4 JUMP JUMPDEST POP POP JUMPDEST POP POP POP JUMP JUMPDEST PUSH0 DUP3 DUP3 SHR SWAP1 POP SWAP3 SWAP2 POP POP JUMP JUMPDEST PUSH0 PUSH2 0x1F47 PUSH0 NOT DUP5 PUSH1 0x8 MUL PUSH2 0x1F2C JUMP JUMPDEST NOT DUP1 DUP4 AND SWAP2 POP POP SWAP3 SWAP2 POP POP JUMP JUMPDEST PUSH0 PUSH2 0x1F5F DUP4 DUP4 PUSH2 0x1F38 JUMP JUMPDEST SWAP2 POP DUP3 PUSH1 0x2 MUL DUP3 OR SWAP1 POP SWAP3 SWAP2 POP POP JUMP JUMPDEST PUSH2 0x1F78 DUP3 PUSH2 0x198C JUMP JUMPDEST PUSH8 0xFFFFFFFFFFFFFFFF DUP2 GT ISZERO PUSH2 0x1F91 JUMPI PUSH2 0x1F90 PUSH2 0x1C7A JUMP JUMPDEST JUMPDEST PUSH2 0x1F9B DUP3 SLOAD PUSH2 0x1DA8 JUMP JUMPDEST PUSH2 0x1FA6 DUP3 DUP3 DUP6 PUSH2 0x1EE6 JUMP JUMPDEST PUSH0 PUSH1 0x20 SWAP1 POP PUSH1 0x1F DUP4 GT PUSH1 0x1 DUP2 EQ PUSH2 0x1FD7 JUMPI PUSH0 DUP5 ISZERO PUSH2 0x1FC5 JUMPI DUP3 DUP8 ADD MLOAD SWAP1 POP JUMPDEST PUSH2 0x1FCF DUP6 DUP3 PUSH2 0x1F54 JUMP JUMPDEST DUP7 SSTORE POP PUSH2 0x2036 JUMP JUMPDEST PUSH1 0x1F NOT DUP5 AND PUSH2 0x1FE5 DUP7 PUSH2 0x1DD8 JUMP JUMPDEST PUSH0 JUMPDEST DUP3 DUP2 LT ISZERO PUSH2 0x200C JUMPI DUP5 DUP10 ADD MLOAD DUP3 SSTORE PUSH1 0x1 DUP3 ADD SWAP2 POP PUSH1 0x20 DUP6 ADD SWAP5 POP PUSH1 0x20 DUP2 ADD SWAP1 POP PUSH2 0x1FE7 JUMP JUMPDEST DUP7 DUP4 LT ISZERO PUSH2 0x2029 JUMPI DUP5 DUP10 ADD MLOAD PUSH2 0x2025 PUSH1 0x1F DUP10 AND DUP3 PUSH2 0x1F38 JUMP JUMPDEST DUP4 SSTORE POP JUMPDEST PUSH1 0x1 PUSH1 0x2 DUP9 MUL ADD DUP9 SSTORE POP POP POP JUMPDEST POP POP POP POP POP POP JUMP JUMPDEST PUSH0 PUSH1 0x60 DUP3 ADD SWAP1 POP PUSH2 0x2051 PUSH0 DUP4 ADD DUP7 PUSH2 0x197D JUMP JUMPDEST PUSH2 0x205E PUSH1 0x20 DUP4 ADD DUP6 PUSH2 0x1868 JUMP JUMPDEST PUSH2 0x206B PUSH1 0x40 DUP4 ADD DUP5 PUSH2 0x1868 JUMP JUMPDEST SWAP5 SWAP4 POP POP POP POP JUMP JUMPDEST PUSH32 0x6261642069640000000000000000000000000000000000000000000000000000 PUSH0 DUP3 ADD MSTORE POP JUMP JUMPDEST PUSH0 PUSH2 0x20A7 PUSH1 0x6 DUP4 PUSH2 0x1996 JUMP JUMPDEST SWAP2 POP PUSH2 0x20B2 DUP3 PUSH2 0x2073 JUMP JUMPDEST PUSH1 0x20 DUP3 ADD SWAP1 POP SWAP2 SWAP1 POP JUMP JUMPDEST PUSH0 PUSH1 0x20 DUP3 ADD SWAP1 POP DUP2 DUP2 SUB PUSH0 DUP4 ADD MSTORE PUSH2 0x20D4 DUP2 PUSH2 0x209B JUMP JUMPDEST SWAP1 POP SWAP2 SWAP1 POP JUMP JUMPDEST PUSH32 0x4E487B7100000000000000000000000000000000000000000000000000000000 PUSH0 MSTORE PUSH1 0x12 PUSH1 0x4 MSTORE PUSH1 0x24 PUSH0 REVERT JUMPDEST PUSH0 PUSH2 0x2112 DUP3 PUSH2 0x15F4 JUMP JUMPDEST SWAP2 POP PUSH2 0x211D DUP4 PUSH2 0x15F4 JUMP JUMPDEST SWAP3 POP DUP3 PUSH2 0x212D JUMPI PUSH2 0x212C PUSH2 0x20DB JUMP JUMPDEST JUMPDEST DUP3 DUP3 DIV SWAP1 POP SWAP3 SWAP2 POP POP JUMP JUMPDEST PUSH32 0x616C72656164792066696E616C697A6564000000000000000000000000000000 PUSH0 DUP3 ADD MSTORE POP JUMP JUMPDEST PUSH0 PUSH2 0x216C PUSH1 0x11 DUP4 PUSH2 0x1996 JUMP JUMPDEST SWAP2 POP PUSH2 0x2177 DUP3 PUSH2 0x2138 JUMP JUMPDEST PUSH1 0x20 DUP3 ADD SWAP1 POP SWAP2 SWAP1 POP JUMP JUMPDEST PUSH0 PUSH1 0x20 DUP3 ADD SWAP1 POP DUP2 DUP2 SUB PUSH0 DUP4 ADD MSTORE PUSH2 0x2199 DUP2 PUSH2 0x2160 JUMP JUMPDEST SWAP1 POP SWAP2 SWAP1 POP JUMP JUMPDEST PUSH32 0x6E6F207375626D697373696F6E73000000000000000000000000000000000000 PUSH0 DUP3 ADD MSTORE POP JUMP JUMPDEST PUSH0 PUSH2 0x21D4 PUSH1 0xE DUP4 PUSH2 0x1996 JUMP JUMPDEST SWAP2 POP PUSH2 0x21DF DUP3 PUSH2 0x21A0 JUMP JUMPDEST PUSH1 0x20 DUP3 ADD SWAP1 POP SWAP2 SWAP1 POP JUMP JUMPDEST PUSH0 PUSH1 0x20 DUP3 ADD SWAP1 POP DUP2 DUP2 SUB PUSH0 DUP4 ADD MSTORE PUSH2 0x2201 DUP2 PUSH2 0x21C8 JUMP JUMPDEST SWAP1 POP SWAP2 SWAP1 POP JUMP JUMPDEST PUSH32 0x73756D4E756D3D30000000000000000000000000000000000000000000000000 PUSH0 DUP3 ADD MSTORE POP JUMP JUMPDEST PUSH0 PUSH2 0x223C PUSH1 0x8 DUP4 PUSH2 0x1996 JUMP JUMPDEST SWAP2 POP PUSH2 0x2247 DUP3 PUSH2 0x2208 JUMP JUMPDEST PUSH1 0x20 DUP3 ADD SWAP1 POP SWAP2 SWAP1 POP JUMP JUMPDEST PUSH0 PUSH1 0x20 DUP3 ADD SWAP1 POP DUP2 DUP2 SUB PUSH0 DUP4 ADD MSTORE PUSH2 0x2269 DUP2 PUSH2 0x2230 JUMP JUMPDEST SWAP1 POP SWAP2 SWAP1 POP JUMP JUMPDEST PUSH32 0x6167677265676174696F6E20505643206D69736D617463680000000000000000 PUSH0 DUP3 ADD MSTORE POP JUMP JUMPDEST PUSH0 PUSH2 0x22A4 PUSH1 0x18 DUP4 PUSH2 0x1996 JUMP JUMPDEST SWAP2 POP PUSH2 0x22AF DUP3 PUSH2 0x2270 JUMP JUMPDEST PUSH1 0x20 DUP3 ADD SWAP1 POP SWAP2 SWAP1 POP JUMP JUMPDEST PUSH0 PUSH1 0x20 DUP3 ADD SWAP1 POP DUP2 DUP2 SUB PUSH0 DUP4 ADD MSTORE PUSH2 0x22D1 DUP2 PUSH2 0x2298 JUMP JUMPDEST SWAP1 POP SWAP2 SWAP1 POP JUMP JUMPDEST PUSH0 PUSH2 0x22E2 DUP3 PUSH2 0x15F4 JUMP JUMPDEST SWAP2 POP PUSH2 0x22ED DUP4 PUSH2 0x15F4 JUMP JUMPDEST SWAP3 POP DUP3 DUP3 MUL PUSH2 0x22FB DUP2 PUSH2 0x15F4 JUMP JUMPDEST SWAP2 POP DUP3 DUP3 DIV DUP5 EQ DUP4 ISZERO OR PUSH2 0x2312 JUMPI PUSH2 0x2311 PUSH2 0x1CA7 JUMP JUMPDEST JUMPDEST POP SWAP3 SWAP2 POP POP JUMP JUMPDEST PUSH0 PUSH2 0x2323 DUP3 PUSH2 0x15F4 JUMP JUMPDEST SWAP2 POP PUSH2 0x232E DUP4 PUSH2 0x15F4 JUMP JUMPDEST SWAP3 POP DUP3 DUP3 SUB SWAP1 POP DUP2 DUP2 GT ISZERO PUSH2 0x2346 JUMPI PUSH2 0x2345 PUSH2 0x1CA7 JUMP JUMPDEST JUMPDEST SWAP3 SWAP2 POP POP JUMP JUMPDEST PUSH0 PUSH1 0x40 DUP3 ADD SWAP1 POP PUSH2 0x235F PUSH0 DUP4 ADD DUP6 PUSH2 0x18C0 JUMP JUMPDEST PUSH2 0x236C PUSH1 0x20 DUP4 ADD DUP5 PUSH2 0x1868 JUMP JUMPDEST SWAP4 SWAP3 POP POP POP JUMP JUMPDEST PUSH2 0x237C DUP2 PUSH2 0x1AE3 JUMP JUMPDEST DUP2 EQ PUSH2 0x2386 JUMPI PUSH0 PUSH0 REVERT JUMPDEST POP JUMP JUMPDEST PUSH0 DUP2 MLOAD SWAP1 POP PUSH2 0x2397 DUP2 PUSH2 0x2373 JUMP JUMPDEST SWAP3 SWAP2 POP POP JUMP JUMPDEST PUSH0 PUSH1 0x20 DUP3 DUP5 SUB SLT ISZERO PUSH2 0x23B2 JUMPI PUSH2 0x23B1 PUSH2 0x15EC JUMP JUMPDEST JUMPDEST PUSH0 PUSH2 0x23BF DUP5 DUP3 DUP6 ADD PUSH2 0x2389 JUMP JUMPDEST SWAP2 POP POP SWAP3 SWAP2 POP POP JUMP JUMPDEST PUSH32 0x7472616E73666572206661696C65640000000000000000000000000000000000 PUSH0 DUP3 ADD MSTORE POP JUMP JUMPDEST PUSH0 PUSH2 0x23FC PUSH1 0xF DUP4 PUSH2 0x1996 JUMP JUMPDEST SWAP2 POP PUSH2 0x2407 DUP3 PUSH2 0x23C8 JUMP JUMPDEST PUSH1 0x20 DUP3 ADD SWAP1 POP SWAP2 SWAP1 POP JUMP JUMPDEST PUSH0 PUSH1 0x20 DUP3 ADD SWAP1 POP DUP2 DUP2 SUB PUSH0 DUP4 ADD MSTORE PUSH2 0x2429 DUP2 PUSH2 0x23F0 JUMP JUMPDEST SWAP1 POP SWAP2 SWAP1 POP JUMP JUMPDEST PUSH0 DUP2 SWAP1 POP SWAP3 SWAP2 POP POP JUMP JUMPDEST DUP3 DUP2 DUP4 CALLDATACOPY PUSH0 DUP4 DUP4 ADD MSTORE POP POP POP JUMP JUMPDEST PUSH0 PUSH2 0x2453 DUP4 DUP6 PUSH2 0x2430 JUMP JUMPDEST SWAP4 POP PUSH2 0x2460 DUP4 DUP6 DUP5 PUSH2 0x243A JUMP JUMPDEST DUP3 DUP5 ADD SWAP1 POP SWAP4 SWAP3 POP POP POP JUMP JUMPDEST PUSH0 PUSH1 0x3 SWAP1 POP SWAP2 SWAP1 POP JUMP JUMPDEST PUSH0 DUP2 SWAP1 POP SWAP3 SWAP2 POP POP JUMP JUMPDEST PUSH0 DUP2 SWAP1 POP SWAP2 SWAP1 POP JUMP JUMPDEST PUSH2 0x2492 DUP2 PUSH2 0x18EC JUMP JUMPDEST DUP3 MSTORE POP POP JUMP JUMPDEST PUSH0 PUSH2 0x24A3 DUP4 DUP4 PUSH2 0x2489 JUMP JUMPDEST PUSH1 0x20 DUP4 ADD SWAP1 POP SWAP3 SWAP2 POP POP JUMP JUMPDEST PUSH2 0x24B8 DUP2 PUSH2 0x18EC JUMP JUMPDEST DUP2 EQ PUSH2 0x24C2 JUMPI PUSH0 PUSH0 REVERT JUMPDEST POP JUMP JUMPDEST PUSH0 DUP2 CALLDATALOAD SWAP1 POP PUSH2 0x24D3 DUP2 PUSH2 0x24AF JUMP JUMPDEST SWAP3 SWAP2 POP POP JUMP JUMPDEST PUSH0 PUSH2 0x24E7 PUSH1 0x20 DUP5 ADD DUP5 PUSH2 0x24C5 JUMP JUMPDEST SWAP1 POP SWAP3 SWAP2 POP POP JUMP JUMPDEST PUSH0 PUSH1 0x20 DUP3 ADD SWAP1 POP SWAP2 SWAP1 POP JUMP JUMPDEST PUSH2 0x2504 DUP2 PUSH2 0x246C JUMP JUMPDEST PUSH2 0x250E DUP2 DUP5 PUSH2 0x2476 JUMP JUMPDEST SWAP3 POP PUSH2 0x2519 DUP3 PUSH2 0x2480 JUMP JUMPDEST DUP1 PUSH0 JUMPDEST DUP4 DUP2 LT ISZERO PUSH2 0x2551 JUMPI PUSH2 0x252E DUP3 DUP5 PUSH2 0x24D9 JUMP JUMPDEST PUSH2 0x2538 DUP8 DUP3 PUSH2 0x2498 JUMP JUMPDEST SWAP7 POP PUSH2 0x2543 DUP4 PUSH2 0x24EF JUMP JUMPDEST SWAP3 POP POP PUSH1 0x1 DUP2 ADD SWAP1 POP PUSH2 0x251C JUMP JUMPDEST POP POP POP POP POP POP JUMP JUMPDEST PUSH0 DUP2 SWAP1 POP SWAP2 SWAP1 POP JUMP JUMPDEST PUSH2 0x2573 PUSH2 0x256E DUP3 PUSH2 0x15F4 JUMP JUMPDEST PUSH2 0x2559 JUMP JUMPDEST DUP3 MSTORE POP POP JUMP JUMPDEST PUSH0 PUSH2 0x2585 DUP3 DUP8 DUP10 PUSH2 0x2448 JUMP JUMPDEST SWAP2 POP PUSH2 0x2591 DUP3 DUP7 PUSH2 0x24FB JUMP JUMPDEST PUSH1 0x60 DUP3 ADD SWAP2 POP PUSH2 0x25A1 DUP3 DUP6 PUSH2 0x2562 JUMP JUMPDEST PUSH1 0x20 DUP3 ADD SWAP2 POP PUSH2 0x25B1 DUP3 DUP5 PUSH2 0x2562 JUMP JUMPDEST PUSH1 0x20 DUP3 ADD SWAP2 POP DUP2 SWAP1 POP SWAP7 SWAP6 POP POP POP POP POP POP JUMP JUMPDEST PUSH0 DUP2 SWAP1 POP SWAP2 SWAP1 POP JUMP JUMPDEST PUSH2 0x25D6 DUP2 PUSH2 0x25C4 JUMP JUMPDEST DUP3 MSTORE POP POP JUMP JUMPDEST PUSH0 PUSH1 0x40 DUP3 ADD SWAP1 POP PUSH2 0x25EF PUSH0 DUP4 ADD DUP6 PUSH2 0x25CD JUMP JUMPDEST PUSH2 0x25FC PUSH1 0x20 DUP4 ADD DUP5 PUSH2 0x1868 JUMP JUMPDEST SWAP4 SWAP3 POP POP POP JUMP JUMPDEST PUSH0 PUSH2 0x260D DUP3 PUSH2 0x15F4 JUMP JUMPDEST SWAP2 POP PUSH2 0x2618 DUP4 PUSH2 0x15F4 JUMP JUMPDEST SWAP3 POP DUP3 PUSH2 0x2628 JUMPI PUSH2 0x2627 PUSH2 0x20DB JUMP JUMPDEST JUMPDEST DUP3 DUP3 MOD SWAP1 POP SWAP3 SWAP2 POP POP JUMP JUMPDEST PUSH0 PUSH2 0x263D DUP3 PUSH2 0x18EC JUMP JUMPDEST SWAP2 POP PUSH32 0x8000000000000000000000000000000000000000000000000000000000000000 DUP3 SUB PUSH2 0x266F JUMPI PUSH2 0x266E PUSH2 0x1CA7 JUMP JUMPDEST JUMPDEST DUP2 PUSH0 SUB SWAP1 POP SWAP2 SWAP1 POP JUMP JUMPDEST PUSH32 0x6F7574206F662072616E67650000000000000000000000000000000000000000 PUSH0 DUP3 ADD MSTORE POP JUMP JUMPDEST PUSH0 PUSH2 0x26AD PUSH1 0xC DUP4 PUSH2 0x1996 JUMP JUMPDEST SWAP2 POP PUSH2 0x26B8 DUP3 PUSH2 0x2679 JUMP JUMPDEST PUSH1 0x20 DUP3 ADD SWAP1 POP SWAP2 SWAP1 POP JUMP JUMPDEST PUSH0 PUSH1 0x20 DUP3 ADD SWAP1 POP DUP2 DUP2 SUB PUSH0 DUP4 ADD MSTORE PUSH2 0x26DA DUP2 PUSH2 0x26A1 JUMP JUMPDEST SWAP1 POP SWAP2 SWAP1 POP JUMP INVALID LOG2 PUSH5 0x6970667358 0x22 SLT KECCAK256 REVERT INVALID PUSH18 0x5E540E5B54AFC494B0022C885E2733A832E4 0x26 0xFC EXTCALL 0xA5 ADDRESS 0x2E BALANCE CALLF 0xB855 0xEA PUSH5 0x736F6C6343 STOP ADDMOD 0x1E STOP CALLER "
		},
		"gasEstimates": {
			"creation": {
				"codeDepositCost": "2001400",
				"executionCost": "infinite",
				"totalCost": "infinite"
			},
			"external": {
				"WEIGHT_BASE()": "391",
				"epsBps()": "infinite",
				"finalized()": "2555",
				"getSubmission(uint256)": "infinite",
				"getTop(uint256)": "infinite",
				"organizer()": "infinite",
				"poolAmount()": "infinite",
				"submissionCount()": "2469",
				"submissions(uint256)": "infinite",
				"submit(int256[3],uint256,uint32,string)": "infinite",
				"token()": "infinite",
				"totalSubmissions()": "2454",
				"verifyAggregationAndPayout(int256[3],uint256,string)": "infinite",
				"weightNumerator(uint32)": "687",
				"weightNumeratorFor(uint32)": "infinite"
			},
			"internal": {
				"commit3(int256[3] memory,uint256)": "infinite"
			}
		},
		"methodIdentifiers": {
			"WEIGHT_BASE()": "defe80ef",
			"epsBps()": "be7a078d",
			"finalized()": "b3f05b97",
			"getSubmission(uint256)": "3e8686cc",
			"getTop(uint256)": "37caa8b6",
			"organizer()": "61203265",
			"poolAmount()": "a693600b",
			"submissionCount()": "6ec02be9",
			"submissions(uint256)": "ad73349e",
			"submit(int256[3],uint256,uint32,string)": "3988146f",
			"token()": "fc0c546a",
			"totalSubmissions()": "a3954016",
			"verifyAggregationAndPayout(int256[3],uint256,string)": "ccdab78c",
			"weightNumerator(uint32)": "9a409c32",
			"weightNumeratorFor(uint32)": "93956b7b"
		}
	},
	"abi": [
		{
			"inputs": [
				{
					"internalType": "address",
					"name": "_token",
					"type": "address"
				},
				{
					"internalType": "uint256",
					"name": "_fundAmount",
					"type": "uint256"
				},
				{
					"internalType": "uint32",
					"name": "_epsBps",
					"type": "uint32"
				}
			],
			"stateMutability": "nonpayable",
			"type": "constructor"
		},
		{
			"anonymous": false,
			"inputs": [
				{
					"indexed": false,
					"internalType": "bytes32",
					"name": "proofHash",
					"type": "bytes32"
				},
				{
					"indexed": false,
					"internalType": "uint256",
					"name": "sumWeights",
					"type": "uint256"
				}
			],
			"name": "Aggregated",
			"type": "event"
		},
		{
			"anonymous": false,
			"inputs": [
				{
					"indexed": true,
					"internalType": "address",
					"name": "user",
					"type": "address"
				},
				{
					"indexed": false,
					"internalType": "uint256",
					"name": "amount",
					"type": "uint256"
				}
			],
			"name": "Paid",
			"type": "event"
		},
		{
			"anonymous": false,
			"inputs": [
				{
					"indexed": true,
					"internalType": "uint256",
					"name": "id",
					"type": "uint256"
				},
				{
					"indexed": true,
					"internalType": "address",
					"name": "user",
					"type": "address"
				},
				{
					"indexed": false,
					"internalType": "uint32",
					"name": "errorBps",
					"type": "uint32"
				},
				{
					"indexed": false,
					"internalType": "uint256",
					"name": "Cx",
					"type": "uint256"
				},
				{
					"indexed": false,
					"internalType": "uint256",
					"name": "Cy",
					"type": "uint256"
				}
			],
			"name": "Submitted",
			"type": "event"
		},
		{
			"inputs": [],
			"name": "WEIGHT_BASE",
			"outputs": [
				{
					"internalType": "uint256",
					"name": "",
					"type": "uint256"
				}
			],
			"stateMutability": "view",
			"type": "function"
		},
		{
			"inputs": [],
			"name": "epsBps",
			"outputs": [
				{
					"internalType": "uint32",
					"name": "",
					"type": "uint32"
				}
			],
			"stateMutability": "view",
			"type": "function"
		},
		{
			"inputs": [],
			"name": "finalized",
			"outputs": [
				{
					"internalType": "bool",
					"name": "",
					"type": "bool"
				}
			],
			"stateMutability": "view",
			"type": "function"
		},
		{
			"inputs": [
				{
					"internalType": "uint256",
					"name": "id",
					"type": "uint256"
				}
			],
			"name": "getSubmission",
			"outputs": [
				{
					"internalType": "address",
					"name": "submitter",
					"type": "address"
				},
				{
					"internalType": "int256[3]",
					"name": "w",
					"type": "int256[3]"
				},
				{
					"internalType": "uint256",
					"name": "r",
					"type": "uint256"
				},
				{
					"internalType": "uint32",
					"name": "errorBps",
					"type": "uint32"
				},
				{
					"internalType": "uint256",
					"name": "Cx",
					"type": "uint256"
				},
				{
					"internalType": "uint256",
					"name": "Cy",
					"type": "uint256"
				},
				{
					"internalType": "string",
					"name": "uri",
					"type": "string"
				}
			],
			"stateMutability": "view",
			"type": "function"
		},
		{
			"inputs": [
				{
					"internalType": "uint256",
					"name": "k",
					"type": "uint256"
				}
			],
			"name": "getTop",
			"outputs": [
				{
					"internalType": "uint256[]",
					"name": "ids",
					"type": "uint256[]"
				}
			],
			"stateMutability": "view",
			"type": "function"
		},
		{
			"inputs": [],
			"name": "organizer",
			"outputs": [
				{
					"internalType": "address",
					"name": "",
					"type": "address"
				}
			],
			"stateMutability": "view",
			"type": "function"
		},
		{
			"inputs": [],
			"name": "poolAmount",
			"outputs": [
				{
					"internalType": "uint256",
					"name": "",
					"type": "uint256"
				}
			],
			"stateMutability": "view",
			"type": "function"
		},
		{
			"inputs": [],
			"name": "submissionCount",
			"outputs": [
				{
					"internalType": "uint256",
					"name": "",
					"type": "uint256"
				}
			],
			"stateMutability": "view",
			"type": "function"
		},
		{
			"inputs": [
				{
					"internalType": "uint256",
					"name": "",
					"type": "uint256"
				}
			],
			"name": "submissions",
			"outputs": [
				{
					"internalType": "address",
					"name": "submitter",
					"type": "address"
				},
				{
					"internalType": "uint256",
					"name": "r",
					"type": "uint256"
				},
				{
					"internalType": "uint32",
					"name": "errorBps",
					"type": "uint32"
				},
				{
					"components": [
						{
							"internalType": "uint256",
							"name": "x",
							"type": "uint256"
						},
						{
							"internalType": "uint256",
							"name": "y",
							"type": "uint256"
						}
					],
					"internalType": "struct BN254.G1Point",
					"name": "C",
					"type": "tuple"
				},
				{
					"internalType": "string",
					"name": "uri",
					"type": "string"
				},
				{
					"internalType": "bool",
					"name": "exists",
					"type": "bool"
				}
			],
			"stateMutability": "view",
			"type": "function"
		},
		{
			"inputs": [
				{
					"internalType": "int256[3]",
					"name": "w",
					"type": "int256[3]"
				},
				{
					"internalType": "uint256",
					"name": "r",
					"type": "uint256"
				},
				{
					"internalType": "uint32",
					"name": "errorBps",
					"type": "uint32"
				},
				{
					"internalType": "string",
					"name": "uri",
					"type": "string"
				}
			],
			"name": "submit",
			"outputs": [
				{
					"internalType": "uint256",
					"name": "id",
					"type": "uint256"
				}
			],
			"stateMutability": "nonpayable",
			"type": "function"
		},
		{
			"inputs": [],
			"name": "token",
			"outputs": [
				{
					"internalType": "contract IERC20",
					"name": "",
					"type": "address"
				}
			],
			"stateMutability": "view",
			"type": "function"
		},
		{
			"inputs": [],
			"name": "totalSubmissions",
			"outputs": [
				{
					"internalType": "uint256",
					"name": "",
					"type": "uint256"
				}
			],
			"stateMutability": "view",
			"type": "function"
		},
		{
			"inputs": [
				{
					"internalType": "int256[3]",
					"name": "Wsum",
					"type": "int256[3]"
				},
				{
					"internalType": "uint256",
					"name": "Rsum",
					"type": "uint256"
				},
				{
					"internalType": "string",
					"name": "aggregatedModelUri",
					"type": "string"
				}
			],
			"name": "verifyAggregationAndPayout",
			"outputs": [],
			"stateMutability": "nonpayable",
			"type": "function"
		},
		{
			"inputs": [
				{
					"internalType": "uint32",
					"name": "errorBps",
					"type": "uint32"
				}
			],
			"name": "weightNumerator",
			"outputs": [
				{
					"internalType": "uint256",
					"name": "",
					"type": "uint256"
				}
			],
			"stateMutability": "pure",
			"type": "function"
		},
		{
			"inputs": [
				{
					"internalType": "uint32",
					"name": "errorBps_",
					"type": "uint32"
				}
			],
			"name": "weightNumeratorFor",
			"outputs": [
				{
					"internalType": "uint256",
					"name": "",
					"type": "uint256"
				}
			],
			"stateMutability": "view",
			"type": "function"
		}
	]
}